{
	"schemaVersion": "2.0.0",
	"contractName": "Exchange",
	"compilerOutput": {
		"abi": [
			{
				"inputs": [
					{
						"internalType": "uint256",
						"name": "chainId",
						"type": "uint256"
					}
				],
				"payable": false,
				"stateMutability": "nonpayable",
				"type": "constructor"
			},
			{
				"anonymous": false,
				"inputs": [
					{
						"indexed": false,
						"internalType": "bytes4",
						"name": "id",
						"type": "bytes4"
					},
					{
						"indexed": false,
						"internalType": "address",
						"name": "assetProxy",
						"type": "address"
					}
				],
				"name": "AssetProxyRegistered",
				"type": "event"
			},
			{
				"anonymous": false,
				"inputs": [
					{
						"indexed": true,
						"internalType": "address",
						"name": "makerAddress",
						"type": "address"
					},
					{
						"indexed": true,
						"internalType": "address",
						"name": "feeRecipientAddress",
						"type": "address"
					},
					{
						"indexed": false,
						"internalType": "bytes",
						"name": "makerAssetData",
						"type": "bytes"
					},
					{
						"indexed": false,
						"internalType": "bytes",
						"name": "takerAssetData",
						"type": "bytes"
					},
					{
						"indexed": false,
						"internalType": "address",
						"name": "senderAddress",
						"type": "address"
					},
					{
						"indexed": true,
						"internalType": "bytes32",
						"name": "orderHash",
						"type": "bytes32"
					}
				],
				"name": "Cancel",
				"type": "event"
			},
			{
				"anonymous": false,
				"inputs": [
					{
						"indexed": true,
						"internalType": "address",
						"name": "makerAddress",
						"type": "address"
					},
					{
						"indexed": true,
						"internalType": "address",
						"name": "orderSenderAddress",
						"type": "address"
					},
					{
						"indexed": false,
						"internalType": "uint256",
						"name": "orderEpoch",
						"type": "uint256"
					}
				],
				"name": "CancelUpTo",
				"type": "event"
			},
			{
				"anonymous": false,
				"inputs": [
					{
						"indexed": true,
						"internalType": "address",
						"name": "makerAddress",
						"type": "address"
					},
					{
						"indexed": true,
						"internalType": "address",
						"name": "feeRecipientAddress",
						"type": "address"
					},
					{
						"indexed": false,
						"internalType": "bytes",
						"name": "makerAssetData",
						"type": "bytes"
					},
					{
						"indexed": false,
						"internalType": "bytes",
						"name": "takerAssetData",
						"type": "bytes"
					},
					{
						"indexed": false,
						"internalType": "bytes",
						"name": "makerFeeAssetData",
						"type": "bytes"
					},
					{
						"indexed": false,
						"internalType": "bytes",
						"name": "takerFeeAssetData",
						"type": "bytes"
					},
					{
						"indexed": true,
						"internalType": "bytes32",
						"name": "orderHash",
						"type": "bytes32"
					},
					{
						"indexed": false,
						"internalType": "address",
						"name": "takerAddress",
						"type": "address"
					},
					{
						"indexed": false,
						"internalType": "address",
						"name": "senderAddress",
						"type": "address"
					},
					{
						"indexed": false,
						"internalType": "uint256",
						"name": "makerAssetFilledAmount",
						"type": "uint256"
					},
					{
						"indexed": false,
						"internalType": "uint256",
						"name": "takerAssetFilledAmount",
						"type": "uint256"
					},
					{
						"indexed": false,
						"internalType": "uint256",
						"name": "makerFeePaid",
						"type": "uint256"
					},
					{
						"indexed": false,
						"internalType": "uint256",
						"name": "takerFeePaid",
						"type": "uint256"
					},
					{
						"indexed": false,
						"internalType": "uint256",
						"name": "protocolFeePaid",
						"type": "uint256"
					}
				],
				"name": "Fill",
				"type": "event"
			},
			{
				"anonymous": false,
				"inputs": [
					{
						"indexed": true,
						"internalType": "address",
						"name": "previousOwner",
						"type": "address"
					},
					{
						"indexed": true,
						"internalType": "address",
						"name": "newOwner",
						"type": "address"
					}
				],
				"name": "OwnershipTransferred",
				"type": "event"
			},
			{
				"anonymous": false,
				"inputs": [
					{
						"indexed": false,
						"internalType": "address",
						"name": "oldProtocolFeeCollector",
						"type": "address"
					},
					{
						"indexed": false,
						"internalType": "address",
						"name": "updatedProtocolFeeCollector",
						"type": "address"
					}
				],
				"name": "ProtocolFeeCollectorAddress",
				"type": "event"
			},
			{
				"anonymous": false,
				"inputs": [
					{
						"indexed": false,
						"internalType": "uint256",
						"name": "oldProtocolFeeMultiplier",
						"type": "uint256"
					},
					{
						"indexed": false,
						"internalType": "uint256",
						"name": "updatedProtocolFeeMultiplier",
						"type": "uint256"
					}
				],
				"name": "ProtocolFeeMultiplier",
				"type": "event"
			},
			{
				"anonymous": false,
				"inputs": [
					{
						"indexed": true,
						"internalType": "address",
						"name": "signerAddress",
						"type": "address"
					},
					{
						"indexed": true,
						"internalType": "address",
						"name": "validatorAddress",
						"type": "address"
					},
					{
						"indexed": false,
						"internalType": "bool",
						"name": "isApproved",
						"type": "bool"
					}
				],
				"name": "SignatureValidatorApproval",
				"type": "event"
			},
			{
				"anonymous": false,
				"inputs": [
					{
						"indexed": true,
						"internalType": "bytes32",
						"name": "transactionHash",
						"type": "bytes32"
					}
				],
				"name": "TransactionExecution",
				"type": "event"
			},
			{
				"constant": true,
				"inputs": [],
				"name": "EIP1271_MAGIC_VALUE",
				"outputs": [
					{
						"internalType": "bytes4",
						"name": "",
						"type": "bytes4"
					}
				],
				"payable": false,
				"stateMutability": "view",
				"type": "function"
			},
			{
				"constant": true,
				"inputs": [],
				"name": "EIP712_EXCHANGE_DOMAIN_HASH",
				"outputs": [
					{
						"internalType": "bytes32",
						"name": "",
						"type": "bytes32"
					}
				],
				"payable": false,
				"stateMutability": "view",
				"type": "function"
			},
			{
				"constant": true,
				"inputs": [
					{
						"internalType": "address",
						"name": "",
						"type": "address"
					},
					{
						"internalType": "address",
						"name": "",
						"type": "address"
					}
				],
				"name": "allowedValidators",
				"outputs": [
					{
						"internalType": "bool",
						"name": "",
						"type": "bool"
					}
				],
				"payable": false,
				"stateMutability": "view",
				"type": "function"
			},
			{
				"constant": false,
				"inputs": [
					{
						"components": [
							{
								"internalType": "address",
								"name": "makerAddress",
								"type": "address"
							},
							{
								"internalType": "address",
								"name": "takerAddress",
								"type": "address"
							},
							{
								"internalType": "address",
								"name": "feeRecipientAddress",
								"type": "address"
							},
							{
								"internalType": "address",
								"name": "senderAddress",
								"type": "address"
							},
							{
								"internalType": "uint256",
								"name": "makerAssetAmount",
								"type": "uint256"
							},
							{
								"internalType": "uint256",
								"name": "takerAssetAmount",
								"type": "uint256"
							},
							{
								"internalType": "uint256",
								"name": "makerFee",
								"type": "uint256"
							},
							{
								"internalType": "uint256",
								"name": "takerFee",
								"type": "uint256"
							},
							{
								"internalType": "uint256",
								"name": "expirationTimeSeconds",
								"type": "uint256"
							},
							{
								"internalType": "uint256",
								"name": "salt",
								"type": "uint256"
							},
							{
								"internalType": "bytes",
								"name": "makerAssetData",
								"type": "bytes"
							},
							{
								"internalType": "bytes",
								"name": "takerAssetData",
								"type": "bytes"
							},
							{
								"internalType": "bytes",
								"name": "makerFeeAssetData",
								"type": "bytes"
							},
							{
								"internalType": "bytes",
								"name": "takerFeeAssetData",
								"type": "bytes"
							}
						],
						"internalType": "struct LibOrder.Order[]",
						"name": "orders",
						"type": "tuple[]"
					}
				],
				"name": "batchCancelOrders",
				"outputs": [],
				"payable": true,
				"stateMutability": "payable",
				"type": "function"
			},
			{
				"constant": false,
				"inputs": [
					{
						"components": [
							{
								"internalType": "uint256",
								"name": "salt",
								"type": "uint256"
							},
							{
								"internalType": "uint256",
								"name": "expirationTimeSeconds",
								"type": "uint256"
							},
							{
								"internalType": "uint256",
								"name": "gasPrice",
								"type": "uint256"
							},
							{
								"internalType": "address",
								"name": "signerAddress",
								"type": "address"
							},
							{
								"internalType": "bytes",
								"name": "data",
								"type": "bytes"
							}
						],
						"internalType": "struct LibZeroExTransaction.ZeroExTransaction[]",
						"name": "transactions",
						"type": "tuple[]"
					},
					{
						"internalType": "bytes[]",
						"name": "signatures",
						"type": "bytes[]"
					}
				],
				"name": "batchExecuteTransactions",
				"outputs": [
					{
						"internalType": "bytes[]",
						"name": "returnData",
						"type": "bytes[]"
					}
				],
				"payable": true,
				"stateMutability": "payable",
				"type": "function"
			},
			{
				"constant": false,
				"inputs": [
					{
						"components": [
							{
								"internalType": "address",
								"name": "makerAddress",
								"type": "address"
							},
							{
								"internalType": "address",
								"name": "takerAddress",
								"type": "address"
							},
							{
								"internalType": "address",
								"name": "feeRecipientAddress",
								"type": "address"
							},
							{
								"internalType": "address",
								"name": "senderAddress",
								"type": "address"
							},
							{
								"internalType": "uint256",
								"name": "makerAssetAmount",
								"type": "uint256"
							},
							{
								"internalType": "uint256",
								"name": "takerAssetAmount",
								"type": "uint256"
							},
							{
								"internalType": "uint256",
								"name": "makerFee",
								"type": "uint256"
							},
							{
								"internalType": "uint256",
								"name": "takerFee",
								"type": "uint256"
							},
							{
								"internalType": "uint256",
								"name": "expirationTimeSeconds",
								"type": "uint256"
							},
							{
								"internalType": "uint256",
								"name": "salt",
								"type": "uint256"
							},
							{
								"internalType": "bytes",
								"name": "makerAssetData",
								"type": "bytes"
							},
							{
								"internalType": "bytes",
								"name": "takerAssetData",
								"type": "bytes"
							},
							{
								"internalType": "bytes",
								"name": "makerFeeAssetData",
								"type": "bytes"
							},
							{
								"internalType": "bytes",
								"name": "takerFeeAssetData",
								"type": "bytes"
							}
						],
						"internalType": "struct LibOrder.Order[]",
						"name": "orders",
						"type": "tuple[]"
					},
					{
						"internalType": "uint256[]",
						"name": "takerAssetFillAmounts",
						"type": "uint256[]"
					},
					{
						"internalType": "bytes[]",
						"name": "signatures",
						"type": "bytes[]"
					}
				],
				"name": "batchFillOrKillOrders",
				"outputs": [
					{
						"components": [
							{
								"internalType": "uint256",
								"name": "makerAssetFilledAmount",
								"type": "uint256"
							},
							{
								"internalType": "uint256",
								"name": "takerAssetFilledAmount",
								"type": "uint256"
							},
							{
								"internalType": "uint256",
								"name": "makerFeePaid",
								"type": "uint256"
							},
							{
								"internalType": "uint256",
								"name": "takerFeePaid",
								"type": "uint256"
							},
							{
								"internalType": "uint256",
								"name": "protocolFeePaid",
								"type": "uint256"
							}
						],
						"internalType": "struct LibFillResults.FillResults[]",
						"name": "fillResults",
						"type": "tuple[]"
					}
				],
				"payable": true,
				"stateMutability": "payable",
				"type": "function"
			},
			{
				"constant": false,
				"inputs": [
					{
						"components": [
							{
								"internalType": "address",
								"name": "makerAddress",
								"type": "address"
							},
							{
								"internalType": "address",
								"name": "takerAddress",
								"type": "address"
							},
							{
								"internalType": "address",
								"name": "feeRecipientAddress",
								"type": "address"
							},
							{
								"internalType": "address",
								"name": "senderAddress",
								"type": "address"
							},
							{
								"internalType": "uint256",
								"name": "makerAssetAmount",
								"type": "uint256"
							},
							{
								"internalType": "uint256",
								"name": "takerAssetAmount",
								"type": "uint256"
							},
							{
								"internalType": "uint256",
								"name": "makerFee",
								"type": "uint256"
							},
							{
								"internalType": "uint256",
								"name": "takerFee",
								"type": "uint256"
							},
							{
								"internalType": "uint256",
								"name": "expirationTimeSeconds",
								"type": "uint256"
							},
							{
								"internalType": "uint256",
								"name": "salt",
								"type": "uint256"
							},
							{
								"internalType": "bytes",
								"name": "makerAssetData",
								"type": "bytes"
							},
							{
								"internalType": "bytes",
								"name": "takerAssetData",
								"type": "bytes"
							},
							{
								"internalType": "bytes",
								"name": "makerFeeAssetData",
								"type": "bytes"
							},
							{
								"internalType": "bytes",
								"name": "takerFeeAssetData",
								"type": "bytes"
							}
						],
						"internalType": "struct LibOrder.Order[]",
						"name": "orders",
						"type": "tuple[]"
					},
					{
						"internalType": "uint256[]",
						"name": "takerAssetFillAmounts",
						"type": "uint256[]"
					},
					{
						"internalType": "bytes[]",
						"name": "signatures",
						"type": "bytes[]"
					}
				],
				"name": "batchFillOrders",
				"outputs": [
					{
						"components": [
							{
								"internalType": "uint256",
								"name": "makerAssetFilledAmount",
								"type": "uint256"
							},
							{
								"internalType": "uint256",
								"name": "takerAssetFilledAmount",
								"type": "uint256"
							},
							{
								"internalType": "uint256",
								"name": "makerFeePaid",
								"type": "uint256"
							},
							{
								"internalType": "uint256",
								"name": "takerFeePaid",
								"type": "uint256"
							},
							{
								"internalType": "uint256",
								"name": "protocolFeePaid",
								"type": "uint256"
							}
						],
						"internalType": "struct LibFillResults.FillResults[]",
						"name": "fillResults",
						"type": "tuple[]"
					}
				],
				"payable": true,
				"stateMutability": "payable",
				"type": "function"
			},
			{
				"constant": false,
				"inputs": [
					{
						"components": [
							{
								"internalType": "address",
								"name": "makerAddress",
								"type": "address"
							},
							{
								"internalType": "address",
								"name": "takerAddress",
								"type": "address"
							},
							{
								"internalType": "address",
								"name": "feeRecipientAddress",
								"type": "address"
							},
							{
								"internalType": "address",
								"name": "senderAddress",
								"type": "address"
							},
							{
								"internalType": "uint256",
								"name": "makerAssetAmount",
								"type": "uint256"
							},
							{
								"internalType": "uint256",
								"name": "takerAssetAmount",
								"type": "uint256"
							},
							{
								"internalType": "uint256",
								"name": "makerFee",
								"type": "uint256"
							},
							{
								"internalType": "uint256",
								"name": "takerFee",
								"type": "uint256"
							},
							{
								"internalType": "uint256",
								"name": "expirationTimeSeconds",
								"type": "uint256"
							},
							{
								"internalType": "uint256",
								"name": "salt",
								"type": "uint256"
							},
							{
								"internalType": "bytes",
								"name": "makerAssetData",
								"type": "bytes"
							},
							{
								"internalType": "bytes",
								"name": "takerAssetData",
								"type": "bytes"
							},
							{
								"internalType": "bytes",
								"name": "makerFeeAssetData",
								"type": "bytes"
							},
							{
								"internalType": "bytes",
								"name": "takerFeeAssetData",
								"type": "bytes"
							}
						],
						"internalType": "struct LibOrder.Order[]",
						"name": "orders",
						"type": "tuple[]"
					},
					{
						"internalType": "uint256[]",
						"name": "takerAssetFillAmounts",
						"type": "uint256[]"
					},
					{
						"internalType": "bytes[]",
						"name": "signatures",
						"type": "bytes[]"
					}
				],
				"name": "batchFillOrdersNoThrow",
				"outputs": [
					{
						"components": [
							{
								"internalType": "uint256",
								"name": "makerAssetFilledAmount",
								"type": "uint256"
							},
							{
								"internalType": "uint256",
								"name": "takerAssetFilledAmount",
								"type": "uint256"
							},
							{
								"internalType": "uint256",
								"name": "makerFeePaid",
								"type": "uint256"
							},
							{
								"internalType": "uint256",
								"name": "takerFeePaid",
								"type": "uint256"
							},
							{
								"internalType": "uint256",
								"name": "protocolFeePaid",
								"type": "uint256"
							}
						],
						"internalType": "struct LibFillResults.FillResults[]",
						"name": "fillResults",
						"type": "tuple[]"
					}
				],
				"payable": true,
				"stateMutability": "payable",
				"type": "function"
			},
			{
				"constant": false,
				"inputs": [
					{
						"components": [
							{
								"internalType": "address",
								"name": "makerAddress",
								"type": "address"
							},
							{
								"internalType": "address",
								"name": "takerAddress",
								"type": "address"
							},
							{
								"internalType": "address",
								"name": "feeRecipientAddress",
								"type": "address"
							},
							{
								"internalType": "address",
								"name": "senderAddress",
								"type": "address"
							},
							{
								"internalType": "uint256",
								"name": "makerAssetAmount",
								"type": "uint256"
							},
							{
								"internalType": "uint256",
								"name": "takerAssetAmount",
								"type": "uint256"
							},
							{
								"internalType": "uint256",
								"name": "makerFee",
								"type": "uint256"
							},
							{
								"internalType": "uint256",
								"name": "takerFee",
								"type": "uint256"
							},
							{
								"internalType": "uint256",
								"name": "expirationTimeSeconds",
								"type": "uint256"
							},
							{
								"internalType": "uint256",
								"name": "salt",
								"type": "uint256"
							},
							{
								"internalType": "bytes",
								"name": "makerAssetData",
								"type": "bytes"
							},
							{
								"internalType": "bytes",
								"name": "takerAssetData",
								"type": "bytes"
							},
							{
								"internalType": "bytes",
								"name": "makerFeeAssetData",
								"type": "bytes"
							},
							{
								"internalType": "bytes",
								"name": "takerFeeAssetData",
								"type": "bytes"
							}
						],
						"internalType": "struct LibOrder.Order[]",
						"name": "leftOrders",
						"type": "tuple[]"
					},
					{
						"components": [
							{
								"internalType": "address",
								"name": "makerAddress",
								"type": "address"
							},
							{
								"internalType": "address",
								"name": "takerAddress",
								"type": "address"
							},
							{
								"internalType": "address",
								"name": "feeRecipientAddress",
								"type": "address"
							},
							{
								"internalType": "address",
								"name": "senderAddress",
								"type": "address"
							},
							{
								"internalType": "uint256",
								"name": "makerAssetAmount",
								"type": "uint256"
							},
							{
								"internalType": "uint256",
								"name": "takerAssetAmount",
								"type": "uint256"
							},
							{
								"internalType": "uint256",
								"name": "makerFee",
								"type": "uint256"
							},
							{
								"internalType": "uint256",
								"name": "takerFee",
								"type": "uint256"
							},
							{
								"internalType": "uint256",
								"name": "expirationTimeSeconds",
								"type": "uint256"
							},
							{
								"internalType": "uint256",
								"name": "salt",
								"type": "uint256"
							},
							{
								"internalType": "bytes",
								"name": "makerAssetData",
								"type": "bytes"
							},
							{
								"internalType": "bytes",
								"name": "takerAssetData",
								"type": "bytes"
							},
							{
								"internalType": "bytes",
								"name": "makerFeeAssetData",
								"type": "bytes"
							},
							{
								"internalType": "bytes",
								"name": "takerFeeAssetData",
								"type": "bytes"
							}
						],
						"internalType": "struct LibOrder.Order[]",
						"name": "rightOrders",
						"type": "tuple[]"
					},
					{
						"internalType": "bytes[]",
						"name": "leftSignatures",
						"type": "bytes[]"
					},
					{
						"internalType": "bytes[]",
						"name": "rightSignatures",
						"type": "bytes[]"
					}
				],
				"name": "batchMatchOrders",
				"outputs": [
					{
						"components": [
							{
								"components": [
									{
										"internalType": "uint256",
										"name": "makerAssetFilledAmount",
										"type": "uint256"
									},
									{
										"internalType": "uint256",
										"name": "takerAssetFilledAmount",
										"type": "uint256"
									},
									{
										"internalType": "uint256",
										"name": "makerFeePaid",
										"type": "uint256"
									},
									{
										"internalType": "uint256",
										"name": "takerFeePaid",
										"type": "uint256"
									},
									{
										"internalType": "uint256",
										"name": "protocolFeePaid",
										"type": "uint256"
									}
								],
								"internalType": "struct LibFillResults.FillResults[]",
								"name": "left",
								"type": "tuple[]"
							},
							{
								"components": [
									{
										"internalType": "uint256",
										"name": "makerAssetFilledAmount",
										"type": "uint256"
									},
									{
										"internalType": "uint256",
										"name": "takerAssetFilledAmount",
										"type": "uint256"
									},
									{
										"internalType": "uint256",
										"name": "makerFeePaid",
										"type": "uint256"
									},
									{
										"internalType": "uint256",
										"name": "takerFeePaid",
										"type": "uint256"
									},
									{
										"internalType": "uint256",
										"name": "protocolFeePaid",
										"type": "uint256"
									}
								],
								"internalType": "struct LibFillResults.FillResults[]",
								"name": "right",
								"type": "tuple[]"
							},
							{
								"internalType": "uint256",
								"name": "profitInLeftMakerAsset",
								"type": "uint256"
							},
							{
								"internalType": "uint256",
								"name": "profitInRightMakerAsset",
								"type": "uint256"
							}
						],
						"internalType": "struct LibFillResults.BatchMatchedFillResults",
						"name": "batchMatchedFillResults",
						"type": "tuple"
					}
				],
				"payable": true,
				"stateMutability": "payable",
				"type": "function"
			},
			{
				"constant": false,
				"inputs": [
					{
						"components": [
							{
								"internalType": "address",
								"name": "makerAddress",
								"type": "address"
							},
							{
								"internalType": "address",
								"name": "takerAddress",
								"type": "address"
							},
							{
								"internalType": "address",
								"name": "feeRecipientAddress",
								"type": "address"
							},
							{
								"internalType": "address",
								"name": "senderAddress",
								"type": "address"
							},
							{
								"internalType": "uint256",
								"name": "makerAssetAmount",
								"type": "uint256"
							},
							{
								"internalType": "uint256",
								"name": "takerAssetAmount",
								"type": "uint256"
							},
							{
								"internalType": "uint256",
								"name": "makerFee",
								"type": "uint256"
							},
							{
								"internalType": "uint256",
								"name": "takerFee",
								"type": "uint256"
							},
							{
								"internalType": "uint256",
								"name": "expirationTimeSeconds",
								"type": "uint256"
							},
							{
								"internalType": "uint256",
								"name": "salt",
								"type": "uint256"
							},
							{
								"internalType": "bytes",
								"name": "makerAssetData",
								"type": "bytes"
							},
							{
								"internalType": "bytes",
								"name": "takerAssetData",
								"type": "bytes"
							},
							{
								"internalType": "bytes",
								"name": "makerFeeAssetData",
								"type": "bytes"
							},
							{
								"internalType": "bytes",
								"name": "takerFeeAssetData",
								"type": "bytes"
							}
						],
						"internalType": "struct LibOrder.Order[]",
						"name": "leftOrders",
						"type": "tuple[]"
					},
					{
						"components": [
							{
								"internalType": "address",
								"name": "makerAddress",
								"type": "address"
							},
							{
								"internalType": "address",
								"name": "takerAddress",
								"type": "address"
							},
							{
								"internalType": "address",
								"name": "feeRecipientAddress",
								"type": "address"
							},
							{
								"internalType": "address",
								"name": "senderAddress",
								"type": "address"
							},
							{
								"internalType": "uint256",
								"name": "makerAssetAmount",
								"type": "uint256"
							},
							{
								"internalType": "uint256",
								"name": "takerAssetAmount",
								"type": "uint256"
							},
							{
								"internalType": "uint256",
								"name": "makerFee",
								"type": "uint256"
							},
							{
								"internalType": "uint256",
								"name": "takerFee",
								"type": "uint256"
							},
							{
								"internalType": "uint256",
								"name": "expirationTimeSeconds",
								"type": "uint256"
							},
							{
								"internalType": "uint256",
								"name": "salt",
								"type": "uint256"
							},
							{
								"internalType": "bytes",
								"name": "makerAssetData",
								"type": "bytes"
							},
							{
								"internalType": "bytes",
								"name": "takerAssetData",
								"type": "bytes"
							},
							{
								"internalType": "bytes",
								"name": "makerFeeAssetData",
								"type": "bytes"
							},
							{
								"internalType": "bytes",
								"name": "takerFeeAssetData",
								"type": "bytes"
							}
						],
						"internalType": "struct LibOrder.Order[]",
						"name": "rightOrders",
						"type": "tuple[]"
					},
					{
						"internalType": "bytes[]",
						"name": "leftSignatures",
						"type": "bytes[]"
					},
					{
						"internalType": "bytes[]",
						"name": "rightSignatures",
						"type": "bytes[]"
					}
				],
				"name": "batchMatchOrdersWithMaximalFill",
				"outputs": [
					{
						"components": [
							{
								"components": [
									{
										"internalType": "uint256",
										"name": "makerAssetFilledAmount",
										"type": "uint256"
									},
									{
										"internalType": "uint256",
										"name": "takerAssetFilledAmount",
										"type": "uint256"
									},
									{
										"internalType": "uint256",
										"name": "makerFeePaid",
										"type": "uint256"
									},
									{
										"internalType": "uint256",
										"name": "takerFeePaid",
										"type": "uint256"
									},
									{
										"internalType": "uint256",
										"name": "protocolFeePaid",
										"type": "uint256"
									}
								],
								"internalType": "struct LibFillResults.FillResults[]",
								"name": "left",
								"type": "tuple[]"
							},
							{
								"components": [
									{
										"internalType": "uint256",
										"name": "makerAssetFilledAmount",
										"type": "uint256"
									},
									{
										"internalType": "uint256",
										"name": "takerAssetFilledAmount",
										"type": "uint256"
									},
									{
										"internalType": "uint256",
										"name": "makerFeePaid",
										"type": "uint256"
									},
									{
										"internalType": "uint256",
										"name": "takerFeePaid",
										"type": "uint256"
									},
									{
										"internalType": "uint256",
										"name": "protocolFeePaid",
										"type": "uint256"
									}
								],
								"internalType": "struct LibFillResults.FillResults[]",
								"name": "right",
								"type": "tuple[]"
							},
							{
								"internalType": "uint256",
								"name": "profitInLeftMakerAsset",
								"type": "uint256"
							},
							{
								"internalType": "uint256",
								"name": "profitInRightMakerAsset",
								"type": "uint256"
							}
						],
						"internalType": "struct LibFillResults.BatchMatchedFillResults",
						"name": "batchMatchedFillResults",
						"type": "tuple"
					}
				],
				"payable": true,
				"stateMutability": "payable",
				"type": "function"
			},
			{
				"constant": false,
				"inputs": [
					{
						"components": [
							{
								"internalType": "address",
								"name": "makerAddress",
								"type": "address"
							},
							{
								"internalType": "address",
								"name": "takerAddress",
								"type": "address"
							},
							{
								"internalType": "address",
								"name": "feeRecipientAddress",
								"type": "address"
							},
							{
								"internalType": "address",
								"name": "senderAddress",
								"type": "address"
							},
							{
								"internalType": "uint256",
								"name": "makerAssetAmount",
								"type": "uint256"
							},
							{
								"internalType": "uint256",
								"name": "takerAssetAmount",
								"type": "uint256"
							},
							{
								"internalType": "uint256",
								"name": "makerFee",
								"type": "uint256"
							},
							{
								"internalType": "uint256",
								"name": "takerFee",
								"type": "uint256"
							},
							{
								"internalType": "uint256",
								"name": "expirationTimeSeconds",
								"type": "uint256"
							},
							{
								"internalType": "uint256",
								"name": "salt",
								"type": "uint256"
							},
							{
								"internalType": "bytes",
								"name": "makerAssetData",
								"type": "bytes"
							},
							{
								"internalType": "bytes",
								"name": "takerAssetData",
								"type": "bytes"
							},
							{
								"internalType": "bytes",
								"name": "makerFeeAssetData",
								"type": "bytes"
							},
							{
								"internalType": "bytes",
								"name": "takerFeeAssetData",
								"type": "bytes"
							}
						],
						"internalType": "struct LibOrder.Order",
						"name": "order",
						"type": "tuple"
					}
				],
				"name": "cancelOrder",
				"outputs": [],
				"payable": true,
				"stateMutability": "payable",
				"type": "function"
			},
			{
				"constant": false,
				"inputs": [
					{
						"internalType": "uint256",
						"name": "targetOrderEpoch",
						"type": "uint256"
					}
				],
				"name": "cancelOrdersUpTo",
				"outputs": [],
				"payable": true,
				"stateMutability": "payable",
				"type": "function"
			},
			{
				"constant": true,
				"inputs": [
					{
						"internalType": "bytes32",
						"name": "",
						"type": "bytes32"
					}
				],
				"name": "cancelled",
				"outputs": [
					{
						"internalType": "bool",
						"name": "",
						"type": "bool"
					}
				],
				"payable": false,
				"stateMutability": "view",
				"type": "function"
			},
			{
				"constant": true,
				"inputs": [],
				"name": "currentContextAddress",
				"outputs": [
					{
						"internalType": "address",
						"name": "",
						"type": "address"
					}
				],
				"payable": false,
				"stateMutability": "view",
				"type": "function"
			},
			{
				"constant": false,
				"inputs": [],
				"name": "detachProtocolFeeCollector",
				"outputs": [],
				"payable": false,
				"stateMutability": "nonpayable",
				"type": "function"
			},
			{
				"constant": false,
				"inputs": [
					{
						"components": [
							{
								"internalType": "uint256",
								"name": "salt",
								"type": "uint256"
							},
							{
								"internalType": "uint256",
								"name": "expirationTimeSeconds",
								"type": "uint256"
							},
							{
								"internalType": "uint256",
								"name": "gasPrice",
								"type": "uint256"
							},
							{
								"internalType": "address",
								"name": "signerAddress",
								"type": "address"
							},
							{
								"internalType": "bytes",
								"name": "data",
								"type": "bytes"
							}
						],
						"internalType": "struct LibZeroExTransaction.ZeroExTransaction",
						"name": "transaction",
						"type": "tuple"
					},
					{
						"internalType": "bytes",
						"name": "signature",
						"type": "bytes"
					}
				],
				"name": "executeTransaction",
				"outputs": [
					{
						"internalType": "bytes",
						"name": "",
						"type": "bytes"
					}
				],
				"payable": true,
				"stateMutability": "payable",
				"type": "function"
			},
			{
				"constant": false,
				"inputs": [
					{
						"components": [
							{
								"internalType": "address",
								"name": "makerAddress",
								"type": "address"
							},
							{
								"internalType": "address",
								"name": "takerAddress",
								"type": "address"
							},
							{
								"internalType": "address",
								"name": "feeRecipientAddress",
								"type": "address"
							},
							{
								"internalType": "address",
								"name": "senderAddress",
								"type": "address"
							},
							{
								"internalType": "uint256",
								"name": "makerAssetAmount",
								"type": "uint256"
							},
							{
								"internalType": "uint256",
								"name": "takerAssetAmount",
								"type": "uint256"
							},
							{
								"internalType": "uint256",
								"name": "makerFee",
								"type": "uint256"
							},
							{
								"internalType": "uint256",
								"name": "takerFee",
								"type": "uint256"
							},
							{
								"internalType": "uint256",
								"name": "expirationTimeSeconds",
								"type": "uint256"
							},
							{
								"internalType": "uint256",
								"name": "salt",
								"type": "uint256"
							},
							{
								"internalType": "bytes",
								"name": "makerAssetData",
								"type": "bytes"
							},
							{
								"internalType": "bytes",
								"name": "takerAssetData",
								"type": "bytes"
							},
							{
								"internalType": "bytes",
								"name": "makerFeeAssetData",
								"type": "bytes"
							},
							{
								"internalType": "bytes",
								"name": "takerFeeAssetData",
								"type": "bytes"
							}
						],
						"internalType": "struct LibOrder.Order",
						"name": "order",
						"type": "tuple"
					},
					{
						"internalType": "uint256",
						"name": "takerAssetFillAmount",
						"type": "uint256"
					},
					{
						"internalType": "bytes",
						"name": "signature",
						"type": "bytes"
					}
				],
				"name": "fillOrKillOrder",
				"outputs": [
					{
						"components": [
							{
								"internalType": "uint256",
								"name": "makerAssetFilledAmount",
								"type": "uint256"
							},
							{
								"internalType": "uint256",
								"name": "takerAssetFilledAmount",
								"type": "uint256"
							},
							{
								"internalType": "uint256",
								"name": "makerFeePaid",
								"type": "uint256"
							},
							{
								"internalType": "uint256",
								"name": "takerFeePaid",
								"type": "uint256"
							},
							{
								"internalType": "uint256",
								"name": "protocolFeePaid",
								"type": "uint256"
							}
						],
						"internalType": "struct LibFillResults.FillResults",
						"name": "fillResults",
						"type": "tuple"
					}
				],
				"payable": true,
				"stateMutability": "payable",
				"type": "function"
			},
			{
				"constant": false,
				"inputs": [
					{
						"components": [
							{
								"internalType": "address",
								"name": "makerAddress",
								"type": "address"
							},
							{
								"internalType": "address",
								"name": "takerAddress",
								"type": "address"
							},
							{
								"internalType": "address",
								"name": "feeRecipientAddress",
								"type": "address"
							},
							{
								"internalType": "address",
								"name": "senderAddress",
								"type": "address"
							},
							{
								"internalType": "uint256",
								"name": "makerAssetAmount",
								"type": "uint256"
							},
							{
								"internalType": "uint256",
								"name": "takerAssetAmount",
								"type": "uint256"
							},
							{
								"internalType": "uint256",
								"name": "makerFee",
								"type": "uint256"
							},
							{
								"internalType": "uint256",
								"name": "takerFee",
								"type": "uint256"
							},
							{
								"internalType": "uint256",
								"name": "expirationTimeSeconds",
								"type": "uint256"
							},
							{
								"internalType": "uint256",
								"name": "salt",
								"type": "uint256"
							},
							{
								"internalType": "bytes",
								"name": "makerAssetData",
								"type": "bytes"
							},
							{
								"internalType": "bytes",
								"name": "takerAssetData",
								"type": "bytes"
							},
							{
								"internalType": "bytes",
								"name": "makerFeeAssetData",
								"type": "bytes"
							},
							{
								"internalType": "bytes",
								"name": "takerFeeAssetData",
								"type": "bytes"
							}
						],
						"internalType": "struct LibOrder.Order",
						"name": "order",
						"type": "tuple"
					},
					{
						"internalType": "uint256",
						"name": "takerAssetFillAmount",
						"type": "uint256"
					},
					{
						"internalType": "bytes",
						"name": "signature",
						"type": "bytes"
					}
				],
				"name": "fillOrder",
				"outputs": [
					{
						"components": [
							{
								"internalType": "uint256",
								"name": "makerAssetFilledAmount",
								"type": "uint256"
							},
							{
								"internalType": "uint256",
								"name": "takerAssetFilledAmount",
								"type": "uint256"
							},
							{
								"internalType": "uint256",
								"name": "makerFeePaid",
								"type": "uint256"
							},
							{
								"internalType": "uint256",
								"name": "takerFeePaid",
								"type": "uint256"
							},
							{
								"internalType": "uint256",
								"name": "protocolFeePaid",
								"type": "uint256"
							}
						],
						"internalType": "struct LibFillResults.FillResults",
						"name": "fillResults",
						"type": "tuple"
					}
				],
				"payable": true,
				"stateMutability": "payable",
				"type": "function"
			},
			{
				"constant": true,
				"inputs": [
					{
						"internalType": "bytes32",
						"name": "",
						"type": "bytes32"
					}
				],
				"name": "filled",
				"outputs": [
					{
						"internalType": "uint256",
						"name": "",
						"type": "uint256"
					}
				],
				"payable": false,
				"stateMutability": "view",
				"type": "function"
			},
			{
				"constant": true,
				"inputs": [
					{
						"internalType": "bytes4",
						"name": "assetProxyId",
						"type": "bytes4"
					}
				],
				"name": "getAssetProxy",
				"outputs": [
					{
						"internalType": "address",
						"name": "assetProxy",
						"type": "address"
					}
				],
				"payable": false,
				"stateMutability": "view",
				"type": "function"
			},
			{
				"constant": true,
				"inputs": [
					{
						"components": [
							{
								"internalType": "address",
								"name": "makerAddress",
								"type": "address"
							},
							{
								"internalType": "address",
								"name": "takerAddress",
								"type": "address"
							},
							{
								"internalType": "address",
								"name": "feeRecipientAddress",
								"type": "address"
							},
							{
								"internalType": "address",
								"name": "senderAddress",
								"type": "address"
							},
							{
								"internalType": "uint256",
								"name": "makerAssetAmount",
								"type": "uint256"
							},
							{
								"internalType": "uint256",
								"name": "takerAssetAmount",
								"type": "uint256"
							},
							{
								"internalType": "uint256",
								"name": "makerFee",
								"type": "uint256"
							},
							{
								"internalType": "uint256",
								"name": "takerFee",
								"type": "uint256"
							},
							{
								"internalType": "uint256",
								"name": "expirationTimeSeconds",
								"type": "uint256"
							},
							{
								"internalType": "uint256",
								"name": "salt",
								"type": "uint256"
							},
							{
								"internalType": "bytes",
								"name": "makerAssetData",
								"type": "bytes"
							},
							{
								"internalType": "bytes",
								"name": "takerAssetData",
								"type": "bytes"
							},
							{
								"internalType": "bytes",
								"name": "makerFeeAssetData",
								"type": "bytes"
							},
							{
								"internalType": "bytes",
								"name": "takerFeeAssetData",
								"type": "bytes"
							}
						],
						"internalType": "struct LibOrder.Order",
						"name": "order",
						"type": "tuple"
					}
				],
				"name": "getOrderInfo",
				"outputs": [
					{
						"components": [
							{
								"internalType": "enum LibOrder.OrderStatus",
								"name": "orderStatus",
								"type": "uint8"
							},
							{
								"internalType": "bytes32",
								"name": "orderHash",
								"type": "bytes32"
							},
							{
								"internalType": "uint256",
								"name": "orderTakerAssetFilledAmount",
								"type": "uint256"
							}
						],
						"internalType": "struct LibOrder.OrderInfo",
						"name": "orderInfo",
						"type": "tuple"
					}
				],
				"payable": false,
				"stateMutability": "view",
				"type": "function"
			},
			{
				"constant": true,
				"inputs": [
					{
						"internalType": "bytes32",
						"name": "hash",
						"type": "bytes32"
					},
					{
						"internalType": "address",
						"name": "signerAddress",
						"type": "address"
					},
					{
						"internalType": "bytes",
						"name": "signature",
						"type": "bytes"
					}
				],
				"name": "isValidHashSignature",
				"outputs": [
					{
						"internalType": "bool",
						"name": "isValid",
						"type": "bool"
					}
				],
				"payable": false,
				"stateMutability": "view",
				"type": "function"
			},
			{
				"constant": true,
				"inputs": [
					{
						"components": [
							{
								"internalType": "address",
								"name": "makerAddress",
								"type": "address"
							},
							{
								"internalType": "address",
								"name": "takerAddress",
								"type": "address"
							},
							{
								"internalType": "address",
								"name": "feeRecipientAddress",
								"type": "address"
							},
							{
								"internalType": "address",
								"name": "senderAddress",
								"type": "address"
							},
							{
								"internalType": "uint256",
								"name": "makerAssetAmount",
								"type": "uint256"
							},
							{
								"internalType": "uint256",
								"name": "takerAssetAmount",
								"type": "uint256"
							},
							{
								"internalType": "uint256",
								"name": "makerFee",
								"type": "uint256"
							},
							{
								"internalType": "uint256",
								"name": "takerFee",
								"type": "uint256"
							},
							{
								"internalType": "uint256",
								"name": "expirationTimeSeconds",
								"type": "uint256"
							},
							{
								"internalType": "uint256",
								"name": "salt",
								"type": "uint256"
							},
							{
								"internalType": "bytes",
								"name": "makerAssetData",
								"type": "bytes"
							},
							{
								"internalType": "bytes",
								"name": "takerAssetData",
								"type": "bytes"
							},
							{
								"internalType": "bytes",
								"name": "makerFeeAssetData",
								"type": "bytes"
							},
							{
								"internalType": "bytes",
								"name": "takerFeeAssetData",
								"type": "bytes"
							}
						],
						"internalType": "struct LibOrder.Order",
						"name": "order",
						"type": "tuple"
					},
					{
						"internalType": "bytes",
						"name": "signature",
						"type": "bytes"
					}
				],
				"name": "isValidOrderSignature",
				"outputs": [
					{
						"internalType": "bool",
						"name": "isValid",
						"type": "bool"
					}
				],
				"payable": false,
				"stateMutability": "view",
				"type": "function"
			},
			{
				"constant": true,
				"inputs": [
					{
						"components": [
							{
								"internalType": "uint256",
								"name": "salt",
								"type": "uint256"
							},
							{
								"internalType": "uint256",
								"name": "expirationTimeSeconds",
								"type": "uint256"
							},
							{
								"internalType": "uint256",
								"name": "gasPrice",
								"type": "uint256"
							},
							{
								"internalType": "address",
								"name": "signerAddress",
								"type": "address"
							},
							{
								"internalType": "bytes",
								"name": "data",
								"type": "bytes"
							}
						],
						"internalType": "struct LibZeroExTransaction.ZeroExTransaction",
						"name": "transaction",
						"type": "tuple"
					},
					{
						"internalType": "bytes",
						"name": "signature",
						"type": "bytes"
					}
				],
				"name": "isValidTransactionSignature",
				"outputs": [
					{
						"internalType": "bool",
						"name": "isValid",
						"type": "bool"
					}
				],
				"payable": false,
				"stateMutability": "view",
				"type": "function"
			},
			{
				"constant": false,
				"inputs": [
					{
						"components": [
							{
								"internalType": "address",
								"name": "makerAddress",
								"type": "address"
							},
							{
								"internalType": "address",
								"name": "takerAddress",
								"type": "address"
							},
							{
								"internalType": "address",
								"name": "feeRecipientAddress",
								"type": "address"
							},
							{
								"internalType": "address",
								"name": "senderAddress",
								"type": "address"
							},
							{
								"internalType": "uint256",
								"name": "makerAssetAmount",
								"type": "uint256"
							},
							{
								"internalType": "uint256",
								"name": "takerAssetAmount",
								"type": "uint256"
							},
							{
								"internalType": "uint256",
								"name": "makerFee",
								"type": "uint256"
							},
							{
								"internalType": "uint256",
								"name": "takerFee",
								"type": "uint256"
							},
							{
								"internalType": "uint256",
								"name": "expirationTimeSeconds",
								"type": "uint256"
							},
							{
								"internalType": "uint256",
								"name": "salt",
								"type": "uint256"
							},
							{
								"internalType": "bytes",
								"name": "makerAssetData",
								"type": "bytes"
							},
							{
								"internalType": "bytes",
								"name": "takerAssetData",
								"type": "bytes"
							},
							{
								"internalType": "bytes",
								"name": "makerFeeAssetData",
								"type": "bytes"
							},
							{
								"internalType": "bytes",
								"name": "takerFeeAssetData",
								"type": "bytes"
							}
						],
						"internalType": "struct LibOrder.Order[]",
						"name": "orders",
						"type": "tuple[]"
					},
					{
						"internalType": "uint256",
						"name": "makerAssetFillAmount",
						"type": "uint256"
					},
					{
						"internalType": "bytes[]",
						"name": "signatures",
						"type": "bytes[]"
					}
				],
				"name": "marketBuyOrdersFillOrKill",
				"outputs": [
					{
						"components": [
							{
								"internalType": "uint256",
								"name": "makerAssetFilledAmount",
								"type": "uint256"
							},
							{
								"internalType": "uint256",
								"name": "takerAssetFilledAmount",
								"type": "uint256"
							},
							{
								"internalType": "uint256",
								"name": "makerFeePaid",
								"type": "uint256"
							},
							{
								"internalType": "uint256",
								"name": "takerFeePaid",
								"type": "uint256"
							},
							{
								"internalType": "uint256",
								"name": "protocolFeePaid",
								"type": "uint256"
							}
						],
						"internalType": "struct LibFillResults.FillResults",
						"name": "fillResults",
						"type": "tuple"
					}
				],
				"payable": true,
				"stateMutability": "payable",
				"type": "function"
			},
			{
				"constant": false,
				"inputs": [
					{
						"components": [
							{
								"internalType": "address",
								"name": "makerAddress",
								"type": "address"
							},
							{
								"internalType": "address",
								"name": "takerAddress",
								"type": "address"
							},
							{
								"internalType": "address",
								"name": "feeRecipientAddress",
								"type": "address"
							},
							{
								"internalType": "address",
								"name": "senderAddress",
								"type": "address"
							},
							{
								"internalType": "uint256",
								"name": "makerAssetAmount",
								"type": "uint256"
							},
							{
								"internalType": "uint256",
								"name": "takerAssetAmount",
								"type": "uint256"
							},
							{
								"internalType": "uint256",
								"name": "makerFee",
								"type": "uint256"
							},
							{
								"internalType": "uint256",
								"name": "takerFee",
								"type": "uint256"
							},
							{
								"internalType": "uint256",
								"name": "expirationTimeSeconds",
								"type": "uint256"
							},
							{
								"internalType": "uint256",
								"name": "salt",
								"type": "uint256"
							},
							{
								"internalType": "bytes",
								"name": "makerAssetData",
								"type": "bytes"
							},
							{
								"internalType": "bytes",
								"name": "takerAssetData",
								"type": "bytes"
							},
							{
								"internalType": "bytes",
								"name": "makerFeeAssetData",
								"type": "bytes"
							},
							{
								"internalType": "bytes",
								"name": "takerFeeAssetData",
								"type": "bytes"
							}
						],
						"internalType": "struct LibOrder.Order[]",
						"name": "orders",
						"type": "tuple[]"
					},
					{
						"internalType": "uint256",
						"name": "makerAssetFillAmount",
						"type": "uint256"
					},
					{
						"internalType": "bytes[]",
						"name": "signatures",
						"type": "bytes[]"
					}
				],
				"name": "marketBuyOrdersNoThrow",
				"outputs": [
					{
						"components": [
							{
								"internalType": "uint256",
								"name": "makerAssetFilledAmount",
								"type": "uint256"
							},
							{
								"internalType": "uint256",
								"name": "takerAssetFilledAmount",
								"type": "uint256"
							},
							{
								"internalType": "uint256",
								"name": "makerFeePaid",
								"type": "uint256"
							},
							{
								"internalType": "uint256",
								"name": "takerFeePaid",
								"type": "uint256"
							},
							{
								"internalType": "uint256",
								"name": "protocolFeePaid",
								"type": "uint256"
							}
						],
						"internalType": "struct LibFillResults.FillResults",
						"name": "fillResults",
						"type": "tuple"
					}
				],
				"payable": true,
				"stateMutability": "payable",
				"type": "function"
			},
			{
				"constant": false,
				"inputs": [
					{
						"components": [
							{
								"internalType": "address",
								"name": "makerAddress",
								"type": "address"
							},
							{
								"internalType": "address",
								"name": "takerAddress",
								"type": "address"
							},
							{
								"internalType": "address",
								"name": "feeRecipientAddress",
								"type": "address"
							},
							{
								"internalType": "address",
								"name": "senderAddress",
								"type": "address"
							},
							{
								"internalType": "uint256",
								"name": "makerAssetAmount",
								"type": "uint256"
							},
							{
								"internalType": "uint256",
								"name": "takerAssetAmount",
								"type": "uint256"
							},
							{
								"internalType": "uint256",
								"name": "makerFee",
								"type": "uint256"
							},
							{
								"internalType": "uint256",
								"name": "takerFee",
								"type": "uint256"
							},
							{
								"internalType": "uint256",
								"name": "expirationTimeSeconds",
								"type": "uint256"
							},
							{
								"internalType": "uint256",
								"name": "salt",
								"type": "uint256"
							},
							{
								"internalType": "bytes",
								"name": "makerAssetData",
								"type": "bytes"
							},
							{
								"internalType": "bytes",
								"name": "takerAssetData",
								"type": "bytes"
							},
							{
								"internalType": "bytes",
								"name": "makerFeeAssetData",
								"type": "bytes"
							},
							{
								"internalType": "bytes",
								"name": "takerFeeAssetData",
								"type": "bytes"
							}
						],
						"internalType": "struct LibOrder.Order[]",
						"name": "orders",
						"type": "tuple[]"
					},
					{
						"internalType": "uint256",
						"name": "takerAssetFillAmount",
						"type": "uint256"
					},
					{
						"internalType": "bytes[]",
						"name": "signatures",
						"type": "bytes[]"
					}
				],
				"name": "marketSellOrdersFillOrKill",
				"outputs": [
					{
						"components": [
							{
								"internalType": "uint256",
								"name": "makerAssetFilledAmount",
								"type": "uint256"
							},
							{
								"internalType": "uint256",
								"name": "takerAssetFilledAmount",
								"type": "uint256"
							},
							{
								"internalType": "uint256",
								"name": "makerFeePaid",
								"type": "uint256"
							},
							{
								"internalType": "uint256",
								"name": "takerFeePaid",
								"type": "uint256"
							},
							{
								"internalType": "uint256",
								"name": "protocolFeePaid",
								"type": "uint256"
							}
						],
						"internalType": "struct LibFillResults.FillResults",
						"name": "fillResults",
						"type": "tuple"
					}
				],
				"payable": true,
				"stateMutability": "payable",
				"type": "function"
			},
			{
				"constant": false,
				"inputs": [
					{
						"components": [
							{
								"internalType": "address",
								"name": "makerAddress",
								"type": "address"
							},
							{
								"internalType": "address",
								"name": "takerAddress",
								"type": "address"
							},
							{
								"internalType": "address",
								"name": "feeRecipientAddress",
								"type": "address"
							},
							{
								"internalType": "address",
								"name": "senderAddress",
								"type": "address"
							},
							{
								"internalType": "uint256",
								"name": "makerAssetAmount",
								"type": "uint256"
							},
							{
								"internalType": "uint256",
								"name": "takerAssetAmount",
								"type": "uint256"
							},
							{
								"internalType": "uint256",
								"name": "makerFee",
								"type": "uint256"
							},
							{
								"internalType": "uint256",
								"name": "takerFee",
								"type": "uint256"
							},
							{
								"internalType": "uint256",
								"name": "expirationTimeSeconds",
								"type": "uint256"
							},
							{
								"internalType": "uint256",
								"name": "salt",
								"type": "uint256"
							},
							{
								"internalType": "bytes",
								"name": "makerAssetData",
								"type": "bytes"
							},
							{
								"internalType": "bytes",
								"name": "takerAssetData",
								"type": "bytes"
							},
							{
								"internalType": "bytes",
								"name": "makerFeeAssetData",
								"type": "bytes"
							},
							{
								"internalType": "bytes",
								"name": "takerFeeAssetData",
								"type": "bytes"
							}
						],
						"internalType": "struct LibOrder.Order[]",
						"name": "orders",
						"type": "tuple[]"
					},
					{
						"internalType": "uint256",
						"name": "takerAssetFillAmount",
						"type": "uint256"
					},
					{
						"internalType": "bytes[]",
						"name": "signatures",
						"type": "bytes[]"
					}
				],
				"name": "marketSellOrdersNoThrow",
				"outputs": [
					{
						"components": [
							{
								"internalType": "uint256",
								"name": "makerAssetFilledAmount",
								"type": "uint256"
							},
							{
								"internalType": "uint256",
								"name": "takerAssetFilledAmount",
								"type": "uint256"
							},
							{
								"internalType": "uint256",
								"name": "makerFeePaid",
								"type": "uint256"
							},
							{
								"internalType": "uint256",
								"name": "takerFeePaid",
								"type": "uint256"
							},
							{
								"internalType": "uint256",
								"name": "protocolFeePaid",
								"type": "uint256"
							}
						],
						"internalType": "struct LibFillResults.FillResults",
						"name": "fillResults",
						"type": "tuple"
					}
				],
				"payable": true,
				"stateMutability": "payable",
				"type": "function"
			},
			{
				"constant": false,
				"inputs": [
					{
						"components": [
							{
								"internalType": "address",
								"name": "makerAddress",
								"type": "address"
							},
							{
								"internalType": "address",
								"name": "takerAddress",
								"type": "address"
							},
							{
								"internalType": "address",
								"name": "feeRecipientAddress",
								"type": "address"
							},
							{
								"internalType": "address",
								"name": "senderAddress",
								"type": "address"
							},
							{
								"internalType": "uint256",
								"name": "makerAssetAmount",
								"type": "uint256"
							},
							{
								"internalType": "uint256",
								"name": "takerAssetAmount",
								"type": "uint256"
							},
							{
								"internalType": "uint256",
								"name": "makerFee",
								"type": "uint256"
							},
							{
								"internalType": "uint256",
								"name": "takerFee",
								"type": "uint256"
							},
							{
								"internalType": "uint256",
								"name": "expirationTimeSeconds",
								"type": "uint256"
							},
							{
								"internalType": "uint256",
								"name": "salt",
								"type": "uint256"
							},
							{
								"internalType": "bytes",
								"name": "makerAssetData",
								"type": "bytes"
							},
							{
								"internalType": "bytes",
								"name": "takerAssetData",
								"type": "bytes"
							},
							{
								"internalType": "bytes",
								"name": "makerFeeAssetData",
								"type": "bytes"
							},
							{
								"internalType": "bytes",
								"name": "takerFeeAssetData",
								"type": "bytes"
							}
						],
						"internalType": "struct LibOrder.Order",
						"name": "leftOrder",
						"type": "tuple"
					},
					{
						"components": [
							{
								"internalType": "address",
								"name": "makerAddress",
								"type": "address"
							},
							{
								"internalType": "address",
								"name": "takerAddress",
								"type": "address"
							},
							{
								"internalType": "address",
								"name": "feeRecipientAddress",
								"type": "address"
							},
							{
								"internalType": "address",
								"name": "senderAddress",
								"type": "address"
							},
							{
								"internalType": "uint256",
								"name": "makerAssetAmount",
								"type": "uint256"
							},
							{
								"internalType": "uint256",
								"name": "takerAssetAmount",
								"type": "uint256"
							},
							{
								"internalType": "uint256",
								"name": "makerFee",
								"type": "uint256"
							},
							{
								"internalType": "uint256",
								"name": "takerFee",
								"type": "uint256"
							},
							{
								"internalType": "uint256",
								"name": "expirationTimeSeconds",
								"type": "uint256"
							},
							{
								"internalType": "uint256",
								"name": "salt",
								"type": "uint256"
							},
							{
								"internalType": "bytes",
								"name": "makerAssetData",
								"type": "bytes"
							},
							{
								"internalType": "bytes",
								"name": "takerAssetData",
								"type": "bytes"
							},
							{
								"internalType": "bytes",
								"name": "makerFeeAssetData",
								"type": "bytes"
							},
							{
								"internalType": "bytes",
								"name": "takerFeeAssetData",
								"type": "bytes"
							}
						],
						"internalType": "struct LibOrder.Order",
						"name": "rightOrder",
						"type": "tuple"
					},
					{
						"internalType": "bytes",
						"name": "leftSignature",
						"type": "bytes"
					},
					{
						"internalType": "bytes",
						"name": "rightSignature",
						"type": "bytes"
					}
				],
				"name": "matchOrders",
				"outputs": [
					{
						"components": [
							{
								"components": [
									{
										"internalType": "uint256",
										"name": "makerAssetFilledAmount",
										"type": "uint256"
									},
									{
										"internalType": "uint256",
										"name": "takerAssetFilledAmount",
										"type": "uint256"
									},
									{
										"internalType": "uint256",
										"name": "makerFeePaid",
										"type": "uint256"
									},
									{
										"internalType": "uint256",
										"name": "takerFeePaid",
										"type": "uint256"
									},
									{
										"internalType": "uint256",
										"name": "protocolFeePaid",
										"type": "uint256"
									}
								],
								"internalType": "struct LibFillResults.FillResults",
								"name": "left",
								"type": "tuple"
							},
							{
								"components": [
									{
										"internalType": "uint256",
										"name": "makerAssetFilledAmount",
										"type": "uint256"
									},
									{
										"internalType": "uint256",
										"name": "takerAssetFilledAmount",
										"type": "uint256"
									},
									{
										"internalType": "uint256",
										"name": "makerFeePaid",
										"type": "uint256"
									},
									{
										"internalType": "uint256",
										"name": "takerFeePaid",
										"type": "uint256"
									},
									{
										"internalType": "uint256",
										"name": "protocolFeePaid",
										"type": "uint256"
									}
								],
								"internalType": "struct LibFillResults.FillResults",
								"name": "right",
								"type": "tuple"
							},
							{
								"internalType": "uint256",
								"name": "profitInLeftMakerAsset",
								"type": "uint256"
							},
							{
								"internalType": "uint256",
								"name": "profitInRightMakerAsset",
								"type": "uint256"
							}
						],
						"internalType": "struct LibFillResults.MatchedFillResults",
						"name": "matchedFillResults",
						"type": "tuple"
					}
				],
				"payable": true,
				"stateMutability": "payable",
				"type": "function"
			},
			{
				"constant": false,
				"inputs": [
					{
						"components": [
							{
								"internalType": "address",
								"name": "makerAddress",
								"type": "address"
							},
							{
								"internalType": "address",
								"name": "takerAddress",
								"type": "address"
							},
							{
								"internalType": "address",
								"name": "feeRecipientAddress",
								"type": "address"
							},
							{
								"internalType": "address",
								"name": "senderAddress",
								"type": "address"
							},
							{
								"internalType": "uint256",
								"name": "makerAssetAmount",
								"type": "uint256"
							},
							{
								"internalType": "uint256",
								"name": "takerAssetAmount",
								"type": "uint256"
							},
							{
								"internalType": "uint256",
								"name": "makerFee",
								"type": "uint256"
							},
							{
								"internalType": "uint256",
								"name": "takerFee",
								"type": "uint256"
							},
							{
								"internalType": "uint256",
								"name": "expirationTimeSeconds",
								"type": "uint256"
							},
							{
								"internalType": "uint256",
								"name": "salt",
								"type": "uint256"
							},
							{
								"internalType": "bytes",
								"name": "makerAssetData",
								"type": "bytes"
							},
							{
								"internalType": "bytes",
								"name": "takerAssetData",
								"type": "bytes"
							},
							{
								"internalType": "bytes",
								"name": "makerFeeAssetData",
								"type": "bytes"
							},
							{
								"internalType": "bytes",
								"name": "takerFeeAssetData",
								"type": "bytes"
							}
						],
						"internalType": "struct LibOrder.Order",
						"name": "leftOrder",
						"type": "tuple"
					},
					{
						"components": [
							{
								"internalType": "address",
								"name": "makerAddress",
								"type": "address"
							},
							{
								"internalType": "address",
								"name": "takerAddress",
								"type": "address"
							},
							{
								"internalType": "address",
								"name": "feeRecipientAddress",
								"type": "address"
							},
							{
								"internalType": "address",
								"name": "senderAddress",
								"type": "address"
							},
							{
								"internalType": "uint256",
								"name": "makerAssetAmount",
								"type": "uint256"
							},
							{
								"internalType": "uint256",
								"name": "takerAssetAmount",
								"type": "uint256"
							},
							{
								"internalType": "uint256",
								"name": "makerFee",
								"type": "uint256"
							},
							{
								"internalType": "uint256",
								"name": "takerFee",
								"type": "uint256"
							},
							{
								"internalType": "uint256",
								"name": "expirationTimeSeconds",
								"type": "uint256"
							},
							{
								"internalType": "uint256",
								"name": "salt",
								"type": "uint256"
							},
							{
								"internalType": "bytes",
								"name": "makerAssetData",
								"type": "bytes"
							},
							{
								"internalType": "bytes",
								"name": "takerAssetData",
								"type": "bytes"
							},
							{
								"internalType": "bytes",
								"name": "makerFeeAssetData",
								"type": "bytes"
							},
							{
								"internalType": "bytes",
								"name": "takerFeeAssetData",
								"type": "bytes"
							}
						],
						"internalType": "struct LibOrder.Order",
						"name": "rightOrder",
						"type": "tuple"
					},
					{
						"internalType": "bytes",
						"name": "leftSignature",
						"type": "bytes"
					},
					{
						"internalType": "bytes",
						"name": "rightSignature",
						"type": "bytes"
					}
				],
				"name": "matchOrdersWithMaximalFill",
				"outputs": [
					{
						"components": [
							{
								"components": [
									{
										"internalType": "uint256",
										"name": "makerAssetFilledAmount",
										"type": "uint256"
									},
									{
										"internalType": "uint256",
										"name": "takerAssetFilledAmount",
										"type": "uint256"
									},
									{
										"internalType": "uint256",
										"name": "makerFeePaid",
										"type": "uint256"
									},
									{
										"internalType": "uint256",
										"name": "takerFeePaid",
										"type": "uint256"
									},
									{
										"internalType": "uint256",
										"name": "protocolFeePaid",
										"type": "uint256"
									}
								],
								"internalType": "struct LibFillResults.FillResults",
								"name": "left",
								"type": "tuple"
							},
							{
								"components": [
									{
										"internalType": "uint256",
										"name": "makerAssetFilledAmount",
										"type": "uint256"
									},
									{
										"internalType": "uint256",
										"name": "takerAssetFilledAmount",
										"type": "uint256"
									},
									{
										"internalType": "uint256",
										"name": "makerFeePaid",
										"type": "uint256"
									},
									{
										"internalType": "uint256",
										"name": "takerFeePaid",
										"type": "uint256"
									},
									{
										"internalType": "uint256",
										"name": "protocolFeePaid",
										"type": "uint256"
									}
								],
								"internalType": "struct LibFillResults.FillResults",
								"name": "right",
								"type": "tuple"
							},
							{
								"internalType": "uint256",
								"name": "profitInLeftMakerAsset",
								"type": "uint256"
							},
							{
								"internalType": "uint256",
								"name": "profitInRightMakerAsset",
								"type": "uint256"
							}
						],
						"internalType": "struct LibFillResults.MatchedFillResults",
						"name": "matchedFillResults",
						"type": "tuple"
					}
				],
				"payable": true,
				"stateMutability": "payable",
				"type": "function"
			},
			{
				"constant": true,
				"inputs": [
					{
						"internalType": "address",
						"name": "",
						"type": "address"
					},
					{
						"internalType": "address",
						"name": "",
						"type": "address"
					}
				],
				"name": "orderEpoch",
				"outputs": [
					{
						"internalType": "uint256",
						"name": "",
						"type": "uint256"
					}
				],
				"payable": false,
				"stateMutability": "view",
				"type": "function"
			},
			{
				"constant": true,
				"inputs": [],
				"name": "owner",
				"outputs": [
					{
						"internalType": "address",
						"name": "",
						"type": "address"
					}
				],
				"payable": false,
				"stateMutability": "view",
				"type": "function"
			},
			{
				"constant": false,
				"inputs": [
					{
						"internalType": "bytes32",
						"name": "hash",
						"type": "bytes32"
					}
				],
				"name": "preSign",
				"outputs": [],
				"payable": true,
				"stateMutability": "payable",
				"type": "function"
			},
			{
				"constant": true,
				"inputs": [
					{
						"internalType": "bytes32",
						"name": "",
						"type": "bytes32"
					},
					{
						"internalType": "address",
						"name": "",
						"type": "address"
					}
				],
				"name": "preSigned",
				"outputs": [
					{
						"internalType": "bool",
						"name": "",
						"type": "bool"
					}
				],
				"payable": false,
				"stateMutability": "view",
				"type": "function"
			},
			{
				"constant": true,
				"inputs": [],
				"name": "protocolFeeCollector",
				"outputs": [
					{
						"internalType": "address",
						"name": "",
						"type": "address"
					}
				],
				"payable": false,
				"stateMutability": "view",
				"type": "function"
			},
			{
				"constant": true,
				"inputs": [],
				"name": "protocolFeeMultiplier",
				"outputs": [
					{
						"internalType": "uint256",
						"name": "",
						"type": "uint256"
					}
				],
				"payable": false,
				"stateMutability": "view",
				"type": "function"
			},
			{
				"constant": false,
				"inputs": [
					{
						"internalType": "address",
						"name": "assetProxy",
						"type": "address"
					}
				],
				"name": "registerAssetProxy",
				"outputs": [],
				"payable": false,
				"stateMutability": "nonpayable",
				"type": "function"
			},
			{
				"constant": false,
				"inputs": [
					{
						"internalType": "address",
						"name": "updatedProtocolFeeCollector",
						"type": "address"
					}
				],
				"name": "setProtocolFeeCollectorAddress",
				"outputs": [],
				"payable": false,
				"stateMutability": "nonpayable",
				"type": "function"
			},
			{
				"constant": false,
				"inputs": [
					{
						"internalType": "uint256",
						"name": "updatedProtocolFeeMultiplier",
						"type": "uint256"
					}
				],
				"name": "setProtocolFeeMultiplier",
				"outputs": [],
				"payable": false,
				"stateMutability": "nonpayable",
				"type": "function"
			},
			{
				"constant": false,
				"inputs": [
					{
						"internalType": "address",
						"name": "validatorAddress",
						"type": "address"
					},
					{
						"internalType": "bool",
						"name": "approval",
						"type": "bool"
					}
				],
				"name": "setSignatureValidatorApproval",
				"outputs": [],
				"payable": true,
				"stateMutability": "payable",
				"type": "function"
			},
			{
				"constant": false,
				"inputs": [
					{
						"internalType": "bytes[]",
						"name": "assetData",
						"type": "bytes[]"
					},
					{
						"internalType": "address[]",
						"name": "fromAddresses",
						"type": "address[]"
					},
					{
						"internalType": "address[]",
						"name": "toAddresses",
						"type": "address[]"
					},
					{
						"internalType": "uint256[]",
						"name": "amounts",
						"type": "uint256[]"
					}
				],
				"name": "simulateDispatchTransferFromCalls",
				"outputs": [],
				"payable": false,
				"stateMutability": "nonpayable",
				"type": "function"
			},
			{
				"constant": true,
				"inputs": [
					{
						"internalType": "bytes32",
						"name": "",
						"type": "bytes32"
					}
				],
				"name": "transactionsExecuted",
				"outputs": [
					{
						"internalType": "bool",
						"name": "",
						"type": "bool"
					}
				],
				"payable": false,
				"stateMutability": "view",
				"type": "function"
			},
			{
				"constant": false,
				"inputs": [
					{
						"internalType": "address",
						"name": "newOwner",
						"type": "address"
					}
				],
				"name": "transferOwnership",
				"outputs": [],
				"payable": false,
				"stateMutability": "nonpayable",
				"type": "function"
			}
		],
		"devdoc": {
			"details": "The 0x Exchange contract.",
			"methods": {
				"batchCancelOrders((address,address,address,address,uint256,uint256,uint256,uint256,uint256,uint256,bytes,bytes,bytes,bytes)[])": {
					"details": "Executes multiple calls of cancelOrder.",
					"params": {
						"orders": "Array of order specifications."
					}
				},
				"batchExecuteTransactions((uint256,uint256,uint256,address,bytes)[],bytes[])": {
					"details": "Executes a batch of Exchange method calls in the context of signer(s).",
					"params": {
						"signatures": "Array of proofs that transactions have been signed by signer(s).",
						"transactions": "Array of 0x transaction structures."
					},
					"return": "returnData Array containing ABI encoded return data for each of the underlying Exchange function calls."
				},
				"batchFillOrKillOrders((address,address,address,address,uint256,uint256,uint256,uint256,uint256,uint256,bytes,bytes,bytes,bytes)[],uint256[],bytes[])": {
					"details": "Executes multiple calls of fillOrKillOrder.",
					"params": {
						"orders": "Array of order specifications.",
						"signatures": "Proofs that orders have been created by makers.",
						"takerAssetFillAmounts": "Array of desired amounts of takerAsset to sell in orders."
					},
					"return": "fillResults Array of amounts filled and fees paid by makers and taker."
				},
				"batchFillOrders((address,address,address,address,uint256,uint256,uint256,uint256,uint256,uint256,bytes,bytes,bytes,bytes)[],uint256[],bytes[])": {
					"details": "Executes multiple calls of fillOrder.",
					"params": {
						"orders": "Array of order specifications.",
						"signatures": "Proofs that orders have been created by makers.",
						"takerAssetFillAmounts": "Array of desired amounts of takerAsset to sell in orders."
					},
					"return": "fillResults Array of amounts filled and fees paid by makers and taker."
				},
				"batchFillOrdersNoThrow((address,address,address,address,uint256,uint256,uint256,uint256,uint256,uint256,bytes,bytes,bytes,bytes)[],uint256[],bytes[])": {
					"details": "Executes multiple calls of fillOrder. If any fill reverts, the error is caught and ignored.",
					"params": {
						"orders": "Array of order specifications.",
						"signatures": "Proofs that orders have been created by makers.",
						"takerAssetFillAmounts": "Array of desired amounts of takerAsset to sell in orders."
					},
					"return": "fillResults Array of amounts filled and fees paid by makers and taker."
				},
				"batchMatchOrders((address,address,address,address,uint256,uint256,uint256,uint256,uint256,uint256,bytes,bytes,bytes,bytes)[],(address,address,address,address,uint256,uint256,uint256,uint256,uint256,uint256,bytes,bytes,bytes,bytes)[],bytes[],bytes[])": {
					"details": "Match complementary orders that have a profitable spread.      Each order is filled at their respective price point, and      the matcher receives a profit denominated in the left maker asset.",
					"params": {
						"leftOrders": "Set of orders with the same maker / taker asset.",
						"leftSignatures": "Proof that left orders were created by the left makers.",
						"rightOrders": "Set of orders to match against `leftOrders`",
						"rightSignatures": "Proof that right orders were created by the right makers."
					},
					"return": "batchMatchedFillResults Amounts filled and profit generated."
				},
				"batchMatchOrdersWithMaximalFill((address,address,address,address,uint256,uint256,uint256,uint256,uint256,uint256,bytes,bytes,bytes,bytes)[],(address,address,address,address,uint256,uint256,uint256,uint256,uint256,uint256,bytes,bytes,bytes,bytes)[],bytes[],bytes[])": {
					"details": "Match complementary orders that have a profitable spread.      Each order is maximally filled at their respective price point, and      the matcher receives a profit denominated in either the left maker asset,      right maker asset, or a combination of both.",
					"params": {
						"leftOrders": "Set of orders with the same maker / taker asset.",
						"leftSignatures": "Proof that left orders were created by the left makers.",
						"rightOrders": "Set of orders to match against `leftOrders`",
						"rightSignatures": "Proof that right orders were created by the right makers."
					},
					"return": "batchMatchedFillResults Amounts filled and profit generated."
				},
				"cancelOrder((address,address,address,address,uint256,uint256,uint256,uint256,uint256,uint256,bytes,bytes,bytes,bytes))": {
					"details": "After calling, the order can not be filled anymore.",
					"params": {
						"order": "Order struct containing order specifications."
					}
				},
				"cancelOrdersUpTo(uint256)": {
					"details": "Cancels all orders created by makerAddress with a salt less than or equal to the targetOrderEpoch      and senderAddress equal to msg.sender (or null address if msg.sender == makerAddress).",
					"params": {
						"targetOrderEpoch": "Orders created with a salt less or equal to this value will be cancelled."
					}
				},
				"constructor": {
					"details": "Mixins are instantiated in the order they are inherited",
					"params": {
						"chainId": "Chain ID of the network this contract is deployed on."
					}
				},
				"detachProtocolFeeCollector()": {
					"details": "Sets the protocolFeeCollector contract address to 0.      Only callable by owner."
				},
				"executeTransaction((uint256,uint256,uint256,address,bytes),bytes)": {
					"details": "Executes an Exchange method call in the context of signer.",
					"params": {
						"signature": "Proof that transaction has been signed by signer.",
						"transaction": "0x transaction structure."
					},
					"return": "ABI encoded return data of the underlying Exchange function call."
				},
				"fillOrKillOrder((address,address,address,address,uint256,uint256,uint256,uint256,uint256,uint256,bytes,bytes,bytes,bytes),uint256,bytes)": {
					"details": "Fills the input order. Reverts if exact `takerAssetFillAmount` not filled.",
					"params": {
						"order": "Order struct containing order specifications.",
						"signature": "Proof that order has been created by maker.",
						"takerAssetFillAmount": "Desired amount of takerAsset to sell."
					},
					"return": "fillResults Amounts filled and fees paid."
				},
				"fillOrder((address,address,address,address,uint256,uint256,uint256,uint256,uint256,uint256,bytes,bytes,bytes,bytes),uint256,bytes)": {
					"details": "Fills the input order.",
					"params": {
						"order": "Order struct containing order specifications.",
						"signature": "Proof that order has been created by maker.",
						"takerAssetFillAmount": "Desired amount of takerAsset to sell."
					},
					"return": "fillResults Amounts filled and fees paid by maker and taker."
				},
				"getAssetProxy(bytes4)": {
					"details": "Gets an asset proxy.",
					"params": {
						"assetProxyId": "Id of the asset proxy."
					},
					"return": "assetProxy The asset proxy address registered to assetProxyId. Returns 0x0 if no proxy is registered."
				},
				"getOrderInfo((address,address,address,address,uint256,uint256,uint256,uint256,uint256,uint256,bytes,bytes,bytes,bytes))": {
					"details": "Gets information about an order: status, hash, and amount filled.",
					"params": {
						"order": "Order to gather information on."
					},
					"return": "orderInfo Information about the order and its state.         See LibOrder.OrderInfo for a complete description."
				},
				"isValidHashSignature(bytes32,address,bytes)": {
					"details": "Verifies that a hash has been signed by the given signer.",
					"params": {
						"hash": "Any 32-byte hash.",
						"signature": "Proof that the hash has been signed by signer.",
						"signerAddress": "Address that should have signed the given hash."
					},
					"return": "isValid `true` if the signature is valid for the given hash and signer."
				},
				"isValidOrderSignature((address,address,address,address,uint256,uint256,uint256,uint256,uint256,uint256,bytes,bytes,bytes,bytes),bytes)": {
					"details": "Verifies that a signature for an order is valid.",
					"params": {
						"order": "The order.",
						"signature": "Proof that the order has been signed by signer."
					},
					"return": "isValid `true` if the signature is valid for the given order and signer."
				},
				"isValidTransactionSignature((uint256,uint256,uint256,address,bytes),bytes)": {
					"details": "Verifies that a signature for a transaction is valid.",
					"params": {
						"signature": "Proof that the order has been signed by signer.",
						"transaction": "The transaction."
					},
					"return": "isValid `true` if the signature is valid for the given transaction and signer."
				},
				"marketBuyOrdersFillOrKill((address,address,address,address,uint256,uint256,uint256,uint256,uint256,uint256,bytes,bytes,bytes,bytes)[],uint256,bytes[])": {
					"details": "Calls marketBuyOrdersNoThrow then reverts if < makerAssetFillAmount has been bought.      NOTE: This function does not enforce that the makerAsset is the same for each order.",
					"params": {
						"makerAssetFillAmount": "Minimum amount of makerAsset to buy.",
						"orders": "Array of order specifications.",
						"signatures": "Proofs that orders have been signed by makers."
					},
					"return": "fillResults Amounts filled and fees paid by makers and taker."
				},
				"marketBuyOrdersNoThrow((address,address,address,address,uint256,uint256,uint256,uint256,uint256,uint256,bytes,bytes,bytes,bytes)[],uint256,bytes[])": {
					"details": "Executes multiple calls of fillOrder until total amount of makerAsset is bought by taker.      If any fill reverts, the error is caught and ignored.      NOTE: This function does not enforce that the makerAsset is the same for each order.",
					"params": {
						"makerAssetFillAmount": "Desired amount of makerAsset to buy.",
						"orders": "Array of order specifications.",
						"signatures": "Proofs that orders have been signed by makers."
					},
					"return": "fillResults Amounts filled and fees paid by makers and taker."
				},
				"marketSellOrdersFillOrKill((address,address,address,address,uint256,uint256,uint256,uint256,uint256,uint256,bytes,bytes,bytes,bytes)[],uint256,bytes[])": {
					"details": "Calls marketSellOrdersNoThrow then reverts if < takerAssetFillAmount has been sold.      NOTE: This function does not enforce that the takerAsset is the same for each order.",
					"params": {
						"orders": "Array of order specifications.",
						"signatures": "Proofs that orders have been signed by makers.",
						"takerAssetFillAmount": "Minimum amount of takerAsset to sell."
					},
					"return": "fillResults Amounts filled and fees paid by makers and taker."
				},
				"marketSellOrdersNoThrow((address,address,address,address,uint256,uint256,uint256,uint256,uint256,uint256,bytes,bytes,bytes,bytes)[],uint256,bytes[])": {
					"details": "Executes multiple calls of fillOrder until total amount of takerAsset is sold by taker.      If any fill reverts, the error is caught and ignored.      NOTE: This function does not enforce that the takerAsset is the same for each order.",
					"params": {
						"orders": "Array of order specifications.",
						"signatures": "Proofs that orders have been signed by makers.",
						"takerAssetFillAmount": "Desired amount of takerAsset to sell."
					},
					"return": "fillResults Amounts filled and fees paid by makers and taker."
				},
				"matchOrders((address,address,address,address,uint256,uint256,uint256,uint256,uint256,uint256,bytes,bytes,bytes,bytes),(address,address,address,address,uint256,uint256,uint256,uint256,uint256,uint256,bytes,bytes,bytes,bytes),bytes,bytes)": {
					"details": "Match two complementary orders that have a profitable spread.      Each order is filled at their respective price point. However, the calculations are      carried out as though the orders are both being filled at the right order's price point.      The profit made by the left order goes to the taker (who matched the two orders).",
					"params": {
						"leftOrder": "First order to match.",
						"leftSignature": "Proof that order was created by the left maker.",
						"rightOrder": "Second order to match.",
						"rightSignature": "Proof that order was created by the right maker."
					},
					"return": "matchedFillResults Amounts filled and fees paid by maker and taker of matched orders."
				},
				"matchOrdersWithMaximalFill((address,address,address,address,uint256,uint256,uint256,uint256,uint256,uint256,bytes,bytes,bytes,bytes),(address,address,address,address,uint256,uint256,uint256,uint256,uint256,uint256,bytes,bytes,bytes,bytes),bytes,bytes)": {
					"details": "Match two complementary orders that have a profitable spread.      Each order is maximally filled at their respective price point, and      the matcher receives a profit denominated in either the left maker asset,      right maker asset, or a combination of both.",
					"params": {
						"leftOrder": "First order to match.",
						"leftSignature": "Proof that order was created by the left maker.",
						"rightOrder": "Second order to match.",
						"rightSignature": "Proof that order was created by the right maker."
					},
					"return": "matchedFillResults Amounts filled by maker and taker of matched orders."
				},
				"preSign(bytes32)": {
					"details": "Approves a hash on-chain.      After presigning a hash, the preSign signature type will become valid for that hash and signer.",
					"params": {
						"hash": "Any 32-byte hash."
					}
				},
				"registerAssetProxy(address)": {
					"details": "Registers an asset proxy to its asset proxy id.      Once an asset proxy is registered, it cannot be unregistered.",
					"params": {
						"assetProxy": "Address of new asset proxy to register."
					}
				},
				"setProtocolFeeCollectorAddress(address)": {
					"details": "Allows the owner to update the protocolFeeCollector address.",
					"params": {
						"updatedProtocolFeeCollector": "The updated protocolFeeCollector contract address."
					}
				},
				"setProtocolFeeMultiplier(uint256)": {
					"details": "Allows the owner to update the protocol fee multiplier.",
					"params": {
						"updatedProtocolFeeMultiplier": "The updated protocol fee multiplier."
					}
				},
				"setSignatureValidatorApproval(address,bool)": {
					"details": "Approves/unnapproves a Validator contract to verify signatures on signer's behalf      using the `Validator` signature type.",
					"params": {
						"approval": "Approval or disapproval of  Validator contract.",
						"validatorAddress": "Address of Validator contract."
					}
				},
				"simulateDispatchTransferFromCalls(bytes[],address[],address[],uint256[])": {
					"details": "This function may be used to simulate any amount of transfers As they would occur through the Exchange contract. Note that this function will always revert, even if all transfers are successful. However, it may be used with eth_call or with a try/catch pattern in order to simulate the results of the transfers.",
					"params": {
						"amounts": "Array containing the amounts that correspond to each transfer.",
						"assetData": "Array of asset details, each encoded per the AssetProxy contract specification.",
						"fromAddresses": "Array containing the `from` addresses that correspond with each transfer.",
						"toAddresses": "Array containing the `to` addresses that correspond with each transfer."
					},
					"return": "This function does not return a value. However, it will always revert with `Error(\"TRANSFERS_SUCCESSFUL\")` if all of the transfers were successful."
				},
				"transferOwnership(address)": {
					"details": "Change the owner of this contract.",
					"params": {
						"newOwner": "New owner address."
					}
				}
			}
		},
		"evm": {
			"bytecode": {
				"linkReferences": {},
				"object": "0x60806040526000805460ff60a01b191690553480156200001e57600080fd5b5060405162005db338038062005db3833981016040819052620000419162000117565b600080546001600160a01b03191633178155819080309050620000b26040518060400160405280600b81526020016a0c1e08141c9bdd1bd8dbdb60aa1b815250604051806040016040528060058152602001640332e302e360dc1b8152508584620000c060201b62005bd91760201c565b600155506200013092505050565b8351602094850120835193850193909320604080517f8b73c3c69bb8fe3d512ecc4cf759cc79239f7b179b0ffacaa9a75d522b39400f815295860194909452928401929092526060830152608082015260a0902090565b60006020828403121562000129578081fd5b5051919050565b615c7380620001406000396000f3fe6080604052600436106102dc5760003560e01c80638d45cd2311610184578063beee2e14116100d6578063dd885e2d1161008a578063eea086ba11610064578063eea086ba14610735578063f2fde38b1461074a578063fc74896d1461076a576102dc565b8063dd885e2d146106ed578063dedfc1f11461070f578063e14b58c414610722576102dc565b8063c26cfecd116100bb578063c26cfecd14610698578063c585bb93146106ad578063d9bfa73e146106cd576102dc565b8063beee2e1414610665578063c0fa16cc14610678576102dc565b80639b44d55611610138578063a6c3bf3311610112578063a6c3bf331461061f578063b04fbddd14610632578063b718e29214610652576102dc565b80639b44d556146105bf5780639d3fa4b9146105d2578063a12dcc6f146105ff576102dc565b80638ea8dfe4116101695780638ea8dfe41461056c5780639331c7421461058c5780639694a402146105ac576102dc565b80638d45cd23146105375780638da5cb5b14610557576102dc565b8063607041081161023d5780637b8e3514116101f1578063850a1501116101cb578063850a1501146104ef57806388ec79fb146105045780638bc8efb314610524576102dc565b80637b8e35141461048f5780638171c407146104af57806382c174d0146104cf576102dc565b80636fcf3e9e116102225780636fcf3e9e1461045657806377fcce681461046957806378d29ac11461047c576102dc565b806360704108146104095780636a1a80fd14610436576102dc565b80632ac1262211610294578063369da09911610279578063369da099146103c357806346c02d7a146103e35780634f9559b1146103f6576102dc565b80632ac12622146103905780632da62987146103b0576102dc565b80631ce4c78b116102c55780631ce4c78b1461032e5780632280c91014610350578063288cdc9114610370576102dc565b80630228e168146102e15780630efca18514610317575b600080fd5b3480156102ed57600080fd5b506103016102fc366004614e6f565b61078a565b60405161030e91906154c3565b60405180910390f35b34801561032357600080fd5b5061032c61079f565b005b34801561033a57600080fd5b506103436107b3565b60405161030e91906154ce565b61036361035e366004615107565b6107b9565b60405161030e919061569f565b34801561037c57600080fd5b5061034361038b366004614e6f565b6107fb565b34801561039c57600080fd5b506103016103ab366004614e6f565b61080d565b61032c6103be366004614f81565b610822565b6103d66103d1366004614d6b565b610846565b60405161030e91906159c3565b61032c6103f1366004614e6f565b61096d565b61032c610404366004614e6f565b6109e0565b34801561041557600080fd5b50610429610424366004614ef8565b610aed565b60405161030e919061535a565b610449610444366004614c4b565b610b3b565b60405161030e919061594c565b610449610464366004614c4b565b610b73565b61032c610477366004614b35565b610b91565b6103d661048a366004614d6b565b610c54565b34801561049b57600080fd5b506103016104aa366004614b01565b610da4565b3480156104bb57600080fd5b506103016104ca366004614eab565b610dc4565b3480156104db57600080fd5b506103016104ea366004614e87565b610e23565b3480156104fb57600080fd5b50610429610e43565b61051761051236600461500b565b610e5f565b60405161030e91906159d1565b6103d6610532366004614d6b565b610e7d565b34801561054357600080fd5b50610301610552366004615107565b610eb1565b34801561056357600080fd5b50610429610ed6565b61057f61057a366004614ce7565b610ef2565b60405161030e91906154b0565b34801561059857600080fd5b5061032c6105a7366004614e6f565b61101d565b61057f6105ba366004614ce7565b611065565b6103d66105cd3660046150a7565b61112c565b3480156105de57600080fd5b506105f26105ed366004614f81565b611151565b60405161030e9190615a13565b34801561060b57600080fd5b5061030161061a366004614fb4565b611246565b6103d661062d366004614d6b565b61126b565b34801561063e57600080fd5b5061032c61064d366004614b70565b61129f565b61051761066036600461500b565b61134b565b61057f610673366004614ce7565b611369565b34801561068457600080fd5b5061032c610693366004614ae6565b61141e565b3480156106a457600080fd5b5061034361142f565b3480156106b957600080fd5b5061032c6106c8366004614ae6565b611435565b3480156106d957600080fd5b506103436106e8366004614b01565b6115c9565b3480156106f957600080fd5b506107026115e6565b60405161030e919061562a565b61032c61071d366004614c18565b61160a565b6103d66107303660046150a7565b61164c565b34801561074157600080fd5b50610429611667565b34801561075657600080fd5b5061032c610765366004614ae6565b611683565b61077d610778366004614dbe565b611726565b60405161030e9190615432565b60056020526000908152604090205460ff1681565b6107a761184f565b6107b16000611896565b565b60035481565b60606107c3611931565b156107d9576107d28383611953565b90506107f5565b6107e1611a6d565b6107eb8383611953565b90506107f5611aaf565b92915050565b60096020526000908152604090205481565b600a6020526000908152604090205460ff1681565b61082a611adf565b61083381611b4e565b61083b611b93565b610843611ba7565b50565b61084e61456a565b610856611931565b156108ec57835160005b8181146108e5576000610880846020015187611bd190919063ffffffff16565b905061088a61456a565b6108bb88848151811061089957fe5b6020026020010151838886815181106108ae57fe5b6020026020010151611bf0565b90506108c78582611d31565b9450868560200151106108db5750506108e5565b5050600101610860565b5050610966565b6108f4611a6d565b835160005b81811461095c576000610919846020015187611bd190919063ffffffff16565b905061092361456a565b61093288848151811061089957fe5b905061093e8582611d31565b94508685602001511061095257505061095c565b50506001016108f9565b5050610966611aaf565b9392505050565b610975611adf565b600061097f611dcc565b600083815260076020908152604080832073ffffffffffffffffffffffffffffffffffffffff90941683529290522080547fffffffffffffffffffffffffffffffffffffffffffffffffffffffffffffff001660011790555061083b611b93565b6109e8611adf565b60006109f2611dcc565b9050600073ffffffffffffffffffffffffffffffffffffffff82163314610a195733610a1c565b60005b73ffffffffffffffffffffffffffffffffffffffff8084166000908152600b60209081526040808320938516835292905220549091506001840190808211610a7157610a71610a6c858584611dfe565b611ea3565b73ffffffffffffffffffffffffffffffffffffffff8085166000818152600b602090815260408083209488168084529490915290819020859055517f82af639571738f4ebd4268fb0363d8957ebe1bbb9e78dba5ebd69eed39b154f090610ad99086906154ce565b60405180910390a35050505061083b611b93565b7fffffffff00000000000000000000000000000000000000000000000000000000811660009081526002602052604090205473ffffffffffffffffffffffffffffffffffffffff165b919050565b610b43614599565b610b4b611adf565b610b59858585856001611eab565b9050610b63611b93565b610b6b611ba7565b949350505050565b610b7b614599565b610b83611adf565b610b59858585856000611eab565b610b99611adf565b6000610ba3611dcc565b73ffffffffffffffffffffffffffffffffffffffff8181166000818152600860209081526040808320948916808452949091529081902080547fffffffffffffffffffffffffffffffffffffffffffffffffffffffffffffff00168715151790555192935090917fa8656e308026eeabce8f0bc18048433252318ab80ac79da0b3d3d8697dfba89190610c379086906154c3565b60405180910390a350610c48611b93565b610c50611ba7565b5050565b610c5c61456a565b610c64611931565b15610d2257835160005b8181146108e5578251600090610c8b90879063ffffffff611bd116565b90506000610cc8888481518110610c9e57fe5b602002602001015160a00151898581518110610cb657fe5b60200260200101516080015184612218565b9050610cd261456a565b610cf6898581518110610ce157fe5b6020026020010151838987815181106108ae57fe5b9050610d028682611d31565b955087866000015110610d17575050506108e5565b505050600101610c6e565b610d2a611a6d565b835160005b81811461095c578251600090610d4c90879063ffffffff611bd116565b90506000610d5f888481518110610c9e57fe5b9050610d6961456a565b610d78898581518110610ce157fe5b9050610d848682611d31565b955087866000015110610d995750505061095c565b505050600101610d2f565b600860209081526000928352604080842090915290825290205460ff1681565b600080610dd285858561225a565b90506005816008811115610de257fe5b1480610df957506007816008811115610df757fe5b145b15610e0e57610e0e610a6c60058787876122d9565b610e1a81868686612381565b95945050505050565b600760209081526000928352604080842090915290825290205460ff1681565b60045473ffffffffffffffffffffffffffffffffffffffff1681565b610e676145c1565b610e6f611adf565b610b598585858560006125f1565b610e8561456a565b610e90848484610c54565b9050828160000151101561096657610966610a6c60008584600001516126de565b600080610ec9600154856126fd90919063ffffffff16565b9050610b6b848285612711565b60005473ffffffffffffffffffffffffffffffffffffffff1681565b6060610efc611931565b15610f9f578351604080518281526020808402820101909152818015610f3c57816020015b610f2961456a565b815260200190600190039081610f215790505b50915060005b8181146108e557610f80868281518110610f5857fe5b6020026020010151868381518110610f6c57fe5b60200260200101518684815181106108ae57fe5b838281518110610f8c57fe5b6020908102919091010152600101610f42565b610fa7611a6d565b8351604080518281526020808402820101909152818015610fe257816020015b610fcf61456a565b815260200190600190039081610fc75790505b50915060005b81811461095c57610ffe868281518110610f5857fe5b83828151811061100a57fe5b6020908102919091010152600101610fe8565b61102561184f565b7f3a3e76d7a75e198aef1f53137e4f2a8a2ec74e2e9526db8404d08ccc9f1e621d60035482604051611058929190615542565b60405180910390a1600355565b606061106f611adf565b83516040805182815260208084028201019091528180156110aa57816020015b61109761456a565b81526020019060019003908161108f5790505b50915060005b81811461111a576110fb8682815181106110c657fe5b60200260200101518683815181106110da57fe5b60200260200101518684815181106110ee57fe5b6020026020010151612797565b83828151811061110757fe5b60209081029190910101526001016110b0565b5050611124611b93565b610966611ba7565b61113461456a565b61113c611adf565b611147848484612797565b9050611124611b93565b6111596145f5565b61116282612839565b60408301526020820152608082015161118e578060015b9081600681111561118657fe5b905250610b36565b60a082015161119f57806002611179565b8160a001518160400151106111b657806005611179565b81610100015142106111ca57806004611179565b6020808201516000908152600a909152604090205460ff16156111ef57806006611179565b610120820151825173ffffffffffffffffffffffffffffffffffffffff9081166000908152600b60209081526040808320606088015190941683529290522054111561123d57806006611179565b60038152919050565b60008061125e6001548561286a90919063ffffffff16565b9050610b6b848285612879565b61127361456a565b61127e848484610846565b9050828160200151101561096657610966610a6c60018584602001516126de565b835160005b81811461130f576113078160001b8783815181106112be57fe5b60200260200101518784815181106112d257fe5b60200260200101518785815181106112e657fe5b60200260200101518786815181106112fa57fe5b60200260200101516128ce565b6001016112a4565b506040517f08c379a000000000000000000000000000000000000000000000000000000000815260040161134290615915565b60405180910390fd5b6113536145c1565b61135b611adf565b610b598585858560016125f1565b6060611373611adf565b83516040805182815260208084028201019091528180156113ae57816020015b61139b61456a565b8152602001906001900390816113935790505b50915060005b81811461111a576113ff8682815181106113ca57fe5b60200260200101518683815181106113de57fe5b60200260200101518684815181106113f257fe5b6020026020010151612a92565b83828151811061140b57fe5b60209081029190910101526001016113b4565b61142661184f565b61084381611896565b60015481565b61143d61184f565b60008173ffffffffffffffffffffffffffffffffffffffff1663ae25532e6040518163ffffffff1660e01b815260040160206040518083038186803b15801561148557600080fd5b505afa158015611499573d6000803e3d6000fd5b505050506040513d601f19601f820116820180604052506114bd9190810190614f14565b7fffffffff00000000000000000000000000000000000000000000000000000000811660009081526002602052604090205490915073ffffffffffffffffffffffffffffffffffffffff16801561151b5761151b610a6c8383612ac5565b7fffffffff0000000000000000000000000000000000000000000000000000000082166000908152600260205260409081902080547fffffffffffffffffffffffff00000000000000000000000000000000000000001673ffffffffffffffffffffffffffffffffffffffff8616179055517fd2c6b762299c609bdb96520b58a49bfb80186934d4f71a86a367571a15c03194906115bc9084908690615657565b60405180910390a1505050565b600b60209081526000928352604080842090915290825290205481565b7f20c13b0b0000000000000000000000000000000000000000000000000000000081565b611612611adf565b805160005b8181146116425761163a83828151811061162d57fe5b6020026020010151611b4e565b600101611617565b505061083b611b93565b61165461456a565b61165c611adf565b611147848484612a92565b60065473ffffffffffffffffffffffffffffffffffffffff1681565b61168b61184f565b73ffffffffffffffffffffffffffffffffffffffff81166116b6576116b1610a6c612b67565b610843565b600080547fffffffffffffffffffffffff00000000000000000000000000000000000000001673ffffffffffffffffffffffffffffffffffffffff83169081178255604051909133917f8be0079c531659141344cd1fd0a4f28419497f9722a3daafe3b4186f6b6457e09190a350565b6060611730611931565b156117cd57825160408051828152602080840282010190915281801561176a57816020015b60608152602001906001900390816117555790505b50915060005b8181146117c6576117a785828151811061178657fe5b602002602001015185838151811061179a57fe5b6020026020010151611953565b8382815181106117b357fe5b6020908102919091010152600101611770565b50506107f5565b6117d5611a6d565b825160408051828152602080840282010190915281801561180a57816020015b60608152602001906001900390816117f55790505b50915060005b8181146118455761182685828151811061178657fe5b83828151811061183257fe5b6020908102919091010152600101611810565b50506107f5611aaf565b60005473ffffffffffffffffffffffffffffffffffffffff1633146107b1576000546107b190610a6c90339073ffffffffffffffffffffffffffffffffffffffff16612b9e565b6004546040517fe1a5430ebec577336427f40f15822f1f36c5e3509ff209d6db9e6c9e6941cb0b916118e29173ffffffffffffffffffffffffffffffffffffffff90911690849061537b565b60405180910390a1600480547fffffffffffffffffffffffff00000000000000000000000000000000000000001673ffffffffffffffffffffffffffffffffffffffff92909216919091179055565b6000547501000000000000000000000000000000000000000000900460ff1690565b6060600061196c600154856126fd90919063ffffffff16565b9050611979848483612bbb565b60608401516119888180612c8f565b60008281526005602052604080822080547fffffffffffffffffffffffffffffffffffffffffffffffffffffffffffffff001660011790556080870151905160609130916119d6919061530d565b600060405180830381855af49150503d8060008114611a11576040519150601f19603f3d011682016040523d82523d6000602084013e611a16565b606091505b509150915081611a2d57611a2d610a6c8583612cf2565b611a38836000612c8f565b60405184907fa4a7329f1dd821363067e07d359e347b4af9b1efe4b6cccf13240228af3c800d90600090a29695505050505050565b600080547fffffffffffffffffffff00ffffffffffffffffffffffffffffffffffffffffff167501000000000000000000000000000000000000000000179055565b600080547fffffffffffffffffffff00ffffffffffffffffffffffffffffffffffffffffff1690556107b1612d0f565b60005474010000000000000000000000000000000000000000900460ff1615611b0d57611b0d610a6c612d43565b600080547fffffffffffffffffffffff00ffffffffffffffffffffffffffffffffffffffff1674010000000000000000000000000000000000000000179055565b611b566145f5565b611b5f82611151565b9050611b6b8282612d7a565b600381516006811115611b7a57fe5b14611b855750610843565b610c50828260200151612e29565b611b9b611931565b6107b1576107b1612d0f565b600080547fffffffffffffffffffffff00ffffffffffffffffffffffffffffffffffffffff169055565b600082821115611bea57611bea610a6c60028585612ed2565b50900390565b611bf861456a565b6040516060907f9b44d5560000000000000000000000000000000000000000000000000000000090611c3290879087908790602401615a63565b604051602081830303815290604052907bffffffffffffffffffffffffffffffffffffffffffffffffffffffff19166020820180517bffffffffffffffffffffffffffffffffffffffffffffffffffffffff83818316178352505050509050600060603073ffffffffffffffffffffffffffffffffffffffff1683604051611cba919061530d565b600060405180830381855af49150503d8060008114611cf5576040519150601f19603f3d011682016040523d82523d6000602084013e611cfa565b606091505b50915091508115611d2757805160a014611d1057fe5b80806020019051611d249190810190614f30565b93505b5050509392505050565b611d3961456a565b81518351611d4c9163ffffffff612ef116565b815260208083015190840151611d679163ffffffff612ef116565b602082015260408083015190840151611d859163ffffffff612ef116565b604082015260608083015190840151611da39163ffffffff612ef116565b606082015260808083015190840151611dc19163ffffffff612ef116565b608082015292915050565b60065460009073ffffffffffffffffffffffffffffffffffffffff16818115611df55781611df7565b335b9250505090565b6060634ad3127560e01b848484604051602401611e1d939291906153a2565b604080517fffffffffffffffffffffffffffffffffffffffffffffffffffffffffffffffe08184030181529190526020810180517bffffffffffffffffffffffffffffffffffffffffffffffffffffffff167fffffffff000000000000000000000000000000000000000000000000000000009093169290921790915290509392505050565b805160208201fd5b611eb3614599565b8551611ec657611ec6610a6c6000612f0d565b8451611ed957611ed9610a6c6001612f0d565b8351865114611eef57611eef610a6c6002612f0d565b8251855114611f0557611f05610a6c6003612f0d565b8551604051908082528060200260200182016040528015611f4057816020015b611f2d61456a565b815260200190600190039081611f255790505b5081528451604080518281526020808402820101909152908015611f7e57816020015b611f6b61456a565b815260200190600190039081611f635790505b506020820152600080611f8f614617565b88600081518110611f9c57fe5b60200260200101519050611fae614617565b88600081518110611fbb57fe5b602002602001015190506000611fd083612839565b9150506000611fde83612839565b915050611fe961456a565b611ff161456a565b611ff96145c1565b61202c87878f8c8151811061200a57fe5b60200260200101518f8c8151811061201e57fe5b60200260200101518f6125f1565b80516020015190915061204690869063ffffffff612ef116565b945061206381602001516020015185612ef190919063ffffffff16565b9350612073838260000151611d31565b9250612083828260200151611d31565b91506120a081604001518b60400151612ef190919063ffffffff16565b60408b0152606080820151908b01516120be9163ffffffff612ef116565b60608b015260a08701518510612169578951805160018b019a85929181106120e257fe5b60200260200101819052506040518060a0016040528060008152602001600081526020016000815260200160008152602001600081525092508e5189141561214657818a60200151898151811061213557fe5b602002602001018190525050612207565b8e898151811061215257fe5b6020026020010151965061216587612839565b9550505b8560a00151841061220157818a6020015189806001019a508151811061218b57fe5b60200260200101819052506040518060a0016040528060008152602001600081526020016000815260200160008152602001600081525091508d518814156121de57828a600001518a8151811061213557fe5b8d88815181106121ea57fe5b602002602001015195506121fd86612839565b9450505b50611ff1565b505050505050505095945050505050565b6000610b6b8361224e61223282600163ffffffff611bd116565b612242888763ffffffff612fac16565b9063ffffffff612ef116565b9063ffffffff612fdd16565b6000612267848484613007565b905073ffffffffffffffffffffffffffffffffffffffff831661229457612294610a6c60068686866122d9565b600881818111156122a157fe5b60ff16106122b9576122b9610a6c60038686866122d9565b60008160088111156122c757fe5b141561096657610966610a6c60048686865b6060637e5a231860e01b858585856040516024016122fa94939291906158ba565b604080517fffffffffffffffffffffffffffffffffffffffffffffffffffffffffffffffe08184030181529190526020810180517bffffffffffffffffffffffffffffffffffffffffffffffffffffffff167fffffffff00000000000000000000000000000000000000000000000000000000909316929092179091529050949350505050565b6000600185600881111561239157fe5b14156123b85781516001146123b0576123b0610a6c60028686866122d9565b506000610b6b565b60028560088111156123c657fe5b14156124bf5781516042146123e5576123e5610a6c60028686866122d9565b6000826000815181106123f457fe5b016020015160f81c9050600061241184600163ffffffff61304616565b9050600061242685602163ffffffff61304616565b905060006001888585856040516000815260200160405260405161244d949392919061560c565b6020604051602081039080840390855afa15801561246f573d6000803e3d6000fd5b50506040517fffffffffffffffffffffffffffffffffffffffffffffffffffffffffffffffe0015173ffffffffffffffffffffffffffffffffffffffff8981169116149550610b6b945050505050565b60038560088111156124cd57fe5b141561257a5781516042146124ec576124ec610a6c60028686866122d9565b6000826000815181106124fb57fe5b016020015160f81c9050600061251884600163ffffffff61304616565b9050600061252d85602163ffffffff61304616565b905060006001886040516020016125449190615329565b604051602081830303815290604052805190602001208585856040516000815260200160405260405161244d949392919061560c565b600485600881111561258857fe5b14156125a057612599848484613070565b9050610b6b565b60068560088111156125ae57fe5b146125b557fe5b50600083815260076020908152604080832073ffffffffffffffffffffffffffffffffffffffff8616845290915290205460ff16949350505050565b6125f96145c1565b6101608087015161014080880191909152870151908601526126196145f5565b61262287611151565b905061262c6145f5565b61263587611151565b90506000612641611dcc565b905061264f8984838a613266565b61265b88838389613266565b61266f89898560200151856020015161337e565b6126888989856040015185604001516003543a8b6133c3565b93506126a38982856020015186604001518860000151613518565b6126bc8882846020015185604001518860200151613518565b6126d2836020015183602001518b8b85896135f6565b50505095945050505050565b60606318e4b14160e01b848484604051602401611e1d9392919061589e565b60006109668261270c8561379d565b613825565b60608301516000908161272585838661225a565b9050600581600881111561273557fe5b141561275757612750612748878761385f565b868487613897565b925061278e565b600781600881111561276557fe5b141561277f57612750612778878761385f565b838661394b565b61278b81868487612381565b92505b50509392505050565b61279f61456a565b6127a76145f5565b6127b085611151565b905060006127bc611dcc565b90506127ca86838387613266565b60006127e783604001518860a00151611bd190919063ffffffff16565b905060006127f5878361395a565b905061280588826003543a613970565b945060008460200151905061282189858388604001518a613518565b61282d818a86896139e7565b50505050509392505050565b6000806128516001548461286a90919063ffffffff16565b6000818152600960205260409020549092509050915091565b60006109668261270c85613a7e565b82516000908161288a85838661225a565b9050600581600881111561289a57fe5b14156128ad576127506127488787613b55565b60078160088111156128bb57fe5b141561277f576127506127788787613b55565b8015612a8b5760208451816128df57fe5b066004146128f6576128f6610a6c60008787613b8d565b6000612908858263ffffffff613bac16565b7fffffffff00000000000000000000000000000000000000000000000000000000811660009081526002602052604090205490915073ffffffffffffffffffffffffffffffffffffffff168061296757612967610a6c60018989613b8d565b6040516060907fa85e59e400000000000000000000000000000000000000000000000000000000906129a39089908990899089906024016156b2565b604051602081830303815290604052907bffffffffffffffffffffffffffffffffffffffffffffffffffffffff19166020820180517bffffffffffffffffffffffffffffffffffffffffffffffffffffffff83818316178352505050509050600060608373ffffffffffffffffffffffffffffffffffffffff1683604051612a2b919061530d565b6000604051808303816000865af19150503d8060008114612a68576040519150601f19603f3d011682016040523d82523d6000602084013e612a6d565b606091505b509150915081612a8557612a85610a6c8b8b84613bf8565b50505050505b5050505050565b612a9a61456a565b612aa5848484612797565b90508281602001511461096657610966610a6c60028584602001516126de565b60606311c7b72060e01b8383604051602401612ae2929190615657565b604080517fffffffffffffffffffffffffffffffffffffffffffffffffffffffffffffffe08184030181529190526020810180517bffffffffffffffffffffffffffffffffffffffffffffffffffffffff167fffffffff0000000000000000000000000000000000000000000000000000000090931692909217909152905092915050565b60408051808201909152600481527fe69edc3e00000000000000000000000000000000000000000000000000000000602082015290565b6060631de45ad160e01b8383604051602401612ae292919061537b565b82602001514210612bd457612bd4610a6c600183613c17565b60408301513a8114612bee57612bee610a6c833a84613c34565b60065473ffffffffffffffffffffffffffffffffffffffff168015612c1a57612c1a610a6c8483613c53565b60008381526005602052604090205460ff1615612c3f57612c3f610a6c600085613c17565b606085015173ffffffffffffffffffffffffffffffffffffffff81163314801590612c725750612c70868587612711565b155b15612c8757612c87610a6c60018684896122d9565b505050505050565b73ffffffffffffffffffffffffffffffffffffffff82163314610c50576006805473ffffffffffffffffffffffffffffffffffffffff83167fffffffffffffffffffffffff00000000000000000000000000000000000000009091161790555050565b60606320d11f6160e01b8383604051602401612ae2929190615550565b47801561084357604051339082156108fc029083906000818181858888f19350505050158015610c50573d6000803e3d6000fd5b60408051808201909152600481527f0c3b823f00000000000000000000000000000000000000000000000000000000602082015290565b606082015173ffffffffffffffffffffffffffffffffffffffff1615612dce57606082015173ffffffffffffffffffffffffffffffffffffffff163314612dce57612dce610a6c6002836020015133613c70565b6000612dd8611dcc565b90508073ffffffffffffffffffffffffffffffffffffffff16836000015173ffffffffffffffffffffffffffffffffffffffff1614612e2457612e24610a6c6000846020015184613c70565b505050565b6000818152600a60205260409081902080547fffffffffffffffffffffffffffffffffffffffffffffffffffffffffffffff001660011790558281015183516101408501516101608601519351859473ffffffffffffffffffffffffffffffffffffffff9485169493909316927f02c310a9a43963ff31a754a4099cc435ed498049687539d72d7818d9b093415c92612ec692909190339061571a565b60405180910390a45050565b606063e946c1bb60e01b848484604051602401611e1d93929190615845565b60008282018381101561096657610966610a6c60008686612ed2565b606063d4092f4f60e01b82604051602401612f289190615832565b604080517fffffffffffffffffffffffffffffffffffffffffffffffffffffffffffffffe08184030181529190526020810180517bffffffffffffffffffffffffffffffffffffffffffffffffffffffff167fffffffff00000000000000000000000000000000000000000000000000000000909316929092179091529050919050565b600082612fbb575060006107f5565b82820282848281612fc857fe5b041461096657610966610a6c60018686612ed2565b600081612ff357612ff3610a6c60038585612ed2565b6000828481612ffe57fe5b04949350505050565b600081516000141561302357613023610a6c60028686866122d9565b8160018351038151811061303357fe5b016020015160f81c6008811115610b6b57fe5b6000816020018351101561306757613067610a6c6005855185602001613c8f565b50016020015190565b80516000906130a7837fffffffffffffffffffffffffffffffffffffffffffffffffffffffffffffffff830163ffffffff613cae16565b6040516060907f1626ba7e00000000000000000000000000000000000000000000000000000000906130df9088908790602401615550565b604080517fffffffffffffffffffffffffffffffffffffffffffffffffffffffffffffffe08184030181529190526020810180517bffffffffffffffffffffffffffffffffffffffffffffffffffffffff167fffffffff0000000000000000000000000000000000000000000000000000000090931692909217909152905061316e848363ffffffff613cae16565b600060608673ffffffffffffffffffffffffffffffffffffffff1683604051613197919061530d565b600060405180830381855afa9150503d80600081146131d2576040519150601f19603f3d011682016040523d82523d6000602084013e6131d7565b606091505b50915091508180156131ea575080516020145b1561324c577fb06713810000000000000000000000000000000000000000000000000000000061322182600063ffffffff613bac16565b7bffffffffffffffffffffffffffffffffffffffffffffffffffffffff191614945050505050610966565b61325b610a6c89898985613cb2565b505050509392505050565b60038351600681111561327557fe5b1461328f5761328f610a6c84602001518560000151613cd3565b606084015173ffffffffffffffffffffffffffffffffffffffff16156132e357606084015173ffffffffffffffffffffffffffffffffffffffff1633146132e3576132e3610a6c6002856020015133613c70565b602084015173ffffffffffffffffffffffffffffffffffffffff161561334d578173ffffffffffffffffffffffffffffffffffffffff16846020015173ffffffffffffffffffffffffffffffffffffffff161461334d5761334d610a6c6001856020015185613c70565b61335c84846020015183612879565b61337857613378610a6c600085602001518760000151856122d9565b50505050565b60a080840151908501516133979163ffffffff612fac16565b608080850151908601516133b09163ffffffff612fac16565b101561337857613378610a6c8383613cf0565b6133cb6145c1565b60a08801516000906133e3908863ffffffff611bd116565b905060006133fa8a608001518b60a0015184613d0d565b90506000613415888b60a00151611bd190919063ffffffff16565b9050600061342c8b608001518c60a0015184613d0d565b90508515613449576134428c8c85878587613d41565b945061345a565b6134578c8c85878587613e13565b94505b84515160808d015160c08e0151613472929190613d0d565b85516040015284516020015160a08d015160e08e0151613493929190613d0d565b85516060015260208501515160808c015160c08d01516134b4929190613d0d565b856020015160400181815250506134dc8560200151602001518c60a001518d60e00151613d0d565b60208601516060015260006134f7888a63ffffffff612fac16565b86516080908101829052602088015101525050505050979650505050505050565b602081015161352e90839063ffffffff612ef116565b600960008581526020019081526020016000208190555082856040015173ffffffffffffffffffffffffffffffffffffffff16866000015173ffffffffffffffffffffffffffffffffffffffff167f6869791f0a34781b29882982cc39e882768cf2c96995c2a110c577c53bc932d58861014001518961016001518a61018001518b6101a001518b338a600001518b602001518c604001518d606001518e608001516040516135e79b9a99989796959493929190615766565b60405180910390a45050505050565b835183516040808701519086015161014087015185516020015161361f918b91869088906128ce565b6136398a89610140015186868960200151602001516128ce565b6136538988610180015185848960200151604001516128ce565b61366d8a89610180015186858960000151604001516128ce565b6136838a896101400151868989604001516128ce565b61369989886101400151858989606001516128ce565b60006136b18b8b88600001516080015188888c613eac565b9050806136ce578551600060809182018190526020880151909101525b8173ffffffffffffffffffffffffffffffffffffffff168373ffffffffffffffffffffffffffffffffffffffff1614801561371e57506101a080890151908a015161371e9163ffffffff613f0816565b1561375c576137578b8a6101a0015189866137528b60200151606001518c6000015160600151612ef190919063ffffffff16565b6128ce565b613790565b6137768a896101a0015189858a60200151606001516128ce565b6137908b8a6101a0015189868a60000151606001516128ce565b5050505050505050505050565b608081810151825160208085015160408087015160609788015186519685019690962082517fec69816980a3a3ca4554410e60253953e9ff375ba4536a98adfa15cc71541508815294850195909552908301919091529481019490945273ffffffffffffffffffffffffffffffffffffffff9091169183019190915260a082015260c0902090565b6040517f19010000000000000000000000000000000000000000000000000000000000008152600281019290925260228201526042902090565b6040516060907fde047db40000000000000000000000000000000000000000000000000000000090612ae29085908590602401615a8e565b805160009060158110156138b5576138b5610a6c60028787876122d9565b60006138e9847fffffffffffffffffffffffffffffffffffffffffffffffffffffffffffffffeb840163ffffffff613f2d16565b73ffffffffffffffffffffffffffffffffffffffff80871660009081526008602090815260408083209385168352929052205490915060ff1661393357613933610a6c8683613f6d565b6139408188866015613f8a565b979650505050505050565b6000610b6b8385846001613f8a565b60008183106139695781610966565b5090919050565b61397861456a565b6020810184905260a08501516080860151613994918691613d0d565b815260a085015160c08601516139ab918691613d0d565b604082015260a085015160e08601516139c5918691613d0d565b60608201526139da828463ffffffff612fac16565b6080820152949350505050565b613a018484610160015184866000015185602001516128ce565b613a1b8484610140015185600001518585600001516128ce565b613a3584846101a0015184866040015185606001516128ce565b613a53848461018001518560000151866040015185604001516128ce565b6000613a69858360800151866000015186614161565b905080612a8b57600060808301525050505050565b6101408101516101608201516101808301516101a08401516000937ff80322eb8376aafb64eadf8f0d7623f22130fd9491a221e902b713cb984a753493909290916020871015613aca57fe5b7fffffffffffffffffffffffffffffffffffffffffffffffffffffffffffffffe087018051610140890180516101608b0180516101808d0180516101a08f0180519d89528c5160209d8e012087528b519b8d019b909b2084528951998c01999099208152875197909a019690962088526101e085209390945290529190529252919091529050919050565b6040516060907f3efe50c80000000000000000000000000000000000000000000000000000000090612ae29085908590602401615a41565b606063488219a660e01b848484604051602401611e1d9392919061580a565b60008160040183511015613bcd57613bcd610a6c6003855185600401613c8f565b5001602001517fffffffff000000000000000000000000000000000000000000000000000000001690565b6060634678472b60e01b848484604051602401611e1d93929190615569565b606063f598518460e01b8383604051602401612ae29291906158fe565b606063a26dac0960e01b848484604051602401611e1d939291906155f6565b606063dec4aedf60e01b8383604051602401612ae29291906154d7565b606063e53c76c860e01b848484604051602401611e1d93929190615866565b6060632800659560e01b848484604051602401611e1d939291906158ac565b9052565b6060631b8388f760e01b858585856040516024016122fa94939291906154fb565b606063fdb6ca8d60e01b8383604051602401612ae2929190615594565b606063b6555d6f60e01b8383604051602401612ae2929190615542565b6000613d1a8484846141a6565b15613d2d57613d2d610a6c85858561420c565b610b6b8361224e868563ffffffff612fac16565b613d496145c1565b81851184841184861115613d6957613d6289868661422b565b9250613db8565b86841115613da95782518790528251602001869052608088015160a0890151613d93919089613d0d565b6020808501805192909252905101879052613db8565b613db587878787614268565b92505b8115613dde576020808401510151835151613dd89163ffffffff611bd116565b60408401525b8015613e065782516020908101519084015151613e009163ffffffff611bd116565b60608401525b50505b9695505050505050565b613e1b6145c1565b82841115613e3557613e2e87848461422b565b9050613e83565b82841015613e745780518590528051602090810185905281015184905260a08601516080870151613e67919086614293565b6020808301510152613e83565b613e8085858585614268565b90505b6020808201510151815151613e9d9163ffffffff611bd116565b60408201529695505050505050565b60045460009073ffffffffffffffffffffffffffffffffffffffff168015613efe57476000613edf8a84848b8b8a6142cb565b9050613ef189848385038b8a8a6142cb565b5060019350505050613e09565b6000915050613e09565b6000815183511480156109665750508051602091820120825192909101919091201490565b60008160140183511015613f4e57613f4e610a6c6004855185601401613c8f565b50016014015173ffffffffffffffffffffffffffffffffffffffff1690565b606063a15c0d0660e01b8383604051602401612ae292919061537b565b8151600090613fa18484830363ffffffff613cae16565b6040516060907f20c13b0b0000000000000000000000000000000000000000000000000000000090613fd990889088906024016156f5565b604080517fffffffffffffffffffffffffffffffffffffffffffffffffffffffffffffffe08184030181529190526020810180517bffffffffffffffffffffffffffffffffffffffffffffffffffffffff167fffffffff00000000000000000000000000000000000000000000000000000000909316929092179091529050614068858363ffffffff613cae16565b600060608873ffffffffffffffffffffffffffffffffffffffff1683604051614091919061530d565b600060405180830381855afa9150503d80600081146140cc576040519150601f19603f3d011682016040523d82523d6000602084013e6140d1565b606091505b50915091508180156140e4575080516020145b15614146577f20c13b0b0000000000000000000000000000000000000000000000000000000061411b82600063ffffffff613bac16565b7bffffffffffffffffffffffffffffffffffffffffffffffffffffffff191614945050505050610b6b565b614155610a6c8a8a8a85614403565b50505050949350505050565b60045460009073ffffffffffffffffffffffffffffffffffffffff16801561419c576141918682478888886142cb565b506001915050610b6b565b6000915050610b6b565b6000826141b8576141b8610a6c614424565b8115806141c3575083155b156141d057506000610966565b600083806141da57fe5b85840990506141ef858463ffffffff612fac16565b614201826103e863ffffffff612fac16565b101595945050505050565b606063339f3de260e01b848484604051602401611e1d939291906155f6565b6142336145c1565b60208082018051859052518101839052815101839052608084015160a085015161425e919085613d0d565b8151529392505050565b6142706145c1565b805194909452835160209081019390935282840180519290925290519091015290565b60006142a084848461445b565b156142b3576142b3610a6c85858561420c565b610b6b8361224e61223282600163ffffffff611bd116565b60008385106142d75750825b6040516060907fa3b4a3270000000000000000000000000000000000000000000000000000000090614311908690869089906024016153a2565b604051602081830303815290604052907bffffffffffffffffffffffffffffffffffffffffffffffffffffffff19166020820180517bffffffffffffffffffffffffffffffffffffffffffffffffffffffff83818316178352505050509050600060608873ffffffffffffffffffffffffffffffffffffffff16848460405161439a919061530d565b60006040518083038185875af1925050503d80600081146143d7576040519150601f19603f3d011682016040523d82523d6000602084013e6143dc565b606091505b5091509150816143f6576143f6610a6c8b898989866144bf565b5050509695505050505050565b6060635bd0428d60e01b858585856040516024016122fa94939291906153d3565b60408051808201909152600481527fa791837c00000000000000000000000000000000000000000000000000000000602082015290565b60008261446d5761446d610a6c614424565b811580614478575083155b1561448557506000610966565b6000838061448f57fe5b8584099050836144a5818363ffffffff611bd116565b816144ac57fe5b0690506141ef858463ffffffff612fac16565b60606387cb1e7560e01b86868686866040516024016144e29594939291906155b1565b604080517fffffffffffffffffffffffffffffffffffffffffffffffffffffffffffffffe08184030181529190526020810180517bffffffffffffffffffffffffffffffffffffffffffffffffffffffff167fffffffff0000000000000000000000000000000000000000000000000000000090931692909217909152905095945050505050565b6040518060a0016040528060008152602001600081526020016000815260200160008152602001600081525090565b6040518060800160405280606081526020016060815260200160008152602001600081525090565b60405180608001604052806145d461456a565b81526020016145e161456a565b815260200160008152602001600081525090565b6040805160608101909152806000815260006020820181905260409091015290565b604051806101c00160405280600073ffffffffffffffffffffffffffffffffffffffff168152602001600073ffffffffffffffffffffffffffffffffffffffff168152602001600073ffffffffffffffffffffffffffffffffffffffff168152602001600073ffffffffffffffffffffffffffffffffffffffff168152602001600081526020016000815260200160008152602001600081526020016000815260200160008152602001606081526020016060815260200160608152602001606081525090565b803573ffffffffffffffffffffffffffffffffffffffff811681146107f557600080fd5b600082601f830112614712578081fd5b813561472561472082615b1f565b615af8565b81815291506020808301908481018184028601820187101561474657600080fd5b60005b8481101561476d5761475b88836146de565b84529282019290820190600101614749565b505050505092915050565b600082601f830112614788578081fd5b813561479661472082615b1f565b8181529150602080830190840160005b838110156147d3576147be8760208435890101614896565b835260209283019291909101906001016147a6565b5050505092915050565b600082601f8301126147ed578081fd5b81356147fb61472082615b1f565b8181529150602080830190840160005b838110156147d357614823876020843589010161491d565b8352602092830192919091019060010161480b565b600082601f830112614848578081fd5b813561485661472082615b1f565b81815291506020808301908481018184028601820187101561487757600080fd5b60005b8481101561476d5781358452928201929082019060010161487a565b600082601f8301126148a6578081fd5b813567ffffffffffffffff8111156148bc578182fd5b6148ed60207fffffffffffffffffffffffffffffffffffffffffffffffffffffffffffffffe0601f84011601615af8565b915080825283602082850101111561490457600080fd5b8060208401602084013760009082016020015292915050565b60006101c0808385031215614930578182fd5b61493981615af8565b91505061494683836146de565b815261495583602084016146de565b602082015261496783604084016146de565b604082015261497983606084016146de565b60608201526080820135608082015260a082013560a082015260c082013560c082015260e082013560e08201526101008083013581830152506101208083013581830152506101408083013567ffffffffffffffff808211156149db57600080fd5b6149e786838701614896565b83850152610160925082850135915080821115614a0357600080fd5b614a0f86838701614896565b83850152610180925082850135915080821115614a2b57600080fd5b614a3786838701614896565b838501526101a0925082850135915080821115614a5357600080fd5b50614a6085828601614896565b82840152505092915050565b600060a08284031215614a7d578081fd5b614a8760a0615af8565b90508135815260208201356020820152604082013560408201526060820135614aaf81615b89565b6060820152608082013567ffffffffffffffff811115614ace57600080fd5b614ada84828501614896565b60808301525092915050565b600060208284031215614af7578081fd5b61096683836146de565b60008060408385031215614b13578081fd5b614b1d84846146de565b9150614b2c84602085016146de565b90509250929050565b60008060408385031215614b47578182fd5b614b5184846146de565b915060208301358015158114614b65578182fd5b809150509250929050565b60008060008060808587031215614b85578182fd5b843567ffffffffffffffff80821115614b9c578384fd5b614ba888838901614778565b95506020870135915080821115614bbd578384fd5b614bc988838901614702565b94506040870135915080821115614bde578384fd5b614bea88838901614702565b93506060870135915080821115614bff578283fd5b50614c0c87828801614838565b91505092959194509250565b600060208284031215614c29578081fd5b813567ffffffffffffffff811115614c3f578182fd5b610b6b848285016147dd565b60008060008060808587031215614c60578182fd5b843567ffffffffffffffff80821115614c77578384fd5b614c83888389016147dd565b95506020870135915080821115614c98578384fd5b614ca4888389016147dd565b94506040870135915080821115614cb9578384fd5b614cc588838901614778565b93506060870135915080821115614cda578283fd5b50614c0c87828801614778565b600080600060608486031215614cfb578081fd5b833567ffffffffffffffff80821115614d12578283fd5b614d1e878388016147dd565b94506020860135915080821115614d33578283fd5b614d3f87838801614838565b93506040860135915080821115614d54578283fd5b50614d6186828701614778565b9150509250925092565b600080600060608486031215614d7f578081fd5b833567ffffffffffffffff80821115614d96578283fd5b614da2878388016147dd565b9450602086013593506040860135915080821115614d54578283fd5b60008060408385031215614dd0578182fd5b823567ffffffffffffffff80821115614de7578384fd5b81850186601f820112614df8578485fd5b80359250614e0861472084615b1f565b83815260208082019190838101885b87811015614e4057614e2e8c848435890101614a6c565b85529382019390820190600101614e17565b50919750880135945050505080821115614e58578283fd5b50614e6585828601614778565b9150509250929050565b600060208284031215614e80578081fd5b5035919050565b60008060408385031215614e99578182fd5b823591506020830135614b6581615b89565b600080600060608486031215614ebf578081fd5b833592506020840135614ed181615b89565b9150604084013567ffffffffffffffff811115614eec578182fd5b614d6186828701614896565b600060208284031215614f09578081fd5b813561096681615bab565b600060208284031215614f25578081fd5b815161096681615bab565b600060a08284031215614f41578081fd5b614f4b60a0615af8565b82518152602083015160208201526040830151604082015260608301516060820152608083015160808201528091505092915050565b600060208284031215614f92578081fd5b813567ffffffffffffffff811115614fa8578182fd5b610b6b8482850161491d565b60008060408385031215614fc6578182fd5b823567ffffffffffffffff80821115614fdd578384fd5b614fe98683870161491d565b93506020850135915080821115614ffe578283fd5b50614e6585828601614896565b60008060008060808587031215615020578182fd5b843567ffffffffffffffff80821115615037578384fd5b6150438883890161491d565b95506020870135915080821115615058578384fd5b6150648883890161491d565b94506040870135915080821115615079578384fd5b61508588838901614896565b9350606087013591508082111561509a578283fd5b50614c0c87828801614896565b6000806000606084860312156150bb578081fd5b833567ffffffffffffffff808211156150d2578283fd5b6150de8783880161491d565b94506020860135935060408601359150808211156150fa578283fd5b50614d6186828701614896565b60008060408385031215615119578182fd5b823567ffffffffffffffff80821115615130578384fd5b614fe986838701614a6c565b73ffffffffffffffffffffffffffffffffffffffff169052565b6000815180845260208401935060208301825b828110156151925761517c8683516151e6565b60a0959095019460209190910190600101615169565b5093949350505050565b600081518084526151b4816020860160208601615b3f565b601f017fffffffffffffffffffffffffffffffffffffffffffffffffffffffffffffffe0169290920160200192915050565b80518252602081015160208301526040810151604083015260608101516060830152608081015160808301525050565b60006101c061522684845161513c565b6020830151615238602086018261513c565b50604083015161524b604086018261513c565b50606083015161525e606086018261513c565b506080830151608085015260a083015160a085015260c083015160c085015260e083015160e08501526101008084015181860152506101208084015181860152506101408084015182828701526152b78387018261519c565b915050610160915081840151858203838701526152d4828261519c565b9250505061018080840151858303828701526152f0838261519c565b9150506101a091508184015185820383870152613e09828261519c565b6000825161531f818460208701615b3f565b9190910192915050565b7f19457468657265756d205369676e6564204d6573736167653a0a3332000000008152601c810191909152603c0190565b73ffffffffffffffffffffffffffffffffffffffff91909116815260200190565b73ffffffffffffffffffffffffffffffffffffffff92831681529116602082015260400190565b73ffffffffffffffffffffffffffffffffffffffff9384168152919092166020820152604081019190915260600190565b600073ffffffffffffffffffffffffffffffffffffffff8616825260806020830152615402608083018661519c565b8281036040840152615414818661519c565b8381036060850152615426818661519c565b98975050505050505050565b6000602080830181845280855180835260408601915060408482028701019250838701855b828110156154a3577fffffffffffffffffffffffffffffffffffffffffffffffffffffffffffffffc088860301845261549185835161519c565b94509285019290850190600101615457565b5092979650505050505050565b6000602082526109666020830184615156565b901515815260200190565b90815260200190565b91825273ffffffffffffffffffffffffffffffffffffffff16602082015260400190565b600085825273ffffffffffffffffffffffffffffffffffffffff8516602083015260806040830152615530608083018561519c565b8281036060840152613940818561519c565b918252602082015260400190565b600083825260406020830152610b6b604083018461519c565b600084825260606020830152615582606083018561519c565b8281036040840152613e09818561519c565b828152604081016155a483615b7f565b8260208301529392505050565b600086825285602083015273ffffffffffffffffffffffffffffffffffffffff808616604084015280851660608401525060a0608083015261394060a083018461519c565b9283526020830191909152604082015260600190565b93845260ff9290921660208401526040830152606082015260800190565b7fffffffff0000000000000000000000000000000000000000000000000000000091909116815260200190565b7fffffffff0000000000000000000000000000000000000000000000000000000092909216825273ffffffffffffffffffffffffffffffffffffffff16602082015260400190565b600060208252610966602083018461519c565b6000608082526156c5608083018761519c565b73ffffffffffffffffffffffffffffffffffffffff95861660208401529390941660408201526060015292915050565b600060408252615708604083018561519c565b8281036020840152610e1a818561519c565b60006060825261572d606083018661519c565b828103602084015261573f818661519c565b91505073ffffffffffffffffffffffffffffffffffffffff83166040830152949350505050565b600061016080835261577a8184018f61519c565b838103602085015261578c818f61519c565b91505082810360408401526157a1818d61519c565b83810360608501526157b3818d61519c565b73ffffffffffffffffffffffffffffffffffffffff9b8c16608086015299909a1660a0840152505060c081019590955260e08501939093526101008401919091526101208301526101409091015295945050505050565b600061581585615b6b565b84825283602083015260606040830152610e1a606083018461519c565b6020810161583f83615b75565b91905290565b6060810161585285615b75565b938152602081019290925260409091015290565b606081016003851061587457fe5b938152602081019290925273ffffffffffffffffffffffffffffffffffffffff1660409091015290565b606081016003851061585257fe5b606081016008851061585257fe5b60006158c586615b7f565b85825284602083015273ffffffffffffffffffffffffffffffffffffffff8416604083015260806060830152613e09608083018461519c565b6040810161590b84615b6b565b9281526020015290565b60208082526014908201527f5452414e53464552535f5355434345535346554c000000000000000000000000604082015260600190565b60006020825282516080602084015261596860a0840182615156565b602085015191507fffffffffffffffffffffffffffffffffffffffffffffffffffffffffffffffe08482030160408501526159a38183615156565b604086015160608601526060860151608086015280935050505092915050565b60a081016107f582846151e6565b6000610180820190506159e58284516151e6565b60208301516159f760a08401826151e6565b5060408301516101408301526060909201516101609091015290565b81516060820190615a2381615b7f565b80835250602083015160208301526040830151604083015292915050565b600060408252615a546040830185615216565b90508260208301529392505050565b600060608252615a766060830186615216565b8460208401528281036040840152613e09818561519c565b60006040825283516040830152602084015160608301526040840151608083015273ffffffffffffffffffffffffffffffffffffffff60608501511660a0830152608084015160a060c0840152615ae860e084018261519c565b9150508260208301529392505050565b60405181810167ffffffffffffffff81118282101715615b1757600080fd5b604052919050565b600067ffffffffffffffff821115615b35578081fd5b5060209081020190565b60005b83811015615b5a578181015183820152602001615b42565b838111156133785750506000910152565b6002811061084357fe5b6004811061084357fe5b6007811061084357fe5b73ffffffffffffffffffffffffffffffffffffffff8116811461084357600080fd5b7fffffffff000000000000000000000000000000000000000000000000000000008116811461084357600080fd5b8351602094850120835193850193909320604080517f8b73c3c69bb8fe3d512ecc4cf759cc79239f7b179b0ffacaa9a75d522b39400f815295860194909452928401929092526060830152608082015260a090209056fea365627a7a7231582068d971e83a5e2e9b73140e1a44a84b62c3d43f5760fbbba1a1bba09689c1f5c06c6578706572696d656e74616cf564736f6c63430005110040",
				"opcodes": "PUSH1 0x80 PUSH1 0x40 MSTORE PUSH1 0x0 DUP1 SLOAD PUSH1 0xFF PUSH1 0xA0 SHL NOT AND SWAP1 SSTORE CALLVALUE DUP1 ISZERO PUSH3 0x1E JUMPI PUSH1 0x0 DUP1 REVERT JUMPDEST POP PUSH1 0x40 MLOAD PUSH3 0x5DB3 CODESIZE SUB DUP1 PUSH3 0x5DB3 DUP4 CODECOPY DUP2 ADD PUSH1 0x40 DUP2 SWAP1 MSTORE PUSH3 0x41 SWAP2 PUSH3 0x117 JUMP JUMPDEST PUSH1 0x0 DUP1 SLOAD PUSH1 0x1 PUSH1 0x1 PUSH1 0xA0 SHL SUB NOT AND CALLER OR DUP2 SSTORE DUP2 SWAP1 DUP1 ADDRESS SWAP1 POP PUSH3 0xB2 PUSH1 0x40 MLOAD DUP1 PUSH1 0x40 ADD PUSH1 0x40 MSTORE DUP1 PUSH1 0xB DUP2 MSTORE PUSH1 0x20 ADD PUSH11 0xC1E08141C9BDD1BD8DBDB PUSH1 0xAA SHL DUP2 MSTORE POP PUSH1 0x40 MLOAD DUP1 PUSH1 0x40 ADD PUSH1 0x40 MSTORE DUP1 PUSH1 0x5 DUP2 MSTORE PUSH1 0x20 ADD PUSH5 0x332E302E3 PUSH1 0xDC SHL DUP2 MSTORE POP DUP6 DUP5 PUSH3 0xC0 PUSH1 0x20 SHL PUSH3 0x5BD9 OR PUSH1 0x20 SHR JUMP JUMPDEST PUSH1 0x1 SSTORE POP PUSH3 0x130 SWAP3 POP POP POP JUMP JUMPDEST DUP4 MLOAD PUSH1 0x20 SWAP5 DUP6 ADD KECCAK256 DUP4 MLOAD SWAP4 DUP6 ADD SWAP4 SWAP1 SWAP4 KECCAK256 PUSH1 0x40 DUP1 MLOAD PUSH32 0x8B73C3C69BB8FE3D512ECC4CF759CC79239F7B179B0FFACAA9A75D522B39400F DUP2 MSTORE SWAP6 DUP7 ADD SWAP5 SWAP1 SWAP5 MSTORE SWAP3 DUP5 ADD SWAP3 SWAP1 SWAP3 MSTORE PUSH1 0x60 DUP4 ADD MSTORE PUSH1 0x80 DUP3 ADD MSTORE PUSH1 0xA0 SWAP1 KECCAK256 SWAP1 JUMP JUMPDEST PUSH1 0x0 PUSH1 0x20 DUP3 DUP5 SUB SLT ISZERO PUSH3 0x129 JUMPI DUP1 DUP2 REVERT JUMPDEST POP MLOAD SWAP2 SWAP1 POP JUMP JUMPDEST PUSH2 0x5C73 DUP1 PUSH3 0x140 PUSH1 0x0 CODECOPY PUSH1 0x0 RETURN INVALID PUSH1 0x80 PUSH1 0x40 MSTORE PUSH1 0x4 CALLDATASIZE LT PUSH2 0x2DC JUMPI PUSH1 0x0 CALLDATALOAD PUSH1 0xE0 SHR DUP1 PUSH4 0x8D45CD23 GT PUSH2 0x184 JUMPI DUP1 PUSH4 0xBEEE2E14 GT PUSH2 0xD6 JUMPI DUP1 PUSH4 0xDD885E2D GT PUSH2 0x8A JUMPI DUP1 PUSH4 0xEEA086BA GT PUSH2 0x64 JUMPI DUP1 PUSH4 0xEEA086BA EQ PUSH2 0x735 JUMPI DUP1 PUSH4 0xF2FDE38B EQ PUSH2 0x74A JUMPI DUP1 PUSH4 0xFC74896D EQ PUSH2 0x76A JUMPI PUSH2 0x2DC JUMP JUMPDEST DUP1 PUSH4 0xDD885E2D EQ PUSH2 0x6ED JUMPI DUP1 PUSH4 0xDEDFC1F1 EQ PUSH2 0x70F JUMPI DUP1 PUSH4 0xE14B58C4 EQ PUSH2 0x722 JUMPI PUSH2 0x2DC JUMP JUMPDEST DUP1 PUSH4 0xC26CFECD GT PUSH2 0xBB JUMPI DUP1 PUSH4 0xC26CFECD EQ PUSH2 0x698 JUMPI DUP1 PUSH4 0xC585BB93 EQ PUSH2 0x6AD JUMPI DUP1 PUSH4 0xD9BFA73E EQ PUSH2 0x6CD JUMPI PUSH2 0x2DC JUMP JUMPDEST DUP1 PUSH4 0xBEEE2E14 EQ PUSH2 0x665 JUMPI DUP1 PUSH4 0xC0FA16CC EQ PUSH2 0x678 JUMPI PUSH2 0x2DC JUMP JUMPDEST DUP1 PUSH4 0x9B44D556 GT PUSH2 0x138 JUMPI DUP1 PUSH4 0xA6C3BF33 GT PUSH2 0x112 JUMPI DUP1 PUSH4 0xA6C3BF33 EQ PUSH2 0x61F JUMPI DUP1 PUSH4 0xB04FBDDD EQ PUSH2 0x632 JUMPI DUP1 PUSH4 0xB718E292 EQ PUSH2 0x652 JUMPI PUSH2 0x2DC JUMP JUMPDEST DUP1 PUSH4 0x9B44D556 EQ PUSH2 0x5BF JUMPI DUP1 PUSH4 0x9D3FA4B9 EQ PUSH2 0x5D2 JUMPI DUP1 PUSH4 0xA12DCC6F EQ PUSH2 0x5FF JUMPI PUSH2 0x2DC JUMP JUMPDEST DUP1 PUSH4 0x8EA8DFE4 GT PUSH2 0x169 JUMPI DUP1 PUSH4 0x8EA8DFE4 EQ PUSH2 0x56C JUMPI DUP1 PUSH4 0x9331C742 EQ PUSH2 0x58C JUMPI DUP1 PUSH4 0x9694A402 EQ PUSH2 0x5AC JUMPI PUSH2 0x2DC JUMP JUMPDEST DUP1 PUSH4 0x8D45CD23 EQ PUSH2 0x537 JUMPI DUP1 PUSH4 0x8DA5CB5B EQ PUSH2 0x557 JUMPI PUSH2 0x2DC JUMP JUMPDEST DUP1 PUSH4 0x60704108 GT PUSH2 0x23D JUMPI DUP1 PUSH4 0x7B8E3514 GT PUSH2 0x1F1 JUMPI DUP1 PUSH4 0x850A1501 GT PUSH2 0x1CB JUMPI DUP1 PUSH4 0x850A1501 EQ PUSH2 0x4EF JUMPI DUP1 PUSH4 0x88EC79FB EQ PUSH2 0x504 JUMPI DUP1 PUSH4 0x8BC8EFB3 EQ PUSH2 0x524 JUMPI PUSH2 0x2DC JUMP JUMPDEST DUP1 PUSH4 0x7B8E3514 EQ PUSH2 0x48F JUMPI DUP1 PUSH4 0x8171C407 EQ PUSH2 0x4AF JUMPI DUP1 PUSH4 0x82C174D0 EQ PUSH2 0x4CF JUMPI PUSH2 0x2DC JUMP JUMPDEST DUP1 PUSH4 0x6FCF3E9E GT PUSH2 0x222 JUMPI DUP1 PUSH4 0x6FCF3E9E EQ PUSH2 0x456 JUMPI DUP1 PUSH4 0x77FCCE68 EQ PUSH2 0x469 JUMPI DUP1 PUSH4 0x78D29AC1 EQ PUSH2 0x47C JUMPI PUSH2 0x2DC JUMP JUMPDEST DUP1 PUSH4 0x60704108 EQ PUSH2 0x409 JUMPI DUP1 PUSH4 0x6A1A80FD EQ PUSH2 0x436 JUMPI PUSH2 0x2DC JUMP JUMPDEST DUP1 PUSH4 0x2AC12622 GT PUSH2 0x294 JUMPI DUP1 PUSH4 0x369DA099 GT PUSH2 0x279 JUMPI DUP1 PUSH4 0x369DA099 EQ PUSH2 0x3C3 JUMPI DUP1 PUSH4 0x46C02D7A EQ PUSH2 0x3E3 JUMPI DUP1 PUSH4 0x4F9559B1 EQ PUSH2 0x3F6 JUMPI PUSH2 0x2DC JUMP JUMPDEST DUP1 PUSH4 0x2AC12622 EQ PUSH2 0x390 JUMPI DUP1 PUSH4 0x2DA62987 EQ PUSH2 0x3B0 JUMPI PUSH2 0x2DC JUMP JUMPDEST DUP1 PUSH4 0x1CE4C78B GT PUSH2 0x2C5 JUMPI DUP1 PUSH4 0x1CE4C78B EQ PUSH2 0x32E JUMPI DUP1 PUSH4 0x2280C910 EQ PUSH2 0x350 JUMPI DUP1 PUSH4 0x288CDC91 EQ PUSH2 0x370 JUMPI PUSH2 0x2DC JUMP JUMPDEST DUP1 PUSH4 0x228E168 EQ PUSH2 0x2E1 JUMPI DUP1 PUSH4 0xEFCA185 EQ PUSH2 0x317 JUMPI JUMPDEST PUSH1 0x0 DUP1 REVERT JUMPDEST CALLVALUE DUP1 ISZERO PUSH2 0x2ED JUMPI PUSH1 0x0 DUP1 REVERT JUMPDEST POP PUSH2 0x301 PUSH2 0x2FC CALLDATASIZE PUSH1 0x4 PUSH2 0x4E6F JUMP JUMPDEST PUSH2 0x78A JUMP JUMPDEST PUSH1 0x40 MLOAD PUSH2 0x30E SWAP2 SWAP1 PUSH2 0x54C3 JUMP JUMPDEST PUSH1 0x40 MLOAD DUP1 SWAP2 SUB SWAP1 RETURN JUMPDEST CALLVALUE DUP1 ISZERO PUSH2 0x323 JUMPI PUSH1 0x0 DUP1 REVERT JUMPDEST POP PUSH2 0x32C PUSH2 0x79F JUMP JUMPDEST STOP JUMPDEST CALLVALUE DUP1 ISZERO PUSH2 0x33A JUMPI PUSH1 0x0 DUP1 REVERT JUMPDEST POP PUSH2 0x343 PUSH2 0x7B3 JUMP JUMPDEST PUSH1 0x40 MLOAD PUSH2 0x30E SWAP2 SWAP1 PUSH2 0x54CE JUMP JUMPDEST PUSH2 0x363 PUSH2 0x35E CALLDATASIZE PUSH1 0x4 PUSH2 0x5107 JUMP JUMPDEST PUSH2 0x7B9 JUMP JUMPDEST PUSH1 0x40 MLOAD PUSH2 0x30E SWAP2 SWAP1 PUSH2 0x569F JUMP JUMPDEST CALLVALUE DUP1 ISZERO PUSH2 0x37C JUMPI PUSH1 0x0 DUP1 REVERT JUMPDEST POP PUSH2 0x343 PUSH2 0x38B CALLDATASIZE PUSH1 0x4 PUSH2 0x4E6F JUMP JUMPDEST PUSH2 0x7FB JUMP JUMPDEST CALLVALUE DUP1 ISZERO PUSH2 0x39C JUMPI PUSH1 0x0 DUP1 REVERT JUMPDEST POP PUSH2 0x301 PUSH2 0x3AB CALLDATASIZE PUSH1 0x4 PUSH2 0x4E6F JUMP JUMPDEST PUSH2 0x80D JUMP JUMPDEST PUSH2 0x32C PUSH2 0x3BE CALLDATASIZE PUSH1 0x4 PUSH2 0x4F81 JUMP JUMPDEST PUSH2 0x822 JUMP JUMPDEST PUSH2 0x3D6 PUSH2 0x3D1 CALLDATASIZE PUSH1 0x4 PUSH2 0x4D6B JUMP JUMPDEST PUSH2 0x846 JUMP JUMPDEST PUSH1 0x40 MLOAD PUSH2 0x30E SWAP2 SWAP1 PUSH2 0x59C3 JUMP JUMPDEST PUSH2 0x32C PUSH2 0x3F1 CALLDATASIZE PUSH1 0x4 PUSH2 0x4E6F JUMP JUMPDEST PUSH2 0x96D JUMP JUMPDEST PUSH2 0x32C PUSH2 0x404 CALLDATASIZE PUSH1 0x4 PUSH2 0x4E6F JUMP JUMPDEST PUSH2 0x9E0 JUMP JUMPDEST CALLVALUE DUP1 ISZERO PUSH2 0x415 JUMPI PUSH1 0x0 DUP1 REVERT JUMPDEST POP PUSH2 0x429 PUSH2 0x424 CALLDATASIZE PUSH1 0x4 PUSH2 0x4EF8 JUMP JUMPDEST PUSH2 0xAED JUMP JUMPDEST PUSH1 0x40 MLOAD PUSH2 0x30E SWAP2 SWAP1 PUSH2 0x535A JUMP JUMPDEST PUSH2 0x449 PUSH2 0x444 CALLDATASIZE PUSH1 0x4 PUSH2 0x4C4B JUMP JUMPDEST PUSH2 0xB3B JUMP JUMPDEST PUSH1 0x40 MLOAD PUSH2 0x30E SWAP2 SWAP1 PUSH2 0x594C JUMP JUMPDEST PUSH2 0x449 PUSH2 0x464 CALLDATASIZE PUSH1 0x4 PUSH2 0x4C4B JUMP JUMPDEST PUSH2 0xB73 JUMP JUMPDEST PUSH2 0x32C PUSH2 0x477 CALLDATASIZE PUSH1 0x4 PUSH2 0x4B35 JUMP JUMPDEST PUSH2 0xB91 JUMP JUMPDEST PUSH2 0x3D6 PUSH2 0x48A CALLDATASIZE PUSH1 0x4 PUSH2 0x4D6B JUMP JUMPDEST PUSH2 0xC54 JUMP JUMPDEST CALLVALUE DUP1 ISZERO PUSH2 0x49B JUMPI PUSH1 0x0 DUP1 REVERT JUMPDEST POP PUSH2 0x301 PUSH2 0x4AA CALLDATASIZE PUSH1 0x4 PUSH2 0x4B01 JUMP JUMPDEST PUSH2 0xDA4 JUMP JUMPDEST CALLVALUE DUP1 ISZERO PUSH2 0x4BB JUMPI PUSH1 0x0 DUP1 REVERT JUMPDEST POP PUSH2 0x301 PUSH2 0x4CA CALLDATASIZE PUSH1 0x4 PUSH2 0x4EAB JUMP JUMPDEST PUSH2 0xDC4 JUMP JUMPDEST CALLVALUE DUP1 ISZERO PUSH2 0x4DB JUMPI PUSH1 0x0 DUP1 REVERT JUMPDEST POP PUSH2 0x301 PUSH2 0x4EA CALLDATASIZE PUSH1 0x4 PUSH2 0x4E87 JUMP JUMPDEST PUSH2 0xE23 JUMP JUMPDEST CALLVALUE DUP1 ISZERO PUSH2 0x4FB JUMPI PUSH1 0x0 DUP1 REVERT JUMPDEST POP PUSH2 0x429 PUSH2 0xE43 JUMP JUMPDEST PUSH2 0x517 PUSH2 0x512 CALLDATASIZE PUSH1 0x4 PUSH2 0x500B JUMP JUMPDEST PUSH2 0xE5F JUMP JUMPDEST PUSH1 0x40 MLOAD PUSH2 0x30E SWAP2 SWAP1 PUSH2 0x59D1 JUMP JUMPDEST PUSH2 0x3D6 PUSH2 0x532 CALLDATASIZE PUSH1 0x4 PUSH2 0x4D6B JUMP JUMPDEST PUSH2 0xE7D JUMP JUMPDEST CALLVALUE DUP1 ISZERO PUSH2 0x543 JUMPI PUSH1 0x0 DUP1 REVERT JUMPDEST POP PUSH2 0x301 PUSH2 0x552 CALLDATASIZE PUSH1 0x4 PUSH2 0x5107 JUMP JUMPDEST PUSH2 0xEB1 JUMP JUMPDEST CALLVALUE DUP1 ISZERO PUSH2 0x563 JUMPI PUSH1 0x0 DUP1 REVERT JUMPDEST POP PUSH2 0x429 PUSH2 0xED6 JUMP JUMPDEST PUSH2 0x57F PUSH2 0x57A CALLDATASIZE PUSH1 0x4 PUSH2 0x4CE7 JUMP JUMPDEST PUSH2 0xEF2 JUMP JUMPDEST PUSH1 0x40 MLOAD PUSH2 0x30E SWAP2 SWAP1 PUSH2 0x54B0 JUMP JUMPDEST CALLVALUE DUP1 ISZERO PUSH2 0x598 JUMPI PUSH1 0x0 DUP1 REVERT JUMPDEST POP PUSH2 0x32C PUSH2 0x5A7 CALLDATASIZE PUSH1 0x4 PUSH2 0x4E6F JUMP JUMPDEST PUSH2 0x101D JUMP JUMPDEST PUSH2 0x57F PUSH2 0x5BA CALLDATASIZE PUSH1 0x4 PUSH2 0x4CE7 JUMP JUMPDEST PUSH2 0x1065 JUMP JUMPDEST PUSH2 0x3D6 PUSH2 0x5CD CALLDATASIZE PUSH1 0x4 PUSH2 0x50A7 JUMP JUMPDEST PUSH2 0x112C JUMP JUMPDEST CALLVALUE DUP1 ISZERO PUSH2 0x5DE JUMPI PUSH1 0x0 DUP1 REVERT JUMPDEST POP PUSH2 0x5F2 PUSH2 0x5ED CALLDATASIZE PUSH1 0x4 PUSH2 0x4F81 JUMP JUMPDEST PUSH2 0x1151 JUMP JUMPDEST PUSH1 0x40 MLOAD PUSH2 0x30E SWAP2 SWAP1 PUSH2 0x5A13 JUMP JUMPDEST CALLVALUE DUP1 ISZERO PUSH2 0x60B JUMPI PUSH1 0x0 DUP1 REVERT JUMPDEST POP PUSH2 0x301 PUSH2 0x61A CALLDATASIZE PUSH1 0x4 PUSH2 0x4FB4 JUMP JUMPDEST PUSH2 0x1246 JUMP JUMPDEST PUSH2 0x3D6 PUSH2 0x62D CALLDATASIZE PUSH1 0x4 PUSH2 0x4D6B JUMP JUMPDEST PUSH2 0x126B JUMP JUMPDEST CALLVALUE DUP1 ISZERO PUSH2 0x63E JUMPI PUSH1 0x0 DUP1 REVERT JUMPDEST POP PUSH2 0x32C PUSH2 0x64D CALLDATASIZE PUSH1 0x4 PUSH2 0x4B70 JUMP JUMPDEST PUSH2 0x129F JUMP JUMPDEST PUSH2 0x517 PUSH2 0x660 CALLDATASIZE PUSH1 0x4 PUSH2 0x500B JUMP JUMPDEST PUSH2 0x134B JUMP JUMPDEST PUSH2 0x57F PUSH2 0x673 CALLDATASIZE PUSH1 0x4 PUSH2 0x4CE7 JUMP JUMPDEST PUSH2 0x1369 JUMP JUMPDEST CALLVALUE DUP1 ISZERO PUSH2 0x684 JUMPI PUSH1 0x0 DUP1 REVERT JUMPDEST POP PUSH2 0x32C PUSH2 0x693 CALLDATASIZE PUSH1 0x4 PUSH2 0x4AE6 JUMP JUMPDEST PUSH2 0x141E JUMP JUMPDEST CALLVALUE DUP1 ISZERO PUSH2 0x6A4 JUMPI PUSH1 0x0 DUP1 REVERT JUMPDEST POP PUSH2 0x343 PUSH2 0x142F JUMP JUMPDEST CALLVALUE DUP1 ISZERO PUSH2 0x6B9 JUMPI PUSH1 0x0 DUP1 REVERT JUMPDEST POP PUSH2 0x32C PUSH2 0x6C8 CALLDATASIZE PUSH1 0x4 PUSH2 0x4AE6 JUMP JUMPDEST PUSH2 0x1435 JUMP JUMPDEST CALLVALUE DUP1 ISZERO PUSH2 0x6D9 JUMPI PUSH1 0x0 DUP1 REVERT JUMPDEST POP PUSH2 0x343 PUSH2 0x6E8 CALLDATASIZE PUSH1 0x4 PUSH2 0x4B01 JUMP JUMPDEST PUSH2 0x15C9 JUMP JUMPDEST CALLVALUE DUP1 ISZERO PUSH2 0x6F9 JUMPI PUSH1 0x0 DUP1 REVERT JUMPDEST POP PUSH2 0x702 PUSH2 0x15E6 JUMP JUMPDEST PUSH1 0x40 MLOAD PUSH2 0x30E SWAP2 SWAP1 PUSH2 0x562A JUMP JUMPDEST PUSH2 0x32C PUSH2 0x71D CALLDATASIZE PUSH1 0x4 PUSH2 0x4C18 JUMP JUMPDEST PUSH2 0x160A JUMP JUMPDEST PUSH2 0x3D6 PUSH2 0x730 CALLDATASIZE PUSH1 0x4 PUSH2 0x50A7 JUMP JUMPDEST PUSH2 0x164C JUMP JUMPDEST CALLVALUE DUP1 ISZERO PUSH2 0x741 JUMPI PUSH1 0x0 DUP1 REVERT JUMPDEST POP PUSH2 0x429 PUSH2 0x1667 JUMP JUMPDEST CALLVALUE DUP1 ISZERO PUSH2 0x756 JUMPI PUSH1 0x0 DUP1 REVERT JUMPDEST POP PUSH2 0x32C PUSH2 0x765 CALLDATASIZE PUSH1 0x4 PUSH2 0x4AE6 JUMP JUMPDEST PUSH2 0x1683 JUMP JUMPDEST PUSH2 0x77D PUSH2 0x778 CALLDATASIZE PUSH1 0x4 PUSH2 0x4DBE JUMP JUMPDEST PUSH2 0x1726 JUMP JUMPDEST PUSH1 0x40 MLOAD PUSH2 0x30E SWAP2 SWAP1 PUSH2 0x5432 JUMP JUMPDEST PUSH1 0x5 PUSH1 0x20 MSTORE PUSH1 0x0 SWAP1 DUP2 MSTORE PUSH1 0x40 SWAP1 KECCAK256 SLOAD PUSH1 0xFF AND DUP2 JUMP JUMPDEST PUSH2 0x7A7 PUSH2 0x184F JUMP JUMPDEST PUSH2 0x7B1 PUSH1 0x0 PUSH2 0x1896 JUMP JUMPDEST JUMP JUMPDEST PUSH1 0x3 SLOAD DUP2 JUMP JUMPDEST PUSH1 0x60 PUSH2 0x7C3 PUSH2 0x1931 JUMP JUMPDEST ISZERO PUSH2 0x7D9 JUMPI PUSH2 0x7D2 DUP4 DUP4 PUSH2 0x1953 JUMP JUMPDEST SWAP1 POP PUSH2 0x7F5 JUMP JUMPDEST PUSH2 0x7E1 PUSH2 0x1A6D JUMP JUMPDEST PUSH2 0x7EB DUP4 DUP4 PUSH2 0x1953 JUMP JUMPDEST SWAP1 POP PUSH2 0x7F5 PUSH2 0x1AAF JUMP JUMPDEST SWAP3 SWAP2 POP POP JUMP JUMPDEST PUSH1 0x9 PUSH1 0x20 MSTORE PUSH1 0x0 SWAP1 DUP2 MSTORE PUSH1 0x40 SWAP1 KECCAK256 SLOAD DUP2 JUMP JUMPDEST PUSH1 0xA PUSH1 0x20 MSTORE PUSH1 0x0 SWAP1 DUP2 MSTORE PUSH1 0x40 SWAP1 KECCAK256 SLOAD PUSH1 0xFF AND DUP2 JUMP JUMPDEST PUSH2 0x82A PUSH2 0x1ADF JUMP JUMPDEST PUSH2 0x833 DUP2 PUSH2 0x1B4E JUMP JUMPDEST PUSH2 0x83B PUSH2 0x1B93 JUMP JUMPDEST PUSH2 0x843 PUSH2 0x1BA7 JUMP JUMPDEST POP JUMP JUMPDEST PUSH2 0x84E PUSH2 0x456A JUMP JUMPDEST PUSH2 0x856 PUSH2 0x1931 JUMP JUMPDEST ISZERO PUSH2 0x8EC JUMPI DUP4 MLOAD PUSH1 0x0 JUMPDEST DUP2 DUP2 EQ PUSH2 0x8E5 JUMPI PUSH1 0x0 PUSH2 0x880 DUP5 PUSH1 0x20 ADD MLOAD DUP8 PUSH2 0x1BD1 SWAP1 SWAP2 SWAP1 PUSH4 0xFFFFFFFF AND JUMP JUMPDEST SWAP1 POP PUSH2 0x88A PUSH2 0x456A JUMP JUMPDEST PUSH2 0x8BB DUP9 DUP5 DUP2 MLOAD DUP2 LT PUSH2 0x899 JUMPI INVALID JUMPDEST PUSH1 0x20 MUL PUSH1 0x20 ADD ADD MLOAD DUP4 DUP9 DUP7 DUP2 MLOAD DUP2 LT PUSH2 0x8AE JUMPI INVALID JUMPDEST PUSH1 0x20 MUL PUSH1 0x20 ADD ADD MLOAD PUSH2 0x1BF0 JUMP JUMPDEST SWAP1 POP PUSH2 0x8C7 DUP6 DUP3 PUSH2 0x1D31 JUMP JUMPDEST SWAP5 POP DUP7 DUP6 PUSH1 0x20 ADD MLOAD LT PUSH2 0x8DB JUMPI POP POP PUSH2 0x8E5 JUMP JUMPDEST POP POP PUSH1 0x1 ADD PUSH2 0x860 JUMP JUMPDEST POP POP PUSH2 0x966 JUMP JUMPDEST PUSH2 0x8F4 PUSH2 0x1A6D JUMP JUMPDEST DUP4 MLOAD PUSH1 0x0 JUMPDEST DUP2 DUP2 EQ PUSH2 0x95C JUMPI PUSH1 0x0 PUSH2 0x919 DUP5 PUSH1 0x20 ADD MLOAD DUP8 PUSH2 0x1BD1 SWAP1 SWAP2 SWAP1 PUSH4 0xFFFFFFFF AND JUMP JUMPDEST SWAP1 POP PUSH2 0x923 PUSH2 0x456A JUMP JUMPDEST PUSH2 0x932 DUP9 DUP5 DUP2 MLOAD DUP2 LT PUSH2 0x899 JUMPI INVALID JUMPDEST SWAP1 POP PUSH2 0x93E DUP6 DUP3 PUSH2 0x1D31 JUMP JUMPDEST SWAP5 POP DUP7 DUP6 PUSH1 0x20 ADD MLOAD LT PUSH2 0x952 JUMPI POP POP PUSH2 0x95C JUMP JUMPDEST POP POP PUSH1 0x1 ADD PUSH2 0x8F9 JUMP JUMPDEST POP POP PUSH2 0x966 PUSH2 0x1AAF JUMP JUMPDEST SWAP4 SWAP3 POP POP POP JUMP JUMPDEST PUSH2 0x975 PUSH2 0x1ADF JUMP JUMPDEST PUSH1 0x0 PUSH2 0x97F PUSH2 0x1DCC JUMP JUMPDEST PUSH1 0x0 DUP4 DUP2 MSTORE PUSH1 0x7 PUSH1 0x20 SWAP1 DUP2 MSTORE PUSH1 0x40 DUP1 DUP4 KECCAK256 PUSH20 0xFFFFFFFFFFFFFFFFFFFFFFFFFFFFFFFFFFFFFFFF SWAP1 SWAP5 AND DUP4 MSTORE SWAP3 SWAP1 MSTORE KECCAK256 DUP1 SLOAD PUSH32 0xFFFFFFFFFFFFFFFFFFFFFFFFFFFFFFFFFFFFFFFFFFFFFFFFFFFFFFFFFFFFFF00 AND PUSH1 0x1 OR SWAP1 SSTORE POP PUSH2 0x83B PUSH2 0x1B93 JUMP JUMPDEST PUSH2 0x9E8 PUSH2 0x1ADF JUMP JUMPDEST PUSH1 0x0 PUSH2 0x9F2 PUSH2 0x1DCC JUMP JUMPDEST SWAP1 POP PUSH1 0x0 PUSH20 0xFFFFFFFFFFFFFFFFFFFFFFFFFFFFFFFFFFFFFFFF DUP3 AND CALLER EQ PUSH2 0xA19 JUMPI CALLER PUSH2 0xA1C JUMP JUMPDEST PUSH1 0x0 JUMPDEST PUSH20 0xFFFFFFFFFFFFFFFFFFFFFFFFFFFFFFFFFFFFFFFF DUP1 DUP5 AND PUSH1 0x0 SWAP1 DUP2 MSTORE PUSH1 0xB PUSH1 0x20 SWAP1 DUP2 MSTORE PUSH1 0x40 DUP1 DUP4 KECCAK256 SWAP4 DUP6 AND DUP4 MSTORE SWAP3 SWAP1 MSTORE KECCAK256 SLOAD SWAP1 SWAP2 POP PUSH1 0x1 DUP5 ADD SWAP1 DUP1 DUP3 GT PUSH2 0xA71 JUMPI PUSH2 0xA71 PUSH2 0xA6C DUP6 DUP6 DUP5 PUSH2 0x1DFE JUMP JUMPDEST PUSH2 0x1EA3 JUMP JUMPDEST PUSH20 0xFFFFFFFFFFFFFFFFFFFFFFFFFFFFFFFFFFFFFFFF DUP1 DUP6 AND PUSH1 0x0 DUP2 DUP2 MSTORE PUSH1 0xB PUSH1 0x20 SWAP1 DUP2 MSTORE PUSH1 0x40 DUP1 DUP4 KECCAK256 SWAP5 DUP9 AND DUP1 DUP5 MSTORE SWAP5 SWAP1 SWAP2 MSTORE SWAP1 DUP2 SWAP1 KECCAK256 DUP6 SWAP1 SSTORE MLOAD PUSH32 0x82AF639571738F4EBD4268FB0363D8957EBE1BBB9E78DBA5EBD69EED39B154F0 SWAP1 PUSH2 0xAD9 SWAP1 DUP7 SWAP1 PUSH2 0x54CE JUMP JUMPDEST PUSH1 0x40 MLOAD DUP1 SWAP2 SUB SWAP1 LOG3 POP POP POP POP PUSH2 0x83B PUSH2 0x1B93 JUMP JUMPDEST PUSH32 0xFFFFFFFF00000000000000000000000000000000000000000000000000000000 DUP2 AND PUSH1 0x0 SWAP1 DUP2 MSTORE PUSH1 0x2 PUSH1 0x20 MSTORE PUSH1 0x40 SWAP1 KECCAK256 SLOAD PUSH20 0xFFFFFFFFFFFFFFFFFFFFFFFFFFFFFFFFFFFFFFFF AND JUMPDEST SWAP2 SWAP1 POP JUMP JUMPDEST PUSH2 0xB43 PUSH2 0x4599 JUMP JUMPDEST PUSH2 0xB4B PUSH2 0x1ADF JUMP JUMPDEST PUSH2 0xB59 DUP6 DUP6 DUP6 DUP6 PUSH1 0x1 PUSH2 0x1EAB JUMP JUMPDEST SWAP1 POP PUSH2 0xB63 PUSH2 0x1B93 JUMP JUMPDEST PUSH2 0xB6B PUSH2 0x1BA7 JUMP JUMPDEST SWAP5 SWAP4 POP POP POP POP JUMP JUMPDEST PUSH2 0xB7B PUSH2 0x4599 JUMP JUMPDEST PUSH2 0xB83 PUSH2 0x1ADF JUMP JUMPDEST PUSH2 0xB59 DUP6 DUP6 DUP6 DUP6 PUSH1 0x0 PUSH2 0x1EAB JUMP JUMPDEST PUSH2 0xB99 PUSH2 0x1ADF JUMP JUMPDEST PUSH1 0x0 PUSH2 0xBA3 PUSH2 0x1DCC JUMP JUMPDEST PUSH20 0xFFFFFFFFFFFFFFFFFFFFFFFFFFFFFFFFFFFFFFFF DUP2 DUP2 AND PUSH1 0x0 DUP2 DUP2 MSTORE PUSH1 0x8 PUSH1 0x20 SWAP1 DUP2 MSTORE PUSH1 0x40 DUP1 DUP4 KECCAK256 SWAP5 DUP10 AND DUP1 DUP5 MSTORE SWAP5 SWAP1 SWAP2 MSTORE SWAP1 DUP2 SWAP1 KECCAK256 DUP1 SLOAD PUSH32 0xFFFFFFFFFFFFFFFFFFFFFFFFFFFFFFFFFFFFFFFFFFFFFFFFFFFFFFFFFFFFFF00 AND DUP8 ISZERO ISZERO OR SWAP1 SSTORE MLOAD SWAP3 SWAP4 POP SWAP1 SWAP2 PUSH32 0xA8656E308026EEABCE8F0BC18048433252318AB80AC79DA0B3D3D8697DFBA891 SWAP1 PUSH2 0xC37 SWAP1 DUP7 SWAP1 PUSH2 0x54C3 JUMP JUMPDEST PUSH1 0x40 MLOAD DUP1 SWAP2 SUB SWAP1 LOG3 POP PUSH2 0xC48 PUSH2 0x1B93 JUMP JUMPDEST PUSH2 0xC50 PUSH2 0x1BA7 JUMP JUMPDEST POP POP JUMP JUMPDEST PUSH2 0xC5C PUSH2 0x456A JUMP JUMPDEST PUSH2 0xC64 PUSH2 0x1931 JUMP JUMPDEST ISZERO PUSH2 0xD22 JUMPI DUP4 MLOAD PUSH1 0x0 JUMPDEST DUP2 DUP2 EQ PUSH2 0x8E5 JUMPI DUP3 MLOAD PUSH1 0x0 SWAP1 PUSH2 0xC8B SWAP1 DUP8 SWAP1 PUSH4 0xFFFFFFFF PUSH2 0x1BD1 AND JUMP JUMPDEST SWAP1 POP PUSH1 0x0 PUSH2 0xCC8 DUP9 DUP5 DUP2 MLOAD DUP2 LT PUSH2 0xC9E JUMPI INVALID JUMPDEST PUSH1 0x20 MUL PUSH1 0x20 ADD ADD MLOAD PUSH1 0xA0 ADD MLOAD DUP10 DUP6 DUP2 MLOAD DUP2 LT PUSH2 0xCB6 JUMPI INVALID JUMPDEST PUSH1 0x20 MUL PUSH1 0x20 ADD ADD MLOAD PUSH1 0x80 ADD MLOAD DUP5 PUSH2 0x2218 JUMP JUMPDEST SWAP1 POP PUSH2 0xCD2 PUSH2 0x456A JUMP JUMPDEST PUSH2 0xCF6 DUP10 DUP6 DUP2 MLOAD DUP2 LT PUSH2 0xCE1 JUMPI INVALID JUMPDEST PUSH1 0x20 MUL PUSH1 0x20 ADD ADD MLOAD DUP4 DUP10 DUP8 DUP2 MLOAD DUP2 LT PUSH2 0x8AE JUMPI INVALID JUMPDEST SWAP1 POP PUSH2 0xD02 DUP7 DUP3 PUSH2 0x1D31 JUMP JUMPDEST SWAP6 POP DUP8 DUP7 PUSH1 0x0 ADD MLOAD LT PUSH2 0xD17 JUMPI POP POP POP PUSH2 0x8E5 JUMP JUMPDEST POP POP POP PUSH1 0x1 ADD PUSH2 0xC6E JUMP JUMPDEST PUSH2 0xD2A PUSH2 0x1A6D JUMP JUMPDEST DUP4 MLOAD PUSH1 0x0 JUMPDEST DUP2 DUP2 EQ PUSH2 0x95C JUMPI DUP3 MLOAD PUSH1 0x0 SWAP1 PUSH2 0xD4C SWAP1 DUP8 SWAP1 PUSH4 0xFFFFFFFF PUSH2 0x1BD1 AND JUMP JUMPDEST SWAP1 POP PUSH1 0x0 PUSH2 0xD5F DUP9 DUP5 DUP2 MLOAD DUP2 LT PUSH2 0xC9E JUMPI INVALID JUMPDEST SWAP1 POP PUSH2 0xD69 PUSH2 0x456A JUMP JUMPDEST PUSH2 0xD78 DUP10 DUP6 DUP2 MLOAD DUP2 LT PUSH2 0xCE1 JUMPI INVALID JUMPDEST SWAP1 POP PUSH2 0xD84 DUP7 DUP3 PUSH2 0x1D31 JUMP JUMPDEST SWAP6 POP DUP8 DUP7 PUSH1 0x0 ADD MLOAD LT PUSH2 0xD99 JUMPI POP POP POP PUSH2 0x95C JUMP JUMPDEST POP POP POP PUSH1 0x1 ADD PUSH2 0xD2F JUMP JUMPDEST PUSH1 0x8 PUSH1 0x20 SWAP1 DUP2 MSTORE PUSH1 0x0 SWAP3 DUP4 MSTORE PUSH1 0x40 DUP1 DUP5 KECCAK256 SWAP1 SWAP2 MSTORE SWAP1 DUP3 MSTORE SWAP1 KECCAK256 SLOAD PUSH1 0xFF AND DUP2 JUMP JUMPDEST PUSH1 0x0 DUP1 PUSH2 0xDD2 DUP6 DUP6 DUP6 PUSH2 0x225A JUMP JUMPDEST SWAP1 POP PUSH1 0x5 DUP2 PUSH1 0x8 DUP2 GT ISZERO PUSH2 0xDE2 JUMPI INVALID JUMPDEST EQ DUP1 PUSH2 0xDF9 JUMPI POP PUSH1 0x7 DUP2 PUSH1 0x8 DUP2 GT ISZERO PUSH2 0xDF7 JUMPI INVALID JUMPDEST EQ JUMPDEST ISZERO PUSH2 0xE0E JUMPI PUSH2 0xE0E PUSH2 0xA6C PUSH1 0x5 DUP8 DUP8 DUP8 PUSH2 0x22D9 JUMP JUMPDEST PUSH2 0xE1A DUP2 DUP7 DUP7 DUP7 PUSH2 0x2381 JUMP JUMPDEST SWAP6 SWAP5 POP POP POP POP POP JUMP JUMPDEST PUSH1 0x7 PUSH1 0x20 SWAP1 DUP2 MSTORE PUSH1 0x0 SWAP3 DUP4 MSTORE PUSH1 0x40 DUP1 DUP5 KECCAK256 SWAP1 SWAP2 MSTORE SWAP1 DUP3 MSTORE SWAP1 KECCAK256 SLOAD PUSH1 0xFF AND DUP2 JUMP JUMPDEST PUSH1 0x4 SLOAD PUSH20 0xFFFFFFFFFFFFFFFFFFFFFFFFFFFFFFFFFFFFFFFF AND DUP2 JUMP JUMPDEST PUSH2 0xE67 PUSH2 0x45C1 JUMP JUMPDEST PUSH2 0xE6F PUSH2 0x1ADF JUMP JUMPDEST PUSH2 0xB59 DUP6 DUP6 DUP6 DUP6 PUSH1 0x0 PUSH2 0x25F1 JUMP JUMPDEST PUSH2 0xE85 PUSH2 0x456A JUMP JUMPDEST PUSH2 0xE90 DUP5 DUP5 DUP5 PUSH2 0xC54 JUMP JUMPDEST SWAP1 POP DUP3 DUP2 PUSH1 0x0 ADD MLOAD LT ISZERO PUSH2 0x966 JUMPI PUSH2 0x966 PUSH2 0xA6C PUSH1 0x0 DUP6 DUP5 PUSH1 0x0 ADD MLOAD PUSH2 0x26DE JUMP JUMPDEST PUSH1 0x0 DUP1 PUSH2 0xEC9 PUSH1 0x1 SLOAD DUP6 PUSH2 0x26FD SWAP1 SWAP2 SWAP1 PUSH4 0xFFFFFFFF AND JUMP JUMPDEST SWAP1 POP PUSH2 0xB6B DUP5 DUP3 DUP6 PUSH2 0x2711 JUMP JUMPDEST PUSH1 0x0 SLOAD PUSH20 0xFFFFFFFFFFFFFFFFFFFFFFFFFFFFFFFFFFFFFFFF AND DUP2 JUMP JUMPDEST PUSH1 0x60 PUSH2 0xEFC PUSH2 0x1931 JUMP JUMPDEST ISZERO PUSH2 0xF9F JUMPI DUP4 MLOAD PUSH1 0x40 DUP1 MLOAD DUP3 DUP2 MSTORE PUSH1 0x20 DUP1 DUP5 MUL DUP3 ADD ADD SWAP1 SWAP2 MSTORE DUP2 DUP1 ISZERO PUSH2 0xF3C JUMPI DUP2 PUSH1 0x20 ADD JUMPDEST PUSH2 0xF29 PUSH2 0x456A JUMP JUMPDEST DUP2 MSTORE PUSH1 0x20 ADD SWAP1 PUSH1 0x1 SWAP1 SUB SWAP1 DUP2 PUSH2 0xF21 JUMPI SWAP1 POP JUMPDEST POP SWAP2 POP PUSH1 0x0 JUMPDEST DUP2 DUP2 EQ PUSH2 0x8E5 JUMPI PUSH2 0xF80 DUP7 DUP3 DUP2 MLOAD DUP2 LT PUSH2 0xF58 JUMPI INVALID JUMPDEST PUSH1 0x20 MUL PUSH1 0x20 ADD ADD MLOAD DUP7 DUP4 DUP2 MLOAD DUP2 LT PUSH2 0xF6C JUMPI INVALID JUMPDEST PUSH1 0x20 MUL PUSH1 0x20 ADD ADD MLOAD DUP7 DUP5 DUP2 MLOAD DUP2 LT PUSH2 0x8AE JUMPI INVALID JUMPDEST DUP4 DUP3 DUP2 MLOAD DUP2 LT PUSH2 0xF8C JUMPI INVALID JUMPDEST PUSH1 0x20 SWAP1 DUP2 MUL SWAP2 SWAP1 SWAP2 ADD ADD MSTORE PUSH1 0x1 ADD PUSH2 0xF42 JUMP JUMPDEST PUSH2 0xFA7 PUSH2 0x1A6D JUMP JUMPDEST DUP4 MLOAD PUSH1 0x40 DUP1 MLOAD DUP3 DUP2 MSTORE PUSH1 0x20 DUP1 DUP5 MUL DUP3 ADD ADD SWAP1 SWAP2 MSTORE DUP2 DUP1 ISZERO PUSH2 0xFE2 JUMPI DUP2 PUSH1 0x20 ADD JUMPDEST PUSH2 0xFCF PUSH2 0x456A JUMP JUMPDEST DUP2 MSTORE PUSH1 0x20 ADD SWAP1 PUSH1 0x1 SWAP1 SUB SWAP1 DUP2 PUSH2 0xFC7 JUMPI SWAP1 POP JUMPDEST POP SWAP2 POP PUSH1 0x0 JUMPDEST DUP2 DUP2 EQ PUSH2 0x95C JUMPI PUSH2 0xFFE DUP7 DUP3 DUP2 MLOAD DUP2 LT PUSH2 0xF58 JUMPI INVALID JUMPDEST DUP4 DUP3 DUP2 MLOAD DUP2 LT PUSH2 0x100A JUMPI INVALID JUMPDEST PUSH1 0x20 SWAP1 DUP2 MUL SWAP2 SWAP1 SWAP2 ADD ADD MSTORE PUSH1 0x1 ADD PUSH2 0xFE8 JUMP JUMPDEST PUSH2 0x1025 PUSH2 0x184F JUMP JUMPDEST PUSH32 0x3A3E76D7A75E198AEF1F53137E4F2A8A2EC74E2E9526DB8404D08CCC9F1E621D PUSH1 0x3 SLOAD DUP3 PUSH1 0x40 MLOAD PUSH2 0x1058 SWAP3 SWAP2 SWAP1 PUSH2 0x5542 JUMP JUMPDEST PUSH1 0x40 MLOAD DUP1 SWAP2 SUB SWAP1 LOG1 PUSH1 0x3 SSTORE JUMP JUMPDEST PUSH1 0x60 PUSH2 0x106F PUSH2 0x1ADF JUMP JUMPDEST DUP4 MLOAD PUSH1 0x40 DUP1 MLOAD DUP3 DUP2 MSTORE PUSH1 0x20 DUP1 DUP5 MUL DUP3 ADD ADD SWAP1 SWAP2 MSTORE DUP2 DUP1 ISZERO PUSH2 0x10AA JUMPI DUP2 PUSH1 0x20 ADD JUMPDEST PUSH2 0x1097 PUSH2 0x456A JUMP JUMPDEST DUP2 MSTORE PUSH1 0x20 ADD SWAP1 PUSH1 0x1 SWAP1 SUB SWAP1 DUP2 PUSH2 0x108F JUMPI SWAP1 POP JUMPDEST POP SWAP2 POP PUSH1 0x0 JUMPDEST DUP2 DUP2 EQ PUSH2 0x111A JUMPI PUSH2 0x10FB DUP7 DUP3 DUP2 MLOAD DUP2 LT PUSH2 0x10C6 JUMPI INVALID JUMPDEST PUSH1 0x20 MUL PUSH1 0x20 ADD ADD MLOAD DUP7 DUP4 DUP2 MLOAD DUP2 LT PUSH2 0x10DA JUMPI INVALID JUMPDEST PUSH1 0x20 MUL PUSH1 0x20 ADD ADD MLOAD DUP7 DUP5 DUP2 MLOAD DUP2 LT PUSH2 0x10EE JUMPI INVALID JUMPDEST PUSH1 0x20 MUL PUSH1 0x20 ADD ADD MLOAD PUSH2 0x2797 JUMP JUMPDEST DUP4 DUP3 DUP2 MLOAD DUP2 LT PUSH2 0x1107 JUMPI INVALID JUMPDEST PUSH1 0x20 SWAP1 DUP2 MUL SWAP2 SWAP1 SWAP2 ADD ADD MSTORE PUSH1 0x1 ADD PUSH2 0x10B0 JUMP JUMPDEST POP POP PUSH2 0x1124 PUSH2 0x1B93 JUMP JUMPDEST PUSH2 0x966 PUSH2 0x1BA7 JUMP JUMPDEST PUSH2 0x1134 PUSH2 0x456A JUMP JUMPDEST PUSH2 0x113C PUSH2 0x1ADF JUMP JUMPDEST PUSH2 0x1147 DUP5 DUP5 DUP5 PUSH2 0x2797 JUMP JUMPDEST SWAP1 POP PUSH2 0x1124 PUSH2 0x1B93 JUMP JUMPDEST PUSH2 0x1159 PUSH2 0x45F5 JUMP JUMPDEST PUSH2 0x1162 DUP3 PUSH2 0x2839 JUMP JUMPDEST PUSH1 0x40 DUP4 ADD MSTORE PUSH1 0x20 DUP3 ADD MSTORE PUSH1 0x80 DUP3 ADD MLOAD PUSH2 0x118E JUMPI DUP1 PUSH1 0x1 JUMPDEST SWAP1 DUP2 PUSH1 0x6 DUP2 GT ISZERO PUSH2 0x1186 JUMPI INVALID JUMPDEST SWAP1 MSTORE POP PUSH2 0xB36 JUMP JUMPDEST PUSH1 0xA0 DUP3 ADD MLOAD PUSH2 0x119F JUMPI DUP1 PUSH1 0x2 PUSH2 0x1179 JUMP JUMPDEST DUP2 PUSH1 0xA0 ADD MLOAD DUP2 PUSH1 0x40 ADD MLOAD LT PUSH2 0x11B6 JUMPI DUP1 PUSH1 0x5 PUSH2 0x1179 JUMP JUMPDEST DUP2 PUSH2 0x100 ADD MLOAD TIMESTAMP LT PUSH2 0x11CA JUMPI DUP1 PUSH1 0x4 PUSH2 0x1179 JUMP JUMPDEST PUSH1 0x20 DUP1 DUP3 ADD MLOAD PUSH1 0x0 SWAP1 DUP2 MSTORE PUSH1 0xA SWAP1 SWAP2 MSTORE PUSH1 0x40 SWAP1 KECCAK256 SLOAD PUSH1 0xFF AND ISZERO PUSH2 0x11EF JUMPI DUP1 PUSH1 0x6 PUSH2 0x1179 JUMP JUMPDEST PUSH2 0x120 DUP3 ADD MLOAD DUP3 MLOAD PUSH20 0xFFFFFFFFFFFFFFFFFFFFFFFFFFFFFFFFFFFFFFFF SWAP1 DUP2 AND PUSH1 0x0 SWAP1 DUP2 MSTORE PUSH1 0xB PUSH1 0x20 SWAP1 DUP2 MSTORE PUSH1 0x40 DUP1 DUP4 KECCAK256 PUSH1 0x60 DUP9 ADD MLOAD SWAP1 SWAP5 AND DUP4 MSTORE SWAP3 SWAP1 MSTORE KECCAK256 SLOAD GT ISZERO PUSH2 0x123D JUMPI DUP1 PUSH1 0x6 PUSH2 0x1179 JUMP JUMPDEST PUSH1 0x3 DUP2 MSTORE SWAP2 SWAP1 POP JUMP JUMPDEST PUSH1 0x0 DUP1 PUSH2 0x125E PUSH1 0x1 SLOAD DUP6 PUSH2 0x286A SWAP1 SWAP2 SWAP1 PUSH4 0xFFFFFFFF AND JUMP JUMPDEST SWAP1 POP PUSH2 0xB6B DUP5 DUP3 DUP6 PUSH2 0x2879 JUMP JUMPDEST PUSH2 0x1273 PUSH2 0x456A JUMP JUMPDEST PUSH2 0x127E DUP5 DUP5 DUP5 PUSH2 0x846 JUMP JUMPDEST SWAP1 POP DUP3 DUP2 PUSH1 0x20 ADD MLOAD LT ISZERO PUSH2 0x966 JUMPI PUSH2 0x966 PUSH2 0xA6C PUSH1 0x1 DUP6 DUP5 PUSH1 0x20 ADD MLOAD PUSH2 0x26DE JUMP JUMPDEST DUP4 MLOAD PUSH1 0x0 JUMPDEST DUP2 DUP2 EQ PUSH2 0x130F JUMPI PUSH2 0x1307 DUP2 PUSH1 0x0 SHL DUP8 DUP4 DUP2 MLOAD DUP2 LT PUSH2 0x12BE JUMPI INVALID JUMPDEST PUSH1 0x20 MUL PUSH1 0x20 ADD ADD MLOAD DUP8 DUP5 DUP2 MLOAD DUP2 LT PUSH2 0x12D2 JUMPI INVALID JUMPDEST PUSH1 0x20 MUL PUSH1 0x20 ADD ADD MLOAD DUP8 DUP6 DUP2 MLOAD DUP2 LT PUSH2 0x12E6 JUMPI INVALID JUMPDEST PUSH1 0x20 MUL PUSH1 0x20 ADD ADD MLOAD DUP8 DUP7 DUP2 MLOAD DUP2 LT PUSH2 0x12FA JUMPI INVALID JUMPDEST PUSH1 0x20 MUL PUSH1 0x20 ADD ADD MLOAD PUSH2 0x28CE JUMP JUMPDEST PUSH1 0x1 ADD PUSH2 0x12A4 JUMP JUMPDEST POP PUSH1 0x40 MLOAD PUSH32 0x8C379A000000000000000000000000000000000000000000000000000000000 DUP2 MSTORE PUSH1 0x4 ADD PUSH2 0x1342 SWAP1 PUSH2 0x5915 JUMP JUMPDEST PUSH1 0x40 MLOAD DUP1 SWAP2 SUB SWAP1 REVERT JUMPDEST PUSH2 0x1353 PUSH2 0x45C1 JUMP JUMPDEST PUSH2 0x135B PUSH2 0x1ADF JUMP JUMPDEST PUSH2 0xB59 DUP6 DUP6 DUP6 DUP6 PUSH1 0x1 PUSH2 0x25F1 JUMP JUMPDEST PUSH1 0x60 PUSH2 0x1373 PUSH2 0x1ADF JUMP JUMPDEST DUP4 MLOAD PUSH1 0x40 DUP1 MLOAD DUP3 DUP2 MSTORE PUSH1 0x20 DUP1 DUP5 MUL DUP3 ADD ADD SWAP1 SWAP2 MSTORE DUP2 DUP1 ISZERO PUSH2 0x13AE JUMPI DUP2 PUSH1 0x20 ADD JUMPDEST PUSH2 0x139B PUSH2 0x456A JUMP JUMPDEST DUP2 MSTORE PUSH1 0x20 ADD SWAP1 PUSH1 0x1 SWAP1 SUB SWAP1 DUP2 PUSH2 0x1393 JUMPI SWAP1 POP JUMPDEST POP SWAP2 POP PUSH1 0x0 JUMPDEST DUP2 DUP2 EQ PUSH2 0x111A JUMPI PUSH2 0x13FF DUP7 DUP3 DUP2 MLOAD DUP2 LT PUSH2 0x13CA JUMPI INVALID JUMPDEST PUSH1 0x20 MUL PUSH1 0x20 ADD ADD MLOAD DUP7 DUP4 DUP2 MLOAD DUP2 LT PUSH2 0x13DE JUMPI INVALID JUMPDEST PUSH1 0x20 MUL PUSH1 0x20 ADD ADD MLOAD DUP7 DUP5 DUP2 MLOAD DUP2 LT PUSH2 0x13F2 JUMPI INVALID JUMPDEST PUSH1 0x20 MUL PUSH1 0x20 ADD ADD MLOAD PUSH2 0x2A92 JUMP JUMPDEST DUP4 DUP3 DUP2 MLOAD DUP2 LT PUSH2 0x140B JUMPI INVALID JUMPDEST PUSH1 0x20 SWAP1 DUP2 MUL SWAP2 SWAP1 SWAP2 ADD ADD MSTORE PUSH1 0x1 ADD PUSH2 0x13B4 JUMP JUMPDEST PUSH2 0x1426 PUSH2 0x184F JUMP JUMPDEST PUSH2 0x843 DUP2 PUSH2 0x1896 JUMP JUMPDEST PUSH1 0x1 SLOAD DUP2 JUMP JUMPDEST PUSH2 0x143D PUSH2 0x184F JUMP JUMPDEST PUSH1 0x0 DUP2 PUSH20 0xFFFFFFFFFFFFFFFFFFFFFFFFFFFFFFFFFFFFFFFF AND PUSH4 0xAE25532E PUSH1 0x40 MLOAD DUP2 PUSH4 0xFFFFFFFF AND PUSH1 0xE0 SHL DUP2 MSTORE PUSH1 0x4 ADD PUSH1 0x20 PUSH1 0x40 MLOAD DUP1 DUP4 SUB DUP2 DUP7 DUP1 EXTCODESIZE ISZERO DUP1 ISZERO PUSH2 0x1485 JUMPI PUSH1 0x0 DUP1 REVERT JUMPDEST POP GAS STATICCALL ISZERO DUP1 ISZERO PUSH2 0x1499 JUMPI RETURNDATASIZE PUSH1 0x0 DUP1 RETURNDATACOPY RETURNDATASIZE PUSH1 0x0 REVERT JUMPDEST POP POP POP POP PUSH1 0x40 MLOAD RETURNDATASIZE PUSH1 0x1F NOT PUSH1 0x1F DUP3 ADD AND DUP3 ADD DUP1 PUSH1 0x40 MSTORE POP PUSH2 0x14BD SWAP2 SWAP1 DUP2 ADD SWAP1 PUSH2 0x4F14 JUMP JUMPDEST PUSH32 0xFFFFFFFF00000000000000000000000000000000000000000000000000000000 DUP2 AND PUSH1 0x0 SWAP1 DUP2 MSTORE PUSH1 0x2 PUSH1 0x20 MSTORE PUSH1 0x40 SWAP1 KECCAK256 SLOAD SWAP1 SWAP2 POP PUSH20 0xFFFFFFFFFFFFFFFFFFFFFFFFFFFFFFFFFFFFFFFF AND DUP1 ISZERO PUSH2 0x151B JUMPI PUSH2 0x151B PUSH2 0xA6C DUP4 DUP4 PUSH2 0x2AC5 JUMP JUMPDEST PUSH32 0xFFFFFFFF00000000000000000000000000000000000000000000000000000000 DUP3 AND PUSH1 0x0 SWAP1 DUP2 MSTORE PUSH1 0x2 PUSH1 0x20 MSTORE PUSH1 0x40 SWAP1 DUP2 SWAP1 KECCAK256 DUP1 SLOAD PUSH32 0xFFFFFFFFFFFFFFFFFFFFFFFF0000000000000000000000000000000000000000 AND PUSH20 0xFFFFFFFFFFFFFFFFFFFFFFFFFFFFFFFFFFFFFFFF DUP7 AND OR SWAP1 SSTORE MLOAD PUSH32 0xD2C6B762299C609BDB96520B58A49BFB80186934D4F71A86A367571A15C03194 SWAP1 PUSH2 0x15BC SWAP1 DUP5 SWAP1 DUP7 SWAP1 PUSH2 0x5657 JUMP JUMPDEST PUSH1 0x40 MLOAD DUP1 SWAP2 SUB SWAP1 LOG1 POP POP POP JUMP JUMPDEST PUSH1 0xB PUSH1 0x20 SWAP1 DUP2 MSTORE PUSH1 0x0 SWAP3 DUP4 MSTORE PUSH1 0x40 DUP1 DUP5 KECCAK256 SWAP1 SWAP2 MSTORE SWAP1 DUP3 MSTORE SWAP1 KECCAK256 SLOAD DUP2 JUMP JUMPDEST PUSH32 0x20C13B0B00000000000000000000000000000000000000000000000000000000 DUP2 JUMP JUMPDEST PUSH2 0x1612 PUSH2 0x1ADF JUMP JUMPDEST DUP1 MLOAD PUSH1 0x0 JUMPDEST DUP2 DUP2 EQ PUSH2 0x1642 JUMPI PUSH2 0x163A DUP4 DUP3 DUP2 MLOAD DUP2 LT PUSH2 0x162D JUMPI INVALID JUMPDEST PUSH1 0x20 MUL PUSH1 0x20 ADD ADD MLOAD PUSH2 0x1B4E JUMP JUMPDEST PUSH1 0x1 ADD PUSH2 0x1617 JUMP JUMPDEST POP POP PUSH2 0x83B PUSH2 0x1B93 JUMP JUMPDEST PUSH2 0x1654 PUSH2 0x456A JUMP JUMPDEST PUSH2 0x165C PUSH2 0x1ADF JUMP JUMPDEST PUSH2 0x1147 DUP5 DUP5 DUP5 PUSH2 0x2A92 JUMP JUMPDEST PUSH1 0x6 SLOAD PUSH20 0xFFFFFFFFFFFFFFFFFFFFFFFFFFFFFFFFFFFFFFFF AND DUP2 JUMP JUMPDEST PUSH2 0x168B PUSH2 0x184F JUMP JUMPDEST PUSH20 0xFFFFFFFFFFFFFFFFFFFFFFFFFFFFFFFFFFFFFFFF DUP2 AND PUSH2 0x16B6 JUMPI PUSH2 0x16B1 PUSH2 0xA6C PUSH2 0x2B67 JUMP JUMPDEST PUSH2 0x843 JUMP JUMPDEST PUSH1 0x0 DUP1 SLOAD PUSH32 0xFFFFFFFFFFFFFFFFFFFFFFFF0000000000000000000000000000000000000000 AND PUSH20 0xFFFFFFFFFFFFFFFFFFFFFFFFFFFFFFFFFFFFFFFF DUP4 AND SWAP1 DUP2 OR DUP3 SSTORE PUSH1 0x40 MLOAD SWAP1 SWAP2 CALLER SWAP2 PUSH32 0x8BE0079C531659141344CD1FD0A4F28419497F9722A3DAAFE3B4186F6B6457E0 SWAP2 SWAP1 LOG3 POP JUMP JUMPDEST PUSH1 0x60 PUSH2 0x1730 PUSH2 0x1931 JUMP JUMPDEST ISZERO PUSH2 0x17CD JUMPI DUP3 MLOAD PUSH1 0x40 DUP1 MLOAD DUP3 DUP2 MSTORE PUSH1 0x20 DUP1 DUP5 MUL DUP3 ADD ADD SWAP1 SWAP2 MSTORE DUP2 DUP1 ISZERO PUSH2 0x176A JUMPI DUP2 PUSH1 0x20 ADD JUMPDEST PUSH1 0x60 DUP2 MSTORE PUSH1 0x20 ADD SWAP1 PUSH1 0x1 SWAP1 SUB SWAP1 DUP2 PUSH2 0x1755 JUMPI SWAP1 POP JUMPDEST POP SWAP2 POP PUSH1 0x0 JUMPDEST DUP2 DUP2 EQ PUSH2 0x17C6 JUMPI PUSH2 0x17A7 DUP6 DUP3 DUP2 MLOAD DUP2 LT PUSH2 0x1786 JUMPI INVALID JUMPDEST PUSH1 0x20 MUL PUSH1 0x20 ADD ADD MLOAD DUP6 DUP4 DUP2 MLOAD DUP2 LT PUSH2 0x179A JUMPI INVALID JUMPDEST PUSH1 0x20 MUL PUSH1 0x20 ADD ADD MLOAD PUSH2 0x1953 JUMP JUMPDEST DUP4 DUP3 DUP2 MLOAD DUP2 LT PUSH2 0x17B3 JUMPI INVALID JUMPDEST PUSH1 0x20 SWAP1 DUP2 MUL SWAP2 SWAP1 SWAP2 ADD ADD MSTORE PUSH1 0x1 ADD PUSH2 0x1770 JUMP JUMPDEST POP POP PUSH2 0x7F5 JUMP JUMPDEST PUSH2 0x17D5 PUSH2 0x1A6D JUMP JUMPDEST DUP3 MLOAD PUSH1 0x40 DUP1 MLOAD DUP3 DUP2 MSTORE PUSH1 0x20 DUP1 DUP5 MUL DUP3 ADD ADD SWAP1 SWAP2 MSTORE DUP2 DUP1 ISZERO PUSH2 0x180A JUMPI DUP2 PUSH1 0x20 ADD JUMPDEST PUSH1 0x60 DUP2 MSTORE PUSH1 0x20 ADD SWAP1 PUSH1 0x1 SWAP1 SUB SWAP1 DUP2 PUSH2 0x17F5 JUMPI SWAP1 POP JUMPDEST POP SWAP2 POP PUSH1 0x0 JUMPDEST DUP2 DUP2 EQ PUSH2 0x1845 JUMPI PUSH2 0x1826 DUP6 DUP3 DUP2 MLOAD DUP2 LT PUSH2 0x1786 JUMPI INVALID JUMPDEST DUP4 DUP3 DUP2 MLOAD DUP2 LT PUSH2 0x1832 JUMPI INVALID JUMPDEST PUSH1 0x20 SWAP1 DUP2 MUL SWAP2 SWAP1 SWAP2 ADD ADD MSTORE PUSH1 0x1 ADD PUSH2 0x1810 JUMP JUMPDEST POP POP PUSH2 0x7F5 PUSH2 0x1AAF JUMP JUMPDEST PUSH1 0x0 SLOAD PUSH20 0xFFFFFFFFFFFFFFFFFFFFFFFFFFFFFFFFFFFFFFFF AND CALLER EQ PUSH2 0x7B1 JUMPI PUSH1 0x0 SLOAD PUSH2 0x7B1 SWAP1 PUSH2 0xA6C SWAP1 CALLER SWAP1 PUSH20 0xFFFFFFFFFFFFFFFFFFFFFFFFFFFFFFFFFFFFFFFF AND PUSH2 0x2B9E JUMP JUMPDEST PUSH1 0x4 SLOAD PUSH1 0x40 MLOAD PUSH32 0xE1A5430EBEC577336427F40F15822F1F36C5E3509FF209D6DB9E6C9E6941CB0B SWAP2 PUSH2 0x18E2 SWAP2 PUSH20 0xFFFFFFFFFFFFFFFFFFFFFFFFFFFFFFFFFFFFFFFF SWAP1 SWAP2 AND SWAP1 DUP5 SWAP1 PUSH2 0x537B JUMP JUMPDEST PUSH1 0x40 MLOAD DUP1 SWAP2 SUB SWAP1 LOG1 PUSH1 0x4 DUP1 SLOAD PUSH32 0xFFFFFFFFFFFFFFFFFFFFFFFF0000000000000000000000000000000000000000 AND PUSH20 0xFFFFFFFFFFFFFFFFFFFFFFFFFFFFFFFFFFFFFFFF SWAP3 SWAP1 SWAP3 AND SWAP2 SWAP1 SWAP2 OR SWAP1 SSTORE JUMP JUMPDEST PUSH1 0x0 SLOAD PUSH22 0x1000000000000000000000000000000000000000000 SWAP1 DIV PUSH1 0xFF AND SWAP1 JUMP JUMPDEST PUSH1 0x60 PUSH1 0x0 PUSH2 0x196C PUSH1 0x1 SLOAD DUP6 PUSH2 0x26FD SWAP1 SWAP2 SWAP1 PUSH4 0xFFFFFFFF AND JUMP JUMPDEST SWAP1 POP PUSH2 0x1979 DUP5 DUP5 DUP4 PUSH2 0x2BBB JUMP JUMPDEST PUSH1 0x60 DUP5 ADD MLOAD PUSH2 0x1988 DUP2 DUP1 PUSH2 0x2C8F JUMP JUMPDEST PUSH1 0x0 DUP3 DUP2 MSTORE PUSH1 0x5 PUSH1 0x20 MSTORE PUSH1 0x40 DUP1 DUP3 KECCAK256 DUP1 SLOAD PUSH32 0xFFFFFFFFFFFFFFFFFFFFFFFFFFFFFFFFFFFFFFFFFFFFFFFFFFFFFFFFFFFFFF00 AND PUSH1 0x1 OR SWAP1 SSTORE PUSH1 0x80 DUP8 ADD MLOAD SWAP1 MLOAD PUSH1 0x60 SWAP2 ADDRESS SWAP2 PUSH2 0x19D6 SWAP2 SWAP1 PUSH2 0x530D JUMP JUMPDEST PUSH1 0x0 PUSH1 0x40 MLOAD DUP1 DUP4 SUB DUP2 DUP6 GAS DELEGATECALL SWAP2 POP POP RETURNDATASIZE DUP1 PUSH1 0x0 DUP2 EQ PUSH2 0x1A11 JUMPI PUSH1 0x40 MLOAD SWAP2 POP PUSH1 0x1F NOT PUSH1 0x3F RETURNDATASIZE ADD AND DUP3 ADD PUSH1 0x40 MSTORE RETURNDATASIZE DUP3 MSTORE RETURNDATASIZE PUSH1 0x0 PUSH1 0x20 DUP5 ADD RETURNDATACOPY PUSH2 0x1A16 JUMP JUMPDEST PUSH1 0x60 SWAP2 POP JUMPDEST POP SWAP2 POP SWAP2 POP DUP2 PUSH2 0x1A2D JUMPI PUSH2 0x1A2D PUSH2 0xA6C DUP6 DUP4 PUSH2 0x2CF2 JUMP JUMPDEST PUSH2 0x1A38 DUP4 PUSH1 0x0 PUSH2 0x2C8F JUMP JUMPDEST PUSH1 0x40 MLOAD DUP5 SWAP1 PUSH32 0xA4A7329F1DD821363067E07D359E347B4AF9B1EFE4B6CCCF13240228AF3C800D SWAP1 PUSH1 0x0 SWAP1 LOG2 SWAP7 SWAP6 POP POP POP POP POP POP JUMP JUMPDEST PUSH1 0x0 DUP1 SLOAD PUSH32 0xFFFFFFFFFFFFFFFFFFFF00FFFFFFFFFFFFFFFFFFFFFFFFFFFFFFFFFFFFFFFFFF AND PUSH22 0x1000000000000000000000000000000000000000000 OR SWAP1 SSTORE JUMP JUMPDEST PUSH1 0x0 DUP1 SLOAD PUSH32 0xFFFFFFFFFFFFFFFFFFFF00FFFFFFFFFFFFFFFFFFFFFFFFFFFFFFFFFFFFFFFFFF AND SWAP1 SSTORE PUSH2 0x7B1 PUSH2 0x2D0F JUMP JUMPDEST PUSH1 0x0 SLOAD PUSH21 0x10000000000000000000000000000000000000000 SWAP1 DIV PUSH1 0xFF AND ISZERO PUSH2 0x1B0D JUMPI PUSH2 0x1B0D PUSH2 0xA6C PUSH2 0x2D43 JUMP JUMPDEST PUSH1 0x0 DUP1 SLOAD PUSH32 0xFFFFFFFFFFFFFFFFFFFFFF00FFFFFFFFFFFFFFFFFFFFFFFFFFFFFFFFFFFFFFFF AND PUSH21 0x10000000000000000000000000000000000000000 OR SWAP1 SSTORE JUMP JUMPDEST PUSH2 0x1B56 PUSH2 0x45F5 JUMP JUMPDEST PUSH2 0x1B5F DUP3 PUSH2 0x1151 JUMP JUMPDEST SWAP1 POP PUSH2 0x1B6B DUP3 DUP3 PUSH2 0x2D7A JUMP JUMPDEST PUSH1 0x3 DUP2 MLOAD PUSH1 0x6 DUP2 GT ISZERO PUSH2 0x1B7A JUMPI INVALID JUMPDEST EQ PUSH2 0x1B85 JUMPI POP PUSH2 0x843 JUMP JUMPDEST PUSH2 0xC50 DUP3 DUP3 PUSH1 0x20 ADD MLOAD PUSH2 0x2E29 JUMP JUMPDEST PUSH2 0x1B9B PUSH2 0x1931 JUMP JUMPDEST PUSH2 0x7B1 JUMPI PUSH2 0x7B1 PUSH2 0x2D0F JUMP JUMPDEST PUSH1 0x0 DUP1 SLOAD PUSH32 0xFFFFFFFFFFFFFFFFFFFFFF00FFFFFFFFFFFFFFFFFFFFFFFFFFFFFFFFFFFFFFFF AND SWAP1 SSTORE JUMP JUMPDEST PUSH1 0x0 DUP3 DUP3 GT ISZERO PUSH2 0x1BEA JUMPI PUSH2 0x1BEA PUSH2 0xA6C PUSH1 0x2 DUP6 DUP6 PUSH2 0x2ED2 JUMP JUMPDEST POP SWAP1 SUB SWAP1 JUMP JUMPDEST PUSH2 0x1BF8 PUSH2 0x456A JUMP JUMPDEST PUSH1 0x40 MLOAD PUSH1 0x60 SWAP1 PUSH32 0x9B44D55600000000000000000000000000000000000000000000000000000000 SWAP1 PUSH2 0x1C32 SWAP1 DUP8 SWAP1 DUP8 SWAP1 DUP8 SWAP1 PUSH1 0x24 ADD PUSH2 0x5A63 JUMP JUMPDEST PUSH1 0x40 MLOAD PUSH1 0x20 DUP2 DUP4 SUB SUB DUP2 MSTORE SWAP1 PUSH1 0x40 MSTORE SWAP1 PUSH28 0xFFFFFFFFFFFFFFFFFFFFFFFFFFFFFFFFFFFFFFFFFFFFFFFFFFFFFFFF NOT AND PUSH1 0x20 DUP3 ADD DUP1 MLOAD PUSH28 0xFFFFFFFFFFFFFFFFFFFFFFFFFFFFFFFFFFFFFFFFFFFFFFFFFFFFFFFF DUP4 DUP2 DUP4 AND OR DUP4 MSTORE POP POP POP POP SWAP1 POP PUSH1 0x0 PUSH1 0x60 ADDRESS PUSH20 0xFFFFFFFFFFFFFFFFFFFFFFFFFFFFFFFFFFFFFFFF AND DUP4 PUSH1 0x40 MLOAD PUSH2 0x1CBA SWAP2 SWAP1 PUSH2 0x530D JUMP JUMPDEST PUSH1 0x0 PUSH1 0x40 MLOAD DUP1 DUP4 SUB DUP2 DUP6 GAS DELEGATECALL SWAP2 POP POP RETURNDATASIZE DUP1 PUSH1 0x0 DUP2 EQ PUSH2 0x1CF5 JUMPI PUSH1 0x40 MLOAD SWAP2 POP PUSH1 0x1F NOT PUSH1 0x3F RETURNDATASIZE ADD AND DUP3 ADD PUSH1 0x40 MSTORE RETURNDATASIZE DUP3 MSTORE RETURNDATASIZE PUSH1 0x0 PUSH1 0x20 DUP5 ADD RETURNDATACOPY PUSH2 0x1CFA JUMP JUMPDEST PUSH1 0x60 SWAP2 POP JUMPDEST POP SWAP2 POP SWAP2 POP DUP2 ISZERO PUSH2 0x1D27 JUMPI DUP1 MLOAD PUSH1 0xA0 EQ PUSH2 0x1D10 JUMPI INVALID JUMPDEST DUP1 DUP1 PUSH1 0x20 ADD SWAP1 MLOAD PUSH2 0x1D24 SWAP2 SWAP1 DUP2 ADD SWAP1 PUSH2 0x4F30 JUMP JUMPDEST SWAP4 POP JUMPDEST POP POP POP SWAP4 SWAP3 POP POP POP JUMP JUMPDEST PUSH2 0x1D39 PUSH2 0x456A JUMP JUMPDEST DUP2 MLOAD DUP4 MLOAD PUSH2 0x1D4C SWAP2 PUSH4 0xFFFFFFFF PUSH2 0x2EF1 AND JUMP JUMPDEST DUP2 MSTORE PUSH1 0x20 DUP1 DUP4 ADD MLOAD SWAP1 DUP5 ADD MLOAD PUSH2 0x1D67 SWAP2 PUSH4 0xFFFFFFFF PUSH2 0x2EF1 AND JUMP JUMPDEST PUSH1 0x20 DUP3 ADD MSTORE PUSH1 0x40 DUP1 DUP4 ADD MLOAD SWAP1 DUP5 ADD MLOAD PUSH2 0x1D85 SWAP2 PUSH4 0xFFFFFFFF PUSH2 0x2EF1 AND JUMP JUMPDEST PUSH1 0x40 DUP3 ADD MSTORE PUSH1 0x60 DUP1 DUP4 ADD MLOAD SWAP1 DUP5 ADD MLOAD PUSH2 0x1DA3 SWAP2 PUSH4 0xFFFFFFFF PUSH2 0x2EF1 AND JUMP JUMPDEST PUSH1 0x60 DUP3 ADD MSTORE PUSH1 0x80 DUP1 DUP4 ADD MLOAD SWAP1 DUP5 ADD MLOAD PUSH2 0x1DC1 SWAP2 PUSH4 0xFFFFFFFF PUSH2 0x2EF1 AND JUMP JUMPDEST PUSH1 0x80 DUP3 ADD MSTORE SWAP3 SWAP2 POP POP JUMP JUMPDEST PUSH1 0x6 SLOAD PUSH1 0x0 SWAP1 PUSH20 0xFFFFFFFFFFFFFFFFFFFFFFFFFFFFFFFFFFFFFFFF AND DUP2 DUP2 ISZERO PUSH2 0x1DF5 JUMPI DUP2 PUSH2 0x1DF7 JUMP JUMPDEST CALLER JUMPDEST SWAP3 POP POP POP SWAP1 JUMP JUMPDEST PUSH1 0x60 PUSH4 0x4AD31275 PUSH1 0xE0 SHL DUP5 DUP5 DUP5 PUSH1 0x40 MLOAD PUSH1 0x24 ADD PUSH2 0x1E1D SWAP4 SWAP3 SWAP2 SWAP1 PUSH2 0x53A2 JUMP JUMPDEST PUSH1 0x40 DUP1 MLOAD PUSH32 0xFFFFFFFFFFFFFFFFFFFFFFFFFFFFFFFFFFFFFFFFFFFFFFFFFFFFFFFFFFFFFFE0 DUP2 DUP5 SUB ADD DUP2 MSTORE SWAP2 SWAP1 MSTORE PUSH1 0x20 DUP2 ADD DUP1 MLOAD PUSH28 0xFFFFFFFFFFFFFFFFFFFFFFFFFFFFFFFFFFFFFFFFFFFFFFFFFFFFFFFF AND PUSH32 0xFFFFFFFF00000000000000000000000000000000000000000000000000000000 SWAP1 SWAP4 AND SWAP3 SWAP1 SWAP3 OR SWAP1 SWAP2 MSTORE SWAP1 POP SWAP4 SWAP3 POP POP POP JUMP JUMPDEST DUP1 MLOAD PUSH1 0x20 DUP3 ADD REVERT JUMPDEST PUSH2 0x1EB3 PUSH2 0x4599 JUMP JUMPDEST DUP6 MLOAD PUSH2 0x1EC6 JUMPI PUSH2 0x1EC6 PUSH2 0xA6C PUSH1 0x0 PUSH2 0x2F0D JUMP JUMPDEST DUP5 MLOAD PUSH2 0x1ED9 JUMPI PUSH2 0x1ED9 PUSH2 0xA6C PUSH1 0x1 PUSH2 0x2F0D JUMP JUMPDEST DUP4 MLOAD DUP7 MLOAD EQ PUSH2 0x1EEF JUMPI PUSH2 0x1EEF PUSH2 0xA6C PUSH1 0x2 PUSH2 0x2F0D JUMP JUMPDEST DUP3 MLOAD DUP6 MLOAD EQ PUSH2 0x1F05 JUMPI PUSH2 0x1F05 PUSH2 0xA6C PUSH1 0x3 PUSH2 0x2F0D JUMP JUMPDEST DUP6 MLOAD PUSH1 0x40 MLOAD SWAP1 DUP1 DUP3 MSTORE DUP1 PUSH1 0x20 MUL PUSH1 0x20 ADD DUP3 ADD PUSH1 0x40 MSTORE DUP1 ISZERO PUSH2 0x1F40 JUMPI DUP2 PUSH1 0x20 ADD JUMPDEST PUSH2 0x1F2D PUSH2 0x456A JUMP JUMPDEST DUP2 MSTORE PUSH1 0x20 ADD SWAP1 PUSH1 0x1 SWAP1 SUB SWAP1 DUP2 PUSH2 0x1F25 JUMPI SWAP1 POP JUMPDEST POP DUP2 MSTORE DUP5 MLOAD PUSH1 0x40 DUP1 MLOAD DUP3 DUP2 MSTORE PUSH1 0x20 DUP1 DUP5 MUL DUP3 ADD ADD SWAP1 SWAP2 MSTORE SWAP1 DUP1 ISZERO PUSH2 0x1F7E JUMPI DUP2 PUSH1 0x20 ADD JUMPDEST PUSH2 0x1F6B PUSH2 0x456A JUMP JUMPDEST DUP2 MSTORE PUSH1 0x20 ADD SWAP1 PUSH1 0x1 SWAP1 SUB SWAP1 DUP2 PUSH2 0x1F63 JUMPI SWAP1 POP JUMPDEST POP PUSH1 0x20 DUP3 ADD MSTORE PUSH1 0x0 DUP1 PUSH2 0x1F8F PUSH2 0x4617 JUMP JUMPDEST DUP9 PUSH1 0x0 DUP2 MLOAD DUP2 LT PUSH2 0x1F9C JUMPI INVALID JUMPDEST PUSH1 0x20 MUL PUSH1 0x20 ADD ADD MLOAD SWAP1 POP PUSH2 0x1FAE PUSH2 0x4617 JUMP JUMPDEST DUP9 PUSH1 0x0 DUP2 MLOAD DUP2 LT PUSH2 0x1FBB JUMPI INVALID JUMPDEST PUSH1 0x20 MUL PUSH1 0x20 ADD ADD MLOAD SWAP1 POP PUSH1 0x0 PUSH2 0x1FD0 DUP4 PUSH2 0x2839 JUMP JUMPDEST SWAP2 POP POP PUSH1 0x0 PUSH2 0x1FDE DUP4 PUSH2 0x2839 JUMP JUMPDEST SWAP2 POP POP PUSH2 0x1FE9 PUSH2 0x456A JUMP JUMPDEST PUSH2 0x1FF1 PUSH2 0x456A JUMP JUMPDEST PUSH2 0x1FF9 PUSH2 0x45C1 JUMP JUMPDEST PUSH2 0x202C DUP8 DUP8 DUP16 DUP13 DUP2 MLOAD DUP2 LT PUSH2 0x200A JUMPI INVALID JUMPDEST PUSH1 0x20 MUL PUSH1 0x20 ADD ADD MLOAD DUP16 DUP13 DUP2 MLOAD DUP2 LT PUSH2 0x201E JUMPI INVALID JUMPDEST PUSH1 0x20 MUL PUSH1 0x20 ADD ADD MLOAD DUP16 PUSH2 0x25F1 JUMP JUMPDEST DUP1 MLOAD PUSH1 0x20 ADD MLOAD SWAP1 SWAP2 POP PUSH2 0x2046 SWAP1 DUP7 SWAP1 PUSH4 0xFFFFFFFF PUSH2 0x2EF1 AND JUMP JUMPDEST SWAP5 POP PUSH2 0x2063 DUP2 PUSH1 0x20 ADD MLOAD PUSH1 0x20 ADD MLOAD DUP6 PUSH2 0x2EF1 SWAP1 SWAP2 SWAP1 PUSH4 0xFFFFFFFF AND JUMP JUMPDEST SWAP4 POP PUSH2 0x2073 DUP4 DUP3 PUSH1 0x0 ADD MLOAD PUSH2 0x1D31 JUMP JUMPDEST SWAP3 POP PUSH2 0x2083 DUP3 DUP3 PUSH1 0x20 ADD MLOAD PUSH2 0x1D31 JUMP JUMPDEST SWAP2 POP PUSH2 0x20A0 DUP2 PUSH1 0x40 ADD MLOAD DUP12 PUSH1 0x40 ADD MLOAD PUSH2 0x2EF1 SWAP1 SWAP2 SWAP1 PUSH4 0xFFFFFFFF AND JUMP JUMPDEST PUSH1 0x40 DUP12 ADD MSTORE PUSH1 0x60 DUP1 DUP3 ADD MLOAD SWAP1 DUP12 ADD MLOAD PUSH2 0x20BE SWAP2 PUSH4 0xFFFFFFFF PUSH2 0x2EF1 AND JUMP JUMPDEST PUSH1 0x60 DUP12 ADD MSTORE PUSH1 0xA0 DUP8 ADD MLOAD DUP6 LT PUSH2 0x2169 JUMPI DUP10 MLOAD DUP1 MLOAD PUSH1 0x1 DUP12 ADD SWAP11 DUP6 SWAP3 SWAP2 DUP2 LT PUSH2 0x20E2 JUMPI INVALID JUMPDEST PUSH1 0x20 MUL PUSH1 0x20 ADD ADD DUP2 SWAP1 MSTORE POP PUSH1 0x40 MLOAD DUP1 PUSH1 0xA0 ADD PUSH1 0x40 MSTORE DUP1 PUSH1 0x0 DUP2 MSTORE PUSH1 0x20 ADD PUSH1 0x0 DUP2 MSTORE PUSH1 0x20 ADD PUSH1 0x0 DUP2 MSTORE PUSH1 0x20 ADD PUSH1 0x0 DUP2 MSTORE PUSH1 0x20 ADD PUSH1 0x0 DUP2 MSTORE POP SWAP3 POP DUP15 MLOAD DUP10 EQ ISZERO PUSH2 0x2146 JUMPI DUP2 DUP11 PUSH1 0x20 ADD MLOAD DUP10 DUP2 MLOAD DUP2 LT PUSH2 0x2135 JUMPI INVALID JUMPDEST PUSH1 0x20 MUL PUSH1 0x20 ADD ADD DUP2 SWAP1 MSTORE POP POP PUSH2 0x2207 JUMP JUMPDEST DUP15 DUP10 DUP2 MLOAD DUP2 LT PUSH2 0x2152 JUMPI INVALID JUMPDEST PUSH1 0x20 MUL PUSH1 0x20 ADD ADD MLOAD SWAP7 POP PUSH2 0x2165 DUP8 PUSH2 0x2839 JUMP JUMPDEST SWAP6 POP POP JUMPDEST DUP6 PUSH1 0xA0 ADD MLOAD DUP5 LT PUSH2 0x2201 JUMPI DUP2 DUP11 PUSH1 0x20 ADD MLOAD DUP10 DUP1 PUSH1 0x1 ADD SWAP11 POP DUP2 MLOAD DUP2 LT PUSH2 0x218B JUMPI INVALID JUMPDEST PUSH1 0x20 MUL PUSH1 0x20 ADD ADD DUP2 SWAP1 MSTORE POP PUSH1 0x40 MLOAD DUP1 PUSH1 0xA0 ADD PUSH1 0x40 MSTORE DUP1 PUSH1 0x0 DUP2 MSTORE PUSH1 0x20 ADD PUSH1 0x0 DUP2 MSTORE PUSH1 0x20 ADD PUSH1 0x0 DUP2 MSTORE PUSH1 0x20 ADD PUSH1 0x0 DUP2 MSTORE PUSH1 0x20 ADD PUSH1 0x0 DUP2 MSTORE POP SWAP2 POP DUP14 MLOAD DUP9 EQ ISZERO PUSH2 0x21DE JUMPI DUP3 DUP11 PUSH1 0x0 ADD MLOAD DUP11 DUP2 MLOAD DUP2 LT PUSH2 0x2135 JUMPI INVALID JUMPDEST DUP14 DUP9 DUP2 MLOAD DUP2 LT PUSH2 0x21EA JUMPI INVALID JUMPDEST PUSH1 0x20 MUL PUSH1 0x20 ADD ADD MLOAD SWAP6 POP PUSH2 0x21FD DUP7 PUSH2 0x2839 JUMP JUMPDEST SWAP5 POP POP JUMPDEST POP PUSH2 0x1FF1 JUMP JUMPDEST POP POP POP POP POP POP POP POP SWAP6 SWAP5 POP POP POP POP POP JUMP JUMPDEST PUSH1 0x0 PUSH2 0xB6B DUP4 PUSH2 0x224E PUSH2 0x2232 DUP3 PUSH1 0x1 PUSH4 0xFFFFFFFF PUSH2 0x1BD1 AND JUMP JUMPDEST PUSH2 0x2242 DUP9 DUP8 PUSH4 0xFFFFFFFF PUSH2 0x2FAC AND JUMP JUMPDEST SWAP1 PUSH4 0xFFFFFFFF PUSH2 0x2EF1 AND JUMP JUMPDEST SWAP1 PUSH4 0xFFFFFFFF PUSH2 0x2FDD AND JUMP JUMPDEST PUSH1 0x0 PUSH2 0x2267 DUP5 DUP5 DUP5 PUSH2 0x3007 JUMP JUMPDEST SWAP1 POP PUSH20 0xFFFFFFFFFFFFFFFFFFFFFFFFFFFFFFFFFFFFFFFF DUP4 AND PUSH2 0x2294 JUMPI PUSH2 0x2294 PUSH2 0xA6C PUSH1 0x6 DUP7 DUP7 DUP7 PUSH2 0x22D9 JUMP JUMPDEST PUSH1 0x8 DUP2 DUP2 DUP2 GT ISZERO PUSH2 0x22A1 JUMPI INVALID JUMPDEST PUSH1 0xFF AND LT PUSH2 0x22B9 JUMPI PUSH2 0x22B9 PUSH2 0xA6C PUSH1 0x3 DUP7 DUP7 DUP7 PUSH2 0x22D9 JUMP JUMPDEST PUSH1 0x0 DUP2 PUSH1 0x8 DUP2 GT ISZERO PUSH2 0x22C7 JUMPI INVALID JUMPDEST EQ ISZERO PUSH2 0x966 JUMPI PUSH2 0x966 PUSH2 0xA6C PUSH1 0x4 DUP7 DUP7 DUP7 JUMPDEST PUSH1 0x60 PUSH4 0x7E5A2318 PUSH1 0xE0 SHL DUP6 DUP6 DUP6 DUP6 PUSH1 0x40 MLOAD PUSH1 0x24 ADD PUSH2 0x22FA SWAP5 SWAP4 SWAP3 SWAP2 SWAP1 PUSH2 0x58BA JUMP JUMPDEST PUSH1 0x40 DUP1 MLOAD PUSH32 0xFFFFFFFFFFFFFFFFFFFFFFFFFFFFFFFFFFFFFFFFFFFFFFFFFFFFFFFFFFFFFFE0 DUP2 DUP5 SUB ADD DUP2 MSTORE SWAP2 SWAP1 MSTORE PUSH1 0x20 DUP2 ADD DUP1 MLOAD PUSH28 0xFFFFFFFFFFFFFFFFFFFFFFFFFFFFFFFFFFFFFFFFFFFFFFFFFFFFFFFF AND PUSH32 0xFFFFFFFF00000000000000000000000000000000000000000000000000000000 SWAP1 SWAP4 AND SWAP3 SWAP1 SWAP3 OR SWAP1 SWAP2 MSTORE SWAP1 POP SWAP5 SWAP4 POP POP POP POP JUMP JUMPDEST PUSH1 0x0 PUSH1 0x1 DUP6 PUSH1 0x8 DUP2 GT ISZERO PUSH2 0x2391 JUMPI INVALID JUMPDEST EQ ISZERO PUSH2 0x23B8 JUMPI DUP2 MLOAD PUSH1 0x1 EQ PUSH2 0x23B0 JUMPI PUSH2 0x23B0 PUSH2 0xA6C PUSH1 0x2 DUP7 DUP7 DUP7 PUSH2 0x22D9 JUMP JUMPDEST POP PUSH1 0x0 PUSH2 0xB6B JUMP JUMPDEST PUSH1 0x2 DUP6 PUSH1 0x8 DUP2 GT ISZERO PUSH2 0x23C6 JUMPI INVALID JUMPDEST EQ ISZERO PUSH2 0x24BF JUMPI DUP2 MLOAD PUSH1 0x42 EQ PUSH2 0x23E5 JUMPI PUSH2 0x23E5 PUSH2 0xA6C PUSH1 0x2 DUP7 DUP7 DUP7 PUSH2 0x22D9 JUMP JUMPDEST PUSH1 0x0 DUP3 PUSH1 0x0 DUP2 MLOAD DUP2 LT PUSH2 0x23F4 JUMPI INVALID JUMPDEST ADD PUSH1 0x20 ADD MLOAD PUSH1 0xF8 SHR SWAP1 POP PUSH1 0x0 PUSH2 0x2411 DUP5 PUSH1 0x1 PUSH4 0xFFFFFFFF PUSH2 0x3046 AND JUMP JUMPDEST SWAP1 POP PUSH1 0x0 PUSH2 0x2426 DUP6 PUSH1 0x21 PUSH4 0xFFFFFFFF PUSH2 0x3046 AND JUMP JUMPDEST SWAP1 POP PUSH1 0x0 PUSH1 0x1 DUP9 DUP6 DUP6 DUP6 PUSH1 0x40 MLOAD PUSH1 0x0 DUP2 MSTORE PUSH1 0x20 ADD PUSH1 0x40 MSTORE PUSH1 0x40 MLOAD PUSH2 0x244D SWAP5 SWAP4 SWAP3 SWAP2 SWAP1 PUSH2 0x560C JUMP JUMPDEST PUSH1 0x20 PUSH1 0x40 MLOAD PUSH1 0x20 DUP2 SUB SWAP1 DUP1 DUP5 SUB SWAP1 DUP6 GAS STATICCALL ISZERO DUP1 ISZERO PUSH2 0x246F JUMPI RETURNDATASIZE PUSH1 0x0 DUP1 RETURNDATACOPY RETURNDATASIZE PUSH1 0x0 REVERT JUMPDEST POP POP PUSH1 0x40 MLOAD PUSH32 0xFFFFFFFFFFFFFFFFFFFFFFFFFFFFFFFFFFFFFFFFFFFFFFFFFFFFFFFFFFFFFFE0 ADD MLOAD PUSH20 0xFFFFFFFFFFFFFFFFFFFFFFFFFFFFFFFFFFFFFFFF DUP10 DUP2 AND SWAP2 AND EQ SWAP6 POP PUSH2 0xB6B SWAP5 POP POP POP POP POP JUMP JUMPDEST PUSH1 0x3 DUP6 PUSH1 0x8 DUP2 GT ISZERO PUSH2 0x24CD JUMPI INVALID JUMPDEST EQ ISZERO PUSH2 0x257A JUMPI DUP2 MLOAD PUSH1 0x42 EQ PUSH2 0x24EC JUMPI PUSH2 0x24EC PUSH2 0xA6C PUSH1 0x2 DUP7 DUP7 DUP7 PUSH2 0x22D9 JUMP JUMPDEST PUSH1 0x0 DUP3 PUSH1 0x0 DUP2 MLOAD DUP2 LT PUSH2 0x24FB JUMPI INVALID JUMPDEST ADD PUSH1 0x20 ADD MLOAD PUSH1 0xF8 SHR SWAP1 POP PUSH1 0x0 PUSH2 0x2518 DUP5 PUSH1 0x1 PUSH4 0xFFFFFFFF PUSH2 0x3046 AND JUMP JUMPDEST SWAP1 POP PUSH1 0x0 PUSH2 0x252D DUP6 PUSH1 0x21 PUSH4 0xFFFFFFFF PUSH2 0x3046 AND JUMP JUMPDEST SWAP1 POP PUSH1 0x0 PUSH1 0x1 DUP9 PUSH1 0x40 MLOAD PUSH1 0x20 ADD PUSH2 0x2544 SWAP2 SWAP1 PUSH2 0x5329 JUMP JUMPDEST PUSH1 0x40 MLOAD PUSH1 0x20 DUP2 DUP4 SUB SUB DUP2 MSTORE SWAP1 PUSH1 0x40 MSTORE DUP1 MLOAD SWAP1 PUSH1 0x20 ADD KECCAK256 DUP6 DUP6 DUP6 PUSH1 0x40 MLOAD PUSH1 0x0 DUP2 MSTORE PUSH1 0x20 ADD PUSH1 0x40 MSTORE PUSH1 0x40 MLOAD PUSH2 0x244D SWAP5 SWAP4 SWAP3 SWAP2 SWAP1 PUSH2 0x560C JUMP JUMPDEST PUSH1 0x4 DUP6 PUSH1 0x8 DUP2 GT ISZERO PUSH2 0x2588 JUMPI INVALID JUMPDEST EQ ISZERO PUSH2 0x25A0 JUMPI PUSH2 0x2599 DUP5 DUP5 DUP5 PUSH2 0x3070 JUMP JUMPDEST SWAP1 POP PUSH2 0xB6B JUMP JUMPDEST PUSH1 0x6 DUP6 PUSH1 0x8 DUP2 GT ISZERO PUSH2 0x25AE JUMPI INVALID JUMPDEST EQ PUSH2 0x25B5 JUMPI INVALID JUMPDEST POP PUSH1 0x0 DUP4 DUP2 MSTORE PUSH1 0x7 PUSH1 0x20 SWAP1 DUP2 MSTORE PUSH1 0x40 DUP1 DUP4 KECCAK256 PUSH20 0xFFFFFFFFFFFFFFFFFFFFFFFFFFFFFFFFFFFFFFFF DUP7 AND DUP5 MSTORE SWAP1 SWAP2 MSTORE SWAP1 KECCAK256 SLOAD PUSH1 0xFF AND SWAP5 SWAP4 POP POP POP POP JUMP JUMPDEST PUSH2 0x25F9 PUSH2 0x45C1 JUMP JUMPDEST PUSH2 0x160 DUP1 DUP8 ADD MLOAD PUSH2 0x140 DUP1 DUP9 ADD SWAP2 SWAP1 SWAP2 MSTORE DUP8 ADD MLOAD SWAP1 DUP7 ADD MSTORE PUSH2 0x2619 PUSH2 0x45F5 JUMP JUMPDEST PUSH2 0x2622 DUP8 PUSH2 0x1151 JUMP JUMPDEST SWAP1 POP PUSH2 0x262C PUSH2 0x45F5 JUMP JUMPDEST PUSH2 0x2635 DUP8 PUSH2 0x1151 JUMP JUMPDEST SWAP1 POP PUSH1 0x0 PUSH2 0x2641 PUSH2 0x1DCC JUMP JUMPDEST SWAP1 POP PUSH2 0x264F DUP10 DUP5 DUP4 DUP11 PUSH2 0x3266 JUMP JUMPDEST PUSH2 0x265B DUP9 DUP4 DUP4 DUP10 PUSH2 0x3266 JUMP JUMPDEST PUSH2 0x266F DUP10 DUP10 DUP6 PUSH1 0x20 ADD MLOAD DUP6 PUSH1 0x20 ADD MLOAD PUSH2 0x337E JUMP JUMPDEST PUSH2 0x2688 DUP10 DUP10 DUP6 PUSH1 0x40 ADD MLOAD DUP6 PUSH1 0x40 ADD MLOAD PUSH1 0x3 SLOAD GASPRICE DUP12 PUSH2 0x33C3 JUMP JUMPDEST SWAP4 POP PUSH2 0x26A3 DUP10 DUP3 DUP6 PUSH1 0x20 ADD MLOAD DUP7 PUSH1 0x40 ADD MLOAD DUP9 PUSH1 0x0 ADD MLOAD PUSH2 0x3518 JUMP JUMPDEST PUSH2 0x26BC DUP9 DUP3 DUP5 PUSH1 0x20 ADD MLOAD DUP6 PUSH1 0x40 ADD MLOAD DUP9 PUSH1 0x20 ADD MLOAD PUSH2 0x3518 JUMP JUMPDEST PUSH2 0x26D2 DUP4 PUSH1 0x20 ADD MLOAD DUP4 PUSH1 0x20 ADD MLOAD DUP12 DUP12 DUP6 DUP10 PUSH2 0x35F6 JUMP JUMPDEST POP POP POP SWAP6 SWAP5 POP POP POP POP POP JUMP JUMPDEST PUSH1 0x60 PUSH4 0x18E4B141 PUSH1 0xE0 SHL DUP5 DUP5 DUP5 PUSH1 0x40 MLOAD PUSH1 0x24 ADD PUSH2 0x1E1D SWAP4 SWAP3 SWAP2 SWAP1 PUSH2 0x589E JUMP JUMPDEST PUSH1 0x0 PUSH2 0x966 DUP3 PUSH2 0x270C DUP6 PUSH2 0x379D JUMP JUMPDEST PUSH2 0x3825 JUMP JUMPDEST PUSH1 0x60 DUP4 ADD MLOAD PUSH1 0x0 SWAP1 DUP2 PUSH2 0x2725 DUP6 DUP4 DUP7 PUSH2 0x225A JUMP JUMPDEST SWAP1 POP PUSH1 0x5 DUP2 PUSH1 0x8 DUP2 GT ISZERO PUSH2 0x2735 JUMPI INVALID JUMPDEST EQ ISZERO PUSH2 0x2757 JUMPI PUSH2 0x2750 PUSH2 0x2748 DUP8 DUP8 PUSH2 0x385F JUMP JUMPDEST DUP7 DUP5 DUP8 PUSH2 0x3897 JUMP JUMPDEST SWAP3 POP PUSH2 0x278E JUMP JUMPDEST PUSH1 0x7 DUP2 PUSH1 0x8 DUP2 GT ISZERO PUSH2 0x2765 JUMPI INVALID JUMPDEST EQ ISZERO PUSH2 0x277F JUMPI PUSH2 0x2750 PUSH2 0x2778 DUP8 DUP8 PUSH2 0x385F JUMP JUMPDEST DUP4 DUP7 PUSH2 0x394B JUMP JUMPDEST PUSH2 0x278B DUP2 DUP7 DUP5 DUP8 PUSH2 0x2381 JUMP JUMPDEST SWAP3 POP JUMPDEST POP POP SWAP4 SWAP3 POP POP POP JUMP JUMPDEST PUSH2 0x279F PUSH2 0x456A JUMP JUMPDEST PUSH2 0x27A7 PUSH2 0x45F5 JUMP JUMPDEST PUSH2 0x27B0 DUP6 PUSH2 0x1151 JUMP JUMPDEST SWAP1 POP PUSH1 0x0 PUSH2 0x27BC PUSH2 0x1DCC JUMP JUMPDEST SWAP1 POP PUSH2 0x27CA DUP7 DUP4 DUP4 DUP8 PUSH2 0x3266 JUMP JUMPDEST PUSH1 0x0 PUSH2 0x27E7 DUP4 PUSH1 0x40 ADD MLOAD DUP9 PUSH1 0xA0 ADD MLOAD PUSH2 0x1BD1 SWAP1 SWAP2 SWAP1 PUSH4 0xFFFFFFFF AND JUMP JUMPDEST SWAP1 POP PUSH1 0x0 PUSH2 0x27F5 DUP8 DUP4 PUSH2 0x395A JUMP JUMPDEST SWAP1 POP PUSH2 0x2805 DUP9 DUP3 PUSH1 0x3 SLOAD GASPRICE PUSH2 0x3970 JUMP JUMPDEST SWAP5 POP PUSH1 0x0 DUP5 PUSH1 0x20 ADD MLOAD SWAP1 POP PUSH2 0x2821 DUP10 DUP6 DUP4 DUP9 PUSH1 0x40 ADD MLOAD DUP11 PUSH2 0x3518 JUMP JUMPDEST PUSH2 0x282D DUP2 DUP11 DUP7 DUP10 PUSH2 0x39E7 JUMP JUMPDEST POP POP POP POP POP SWAP4 SWAP3 POP POP POP JUMP JUMPDEST PUSH1 0x0 DUP1 PUSH2 0x2851 PUSH1 0x1 SLOAD DUP5 PUSH2 0x286A SWAP1 SWAP2 SWAP1 PUSH4 0xFFFFFFFF AND JUMP JUMPDEST PUSH1 0x0 DUP2 DUP2 MSTORE PUSH1 0x9 PUSH1 0x20 MSTORE PUSH1 0x40 SWAP1 KECCAK256 SLOAD SWAP1 SWAP3 POP SWAP1 POP SWAP2 POP SWAP2 JUMP JUMPDEST PUSH1 0x0 PUSH2 0x966 DUP3 PUSH2 0x270C DUP6 PUSH2 0x3A7E JUMP JUMPDEST DUP3 MLOAD PUSH1 0x0 SWAP1 DUP2 PUSH2 0x288A DUP6 DUP4 DUP7 PUSH2 0x225A JUMP JUMPDEST SWAP1 POP PUSH1 0x5 DUP2 PUSH1 0x8 DUP2 GT ISZERO PUSH2 0x289A JUMPI INVALID JUMPDEST EQ ISZERO PUSH2 0x28AD JUMPI PUSH2 0x2750 PUSH2 0x2748 DUP8 DUP8 PUSH2 0x3B55 JUMP JUMPDEST PUSH1 0x7 DUP2 PUSH1 0x8 DUP2 GT ISZERO PUSH2 0x28BB JUMPI INVALID JUMPDEST EQ ISZERO PUSH2 0x277F JUMPI PUSH2 0x2750 PUSH2 0x2778 DUP8 DUP8 PUSH2 0x3B55 JUMP JUMPDEST DUP1 ISZERO PUSH2 0x2A8B JUMPI PUSH1 0x20 DUP5 MLOAD DUP2 PUSH2 0x28DF JUMPI INVALID JUMPDEST MOD PUSH1 0x4 EQ PUSH2 0x28F6 JUMPI PUSH2 0x28F6 PUSH2 0xA6C PUSH1 0x0 DUP8 DUP8 PUSH2 0x3B8D JUMP JUMPDEST PUSH1 0x0 PUSH2 0x2908 DUP6 DUP3 PUSH4 0xFFFFFFFF PUSH2 0x3BAC AND JUMP JUMPDEST PUSH32 0xFFFFFFFF00000000000000000000000000000000000000000000000000000000 DUP2 AND PUSH1 0x0 SWAP1 DUP2 MSTORE PUSH1 0x2 PUSH1 0x20 MSTORE PUSH1 0x40 SWAP1 KECCAK256 SLOAD SWAP1 SWAP2 POP PUSH20 0xFFFFFFFFFFFFFFFFFFFFFFFFFFFFFFFFFFFFFFFF AND DUP1 PUSH2 0x2967 JUMPI PUSH2 0x2967 PUSH2 0xA6C PUSH1 0x1 DUP10 DUP10 PUSH2 0x3B8D JUMP JUMPDEST PUSH1 0x40 MLOAD PUSH1 0x60 SWAP1 PUSH32 0xA85E59E400000000000000000000000000000000000000000000000000000000 SWAP1 PUSH2 0x29A3 SWAP1 DUP10 SWAP1 DUP10 SWAP1 DUP10 SWAP1 DUP10 SWAP1 PUSH1 0x24 ADD PUSH2 0x56B2 JUMP JUMPDEST PUSH1 0x40 MLOAD PUSH1 0x20 DUP2 DUP4 SUB SUB DUP2 MSTORE SWAP1 PUSH1 0x40 MSTORE SWAP1 PUSH28 0xFFFFFFFFFFFFFFFFFFFFFFFFFFFFFFFFFFFFFFFFFFFFFFFFFFFFFFFF NOT AND PUSH1 0x20 DUP3 ADD DUP1 MLOAD PUSH28 0xFFFFFFFFFFFFFFFFFFFFFFFFFFFFFFFFFFFFFFFFFFFFFFFFFFFFFFFF DUP4 DUP2 DUP4 AND OR DUP4 MSTORE POP POP POP POP SWAP1 POP PUSH1 0x0 PUSH1 0x60 DUP4 PUSH20 0xFFFFFFFFFFFFFFFFFFFFFFFFFFFFFFFFFFFFFFFF AND DUP4 PUSH1 0x40 MLOAD PUSH2 0x2A2B SWAP2 SWAP1 PUSH2 0x530D JUMP JUMPDEST PUSH1 0x0 PUSH1 0x40 MLOAD DUP1 DUP4 SUB DUP2 PUSH1 0x0 DUP7 GAS CALL SWAP2 POP POP RETURNDATASIZE DUP1 PUSH1 0x0 DUP2 EQ PUSH2 0x2A68 JUMPI PUSH1 0x40 MLOAD SWAP2 POP PUSH1 0x1F NOT PUSH1 0x3F RETURNDATASIZE ADD AND DUP3 ADD PUSH1 0x40 MSTORE RETURNDATASIZE DUP3 MSTORE RETURNDATASIZE PUSH1 0x0 PUSH1 0x20 DUP5 ADD RETURNDATACOPY PUSH2 0x2A6D JUMP JUMPDEST PUSH1 0x60 SWAP2 POP JUMPDEST POP SWAP2 POP SWAP2 POP DUP2 PUSH2 0x2A85 JUMPI PUSH2 0x2A85 PUSH2 0xA6C DUP12 DUP12 DUP5 PUSH2 0x3BF8 JUMP JUMPDEST POP POP POP POP POP JUMPDEST POP POP POP POP POP JUMP JUMPDEST PUSH2 0x2A9A PUSH2 0x456A JUMP JUMPDEST PUSH2 0x2AA5 DUP5 DUP5 DUP5 PUSH2 0x2797 JUMP JUMPDEST SWAP1 POP DUP3 DUP2 PUSH1 0x20 ADD MLOAD EQ PUSH2 0x966 JUMPI PUSH2 0x966 PUSH2 0xA6C PUSH1 0x2 DUP6 DUP5 PUSH1 0x20 ADD MLOAD PUSH2 0x26DE JUMP JUMPDEST PUSH1 0x60 PUSH4 0x11C7B720 PUSH1 0xE0 SHL DUP4 DUP4 PUSH1 0x40 MLOAD PUSH1 0x24 ADD PUSH2 0x2AE2 SWAP3 SWAP2 SWAP1 PUSH2 0x5657 JUMP JUMPDEST PUSH1 0x40 DUP1 MLOAD PUSH32 0xFFFFFFFFFFFFFFFFFFFFFFFFFFFFFFFFFFFFFFFFFFFFFFFFFFFFFFFFFFFFFFE0 DUP2 DUP5 SUB ADD DUP2 MSTORE SWAP2 SWAP1 MSTORE PUSH1 0x20 DUP2 ADD DUP1 MLOAD PUSH28 0xFFFFFFFFFFFFFFFFFFFFFFFFFFFFFFFFFFFFFFFFFFFFFFFFFFFFFFFF AND PUSH32 0xFFFFFFFF00000000000000000000000000000000000000000000000000000000 SWAP1 SWAP4 AND SWAP3 SWAP1 SWAP3 OR SWAP1 SWAP2 MSTORE SWAP1 POP SWAP3 SWAP2 POP POP JUMP JUMPDEST PUSH1 0x40 DUP1 MLOAD DUP1 DUP3 ADD SWAP1 SWAP2 MSTORE PUSH1 0x4 DUP2 MSTORE PUSH32 0xE69EDC3E00000000000000000000000000000000000000000000000000000000 PUSH1 0x20 DUP3 ADD MSTORE SWAP1 JUMP JUMPDEST PUSH1 0x60 PUSH4 0x1DE45AD1 PUSH1 0xE0 SHL DUP4 DUP4 PUSH1 0x40 MLOAD PUSH1 0x24 ADD PUSH2 0x2AE2 SWAP3 SWAP2 SWAP1 PUSH2 0x537B JUMP JUMPDEST DUP3 PUSH1 0x20 ADD MLOAD TIMESTAMP LT PUSH2 0x2BD4 JUMPI PUSH2 0x2BD4 PUSH2 0xA6C PUSH1 0x1 DUP4 PUSH2 0x3C17 JUMP JUMPDEST PUSH1 0x40 DUP4 ADD MLOAD GASPRICE DUP2 EQ PUSH2 0x2BEE JUMPI PUSH2 0x2BEE PUSH2 0xA6C DUP4 GASPRICE DUP5 PUSH2 0x3C34 JUMP JUMPDEST PUSH1 0x6 SLOAD PUSH20 0xFFFFFFFFFFFFFFFFFFFFFFFFFFFFFFFFFFFFFFFF AND DUP1 ISZERO PUSH2 0x2C1A JUMPI PUSH2 0x2C1A PUSH2 0xA6C DUP5 DUP4 PUSH2 0x3C53 JUMP JUMPDEST PUSH1 0x0 DUP4 DUP2 MSTORE PUSH1 0x5 PUSH1 0x20 MSTORE PUSH1 0x40 SWAP1 KECCAK256 SLOAD PUSH1 0xFF AND ISZERO PUSH2 0x2C3F JUMPI PUSH2 0x2C3F PUSH2 0xA6C PUSH1 0x0 DUP6 PUSH2 0x3C17 JUMP JUMPDEST PUSH1 0x60 DUP6 ADD MLOAD PUSH20 0xFFFFFFFFFFFFFFFFFFFFFFFFFFFFFFFFFFFFFFFF DUP2 AND CALLER EQ DUP1 ISZERO SWAP1 PUSH2 0x2C72 JUMPI POP PUSH2 0x2C70 DUP7 DUP6 DUP8 PUSH2 0x2711 JUMP JUMPDEST ISZERO JUMPDEST ISZERO PUSH2 0x2C87 JUMPI PUSH2 0x2C87 PUSH2 0xA6C PUSH1 0x1 DUP7 DUP5 DUP10 PUSH2 0x22D9 JUMP JUMPDEST POP POP POP POP POP POP JUMP JUMPDEST PUSH20 0xFFFFFFFFFFFFFFFFFFFFFFFFFFFFFFFFFFFFFFFF DUP3 AND CALLER EQ PUSH2 0xC50 JUMPI PUSH1 0x6 DUP1 SLOAD PUSH20 0xFFFFFFFFFFFFFFFFFFFFFFFFFFFFFFFFFFFFFFFF DUP4 AND PUSH32 0xFFFFFFFFFFFFFFFFFFFFFFFF0000000000000000000000000000000000000000 SWAP1 SWAP2 AND OR SWAP1 SSTORE POP POP JUMP JUMPDEST PUSH1 0x60 PUSH4 0x20D11F61 PUSH1 0xE0 SHL DUP4 DUP4 PUSH1 0x40 MLOAD PUSH1 0x24 ADD PUSH2 0x2AE2 SWAP3 SWAP2 SWAP1 PUSH2 0x5550 JUMP JUMPDEST SELFBALANCE DUP1 ISZERO PUSH2 0x843 JUMPI PUSH1 0x40 MLOAD CALLER SWAP1 DUP3 ISZERO PUSH2 0x8FC MUL SWAP1 DUP4 SWAP1 PUSH1 0x0 DUP2 DUP2 DUP2 DUP6 DUP9 DUP9 CALL SWAP4 POP POP POP POP ISZERO DUP1 ISZERO PUSH2 0xC50 JUMPI RETURNDATASIZE PUSH1 0x0 DUP1 RETURNDATACOPY RETURNDATASIZE PUSH1 0x0 REVERT JUMPDEST PUSH1 0x40 DUP1 MLOAD DUP1 DUP3 ADD SWAP1 SWAP2 MSTORE PUSH1 0x4 DUP2 MSTORE PUSH32 0xC3B823F00000000000000000000000000000000000000000000000000000000 PUSH1 0x20 DUP3 ADD MSTORE SWAP1 JUMP JUMPDEST PUSH1 0x60 DUP3 ADD MLOAD PUSH20 0xFFFFFFFFFFFFFFFFFFFFFFFFFFFFFFFFFFFFFFFF AND ISZERO PUSH2 0x2DCE JUMPI PUSH1 0x60 DUP3 ADD MLOAD PUSH20 0xFFFFFFFFFFFFFFFFFFFFFFFFFFFFFFFFFFFFFFFF AND CALLER EQ PUSH2 0x2DCE JUMPI PUSH2 0x2DCE PUSH2 0xA6C PUSH1 0x2 DUP4 PUSH1 0x20 ADD MLOAD CALLER PUSH2 0x3C70 JUMP JUMPDEST PUSH1 0x0 PUSH2 0x2DD8 PUSH2 0x1DCC JUMP JUMPDEST SWAP1 POP DUP1 PUSH20 0xFFFFFFFFFFFFFFFFFFFFFFFFFFFFFFFFFFFFFFFF AND DUP4 PUSH1 0x0 ADD MLOAD PUSH20 0xFFFFFFFFFFFFFFFFFFFFFFFFFFFFFFFFFFFFFFFF AND EQ PUSH2 0x2E24 JUMPI PUSH2 0x2E24 PUSH2 0xA6C PUSH1 0x0 DUP5 PUSH1 0x20 ADD MLOAD DUP5 PUSH2 0x3C70 JUMP JUMPDEST POP POP POP JUMP JUMPDEST PUSH1 0x0 DUP2 DUP2 MSTORE PUSH1 0xA PUSH1 0x20 MSTORE PUSH1 0x40 SWAP1 DUP2 SWAP1 KECCAK256 DUP1 SLOAD PUSH32 0xFFFFFFFFFFFFFFFFFFFFFFFFFFFFFFFFFFFFFFFFFFFFFFFFFFFFFFFFFFFFFF00 AND PUSH1 0x1 OR SWAP1 SSTORE DUP3 DUP2 ADD MLOAD DUP4 MLOAD PUSH2 0x140 DUP6 ADD MLOAD PUSH2 0x160 DUP7 ADD MLOAD SWAP4 MLOAD DUP6 SWAP5 PUSH20 0xFFFFFFFFFFFFFFFFFFFFFFFFFFFFFFFFFFFFFFFF SWAP5 DUP6 AND SWAP5 SWAP4 SWAP1 SWAP4 AND SWAP3 PUSH32 0x2C310A9A43963FF31A754A4099CC435ED498049687539D72D7818D9B093415C SWAP3 PUSH2 0x2EC6 SWAP3 SWAP1 SWAP2 SWAP1 CALLER SWAP1 PUSH2 0x571A JUMP JUMPDEST PUSH1 0x40 MLOAD DUP1 SWAP2 SUB SWAP1 LOG4 POP POP JUMP JUMPDEST PUSH1 0x60 PUSH4 0xE946C1BB PUSH1 0xE0 SHL DUP5 DUP5 DUP5 PUSH1 0x40 MLOAD PUSH1 0x24 ADD PUSH2 0x1E1D SWAP4 SWAP3 SWAP2 SWAP1 PUSH2 0x5845 JUMP JUMPDEST PUSH1 0x0 DUP3 DUP3 ADD DUP4 DUP2 LT ISZERO PUSH2 0x966 JUMPI PUSH2 0x966 PUSH2 0xA6C PUSH1 0x0 DUP7 DUP7 PUSH2 0x2ED2 JUMP JUMPDEST PUSH1 0x60 PUSH4 0xD4092F4F PUSH1 0xE0 SHL DUP3 PUSH1 0x40 MLOAD PUSH1 0x24 ADD PUSH2 0x2F28 SWAP2 SWAP1 PUSH2 0x5832 JUMP JUMPDEST PUSH1 0x40 DUP1 MLOAD PUSH32 0xFFFFFFFFFFFFFFFFFFFFFFFFFFFFFFFFFFFFFFFFFFFFFFFFFFFFFFFFFFFFFFE0 DUP2 DUP5 SUB ADD DUP2 MSTORE SWAP2 SWAP1 MSTORE PUSH1 0x20 DUP2 ADD DUP1 MLOAD PUSH28 0xFFFFFFFFFFFFFFFFFFFFFFFFFFFFFFFFFFFFFFFFFFFFFFFFFFFFFFFF AND PUSH32 0xFFFFFFFF00000000000000000000000000000000000000000000000000000000 SWAP1 SWAP4 AND SWAP3 SWAP1 SWAP3 OR SWAP1 SWAP2 MSTORE SWAP1 POP SWAP2 SWAP1 POP JUMP JUMPDEST PUSH1 0x0 DUP3 PUSH2 0x2FBB JUMPI POP PUSH1 0x0 PUSH2 0x7F5 JUMP JUMPDEST DUP3 DUP3 MUL DUP3 DUP5 DUP3 DUP2 PUSH2 0x2FC8 JUMPI INVALID JUMPDEST DIV EQ PUSH2 0x966 JUMPI PUSH2 0x966 PUSH2 0xA6C PUSH1 0x1 DUP7 DUP7 PUSH2 0x2ED2 JUMP JUMPDEST PUSH1 0x0 DUP2 PUSH2 0x2FF3 JUMPI PUSH2 0x2FF3 PUSH2 0xA6C PUSH1 0x3 DUP6 DUP6 PUSH2 0x2ED2 JUMP JUMPDEST PUSH1 0x0 DUP3 DUP5 DUP2 PUSH2 0x2FFE JUMPI INVALID JUMPDEST DIV SWAP5 SWAP4 POP POP POP POP JUMP JUMPDEST PUSH1 0x0 DUP2 MLOAD PUSH1 0x0 EQ ISZERO PUSH2 0x3023 JUMPI PUSH2 0x3023 PUSH2 0xA6C PUSH1 0x2 DUP7 DUP7 DUP7 PUSH2 0x22D9 JUMP JUMPDEST DUP2 PUSH1 0x1 DUP4 MLOAD SUB DUP2 MLOAD DUP2 LT PUSH2 0x3033 JUMPI INVALID JUMPDEST ADD PUSH1 0x20 ADD MLOAD PUSH1 0xF8 SHR PUSH1 0x8 DUP2 GT ISZERO PUSH2 0xB6B JUMPI INVALID JUMPDEST PUSH1 0x0 DUP2 PUSH1 0x20 ADD DUP4 MLOAD LT ISZERO PUSH2 0x3067 JUMPI PUSH2 0x3067 PUSH2 0xA6C PUSH1 0x5 DUP6 MLOAD DUP6 PUSH1 0x20 ADD PUSH2 0x3C8F JUMP JUMPDEST POP ADD PUSH1 0x20 ADD MLOAD SWAP1 JUMP JUMPDEST DUP1 MLOAD PUSH1 0x0 SWAP1 PUSH2 0x30A7 DUP4 PUSH32 0xFFFFFFFFFFFFFFFFFFFFFFFFFFFFFFFFFFFFFFFFFFFFFFFFFFFFFFFFFFFFFFFF DUP4 ADD PUSH4 0xFFFFFFFF PUSH2 0x3CAE AND JUMP JUMPDEST PUSH1 0x40 MLOAD PUSH1 0x60 SWAP1 PUSH32 0x1626BA7E00000000000000000000000000000000000000000000000000000000 SWAP1 PUSH2 0x30DF SWAP1 DUP9 SWAP1 DUP8 SWAP1 PUSH1 0x24 ADD PUSH2 0x5550 JUMP JUMPDEST PUSH1 0x40 DUP1 MLOAD PUSH32 0xFFFFFFFFFFFFFFFFFFFFFFFFFFFFFFFFFFFFFFFFFFFFFFFFFFFFFFFFFFFFFFE0 DUP2 DUP5 SUB ADD DUP2 MSTORE SWAP2 SWAP1 MSTORE PUSH1 0x20 DUP2 ADD DUP1 MLOAD PUSH28 0xFFFFFFFFFFFFFFFFFFFFFFFFFFFFFFFFFFFFFFFFFFFFFFFFFFFFFFFF AND PUSH32 0xFFFFFFFF00000000000000000000000000000000000000000000000000000000 SWAP1 SWAP4 AND SWAP3 SWAP1 SWAP3 OR SWAP1 SWAP2 MSTORE SWAP1 POP PUSH2 0x316E DUP5 DUP4 PUSH4 0xFFFFFFFF PUSH2 0x3CAE AND JUMP JUMPDEST PUSH1 0x0 PUSH1 0x60 DUP7 PUSH20 0xFFFFFFFFFFFFFFFFFFFFFFFFFFFFFFFFFFFFFFFF AND DUP4 PUSH1 0x40 MLOAD PUSH2 0x3197 SWAP2 SWAP1 PUSH2 0x530D JUMP JUMPDEST PUSH1 0x0 PUSH1 0x40 MLOAD DUP1 DUP4 SUB DUP2 DUP6 GAS STATICCALL SWAP2 POP POP RETURNDATASIZE DUP1 PUSH1 0x0 DUP2 EQ PUSH2 0x31D2 JUMPI PUSH1 0x40 MLOAD SWAP2 POP PUSH1 0x1F NOT PUSH1 0x3F RETURNDATASIZE ADD AND DUP3 ADD PUSH1 0x40 MSTORE RETURNDATASIZE DUP3 MSTORE RETURNDATASIZE PUSH1 0x0 PUSH1 0x20 DUP5 ADD RETURNDATACOPY PUSH2 0x31D7 JUMP JUMPDEST PUSH1 0x60 SWAP2 POP JUMPDEST POP SWAP2 POP SWAP2 POP DUP2 DUP1 ISZERO PUSH2 0x31EA JUMPI POP DUP1 MLOAD PUSH1 0x20 EQ JUMPDEST ISZERO PUSH2 0x324C JUMPI PUSH32 0xB067138100000000000000000000000000000000000000000000000000000000 PUSH2 0x3221 DUP3 PUSH1 0x0 PUSH4 0xFFFFFFFF PUSH2 0x3BAC AND JUMP JUMPDEST PUSH28 0xFFFFFFFFFFFFFFFFFFFFFFFFFFFFFFFFFFFFFFFFFFFFFFFFFFFFFFFF NOT AND EQ SWAP5 POP POP POP POP POP PUSH2 0x966 JUMP JUMPDEST PUSH2 0x325B PUSH2 0xA6C DUP10 DUP10 DUP10 DUP6 PUSH2 0x3CB2 JUMP JUMPDEST POP POP POP POP SWAP4 SWAP3 POP POP POP JUMP JUMPDEST PUSH1 0x3 DUP4 MLOAD PUSH1 0x6 DUP2 GT ISZERO PUSH2 0x3275 JUMPI INVALID JUMPDEST EQ PUSH2 0x328F JUMPI PUSH2 0x328F PUSH2 0xA6C DUP5 PUSH1 0x20 ADD MLOAD DUP6 PUSH1 0x0 ADD MLOAD PUSH2 0x3CD3 JUMP JUMPDEST PUSH1 0x60 DUP5 ADD MLOAD PUSH20 0xFFFFFFFFFFFFFFFFFFFFFFFFFFFFFFFFFFFFFFFF AND ISZERO PUSH2 0x32E3 JUMPI PUSH1 0x60 DUP5 ADD MLOAD PUSH20 0xFFFFFFFFFFFFFFFFFFFFFFFFFFFFFFFFFFFFFFFF AND CALLER EQ PUSH2 0x32E3 JUMPI PUSH2 0x32E3 PUSH2 0xA6C PUSH1 0x2 DUP6 PUSH1 0x20 ADD MLOAD CALLER PUSH2 0x3C70 JUMP JUMPDEST PUSH1 0x20 DUP5 ADD MLOAD PUSH20 0xFFFFFFFFFFFFFFFFFFFFFFFFFFFFFFFFFFFFFFFF AND ISZERO PUSH2 0x334D JUMPI DUP2 PUSH20 0xFFFFFFFFFFFFFFFFFFFFFFFFFFFFFFFFFFFFFFFF AND DUP5 PUSH1 0x20 ADD MLOAD PUSH20 0xFFFFFFFFFFFFFFFFFFFFFFFFFFFFFFFFFFFFFFFF AND EQ PUSH2 0x334D JUMPI PUSH2 0x334D PUSH2 0xA6C PUSH1 0x1 DUP6 PUSH1 0x20 ADD MLOAD DUP6 PUSH2 0x3C70 JUMP JUMPDEST PUSH2 0x335C DUP5 DUP5 PUSH1 0x20 ADD MLOAD DUP4 PUSH2 0x2879 JUMP JUMPDEST PUSH2 0x3378 JUMPI PUSH2 0x3378 PUSH2 0xA6C PUSH1 0x0 DUP6 PUSH1 0x20 ADD MLOAD DUP8 PUSH1 0x0 ADD MLOAD DUP6 PUSH2 0x22D9 JUMP JUMPDEST POP POP POP POP JUMP JUMPDEST PUSH1 0xA0 DUP1 DUP5 ADD MLOAD SWAP1 DUP6 ADD MLOAD PUSH2 0x3397 SWAP2 PUSH4 0xFFFFFFFF PUSH2 0x2FAC AND JUMP JUMPDEST PUSH1 0x80 DUP1 DUP6 ADD MLOAD SWAP1 DUP7 ADD MLOAD PUSH2 0x33B0 SWAP2 PUSH4 0xFFFFFFFF PUSH2 0x2FAC AND JUMP JUMPDEST LT ISZERO PUSH2 0x3378 JUMPI PUSH2 0x3378 PUSH2 0xA6C DUP4 DUP4 PUSH2 0x3CF0 JUMP JUMPDEST PUSH2 0x33CB PUSH2 0x45C1 JUMP JUMPDEST PUSH1 0xA0 DUP9 ADD MLOAD PUSH1 0x0 SWAP1 PUSH2 0x33E3 SWAP1 DUP9 PUSH4 0xFFFFFFFF PUSH2 0x1BD1 AND JUMP JUMPDEST SWAP1 POP PUSH1 0x0 PUSH2 0x33FA DUP11 PUSH1 0x80 ADD MLOAD DUP12 PUSH1 0xA0 ADD MLOAD DUP5 PUSH2 0x3D0D JUMP JUMPDEST SWAP1 POP PUSH1 0x0 PUSH2 0x3415 DUP9 DUP12 PUSH1 0xA0 ADD MLOAD PUSH2 0x1BD1 SWAP1 SWAP2 SWAP1 PUSH4 0xFFFFFFFF AND JUMP JUMPDEST SWAP1 POP PUSH1 0x0 PUSH2 0x342C DUP12 PUSH1 0x80 ADD MLOAD DUP13 PUSH1 0xA0 ADD MLOAD DUP5 PUSH2 0x3D0D JUMP JUMPDEST SWAP1 POP DUP6 ISZERO PUSH2 0x3449 JUMPI PUSH2 0x3442 DUP13 DUP13 DUP6 DUP8 DUP6 DUP8 PUSH2 0x3D41 JUMP JUMPDEST SWAP5 POP PUSH2 0x345A JUMP JUMPDEST PUSH2 0x3457 DUP13 DUP13 DUP6 DUP8 DUP6 DUP8 PUSH2 0x3E13 JUMP JUMPDEST SWAP5 POP JUMPDEST DUP5 MLOAD MLOAD PUSH1 0x80 DUP14 ADD MLOAD PUSH1 0xC0 DUP15 ADD MLOAD PUSH2 0x3472 SWAP3 SWAP2 SWAP1 PUSH2 0x3D0D JUMP JUMPDEST DUP6 MLOAD PUSH1 0x40 ADD MSTORE DUP5 MLOAD PUSH1 0x20 ADD MLOAD PUSH1 0xA0 DUP14 ADD MLOAD PUSH1 0xE0 DUP15 ADD MLOAD PUSH2 0x3493 SWAP3 SWAP2 SWAP1 PUSH2 0x3D0D JUMP JUMPDEST DUP6 MLOAD PUSH1 0x60 ADD MSTORE PUSH1 0x20 DUP6 ADD MLOAD MLOAD PUSH1 0x80 DUP13 ADD MLOAD PUSH1 0xC0 DUP14 ADD MLOAD PUSH2 0x34B4 SWAP3 SWAP2 SWAP1 PUSH2 0x3D0D JUMP JUMPDEST DUP6 PUSH1 0x20 ADD MLOAD PUSH1 0x40 ADD DUP2 DUP2 MSTORE POP POP PUSH2 0x34DC DUP6 PUSH1 0x20 ADD MLOAD PUSH1 0x20 ADD MLOAD DUP13 PUSH1 0xA0 ADD MLOAD DUP14 PUSH1 0xE0 ADD MLOAD PUSH2 0x3D0D JUMP JUMPDEST PUSH1 0x20 DUP7 ADD MLOAD PUSH1 0x60 ADD MSTORE PUSH1 0x0 PUSH2 0x34F7 DUP9 DUP11 PUSH4 0xFFFFFFFF PUSH2 0x2FAC AND JUMP JUMPDEST DUP7 MLOAD PUSH1 0x80 SWAP1 DUP2 ADD DUP3 SWAP1 MSTORE PUSH1 0x20 DUP9 ADD MLOAD ADD MSTORE POP POP POP POP POP SWAP8 SWAP7 POP POP POP POP POP POP POP JUMP JUMPDEST PUSH1 0x20 DUP2 ADD MLOAD PUSH2 0x352E SWAP1 DUP4 SWAP1 PUSH4 0xFFFFFFFF PUSH2 0x2EF1 AND JUMP JUMPDEST PUSH1 0x9 PUSH1 0x0 DUP6 DUP2 MSTORE PUSH1 0x20 ADD SWAP1 DUP2 MSTORE PUSH1 0x20 ADD PUSH1 0x0 KECCAK256 DUP2 SWAP1 SSTORE POP DUP3 DUP6 PUSH1 0x40 ADD MLOAD PUSH20 0xFFFFFFFFFFFFFFFFFFFFFFFFFFFFFFFFFFFFFFFF AND DUP7 PUSH1 0x0 ADD MLOAD PUSH20 0xFFFFFFFFFFFFFFFFFFFFFFFFFFFFFFFFFFFFFFFF AND PUSH32 0x6869791F0A34781B29882982CC39E882768CF2C96995C2A110C577C53BC932D5 DUP9 PUSH2 0x140 ADD MLOAD DUP10 PUSH2 0x160 ADD MLOAD DUP11 PUSH2 0x180 ADD MLOAD DUP12 PUSH2 0x1A0 ADD MLOAD DUP12 CALLER DUP11 PUSH1 0x0 ADD MLOAD DUP12 PUSH1 0x20 ADD MLOAD DUP13 PUSH1 0x40 ADD MLOAD DUP14 PUSH1 0x60 ADD MLOAD DUP15 PUSH1 0x80 ADD MLOAD PUSH1 0x40 MLOAD PUSH2 0x35E7 SWAP12 SWAP11 SWAP10 SWAP9 SWAP8 SWAP7 SWAP6 SWAP5 SWAP4 SWAP3 SWAP2 SWAP1 PUSH2 0x5766 JUMP JUMPDEST PUSH1 0x40 MLOAD DUP1 SWAP2 SUB SWAP1 LOG4 POP POP POP POP POP JUMP JUMPDEST DUP4 MLOAD DUP4 MLOAD PUSH1 0x40 DUP1 DUP8 ADD MLOAD SWAP1 DUP7 ADD MLOAD PUSH2 0x140 DUP8 ADD MLOAD DUP6 MLOAD PUSH1 0x20 ADD MLOAD PUSH2 0x361F SWAP2 DUP12 SWAP2 DUP7 SWAP1 DUP9 SWAP1 PUSH2 0x28CE JUMP JUMPDEST PUSH2 0x3639 DUP11 DUP10 PUSH2 0x140 ADD MLOAD DUP7 DUP7 DUP10 PUSH1 0x20 ADD MLOAD PUSH1 0x20 ADD MLOAD PUSH2 0x28CE JUMP JUMPDEST PUSH2 0x3653 DUP10 DUP9 PUSH2 0x180 ADD MLOAD DUP6 DUP5 DUP10 PUSH1 0x20 ADD MLOAD PUSH1 0x40 ADD MLOAD PUSH2 0x28CE JUMP JUMPDEST PUSH2 0x366D DUP11 DUP10 PUSH2 0x180 ADD MLOAD DUP7 DUP6 DUP10 PUSH1 0x0 ADD MLOAD PUSH1 0x40 ADD MLOAD PUSH2 0x28CE JUMP JUMPDEST PUSH2 0x3683 DUP11 DUP10 PUSH2 0x140 ADD MLOAD DUP7 DUP10 DUP10 PUSH1 0x40 ADD MLOAD PUSH2 0x28CE JUMP JUMPDEST PUSH2 0x3699 DUP10 DUP9 PUSH2 0x140 ADD MLOAD DUP6 DUP10 DUP10 PUSH1 0x60 ADD MLOAD PUSH2 0x28CE JUMP JUMPDEST PUSH1 0x0 PUSH2 0x36B1 DUP12 DUP12 DUP9 PUSH1 0x0 ADD MLOAD PUSH1 0x80 ADD MLOAD DUP9 DUP9 DUP13 PUSH2 0x3EAC JUMP JUMPDEST SWAP1 POP DUP1 PUSH2 0x36CE JUMPI DUP6 MLOAD PUSH1 0x0 PUSH1 0x80 SWAP2 DUP3 ADD DUP2 SWAP1 MSTORE PUSH1 0x20 DUP9 ADD MLOAD SWAP1 SWAP2 ADD MSTORE JUMPDEST DUP2 PUSH20 0xFFFFFFFFFFFFFFFFFFFFFFFFFFFFFFFFFFFFFFFF AND DUP4 PUSH20 0xFFFFFFFFFFFFFFFFFFFFFFFFFFFFFFFFFFFFFFFF AND EQ DUP1 ISZERO PUSH2 0x371E JUMPI POP PUSH2 0x1A0 DUP1 DUP10 ADD MLOAD SWAP1 DUP11 ADD MLOAD PUSH2 0x371E SWAP2 PUSH4 0xFFFFFFFF PUSH2 0x3F08 AND JUMP JUMPDEST ISZERO PUSH2 0x375C JUMPI PUSH2 0x3757 DUP12 DUP11 PUSH2 0x1A0 ADD MLOAD DUP10 DUP7 PUSH2 0x3752 DUP12 PUSH1 0x20 ADD MLOAD PUSH1 0x60 ADD MLOAD DUP13 PUSH1 0x0 ADD MLOAD PUSH1 0x60 ADD MLOAD PUSH2 0x2EF1 SWAP1 SWAP2 SWAP1 PUSH4 0xFFFFFFFF AND JUMP JUMPDEST PUSH2 0x28CE JUMP JUMPDEST PUSH2 0x3790 JUMP JUMPDEST PUSH2 0x3776 DUP11 DUP10 PUSH2 0x1A0 ADD MLOAD DUP10 DUP6 DUP11 PUSH1 0x20 ADD MLOAD PUSH1 0x60 ADD MLOAD PUSH2 0x28CE JUMP JUMPDEST PUSH2 0x3790 DUP12 DUP11 PUSH2 0x1A0 ADD MLOAD DUP10 DUP7 DUP11 PUSH1 0x0 ADD MLOAD PUSH1 0x60 ADD MLOAD PUSH2 0x28CE JUMP JUMPDEST POP POP POP POP POP POP POP POP POP POP POP JUMP JUMPDEST PUSH1 0x80 DUP2 DUP2 ADD MLOAD DUP3 MLOAD PUSH1 0x20 DUP1 DUP6 ADD MLOAD PUSH1 0x40 DUP1 DUP8 ADD MLOAD PUSH1 0x60 SWAP8 DUP9 ADD MLOAD DUP7 MLOAD SWAP7 DUP6 ADD SWAP7 SWAP1 SWAP7 KECCAK256 DUP3 MLOAD PUSH32 0xEC69816980A3A3CA4554410E60253953E9FF375BA4536A98ADFA15CC71541508 DUP2 MSTORE SWAP5 DUP6 ADD SWAP6 SWAP1 SWAP6 MSTORE SWAP1 DUP4 ADD SWAP2 SWAP1 SWAP2 MSTORE SWAP5 DUP2 ADD SWAP5 SWAP1 SWAP5 MSTORE PUSH20 0xFFFFFFFFFFFFFFFFFFFFFFFFFFFFFFFFFFFFFFFF SWAP1 SWAP2 AND SWAP2 DUP4 ADD SWAP2 SWAP1 SWAP2 MSTORE PUSH1 0xA0 DUP3 ADD MSTORE PUSH1 0xC0 SWAP1 KECCAK256 SWAP1 JUMP JUMPDEST PUSH1 0x40 MLOAD PUSH32 0x1901000000000000000000000000000000000000000000000000000000000000 DUP2 MSTORE PUSH1 0x2 DUP2 ADD SWAP3 SWAP1 SWAP3 MSTORE PUSH1 0x22 DUP3 ADD MSTORE PUSH1 0x42 SWAP1 KECCAK256 SWAP1 JUMP JUMPDEST PUSH1 0x40 MLOAD PUSH1 0x60 SWAP1 PUSH32 0xDE047DB400000000000000000000000000000000000000000000000000000000 SWAP1 PUSH2 0x2AE2 SWAP1 DUP6 SWAP1 DUP6 SWAP1 PUSH1 0x24 ADD PUSH2 0x5A8E JUMP JUMPDEST DUP1 MLOAD PUSH1 0x0 SWAP1 PUSH1 0x15 DUP2 LT ISZERO PUSH2 0x38B5 JUMPI PUSH2 0x38B5 PUSH2 0xA6C PUSH1 0x2 DUP8 DUP8 DUP8 PUSH2 0x22D9 JUMP JUMPDEST PUSH1 0x0 PUSH2 0x38E9 DUP5 PUSH32 0xFFFFFFFFFFFFFFFFFFFFFFFFFFFFFFFFFFFFFFFFFFFFFFFFFFFFFFFFFFFFFFEB DUP5 ADD PUSH4 0xFFFFFFFF PUSH2 0x3F2D AND JUMP JUMPDEST PUSH20 0xFFFFFFFFFFFFFFFFFFFFFFFFFFFFFFFFFFFFFFFF DUP1 DUP8 AND PUSH1 0x0 SWAP1 DUP2 MSTORE PUSH1 0x8 PUSH1 0x20 SWAP1 DUP2 MSTORE PUSH1 0x40 DUP1 DUP4 KECCAK256 SWAP4 DUP6 AND DUP4 MSTORE SWAP3 SWAP1 MSTORE KECCAK256 SLOAD SWAP1 SWAP2 POP PUSH1 0xFF AND PUSH2 0x3933 JUMPI PUSH2 0x3933 PUSH2 0xA6C DUP7 DUP4 PUSH2 0x3F6D JUMP JUMPDEST PUSH2 0x3940 DUP2 DUP9 DUP7 PUSH1 0x15 PUSH2 0x3F8A JUMP JUMPDEST SWAP8 SWAP7 POP POP POP POP POP POP POP JUMP JUMPDEST PUSH1 0x0 PUSH2 0xB6B DUP4 DUP6 DUP5 PUSH1 0x1 PUSH2 0x3F8A JUMP JUMPDEST PUSH1 0x0 DUP2 DUP4 LT PUSH2 0x3969 JUMPI DUP2 PUSH2 0x966 JUMP JUMPDEST POP SWAP1 SWAP2 SWAP1 POP JUMP JUMPDEST PUSH2 0x3978 PUSH2 0x456A JUMP JUMPDEST PUSH1 0x20 DUP2 ADD DUP5 SWAP1 MSTORE PUSH1 0xA0 DUP6 ADD MLOAD PUSH1 0x80 DUP7 ADD MLOAD PUSH2 0x3994 SWAP2 DUP7 SWAP2 PUSH2 0x3D0D JUMP JUMPDEST DUP2 MSTORE PUSH1 0xA0 DUP6 ADD MLOAD PUSH1 0xC0 DUP7 ADD MLOAD PUSH2 0x39AB SWAP2 DUP7 SWAP2 PUSH2 0x3D0D JUMP JUMPDEST PUSH1 0x40 DUP3 ADD MSTORE PUSH1 0xA0 DUP6 ADD MLOAD PUSH1 0xE0 DUP7 ADD MLOAD PUSH2 0x39C5 SWAP2 DUP7 SWAP2 PUSH2 0x3D0D JUMP JUMPDEST PUSH1 0x60 DUP3 ADD MSTORE PUSH2 0x39DA DUP3 DUP5 PUSH4 0xFFFFFFFF PUSH2 0x2FAC AND JUMP JUMPDEST PUSH1 0x80 DUP3 ADD MSTORE SWAP5 SWAP4 POP POP POP POP JUMP JUMPDEST PUSH2 0x3A01 DUP5 DUP5 PUSH2 0x160 ADD MLOAD DUP5 DUP7 PUSH1 0x0 ADD MLOAD DUP6 PUSH1 0x20 ADD MLOAD PUSH2 0x28CE JUMP JUMPDEST PUSH2 0x3A1B DUP5 DUP5 PUSH2 0x140 ADD MLOAD DUP6 PUSH1 0x0 ADD MLOAD DUP6 DUP6 PUSH1 0x0 ADD MLOAD PUSH2 0x28CE JUMP JUMPDEST PUSH2 0x3A35 DUP5 DUP5 PUSH2 0x1A0 ADD MLOAD DUP5 DUP7 PUSH1 0x40 ADD MLOAD DUP6 PUSH1 0x60 ADD MLOAD PUSH2 0x28CE JUMP JUMPDEST PUSH2 0x3A53 DUP5 DUP5 PUSH2 0x180 ADD MLOAD DUP6 PUSH1 0x0 ADD MLOAD DUP7 PUSH1 0x40 ADD MLOAD DUP6 PUSH1 0x40 ADD MLOAD PUSH2 0x28CE JUMP JUMPDEST PUSH1 0x0 PUSH2 0x3A69 DUP6 DUP4 PUSH1 0x80 ADD MLOAD DUP7 PUSH1 0x0 ADD MLOAD DUP7 PUSH2 0x4161 JUMP JUMPDEST SWAP1 POP DUP1 PUSH2 0x2A8B JUMPI PUSH1 0x0 PUSH1 0x80 DUP4 ADD MSTORE POP POP POP POP POP JUMP JUMPDEST PUSH2 0x140 DUP2 ADD MLOAD PUSH2 0x160 DUP3 ADD MLOAD PUSH2 0x180 DUP4 ADD MLOAD PUSH2 0x1A0 DUP5 ADD MLOAD PUSH1 0x0 SWAP4 PUSH32 0xF80322EB8376AAFB64EADF8F0D7623F22130FD9491A221E902B713CB984A7534 SWAP4 SWAP1 SWAP3 SWAP1 SWAP2 PUSH1 0x20 DUP8 LT ISZERO PUSH2 0x3ACA JUMPI INVALID JUMPDEST PUSH32 0xFFFFFFFFFFFFFFFFFFFFFFFFFFFFFFFFFFFFFFFFFFFFFFFFFFFFFFFFFFFFFFE0 DUP8 ADD DUP1 MLOAD PUSH2 0x140 DUP10 ADD DUP1 MLOAD PUSH2 0x160 DUP12 ADD DUP1 MLOAD PUSH2 0x180 DUP14 ADD DUP1 MLOAD PUSH2 0x1A0 DUP16 ADD DUP1 MLOAD SWAP14 DUP10 MSTORE DUP13 MLOAD PUSH1 0x20 SWAP14 DUP15 ADD KECCAK256 DUP8 MSTORE DUP12 MLOAD SWAP12 DUP14 ADD SWAP12 SWAP1 SWAP12 KECCAK256 DUP5 MSTORE DUP10 MLOAD SWAP10 DUP13 ADD SWAP10 SWAP1 SWAP10 KECCAK256 DUP2 MSTORE DUP8 MLOAD SWAP8 SWAP1 SWAP11 ADD SWAP7 SWAP1 SWAP7 KECCAK256 DUP9 MSTORE PUSH2 0x1E0 DUP6 KECCAK256 SWAP4 SWAP1 SWAP5 MSTORE SWAP1 MSTORE SWAP2 SWAP1 MSTORE SWAP3 MSTORE SWAP2 SWAP1 SWAP2 MSTORE SWAP1 POP SWAP2 SWAP1 POP JUMP JUMPDEST PUSH1 0x40 MLOAD PUSH1 0x60 SWAP1 PUSH32 0x3EFE50C800000000000000000000000000000000000000000000000000000000 SWAP1 PUSH2 0x2AE2 SWAP1 DUP6 SWAP1 DUP6 SWAP1 PUSH1 0x24 ADD PUSH2 0x5A41 JUMP JUMPDEST PUSH1 0x60 PUSH4 0x488219A6 PUSH1 0xE0 SHL DUP5 DUP5 DUP5 PUSH1 0x40 MLOAD PUSH1 0x24 ADD PUSH2 0x1E1D SWAP4 SWAP3 SWAP2 SWAP1 PUSH2 0x580A JUMP JUMPDEST PUSH1 0x0 DUP2 PUSH1 0x4 ADD DUP4 MLOAD LT ISZERO PUSH2 0x3BCD JUMPI PUSH2 0x3BCD PUSH2 0xA6C PUSH1 0x3 DUP6 MLOAD DUP6 PUSH1 0x4 ADD PUSH2 0x3C8F JUMP JUMPDEST POP ADD PUSH1 0x20 ADD MLOAD PUSH32 0xFFFFFFFF00000000000000000000000000000000000000000000000000000000 AND SWAP1 JUMP JUMPDEST PUSH1 0x60 PUSH4 0x4678472B PUSH1 0xE0 SHL DUP5 DUP5 DUP5 PUSH1 0x40 MLOAD PUSH1 0x24 ADD PUSH2 0x1E1D SWAP4 SWAP3 SWAP2 SWAP1 PUSH2 0x5569 JUMP JUMPDEST PUSH1 0x60 PUSH4 0xF5985184 PUSH1 0xE0 SHL DUP4 DUP4 PUSH1 0x40 MLOAD PUSH1 0x24 ADD PUSH2 0x2AE2 SWAP3 SWAP2 SWAP1 PUSH2 0x58FE JUMP JUMPDEST PUSH1 0x60 PUSH4 0xA26DAC09 PUSH1 0xE0 SHL DUP5 DUP5 DUP5 PUSH1 0x40 MLOAD PUSH1 0x24 ADD PUSH2 0x1E1D SWAP4 SWAP3 SWAP2 SWAP1 PUSH2 0x55F6 JUMP JUMPDEST PUSH1 0x60 PUSH4 0xDEC4AEDF PUSH1 0xE0 SHL DUP4 DUP4 PUSH1 0x40 MLOAD PUSH1 0x24 ADD PUSH2 0x2AE2 SWAP3 SWAP2 SWAP1 PUSH2 0x54D7 JUMP JUMPDEST PUSH1 0x60 PUSH4 0xE53C76C8 PUSH1 0xE0 SHL DUP5 DUP5 DUP5 PUSH1 0x40 MLOAD PUSH1 0x24 ADD PUSH2 0x1E1D SWAP4 SWAP3 SWAP2 SWAP1 PUSH2 0x5866 JUMP JUMPDEST PUSH1 0x60 PUSH4 0x28006595 PUSH1 0xE0 SHL DUP5 DUP5 DUP5 PUSH1 0x40 MLOAD PUSH1 0x24 ADD PUSH2 0x1E1D SWAP4 SWAP3 SWAP2 SWAP1 PUSH2 0x58AC JUMP JUMPDEST SWAP1 MSTORE JUMP JUMPDEST PUSH1 0x60 PUSH4 0x1B8388F7 PUSH1 0xE0 SHL DUP6 DUP6 DUP6 DUP6 PUSH1 0x40 MLOAD PUSH1 0x24 ADD PUSH2 0x22FA SWAP5 SWAP4 SWAP3 SWAP2 SWAP1 PUSH2 0x54FB JUMP JUMPDEST PUSH1 0x60 PUSH4 0xFDB6CA8D PUSH1 0xE0 SHL DUP4 DUP4 PUSH1 0x40 MLOAD PUSH1 0x24 ADD PUSH2 0x2AE2 SWAP3 SWAP2 SWAP1 PUSH2 0x5594 JUMP JUMPDEST PUSH1 0x60 PUSH4 0xB6555D6F PUSH1 0xE0 SHL DUP4 DUP4 PUSH1 0x40 MLOAD PUSH1 0x24 ADD PUSH2 0x2AE2 SWAP3 SWAP2 SWAP1 PUSH2 0x5542 JUMP JUMPDEST PUSH1 0x0 PUSH2 0x3D1A DUP5 DUP5 DUP5 PUSH2 0x41A6 JUMP JUMPDEST ISZERO PUSH2 0x3D2D JUMPI PUSH2 0x3D2D PUSH2 0xA6C DUP6 DUP6 DUP6 PUSH2 0x420C JUMP JUMPDEST PUSH2 0xB6B DUP4 PUSH2 0x224E DUP7 DUP6 PUSH4 0xFFFFFFFF PUSH2 0x2FAC AND JUMP JUMPDEST PUSH2 0x3D49 PUSH2 0x45C1 JUMP JUMPDEST DUP2 DUP6 GT DUP5 DUP5 GT DUP5 DUP7 GT ISZERO PUSH2 0x3D69 JUMPI PUSH2 0x3D62 DUP10 DUP7 DUP7 PUSH2 0x422B JUMP JUMPDEST SWAP3 POP PUSH2 0x3DB8 JUMP JUMPDEST DUP7 DUP5 GT ISZERO PUSH2 0x3DA9 JUMPI DUP3 MLOAD DUP8 SWAP1 MSTORE DUP3 MLOAD PUSH1 0x20 ADD DUP7 SWAP1 MSTORE PUSH1 0x80 DUP9 ADD MLOAD PUSH1 0xA0 DUP10 ADD MLOAD PUSH2 0x3D93 SWAP2 SWAP1 DUP10 PUSH2 0x3D0D JUMP JUMPDEST PUSH1 0x20 DUP1 DUP6 ADD DUP1 MLOAD SWAP3 SWAP1 SWAP3 MSTORE SWAP1 MLOAD ADD DUP8 SWAP1 MSTORE PUSH2 0x3DB8 JUMP JUMPDEST PUSH2 0x3DB5 DUP8 DUP8 DUP8 DUP8 PUSH2 0x4268 JUMP JUMPDEST SWAP3 POP JUMPDEST DUP2 ISZERO PUSH2 0x3DDE JUMPI PUSH1 0x20 DUP1 DUP5 ADD MLOAD ADD MLOAD DUP4 MLOAD MLOAD PUSH2 0x3DD8 SWAP2 PUSH4 0xFFFFFFFF PUSH2 0x1BD1 AND JUMP JUMPDEST PUSH1 0x40 DUP5 ADD MSTORE JUMPDEST DUP1 ISZERO PUSH2 0x3E06 JUMPI DUP3 MLOAD PUSH1 0x20 SWAP1 DUP2 ADD MLOAD SWAP1 DUP5 ADD MLOAD MLOAD PUSH2 0x3E00 SWAP2 PUSH4 0xFFFFFFFF PUSH2 0x1BD1 AND JUMP JUMPDEST PUSH1 0x60 DUP5 ADD MSTORE JUMPDEST POP POP JUMPDEST SWAP7 SWAP6 POP POP POP POP POP POP JUMP JUMPDEST PUSH2 0x3E1B PUSH2 0x45C1 JUMP JUMPDEST DUP3 DUP5 GT ISZERO PUSH2 0x3E35 JUMPI PUSH2 0x3E2E DUP8 DUP5 DUP5 PUSH2 0x422B JUMP JUMPDEST SWAP1 POP PUSH2 0x3E83 JUMP JUMPDEST DUP3 DUP5 LT ISZERO PUSH2 0x3E74 JUMPI DUP1 MLOAD DUP6 SWAP1 MSTORE DUP1 MLOAD PUSH1 0x20 SWAP1 DUP2 ADD DUP6 SWAP1 MSTORE DUP2 ADD MLOAD DUP5 SWAP1 MSTORE PUSH1 0xA0 DUP7 ADD MLOAD PUSH1 0x80 DUP8 ADD MLOAD PUSH2 0x3E67 SWAP2 SWAP1 DUP7 PUSH2 0x4293 JUMP JUMPDEST PUSH1 0x20 DUP1 DUP4 ADD MLOAD ADD MSTORE PUSH2 0x3E83 JUMP JUMPDEST PUSH2 0x3E80 DUP6 DUP6 DUP6 DUP6 PUSH2 0x4268 JUMP JUMPDEST SWAP1 POP JUMPDEST PUSH1 0x20 DUP1 DUP3 ADD MLOAD ADD MLOAD DUP2 MLOAD MLOAD PUSH2 0x3E9D SWAP2 PUSH4 0xFFFFFFFF PUSH2 0x1BD1 AND JUMP JUMPDEST PUSH1 0x40 DUP3 ADD MSTORE SWAP7 SWAP6 POP POP POP POP POP POP JUMP JUMPDEST PUSH1 0x4 SLOAD PUSH1 0x0 SWAP1 PUSH20 0xFFFFFFFFFFFFFFFFFFFFFFFFFFFFFFFFFFFFFFFF AND DUP1 ISZERO PUSH2 0x3EFE JUMPI SELFBALANCE PUSH1 0x0 PUSH2 0x3EDF DUP11 DUP5 DUP5 DUP12 DUP12 DUP11 PUSH2 0x42CB JUMP JUMPDEST SWAP1 POP PUSH2 0x3EF1 DUP10 DUP5 DUP4 DUP6 SUB DUP12 DUP11 DUP11 PUSH2 0x42CB JUMP JUMPDEST POP PUSH1 0x1 SWAP4 POP POP POP POP PUSH2 0x3E09 JUMP JUMPDEST PUSH1 0x0 SWAP2 POP POP PUSH2 0x3E09 JUMP JUMPDEST PUSH1 0x0 DUP2 MLOAD DUP4 MLOAD EQ DUP1 ISZERO PUSH2 0x966 JUMPI POP POP DUP1 MLOAD PUSH1 0x20 SWAP2 DUP3 ADD KECCAK256 DUP3 MLOAD SWAP3 SWAP1 SWAP2 ADD SWAP2 SWAP1 SWAP2 KECCAK256 EQ SWAP1 JUMP JUMPDEST PUSH1 0x0 DUP2 PUSH1 0x14 ADD DUP4 MLOAD LT ISZERO PUSH2 0x3F4E JUMPI PUSH2 0x3F4E PUSH2 0xA6C PUSH1 0x4 DUP6 MLOAD DUP6 PUSH1 0x14 ADD PUSH2 0x3C8F JUMP JUMPDEST POP ADD PUSH1 0x14 ADD MLOAD PUSH20 0xFFFFFFFFFFFFFFFFFFFFFFFFFFFFFFFFFFFFFFFF AND SWAP1 JUMP JUMPDEST PUSH1 0x60 PUSH4 0xA15C0D06 PUSH1 0xE0 SHL DUP4 DUP4 PUSH1 0x40 MLOAD PUSH1 0x24 ADD PUSH2 0x2AE2 SWAP3 SWAP2 SWAP1 PUSH2 0x537B JUMP JUMPDEST DUP2 MLOAD PUSH1 0x0 SWAP1 PUSH2 0x3FA1 DUP5 DUP5 DUP4 SUB PUSH4 0xFFFFFFFF PUSH2 0x3CAE AND JUMP JUMPDEST PUSH1 0x40 MLOAD PUSH1 0x60 SWAP1 PUSH32 0x20C13B0B00000000000000000000000000000000000000000000000000000000 SWAP1 PUSH2 0x3FD9 SWAP1 DUP9 SWAP1 DUP9 SWAP1 PUSH1 0x24 ADD PUSH2 0x56F5 JUMP JUMPDEST PUSH1 0x40 DUP1 MLOAD PUSH32 0xFFFFFFFFFFFFFFFFFFFFFFFFFFFFFFFFFFFFFFFFFFFFFFFFFFFFFFFFFFFFFFE0 DUP2 DUP5 SUB ADD DUP2 MSTORE SWAP2 SWAP1 MSTORE PUSH1 0x20 DUP2 ADD DUP1 MLOAD PUSH28 0xFFFFFFFFFFFFFFFFFFFFFFFFFFFFFFFFFFFFFFFFFFFFFFFFFFFFFFFF AND PUSH32 0xFFFFFFFF00000000000000000000000000000000000000000000000000000000 SWAP1 SWAP4 AND SWAP3 SWAP1 SWAP3 OR SWAP1 SWAP2 MSTORE SWAP1 POP PUSH2 0x4068 DUP6 DUP4 PUSH4 0xFFFFFFFF PUSH2 0x3CAE AND JUMP JUMPDEST PUSH1 0x0 PUSH1 0x60 DUP9 PUSH20 0xFFFFFFFFFFFFFFFFFFFFFFFFFFFFFFFFFFFFFFFF AND DUP4 PUSH1 0x40 MLOAD PUSH2 0x4091 SWAP2 SWAP1 PUSH2 0x530D JUMP JUMPDEST PUSH1 0x0 PUSH1 0x40 MLOAD DUP1 DUP4 SUB DUP2 DUP6 GAS STATICCALL SWAP2 POP POP RETURNDATASIZE DUP1 PUSH1 0x0 DUP2 EQ PUSH2 0x40CC JUMPI PUSH1 0x40 MLOAD SWAP2 POP PUSH1 0x1F NOT PUSH1 0x3F RETURNDATASIZE ADD AND DUP3 ADD PUSH1 0x40 MSTORE RETURNDATASIZE DUP3 MSTORE RETURNDATASIZE PUSH1 0x0 PUSH1 0x20 DUP5 ADD RETURNDATACOPY PUSH2 0x40D1 JUMP JUMPDEST PUSH1 0x60 SWAP2 POP JUMPDEST POP SWAP2 POP SWAP2 POP DUP2 DUP1 ISZERO PUSH2 0x40E4 JUMPI POP DUP1 MLOAD PUSH1 0x20 EQ JUMPDEST ISZERO PUSH2 0x4146 JUMPI PUSH32 0x20C13B0B00000000000000000000000000000000000000000000000000000000 PUSH2 0x411B DUP3 PUSH1 0x0 PUSH4 0xFFFFFFFF PUSH2 0x3BAC AND JUMP JUMPDEST PUSH28 0xFFFFFFFFFFFFFFFFFFFFFFFFFFFFFFFFFFFFFFFFFFFFFFFFFFFFFFFF NOT AND EQ SWAP5 POP POP POP POP POP PUSH2 0xB6B JUMP JUMPDEST PUSH2 0x4155 PUSH2 0xA6C DUP11 DUP11 DUP11 DUP6 PUSH2 0x4403 JUMP JUMPDEST POP POP POP POP SWAP5 SWAP4 POP POP POP POP JUMP JUMPDEST PUSH1 0x4 SLOAD PUSH1 0x0 SWAP1 PUSH20 0xFFFFFFFFFFFFFFFFFFFFFFFFFFFFFFFFFFFFFFFF AND DUP1 ISZERO PUSH2 0x419C JUMPI PUSH2 0x4191 DUP7 DUP3 SELFBALANCE DUP9 DUP9 DUP9 PUSH2 0x42CB JUMP JUMPDEST POP PUSH1 0x1 SWAP2 POP POP PUSH2 0xB6B JUMP JUMPDEST PUSH1 0x0 SWAP2 POP POP PUSH2 0xB6B JUMP JUMPDEST PUSH1 0x0 DUP3 PUSH2 0x41B8 JUMPI PUSH2 0x41B8 PUSH2 0xA6C PUSH2 0x4424 JUMP JUMPDEST DUP2 ISZERO DUP1 PUSH2 0x41C3 JUMPI POP DUP4 ISZERO JUMPDEST ISZERO PUSH2 0x41D0 JUMPI POP PUSH1 0x0 PUSH2 0x966 JUMP JUMPDEST PUSH1 0x0 DUP4 DUP1 PUSH2 0x41DA JUMPI INVALID JUMPDEST DUP6 DUP5 MULMOD SWAP1 POP PUSH2 0x41EF DUP6 DUP5 PUSH4 0xFFFFFFFF PUSH2 0x2FAC AND JUMP JUMPDEST PUSH2 0x4201 DUP3 PUSH2 0x3E8 PUSH4 0xFFFFFFFF PUSH2 0x2FAC AND JUMP JUMPDEST LT ISZERO SWAP6 SWAP5 POP POP POP POP POP JUMP JUMPDEST PUSH1 0x60 PUSH4 0x339F3DE2 PUSH1 0xE0 SHL DUP5 DUP5 DUP5 PUSH1 0x40 MLOAD PUSH1 0x24 ADD PUSH2 0x1E1D SWAP4 SWAP3 SWAP2 SWAP1 PUSH2 0x55F6 JUMP JUMPDEST PUSH2 0x4233 PUSH2 0x45C1 JUMP JUMPDEST PUSH1 0x20 DUP1 DUP3 ADD DUP1 MLOAD DUP6 SWAP1 MSTORE MLOAD DUP2 ADD DUP4 SWAP1 MSTORE DUP2 MLOAD ADD DUP4 SWAP1 MSTORE PUSH1 0x80 DUP5 ADD MLOAD PUSH1 0xA0 DUP6 ADD MLOAD PUSH2 0x425E SWAP2 SWAP1 DUP6 PUSH2 0x3D0D JUMP JUMPDEST DUP2 MLOAD MSTORE SWAP4 SWAP3 POP POP POP JUMP JUMPDEST PUSH2 0x4270 PUSH2 0x45C1 JUMP JUMPDEST DUP1 MLOAD SWAP5 SWAP1 SWAP5 MSTORE DUP4 MLOAD PUSH1 0x20 SWAP1 DUP2 ADD SWAP4 SWAP1 SWAP4 MSTORE DUP3 DUP5 ADD DUP1 MLOAD SWAP3 SWAP1 SWAP3 MSTORE SWAP1 MLOAD SWAP1 SWAP2 ADD MSTORE SWAP1 JUMP JUMPDEST PUSH1 0x0 PUSH2 0x42A0 DUP5 DUP5 DUP5 PUSH2 0x445B JUMP JUMPDEST ISZERO PUSH2 0x42B3 JUMPI PUSH2 0x42B3 PUSH2 0xA6C DUP6 DUP6 DUP6 PUSH2 0x420C JUMP JUMPDEST PUSH2 0xB6B DUP4 PUSH2 0x224E PUSH2 0x2232 DUP3 PUSH1 0x1 PUSH4 0xFFFFFFFF PUSH2 0x1BD1 AND JUMP JUMPDEST PUSH1 0x0 DUP4 DUP6 LT PUSH2 0x42D7 JUMPI POP DUP3 JUMPDEST PUSH1 0x40 MLOAD PUSH1 0x60 SWAP1 PUSH32 0xA3B4A32700000000000000000000000000000000000000000000000000000000 SWAP1 PUSH2 0x4311 SWAP1 DUP7 SWAP1 DUP7 SWAP1 DUP10 SWAP1 PUSH1 0x24 ADD PUSH2 0x53A2 JUMP JUMPDEST PUSH1 0x40 MLOAD PUSH1 0x20 DUP2 DUP4 SUB SUB DUP2 MSTORE SWAP1 PUSH1 0x40 MSTORE SWAP1 PUSH28 0xFFFFFFFFFFFFFFFFFFFFFFFFFFFFFFFFFFFFFFFFFFFFFFFFFFFFFFFF NOT AND PUSH1 0x20 DUP3 ADD DUP1 MLOAD PUSH28 0xFFFFFFFFFFFFFFFFFFFFFFFFFFFFFFFFFFFFFFFFFFFFFFFFFFFFFFFF DUP4 DUP2 DUP4 AND OR DUP4 MSTORE POP POP POP POP SWAP1 POP PUSH1 0x0 PUSH1 0x60 DUP9 PUSH20 0xFFFFFFFFFFFFFFFFFFFFFFFFFFFFFFFFFFFFFFFF AND DUP5 DUP5 PUSH1 0x40 MLOAD PUSH2 0x439A SWAP2 SWAP1 PUSH2 0x530D JUMP JUMPDEST PUSH1 0x0 PUSH1 0x40 MLOAD DUP1 DUP4 SUB DUP2 DUP6 DUP8 GAS CALL SWAP3 POP POP POP RETURNDATASIZE DUP1 PUSH1 0x0 DUP2 EQ PUSH2 0x43D7 JUMPI PUSH1 0x40 MLOAD SWAP2 POP PUSH1 0x1F NOT PUSH1 0x3F RETURNDATASIZE ADD AND DUP3 ADD PUSH1 0x40 MSTORE RETURNDATASIZE DUP3 MSTORE RETURNDATASIZE PUSH1 0x0 PUSH1 0x20 DUP5 ADD RETURNDATACOPY PUSH2 0x43DC JUMP JUMPDEST PUSH1 0x60 SWAP2 POP JUMPDEST POP SWAP2 POP SWAP2 POP DUP2 PUSH2 0x43F6 JUMPI PUSH2 0x43F6 PUSH2 0xA6C DUP12 DUP10 DUP10 DUP10 DUP7 PUSH2 0x44BF JUMP JUMPDEST POP POP POP SWAP7 SWAP6 POP POP POP POP POP POP JUMP JUMPDEST PUSH1 0x60 PUSH4 0x5BD0428D PUSH1 0xE0 SHL DUP6 DUP6 DUP6 DUP6 PUSH1 0x40 MLOAD PUSH1 0x24 ADD PUSH2 0x22FA SWAP5 SWAP4 SWAP3 SWAP2 SWAP1 PUSH2 0x53D3 JUMP JUMPDEST PUSH1 0x40 DUP1 MLOAD DUP1 DUP3 ADD SWAP1 SWAP2 MSTORE PUSH1 0x4 DUP2 MSTORE PUSH32 0xA791837C00000000000000000000000000000000000000000000000000000000 PUSH1 0x20 DUP3 ADD MSTORE SWAP1 JUMP JUMPDEST PUSH1 0x0 DUP3 PUSH2 0x446D JUMPI PUSH2 0x446D PUSH2 0xA6C PUSH2 0x4424 JUMP JUMPDEST DUP2 ISZERO DUP1 PUSH2 0x4478 JUMPI POP DUP4 ISZERO JUMPDEST ISZERO PUSH2 0x4485 JUMPI POP PUSH1 0x0 PUSH2 0x966 JUMP JUMPDEST PUSH1 0x0 DUP4 DUP1 PUSH2 0x448F JUMPI INVALID JUMPDEST DUP6 DUP5 MULMOD SWAP1 POP DUP4 PUSH2 0x44A5 DUP2 DUP4 PUSH4 0xFFFFFFFF PUSH2 0x1BD1 AND JUMP JUMPDEST DUP2 PUSH2 0x44AC JUMPI INVALID JUMPDEST MOD SWAP1 POP PUSH2 0x41EF DUP6 DUP5 PUSH4 0xFFFFFFFF PUSH2 0x2FAC AND JUMP JUMPDEST PUSH1 0x60 PUSH4 0x87CB1E75 PUSH1 0xE0 SHL DUP7 DUP7 DUP7 DUP7 DUP7 PUSH1 0x40 MLOAD PUSH1 0x24 ADD PUSH2 0x44E2 SWAP6 SWAP5 SWAP4 SWAP3 SWAP2 SWAP1 PUSH2 0x55B1 JUMP JUMPDEST PUSH1 0x40 DUP1 MLOAD PUSH32 0xFFFFFFFFFFFFFFFFFFFFFFFFFFFFFFFFFFFFFFFFFFFFFFFFFFFFFFFFFFFFFFE0 DUP2 DUP5 SUB ADD DUP2 MSTORE SWAP2 SWAP1 MSTORE PUSH1 0x20 DUP2 ADD DUP1 MLOAD PUSH28 0xFFFFFFFFFFFFFFFFFFFFFFFFFFFFFFFFFFFFFFFFFFFFFFFFFFFFFFFF AND PUSH32 0xFFFFFFFF00000000000000000000000000000000000000000000000000000000 SWAP1 SWAP4 AND SWAP3 SWAP1 SWAP3 OR SWAP1 SWAP2 MSTORE SWAP1 POP SWAP6 SWAP5 POP POP POP POP POP JUMP JUMPDEST PUSH1 0x40 MLOAD DUP1 PUSH1 0xA0 ADD PUSH1 0x40 MSTORE DUP1 PUSH1 0x0 DUP2 MSTORE PUSH1 0x20 ADD PUSH1 0x0 DUP2 MSTORE PUSH1 0x20 ADD PUSH1 0x0 DUP2 MSTORE PUSH1 0x20 ADD PUSH1 0x0 DUP2 MSTORE PUSH1 0x20 ADD PUSH1 0x0 DUP2 MSTORE POP SWAP1 JUMP JUMPDEST PUSH1 0x40 MLOAD DUP1 PUSH1 0x80 ADD PUSH1 0x40 MSTORE DUP1 PUSH1 0x60 DUP2 MSTORE PUSH1 0x20 ADD PUSH1 0x60 DUP2 MSTORE PUSH1 0x20 ADD PUSH1 0x0 DUP2 MSTORE PUSH1 0x20 ADD PUSH1 0x0 DUP2 MSTORE POP SWAP1 JUMP JUMPDEST PUSH1 0x40 MLOAD DUP1 PUSH1 0x80 ADD PUSH1 0x40 MSTORE DUP1 PUSH2 0x45D4 PUSH2 0x456A JUMP JUMPDEST DUP2 MSTORE PUSH1 0x20 ADD PUSH2 0x45E1 PUSH2 0x456A JUMP JUMPDEST DUP2 MSTORE PUSH1 0x20 ADD PUSH1 0x0 DUP2 MSTORE PUSH1 0x20 ADD PUSH1 0x0 DUP2 MSTORE POP SWAP1 JUMP JUMPDEST PUSH1 0x40 DUP1 MLOAD PUSH1 0x60 DUP2 ADD SWAP1 SWAP2 MSTORE DUP1 PUSH1 0x0 DUP2 MSTORE PUSH1 0x0 PUSH1 0x20 DUP3 ADD DUP2 SWAP1 MSTORE PUSH1 0x40 SWAP1 SWAP2 ADD MSTORE SWAP1 JUMP JUMPDEST PUSH1 0x40 MLOAD DUP1 PUSH2 0x1C0 ADD PUSH1 0x40 MSTORE DUP1 PUSH1 0x0 PUSH20 0xFFFFFFFFFFFFFFFFFFFFFFFFFFFFFFFFFFFFFFFF AND DUP2 MSTORE PUSH1 0x20 ADD PUSH1 0x0 PUSH20 0xFFFFFFFFFFFFFFFFFFFFFFFFFFFFFFFFFFFFFFFF AND DUP2 MSTORE PUSH1 0x20 ADD PUSH1 0x0 PUSH20 0xFFFFFFFFFFFFFFFFFFFFFFFFFFFFFFFFFFFFFFFF AND DUP2 MSTORE PUSH1 0x20 ADD PUSH1 0x0 PUSH20 0xFFFFFFFFFFFFFFFFFFFFFFFFFFFFFFFFFFFFFFFF AND DUP2 MSTORE PUSH1 0x20 ADD PUSH1 0x0 DUP2 MSTORE PUSH1 0x20 ADD PUSH1 0x0 DUP2 MSTORE PUSH1 0x20 ADD PUSH1 0x0 DUP2 MSTORE PUSH1 0x20 ADD PUSH1 0x0 DUP2 MSTORE PUSH1 0x20 ADD PUSH1 0x0 DUP2 MSTORE PUSH1 0x20 ADD PUSH1 0x0 DUP2 MSTORE PUSH1 0x20 ADD PUSH1 0x60 DUP2 MSTORE PUSH1 0x20 ADD PUSH1 0x60 DUP2 MSTORE PUSH1 0x20 ADD PUSH1 0x60 DUP2 MSTORE PUSH1 0x20 ADD PUSH1 0x60 DUP2 MSTORE POP SWAP1 JUMP JUMPDEST DUP1 CALLDATALOAD PUSH20 0xFFFFFFFFFFFFFFFFFFFFFFFFFFFFFFFFFFFFFFFF DUP2 AND DUP2 EQ PUSH2 0x7F5 JUMPI PUSH1 0x0 DUP1 REVERT JUMPDEST PUSH1 0x0 DUP3 PUSH1 0x1F DUP4 ADD SLT PUSH2 0x4712 JUMPI DUP1 DUP2 REVERT JUMPDEST DUP2 CALLDATALOAD PUSH2 0x4725 PUSH2 0x4720 DUP3 PUSH2 0x5B1F JUMP JUMPDEST PUSH2 0x5AF8 JUMP JUMPDEST DUP2 DUP2 MSTORE SWAP2 POP PUSH1 0x20 DUP1 DUP4 ADD SWAP1 DUP5 DUP2 ADD DUP2 DUP5 MUL DUP7 ADD DUP3 ADD DUP8 LT ISZERO PUSH2 0x4746 JUMPI PUSH1 0x0 DUP1 REVERT JUMPDEST PUSH1 0x0 JUMPDEST DUP5 DUP2 LT ISZERO PUSH2 0x476D JUMPI PUSH2 0x475B DUP9 DUP4 PUSH2 0x46DE JUMP JUMPDEST DUP5 MSTORE SWAP3 DUP3 ADD SWAP3 SWAP1 DUP3 ADD SWAP1 PUSH1 0x1 ADD PUSH2 0x4749 JUMP JUMPDEST POP POP POP POP POP SWAP3 SWAP2 POP POP JUMP JUMPDEST PUSH1 0x0 DUP3 PUSH1 0x1F DUP4 ADD SLT PUSH2 0x4788 JUMPI DUP1 DUP2 REVERT JUMPDEST DUP2 CALLDATALOAD PUSH2 0x4796 PUSH2 0x4720 DUP3 PUSH2 0x5B1F JUMP JUMPDEST DUP2 DUP2 MSTORE SWAP2 POP PUSH1 0x20 DUP1 DUP4 ADD SWAP1 DUP5 ADD PUSH1 0x0 JUMPDEST DUP4 DUP2 LT ISZERO PUSH2 0x47D3 JUMPI PUSH2 0x47BE DUP8 PUSH1 0x20 DUP5 CALLDATALOAD DUP10 ADD ADD PUSH2 0x4896 JUMP JUMPDEST DUP4 MSTORE PUSH1 0x20 SWAP3 DUP4 ADD SWAP3 SWAP2 SWAP1 SWAP2 ADD SWAP1 PUSH1 0x1 ADD PUSH2 0x47A6 JUMP JUMPDEST POP POP POP POP SWAP3 SWAP2 POP POP JUMP JUMPDEST PUSH1 0x0 DUP3 PUSH1 0x1F DUP4 ADD SLT PUSH2 0x47ED JUMPI DUP1 DUP2 REVERT JUMPDEST DUP2 CALLDATALOAD PUSH2 0x47FB PUSH2 0x4720 DUP3 PUSH2 0x5B1F JUMP JUMPDEST DUP2 DUP2 MSTORE SWAP2 POP PUSH1 0x20 DUP1 DUP4 ADD SWAP1 DUP5 ADD PUSH1 0x0 JUMPDEST DUP4 DUP2 LT ISZERO PUSH2 0x47D3 JUMPI PUSH2 0x4823 DUP8 PUSH1 0x20 DUP5 CALLDATALOAD DUP10 ADD ADD PUSH2 0x491D JUMP JUMPDEST DUP4 MSTORE PUSH1 0x20 SWAP3 DUP4 ADD SWAP3 SWAP2 SWAP1 SWAP2 ADD SWAP1 PUSH1 0x1 ADD PUSH2 0x480B JUMP JUMPDEST PUSH1 0x0 DUP3 PUSH1 0x1F DUP4 ADD SLT PUSH2 0x4848 JUMPI DUP1 DUP2 REVERT JUMPDEST DUP2 CALLDATALOAD PUSH2 0x4856 PUSH2 0x4720 DUP3 PUSH2 0x5B1F JUMP JUMPDEST DUP2 DUP2 MSTORE SWAP2 POP PUSH1 0x20 DUP1 DUP4 ADD SWAP1 DUP5 DUP2 ADD DUP2 DUP5 MUL DUP7 ADD DUP3 ADD DUP8 LT ISZERO PUSH2 0x4877 JUMPI PUSH1 0x0 DUP1 REVERT JUMPDEST PUSH1 0x0 JUMPDEST DUP5 DUP2 LT ISZERO PUSH2 0x476D JUMPI DUP2 CALLDATALOAD DUP5 MSTORE SWAP3 DUP3 ADD SWAP3 SWAP1 DUP3 ADD SWAP1 PUSH1 0x1 ADD PUSH2 0x487A JUMP JUMPDEST PUSH1 0x0 DUP3 PUSH1 0x1F DUP4 ADD SLT PUSH2 0x48A6 JUMPI DUP1 DUP2 REVERT JUMPDEST DUP2 CALLDATALOAD PUSH8 0xFFFFFFFFFFFFFFFF DUP2 GT ISZERO PUSH2 0x48BC JUMPI DUP2 DUP3 REVERT JUMPDEST PUSH2 0x48ED PUSH1 0x20 PUSH32 0xFFFFFFFFFFFFFFFFFFFFFFFFFFFFFFFFFFFFFFFFFFFFFFFFFFFFFFFFFFFFFFE0 PUSH1 0x1F DUP5 ADD AND ADD PUSH2 0x5AF8 JUMP JUMPDEST SWAP2 POP DUP1 DUP3 MSTORE DUP4 PUSH1 0x20 DUP3 DUP6 ADD ADD GT ISZERO PUSH2 0x4904 JUMPI PUSH1 0x0 DUP1 REVERT JUMPDEST DUP1 PUSH1 0x20 DUP5 ADD PUSH1 0x20 DUP5 ADD CALLDATACOPY PUSH1 0x0 SWAP1 DUP3 ADD PUSH1 0x20 ADD MSTORE SWAP3 SWAP2 POP POP JUMP JUMPDEST PUSH1 0x0 PUSH2 0x1C0 DUP1 DUP4 DUP6 SUB SLT ISZERO PUSH2 0x4930 JUMPI DUP2 DUP3 REVERT JUMPDEST PUSH2 0x4939 DUP2 PUSH2 0x5AF8 JUMP JUMPDEST SWAP2 POP POP PUSH2 0x4946 DUP4 DUP4 PUSH2 0x46DE JUMP JUMPDEST DUP2 MSTORE PUSH2 0x4955 DUP4 PUSH1 0x20 DUP5 ADD PUSH2 0x46DE JUMP JUMPDEST PUSH1 0x20 DUP3 ADD MSTORE PUSH2 0x4967 DUP4 PUSH1 0x40 DUP5 ADD PUSH2 0x46DE JUMP JUMPDEST PUSH1 0x40 DUP3 ADD MSTORE PUSH2 0x4979 DUP4 PUSH1 0x60 DUP5 ADD PUSH2 0x46DE JUMP JUMPDEST PUSH1 0x60 DUP3 ADD MSTORE PUSH1 0x80 DUP3 ADD CALLDATALOAD PUSH1 0x80 DUP3 ADD MSTORE PUSH1 0xA0 DUP3 ADD CALLDATALOAD PUSH1 0xA0 DUP3 ADD MSTORE PUSH1 0xC0 DUP3 ADD CALLDATALOAD PUSH1 0xC0 DUP3 ADD MSTORE PUSH1 0xE0 DUP3 ADD CALLDATALOAD PUSH1 0xE0 DUP3 ADD MSTORE PUSH2 0x100 DUP1 DUP4 ADD CALLDATALOAD DUP2 DUP4 ADD MSTORE POP PUSH2 0x120 DUP1 DUP4 ADD CALLDATALOAD DUP2 DUP4 ADD MSTORE POP PUSH2 0x140 DUP1 DUP4 ADD CALLDATALOAD PUSH8 0xFFFFFFFFFFFFFFFF DUP1 DUP3 GT ISZERO PUSH2 0x49DB JUMPI PUSH1 0x0 DUP1 REVERT JUMPDEST PUSH2 0x49E7 DUP7 DUP4 DUP8 ADD PUSH2 0x4896 JUMP JUMPDEST DUP4 DUP6 ADD MSTORE PUSH2 0x160 SWAP3 POP DUP3 DUP6 ADD CALLDATALOAD SWAP2 POP DUP1 DUP3 GT ISZERO PUSH2 0x4A03 JUMPI PUSH1 0x0 DUP1 REVERT JUMPDEST PUSH2 0x4A0F DUP7 DUP4 DUP8 ADD PUSH2 0x4896 JUMP JUMPDEST DUP4 DUP6 ADD MSTORE PUSH2 0x180 SWAP3 POP DUP3 DUP6 ADD CALLDATALOAD SWAP2 POP DUP1 DUP3 GT ISZERO PUSH2 0x4A2B JUMPI PUSH1 0x0 DUP1 REVERT JUMPDEST PUSH2 0x4A37 DUP7 DUP4 DUP8 ADD PUSH2 0x4896 JUMP JUMPDEST DUP4 DUP6 ADD MSTORE PUSH2 0x1A0 SWAP3 POP DUP3 DUP6 ADD CALLDATALOAD SWAP2 POP DUP1 DUP3 GT ISZERO PUSH2 0x4A53 JUMPI PUSH1 0x0 DUP1 REVERT JUMPDEST POP PUSH2 0x4A60 DUP6 DUP3 DUP7 ADD PUSH2 0x4896 JUMP JUMPDEST DUP3 DUP5 ADD MSTORE POP POP SWAP3 SWAP2 POP POP JUMP JUMPDEST PUSH1 0x0 PUSH1 0xA0 DUP3 DUP5 SUB SLT ISZERO PUSH2 0x4A7D JUMPI DUP1 DUP2 REVERT JUMPDEST PUSH2 0x4A87 PUSH1 0xA0 PUSH2 0x5AF8 JUMP JUMPDEST SWAP1 POP DUP2 CALLDATALOAD DUP2 MSTORE PUSH1 0x20 DUP3 ADD CALLDATALOAD PUSH1 0x20 DUP3 ADD MSTORE PUSH1 0x40 DUP3 ADD CALLDATALOAD PUSH1 0x40 DUP3 ADD MSTORE PUSH1 0x60 DUP3 ADD CALLDATALOAD PUSH2 0x4AAF DUP2 PUSH2 0x5B89 JUMP JUMPDEST PUSH1 0x60 DUP3 ADD MSTORE PUSH1 0x80 DUP3 ADD CALLDATALOAD PUSH8 0xFFFFFFFFFFFFFFFF DUP2 GT ISZERO PUSH2 0x4ACE JUMPI PUSH1 0x0 DUP1 REVERT JUMPDEST PUSH2 0x4ADA DUP5 DUP3 DUP6 ADD PUSH2 0x4896 JUMP JUMPDEST PUSH1 0x80 DUP4 ADD MSTORE POP SWAP3 SWAP2 POP POP JUMP JUMPDEST PUSH1 0x0 PUSH1 0x20 DUP3 DUP5 SUB SLT ISZERO PUSH2 0x4AF7 JUMPI DUP1 DUP2 REVERT JUMPDEST PUSH2 0x966 DUP4 DUP4 PUSH2 0x46DE JUMP JUMPDEST PUSH1 0x0 DUP1 PUSH1 0x40 DUP4 DUP6 SUB SLT ISZERO PUSH2 0x4B13 JUMPI DUP1 DUP2 REVERT JUMPDEST PUSH2 0x4B1D DUP5 DUP5 PUSH2 0x46DE JUMP JUMPDEST SWAP2 POP PUSH2 0x4B2C DUP5 PUSH1 0x20 DUP6 ADD PUSH2 0x46DE JUMP JUMPDEST SWAP1 POP SWAP3 POP SWAP3 SWAP1 POP JUMP JUMPDEST PUSH1 0x0 DUP1 PUSH1 0x40 DUP4 DUP6 SUB SLT ISZERO PUSH2 0x4B47 JUMPI DUP2 DUP3 REVERT JUMPDEST PUSH2 0x4B51 DUP5 DUP5 PUSH2 0x46DE JUMP JUMPDEST SWAP2 POP PUSH1 0x20 DUP4 ADD CALLDATALOAD DUP1 ISZERO ISZERO DUP2 EQ PUSH2 0x4B65 JUMPI DUP2 DUP3 REVERT JUMPDEST DUP1 SWAP2 POP POP SWAP3 POP SWAP3 SWAP1 POP JUMP JUMPDEST PUSH1 0x0 DUP1 PUSH1 0x0 DUP1 PUSH1 0x80 DUP6 DUP8 SUB SLT ISZERO PUSH2 0x4B85 JUMPI DUP2 DUP3 REVERT JUMPDEST DUP5 CALLDATALOAD PUSH8 0xFFFFFFFFFFFFFFFF DUP1 DUP3 GT ISZERO PUSH2 0x4B9C JUMPI DUP4 DUP5 REVERT JUMPDEST PUSH2 0x4BA8 DUP9 DUP4 DUP10 ADD PUSH2 0x4778 JUMP JUMPDEST SWAP6 POP PUSH1 0x20 DUP8 ADD CALLDATALOAD SWAP2 POP DUP1 DUP3 GT ISZERO PUSH2 0x4BBD JUMPI DUP4 DUP5 REVERT JUMPDEST PUSH2 0x4BC9 DUP9 DUP4 DUP10 ADD PUSH2 0x4702 JUMP JUMPDEST SWAP5 POP PUSH1 0x40 DUP8 ADD CALLDATALOAD SWAP2 POP DUP1 DUP3 GT ISZERO PUSH2 0x4BDE JUMPI DUP4 DUP5 REVERT JUMPDEST PUSH2 0x4BEA DUP9 DUP4 DUP10 ADD PUSH2 0x4702 JUMP JUMPDEST SWAP4 POP PUSH1 0x60 DUP8 ADD CALLDATALOAD SWAP2 POP DUP1 DUP3 GT ISZERO PUSH2 0x4BFF JUMPI DUP3 DUP4 REVERT JUMPDEST POP PUSH2 0x4C0C DUP8 DUP3 DUP9 ADD PUSH2 0x4838 JUMP JUMPDEST SWAP2 POP POP SWAP3 SWAP6 SWAP2 SWAP5 POP SWAP3 POP JUMP JUMPDEST PUSH1 0x0 PUSH1 0x20 DUP3 DUP5 SUB SLT ISZERO PUSH2 0x4C29 JUMPI DUP1 DUP2 REVERT JUMPDEST DUP2 CALLDATALOAD PUSH8 0xFFFFFFFFFFFFFFFF DUP2 GT ISZERO PUSH2 0x4C3F JUMPI DUP2 DUP3 REVERT JUMPDEST PUSH2 0xB6B DUP5 DUP3 DUP6 ADD PUSH2 0x47DD JUMP JUMPDEST PUSH1 0x0 DUP1 PUSH1 0x0 DUP1 PUSH1 0x80 DUP6 DUP8 SUB SLT ISZERO PUSH2 0x4C60 JUMPI DUP2 DUP3 REVERT JUMPDEST DUP5 CALLDATALOAD PUSH8 0xFFFFFFFFFFFFFFFF DUP1 DUP3 GT ISZERO PUSH2 0x4C77 JUMPI DUP4 DUP5 REVERT JUMPDEST PUSH2 0x4C83 DUP9 DUP4 DUP10 ADD PUSH2 0x47DD JUMP JUMPDEST SWAP6 POP PUSH1 0x20 DUP8 ADD CALLDATALOAD SWAP2 POP DUP1 DUP3 GT ISZERO PUSH2 0x4C98 JUMPI DUP4 DUP5 REVERT JUMPDEST PUSH2 0x4CA4 DUP9 DUP4 DUP10 ADD PUSH2 0x47DD JUMP JUMPDEST SWAP5 POP PUSH1 0x40 DUP8 ADD CALLDATALOAD SWAP2 POP DUP1 DUP3 GT ISZERO PUSH2 0x4CB9 JUMPI DUP4 DUP5 REVERT JUMPDEST PUSH2 0x4CC5 DUP9 DUP4 DUP10 ADD PUSH2 0x4778 JUMP JUMPDEST SWAP4 POP PUSH1 0x60 DUP8 ADD CALLDATALOAD SWAP2 POP DUP1 DUP3 GT ISZERO PUSH2 0x4CDA JUMPI DUP3 DUP4 REVERT JUMPDEST POP PUSH2 0x4C0C DUP8 DUP3 DUP9 ADD PUSH2 0x4778 JUMP JUMPDEST PUSH1 0x0 DUP1 PUSH1 0x0 PUSH1 0x60 DUP5 DUP7 SUB SLT ISZERO PUSH2 0x4CFB JUMPI DUP1 DUP2 REVERT JUMPDEST DUP4 CALLDATALOAD PUSH8 0xFFFFFFFFFFFFFFFF DUP1 DUP3 GT ISZERO PUSH2 0x4D12 JUMPI DUP3 DUP4 REVERT JUMPDEST PUSH2 0x4D1E DUP8 DUP4 DUP9 ADD PUSH2 0x47DD JUMP JUMPDEST SWAP5 POP PUSH1 0x20 DUP7 ADD CALLDATALOAD SWAP2 POP DUP1 DUP3 GT ISZERO PUSH2 0x4D33 JUMPI DUP3 DUP4 REVERT JUMPDEST PUSH2 0x4D3F DUP8 DUP4 DUP9 ADD PUSH2 0x4838 JUMP JUMPDEST SWAP4 POP PUSH1 0x40 DUP7 ADD CALLDATALOAD SWAP2 POP DUP1 DUP3 GT ISZERO PUSH2 0x4D54 JUMPI DUP3 DUP4 REVERT JUMPDEST POP PUSH2 0x4D61 DUP7 DUP3 DUP8 ADD PUSH2 0x4778 JUMP JUMPDEST SWAP2 POP POP SWAP3 POP SWAP3 POP SWAP3 JUMP JUMPDEST PUSH1 0x0 DUP1 PUSH1 0x0 PUSH1 0x60 DUP5 DUP7 SUB SLT ISZERO PUSH2 0x4D7F JUMPI DUP1 DUP2 REVERT JUMPDEST DUP4 CALLDATALOAD PUSH8 0xFFFFFFFFFFFFFFFF DUP1 DUP3 GT ISZERO PUSH2 0x4D96 JUMPI DUP3 DUP4 REVERT JUMPDEST PUSH2 0x4DA2 DUP8 DUP4 DUP9 ADD PUSH2 0x47DD JUMP JUMPDEST SWAP5 POP PUSH1 0x20 DUP7 ADD CALLDATALOAD SWAP4 POP PUSH1 0x40 DUP7 ADD CALLDATALOAD SWAP2 POP DUP1 DUP3 GT ISZERO PUSH2 0x4D54 JUMPI DUP3 DUP4 REVERT JUMPDEST PUSH1 0x0 DUP1 PUSH1 0x40 DUP4 DUP6 SUB SLT ISZERO PUSH2 0x4DD0 JUMPI DUP2 DUP3 REVERT JUMPDEST DUP3 CALLDATALOAD PUSH8 0xFFFFFFFFFFFFFFFF DUP1 DUP3 GT ISZERO PUSH2 0x4DE7 JUMPI DUP4 DUP5 REVERT JUMPDEST DUP2 DUP6 ADD DUP7 PUSH1 0x1F DUP3 ADD SLT PUSH2 0x4DF8 JUMPI DUP5 DUP6 REVERT JUMPDEST DUP1 CALLDATALOAD SWAP3 POP PUSH2 0x4E08 PUSH2 0x4720 DUP5 PUSH2 0x5B1F JUMP JUMPDEST DUP4 DUP2 MSTORE PUSH1 0x20 DUP1 DUP3 ADD SWAP2 SWAP1 DUP4 DUP2 ADD DUP9 JUMPDEST DUP8 DUP2 LT ISZERO PUSH2 0x4E40 JUMPI PUSH2 0x4E2E DUP13 DUP5 DUP5 CALLDATALOAD DUP10 ADD ADD PUSH2 0x4A6C JUMP JUMPDEST DUP6 MSTORE SWAP4 DUP3 ADD SWAP4 SWAP1 DUP3 ADD SWAP1 PUSH1 0x1 ADD PUSH2 0x4E17 JUMP JUMPDEST POP SWAP2 SWAP8 POP DUP9 ADD CALLDATALOAD SWAP5 POP POP POP POP DUP1 DUP3 GT ISZERO PUSH2 0x4E58 JUMPI DUP3 DUP4 REVERT JUMPDEST POP PUSH2 0x4E65 DUP6 DUP3 DUP7 ADD PUSH2 0x4778 JUMP JUMPDEST SWAP2 POP POP SWAP3 POP SWAP3 SWAP1 POP JUMP JUMPDEST PUSH1 0x0 PUSH1 0x20 DUP3 DUP5 SUB SLT ISZERO PUSH2 0x4E80 JUMPI DUP1 DUP2 REVERT JUMPDEST POP CALLDATALOAD SWAP2 SWAP1 POP JUMP JUMPDEST PUSH1 0x0 DUP1 PUSH1 0x40 DUP4 DUP6 SUB SLT ISZERO PUSH2 0x4E99 JUMPI DUP2 DUP3 REVERT JUMPDEST DUP3 CALLDATALOAD SWAP2 POP PUSH1 0x20 DUP4 ADD CALLDATALOAD PUSH2 0x4B65 DUP2 PUSH2 0x5B89 JUMP JUMPDEST PUSH1 0x0 DUP1 PUSH1 0x0 PUSH1 0x60 DUP5 DUP7 SUB SLT ISZERO PUSH2 0x4EBF JUMPI DUP1 DUP2 REVERT JUMPDEST DUP4 CALLDATALOAD SWAP3 POP PUSH1 0x20 DUP5 ADD CALLDATALOAD PUSH2 0x4ED1 DUP2 PUSH2 0x5B89 JUMP JUMPDEST SWAP2 POP PUSH1 0x40 DUP5 ADD CALLDATALOAD PUSH8 0xFFFFFFFFFFFFFFFF DUP2 GT ISZERO PUSH2 0x4EEC JUMPI DUP2 DUP3 REVERT JUMPDEST PUSH2 0x4D61 DUP7 DUP3 DUP8 ADD PUSH2 0x4896 JUMP JUMPDEST PUSH1 0x0 PUSH1 0x20 DUP3 DUP5 SUB SLT ISZERO PUSH2 0x4F09 JUMPI DUP1 DUP2 REVERT JUMPDEST DUP2 CALLDATALOAD PUSH2 0x966 DUP2 PUSH2 0x5BAB JUMP JUMPDEST PUSH1 0x0 PUSH1 0x20 DUP3 DUP5 SUB SLT ISZERO PUSH2 0x4F25 JUMPI DUP1 DUP2 REVERT JUMPDEST DUP2 MLOAD PUSH2 0x966 DUP2 PUSH2 0x5BAB JUMP JUMPDEST PUSH1 0x0 PUSH1 0xA0 DUP3 DUP5 SUB SLT ISZERO PUSH2 0x4F41 JUMPI DUP1 DUP2 REVERT JUMPDEST PUSH2 0x4F4B PUSH1 0xA0 PUSH2 0x5AF8 JUMP JUMPDEST DUP3 MLOAD DUP2 MSTORE PUSH1 0x20 DUP4 ADD MLOAD PUSH1 0x20 DUP3 ADD MSTORE PUSH1 0x40 DUP4 ADD MLOAD PUSH1 0x40 DUP3 ADD MSTORE PUSH1 0x60 DUP4 ADD MLOAD PUSH1 0x60 DUP3 ADD MSTORE PUSH1 0x80 DUP4 ADD MLOAD PUSH1 0x80 DUP3 ADD MSTORE DUP1 SWAP2 POP POP SWAP3 SWAP2 POP POP JUMP JUMPDEST PUSH1 0x0 PUSH1 0x20 DUP3 DUP5 SUB SLT ISZERO PUSH2 0x4F92 JUMPI DUP1 DUP2 REVERT JUMPDEST DUP2 CALLDATALOAD PUSH8 0xFFFFFFFFFFFFFFFF DUP2 GT ISZERO PUSH2 0x4FA8 JUMPI DUP2 DUP3 REVERT JUMPDEST PUSH2 0xB6B DUP5 DUP3 DUP6 ADD PUSH2 0x491D JUMP JUMPDEST PUSH1 0x0 DUP1 PUSH1 0x40 DUP4 DUP6 SUB SLT ISZERO PUSH2 0x4FC6 JUMPI DUP2 DUP3 REVERT JUMPDEST DUP3 CALLDATALOAD PUSH8 0xFFFFFFFFFFFFFFFF DUP1 DUP3 GT ISZERO PUSH2 0x4FDD JUMPI DUP4 DUP5 REVERT JUMPDEST PUSH2 0x4FE9 DUP7 DUP4 DUP8 ADD PUSH2 0x491D JUMP JUMPDEST SWAP4 POP PUSH1 0x20 DUP6 ADD CALLDATALOAD SWAP2 POP DUP1 DUP3 GT ISZERO PUSH2 0x4FFE JUMPI DUP3 DUP4 REVERT JUMPDEST POP PUSH2 0x4E65 DUP6 DUP3 DUP7 ADD PUSH2 0x4896 JUMP JUMPDEST PUSH1 0x0 DUP1 PUSH1 0x0 DUP1 PUSH1 0x80 DUP6 DUP8 SUB SLT ISZERO PUSH2 0x5020 JUMPI DUP2 DUP3 REVERT JUMPDEST DUP5 CALLDATALOAD PUSH8 0xFFFFFFFFFFFFFFFF DUP1 DUP3 GT ISZERO PUSH2 0x5037 JUMPI DUP4 DUP5 REVERT JUMPDEST PUSH2 0x5043 DUP9 DUP4 DUP10 ADD PUSH2 0x491D JUMP JUMPDEST SWAP6 POP PUSH1 0x20 DUP8 ADD CALLDATALOAD SWAP2 POP DUP1 DUP3 GT ISZERO PUSH2 0x5058 JUMPI DUP4 DUP5 REVERT JUMPDEST PUSH2 0x5064 DUP9 DUP4 DUP10 ADD PUSH2 0x491D JUMP JUMPDEST SWAP5 POP PUSH1 0x40 DUP8 ADD CALLDATALOAD SWAP2 POP DUP1 DUP3 GT ISZERO PUSH2 0x5079 JUMPI DUP4 DUP5 REVERT JUMPDEST PUSH2 0x5085 DUP9 DUP4 DUP10 ADD PUSH2 0x4896 JUMP JUMPDEST SWAP4 POP PUSH1 0x60 DUP8 ADD CALLDATALOAD SWAP2 POP DUP1 DUP3 GT ISZERO PUSH2 0x509A JUMPI DUP3 DUP4 REVERT JUMPDEST POP PUSH2 0x4C0C DUP8 DUP3 DUP9 ADD PUSH2 0x4896 JUMP JUMPDEST PUSH1 0x0 DUP1 PUSH1 0x0 PUSH1 0x60 DUP5 DUP7 SUB SLT ISZERO PUSH2 0x50BB JUMPI DUP1 DUP2 REVERT JUMPDEST DUP4 CALLDATALOAD PUSH8 0xFFFFFFFFFFFFFFFF DUP1 DUP3 GT ISZERO PUSH2 0x50D2 JUMPI DUP3 DUP4 REVERT JUMPDEST PUSH2 0x50DE DUP8 DUP4 DUP9 ADD PUSH2 0x491D JUMP JUMPDEST SWAP5 POP PUSH1 0x20 DUP7 ADD CALLDATALOAD SWAP4 POP PUSH1 0x40 DUP7 ADD CALLDATALOAD SWAP2 POP DUP1 DUP3 GT ISZERO PUSH2 0x50FA JUMPI DUP3 DUP4 REVERT JUMPDEST POP PUSH2 0x4D61 DUP7 DUP3 DUP8 ADD PUSH2 0x4896 JUMP JUMPDEST PUSH1 0x0 DUP1 PUSH1 0x40 DUP4 DUP6 SUB SLT ISZERO PUSH2 0x5119 JUMPI DUP2 DUP3 REVERT JUMPDEST DUP3 CALLDATALOAD PUSH8 0xFFFFFFFFFFFFFFFF DUP1 DUP3 GT ISZERO PUSH2 0x5130 JUMPI DUP4 DUP5 REVERT JUMPDEST PUSH2 0x4FE9 DUP7 DUP4 DUP8 ADD PUSH2 0x4A6C JUMP JUMPDEST PUSH20 0xFFFFFFFFFFFFFFFFFFFFFFFFFFFFFFFFFFFFFFFF AND SWAP1 MSTORE JUMP JUMPDEST PUSH1 0x0 DUP2 MLOAD DUP1 DUP5 MSTORE PUSH1 0x20 DUP5 ADD SWAP4 POP PUSH1 0x20 DUP4 ADD DUP3 JUMPDEST DUP3 DUP2 LT ISZERO PUSH2 0x5192 JUMPI PUSH2 0x517C DUP7 DUP4 MLOAD PUSH2 0x51E6 JUMP JUMPDEST PUSH1 0xA0 SWAP6 SWAP1 SWAP6 ADD SWAP5 PUSH1 0x20 SWAP2 SWAP1 SWAP2 ADD SWAP1 PUSH1 0x1 ADD PUSH2 0x5169 JUMP JUMPDEST POP SWAP4 SWAP5 SWAP4 POP POP POP POP JUMP JUMPDEST PUSH1 0x0 DUP2 MLOAD DUP1 DUP5 MSTORE PUSH2 0x51B4 DUP2 PUSH1 0x20 DUP7 ADD PUSH1 0x20 DUP7 ADD PUSH2 0x5B3F JUMP JUMPDEST PUSH1 0x1F ADD PUSH32 0xFFFFFFFFFFFFFFFFFFFFFFFFFFFFFFFFFFFFFFFFFFFFFFFFFFFFFFFFFFFFFFE0 AND SWAP3 SWAP1 SWAP3 ADD PUSH1 0x20 ADD SWAP3 SWAP2 POP POP JUMP JUMPDEST DUP1 MLOAD DUP3 MSTORE PUSH1 0x20 DUP2 ADD MLOAD PUSH1 0x20 DUP4 ADD MSTORE PUSH1 0x40 DUP2 ADD MLOAD PUSH1 0x40 DUP4 ADD MSTORE PUSH1 0x60 DUP2 ADD MLOAD PUSH1 0x60 DUP4 ADD MSTORE PUSH1 0x80 DUP2 ADD MLOAD PUSH1 0x80 DUP4 ADD MSTORE POP POP JUMP JUMPDEST PUSH1 0x0 PUSH2 0x1C0 PUSH2 0x5226 DUP5 DUP5 MLOAD PUSH2 0x513C JUMP JUMPDEST PUSH1 0x20 DUP4 ADD MLOAD PUSH2 0x5238 PUSH1 0x20 DUP7 ADD DUP3 PUSH2 0x513C JUMP JUMPDEST POP PUSH1 0x40 DUP4 ADD MLOAD PUSH2 0x524B PUSH1 0x40 DUP7 ADD DUP3 PUSH2 0x513C JUMP JUMPDEST POP PUSH1 0x60 DUP4 ADD MLOAD PUSH2 0x525E PUSH1 0x60 DUP7 ADD DUP3 PUSH2 0x513C JUMP JUMPDEST POP PUSH1 0x80 DUP4 ADD MLOAD PUSH1 0x80 DUP6 ADD MSTORE PUSH1 0xA0 DUP4 ADD MLOAD PUSH1 0xA0 DUP6 ADD MSTORE PUSH1 0xC0 DUP4 ADD MLOAD PUSH1 0xC0 DUP6 ADD MSTORE PUSH1 0xE0 DUP4 ADD MLOAD PUSH1 0xE0 DUP6 ADD MSTORE PUSH2 0x100 DUP1 DUP5 ADD MLOAD DUP2 DUP7 ADD MSTORE POP PUSH2 0x120 DUP1 DUP5 ADD MLOAD DUP2 DUP7 ADD MSTORE POP PUSH2 0x140 DUP1 DUP5 ADD MLOAD DUP3 DUP3 DUP8 ADD MSTORE PUSH2 0x52B7 DUP4 DUP8 ADD DUP3 PUSH2 0x519C JUMP JUMPDEST SWAP2 POP POP PUSH2 0x160 SWAP2 POP DUP2 DUP5 ADD MLOAD DUP6 DUP3 SUB DUP4 DUP8 ADD MSTORE PUSH2 0x52D4 DUP3 DUP3 PUSH2 0x519C JUMP JUMPDEST SWAP3 POP POP POP PUSH2 0x180 DUP1 DUP5 ADD MLOAD DUP6 DUP4 SUB DUP3 DUP8 ADD MSTORE PUSH2 0x52F0 DUP4 DUP3 PUSH2 0x519C JUMP JUMPDEST SWAP2 POP POP PUSH2 0x1A0 SWAP2 POP DUP2 DUP5 ADD MLOAD DUP6 DUP3 SUB DUP4 DUP8 ADD MSTORE PUSH2 0x3E09 DUP3 DUP3 PUSH2 0x519C JUMP JUMPDEST PUSH1 0x0 DUP3 MLOAD PUSH2 0x531F DUP2 DUP5 PUSH1 0x20 DUP8 ADD PUSH2 0x5B3F JUMP JUMPDEST SWAP2 SWAP1 SWAP2 ADD SWAP3 SWAP2 POP POP JUMP JUMPDEST PUSH32 0x19457468657265756D205369676E6564204D6573736167653A0A333200000000 DUP2 MSTORE PUSH1 0x1C DUP2 ADD SWAP2 SWAP1 SWAP2 MSTORE PUSH1 0x3C ADD SWAP1 JUMP JUMPDEST PUSH20 0xFFFFFFFFFFFFFFFFFFFFFFFFFFFFFFFFFFFFFFFF SWAP2 SWAP1 SWAP2 AND DUP2 MSTORE PUSH1 0x20 ADD SWAP1 JUMP JUMPDEST PUSH20 0xFFFFFFFFFFFFFFFFFFFFFFFFFFFFFFFFFFFFFFFF SWAP3 DUP4 AND DUP2 MSTORE SWAP2 AND PUSH1 0x20 DUP3 ADD MSTORE PUSH1 0x40 ADD SWAP1 JUMP JUMPDEST PUSH20 0xFFFFFFFFFFFFFFFFFFFFFFFFFFFFFFFFFFFFFFFF SWAP4 DUP5 AND DUP2 MSTORE SWAP2 SWAP1 SWAP3 AND PUSH1 0x20 DUP3 ADD MSTORE PUSH1 0x40 DUP2 ADD SWAP2 SWAP1 SWAP2 MSTORE PUSH1 0x60 ADD SWAP1 JUMP JUMPDEST PUSH1 0x0 PUSH20 0xFFFFFFFFFFFFFFFFFFFFFFFFFFFFFFFFFFFFFFFF DUP7 AND DUP3 MSTORE PUSH1 0x80 PUSH1 0x20 DUP4 ADD MSTORE PUSH2 0x5402 PUSH1 0x80 DUP4 ADD DUP7 PUSH2 0x519C JUMP JUMPDEST DUP3 DUP2 SUB PUSH1 0x40 DUP5 ADD MSTORE PUSH2 0x5414 DUP2 DUP7 PUSH2 0x519C JUMP JUMPDEST DUP4 DUP2 SUB PUSH1 0x60 DUP6 ADD MSTORE PUSH2 0x5426 DUP2 DUP7 PUSH2 0x519C JUMP JUMPDEST SWAP9 SWAP8 POP POP POP POP POP POP POP POP JUMP JUMPDEST PUSH1 0x0 PUSH1 0x20 DUP1 DUP4 ADD DUP2 DUP5 MSTORE DUP1 DUP6 MLOAD DUP1 DUP4 MSTORE PUSH1 0x40 DUP7 ADD SWAP2 POP PUSH1 0x40 DUP5 DUP3 MUL DUP8 ADD ADD SWAP3 POP DUP4 DUP8 ADD DUP6 JUMPDEST DUP3 DUP2 LT ISZERO PUSH2 0x54A3 JUMPI PUSH32 0xFFFFFFFFFFFFFFFFFFFFFFFFFFFFFFFFFFFFFFFFFFFFFFFFFFFFFFFFFFFFFFC0 DUP9 DUP7 SUB ADD DUP5 MSTORE PUSH2 0x5491 DUP6 DUP4 MLOAD PUSH2 0x519C JUMP JUMPDEST SWAP5 POP SWAP3 DUP6 ADD SWAP3 SWAP1 DUP6 ADD SWAP1 PUSH1 0x1 ADD PUSH2 0x5457 JUMP JUMPDEST POP SWAP3 SWAP8 SWAP7 POP POP POP POP POP POP POP JUMP JUMPDEST PUSH1 0x0 PUSH1 0x20 DUP3 MSTORE PUSH2 0x966 PUSH1 0x20 DUP4 ADD DUP5 PUSH2 0x5156 JUMP JUMPDEST SWAP1 ISZERO ISZERO DUP2 MSTORE PUSH1 0x20 ADD SWAP1 JUMP JUMPDEST SWAP1 DUP2 MSTORE PUSH1 0x20 ADD SWAP1 JUMP JUMPDEST SWAP2 DUP3 MSTORE PUSH20 0xFFFFFFFFFFFFFFFFFFFFFFFFFFFFFFFFFFFFFFFF AND PUSH1 0x20 DUP3 ADD MSTORE PUSH1 0x40 ADD SWAP1 JUMP JUMPDEST PUSH1 0x0 DUP6 DUP3 MSTORE PUSH20 0xFFFFFFFFFFFFFFFFFFFFFFFFFFFFFFFFFFFFFFFF DUP6 AND PUSH1 0x20 DUP4 ADD MSTORE PUSH1 0x80 PUSH1 0x40 DUP4 ADD MSTORE PUSH2 0x5530 PUSH1 0x80 DUP4 ADD DUP6 PUSH2 0x519C JUMP JUMPDEST DUP3 DUP2 SUB PUSH1 0x60 DUP5 ADD MSTORE PUSH2 0x3940 DUP2 DUP6 PUSH2 0x519C JUMP JUMPDEST SWAP2 DUP3 MSTORE PUSH1 0x20 DUP3 ADD MSTORE PUSH1 0x40 ADD SWAP1 JUMP JUMPDEST PUSH1 0x0 DUP4 DUP3 MSTORE PUSH1 0x40 PUSH1 0x20 DUP4 ADD MSTORE PUSH2 0xB6B PUSH1 0x40 DUP4 ADD DUP5 PUSH2 0x519C JUMP JUMPDEST PUSH1 0x0 DUP5 DUP3 MSTORE PUSH1 0x60 PUSH1 0x20 DUP4 ADD MSTORE PUSH2 0x5582 PUSH1 0x60 DUP4 ADD DUP6 PUSH2 0x519C JUMP JUMPDEST DUP3 DUP2 SUB PUSH1 0x40 DUP5 ADD MSTORE PUSH2 0x3E09 DUP2 DUP6 PUSH2 0x519C JUMP JUMPDEST DUP3 DUP2 MSTORE PUSH1 0x40 DUP2 ADD PUSH2 0x55A4 DUP4 PUSH2 0x5B7F JUMP JUMPDEST DUP3 PUSH1 0x20 DUP4 ADD MSTORE SWAP4 SWAP3 POP POP POP JUMP JUMPDEST PUSH1 0x0 DUP7 DUP3 MSTORE DUP6 PUSH1 0x20 DUP4 ADD MSTORE PUSH20 0xFFFFFFFFFFFFFFFFFFFFFFFFFFFFFFFFFFFFFFFF DUP1 DUP7 AND PUSH1 0x40 DUP5 ADD MSTORE DUP1 DUP6 AND PUSH1 0x60 DUP5 ADD MSTORE POP PUSH1 0xA0 PUSH1 0x80 DUP4 ADD MSTORE PUSH2 0x3940 PUSH1 0xA0 DUP4 ADD DUP5 PUSH2 0x519C JUMP JUMPDEST SWAP3 DUP4 MSTORE PUSH1 0x20 DUP4 ADD SWAP2 SWAP1 SWAP2 MSTORE PUSH1 0x40 DUP3 ADD MSTORE PUSH1 0x60 ADD SWAP1 JUMP JUMPDEST SWAP4 DUP5 MSTORE PUSH1 0xFF SWAP3 SWAP1 SWAP3 AND PUSH1 0x20 DUP5 ADD MSTORE PUSH1 0x40 DUP4 ADD MSTORE PUSH1 0x60 DUP3 ADD MSTORE PUSH1 0x80 ADD SWAP1 JUMP JUMPDEST PUSH32 0xFFFFFFFF00000000000000000000000000000000000000000000000000000000 SWAP2 SWAP1 SWAP2 AND DUP2 MSTORE PUSH1 0x20 ADD SWAP1 JUMP JUMPDEST PUSH32 0xFFFFFFFF00000000000000000000000000000000000000000000000000000000 SWAP3 SWAP1 SWAP3 AND DUP3 MSTORE PUSH20 0xFFFFFFFFFFFFFFFFFFFFFFFFFFFFFFFFFFFFFFFF AND PUSH1 0x20 DUP3 ADD MSTORE PUSH1 0x40 ADD SWAP1 JUMP JUMPDEST PUSH1 0x0 PUSH1 0x20 DUP3 MSTORE PUSH2 0x966 PUSH1 0x20 DUP4 ADD DUP5 PUSH2 0x519C JUMP JUMPDEST PUSH1 0x0 PUSH1 0x80 DUP3 MSTORE PUSH2 0x56C5 PUSH1 0x80 DUP4 ADD DUP8 PUSH2 0x519C JUMP JUMPDEST PUSH20 0xFFFFFFFFFFFFFFFFFFFFFFFFFFFFFFFFFFFFFFFF SWAP6 DUP7 AND PUSH1 0x20 DUP5 ADD MSTORE SWAP4 SWAP1 SWAP5 AND PUSH1 0x40 DUP3 ADD MSTORE PUSH1 0x60 ADD MSTORE SWAP3 SWAP2 POP POP JUMP JUMPDEST PUSH1 0x0 PUSH1 0x40 DUP3 MSTORE PUSH2 0x5708 PUSH1 0x40 DUP4 ADD DUP6 PUSH2 0x519C JUMP JUMPDEST DUP3 DUP2 SUB PUSH1 0x20 DUP5 ADD MSTORE PUSH2 0xE1A DUP2 DUP6 PUSH2 0x519C JUMP JUMPDEST PUSH1 0x0 PUSH1 0x60 DUP3 MSTORE PUSH2 0x572D PUSH1 0x60 DUP4 ADD DUP7 PUSH2 0x519C JUMP JUMPDEST DUP3 DUP2 SUB PUSH1 0x20 DUP5 ADD MSTORE PUSH2 0x573F DUP2 DUP7 PUSH2 0x519C JUMP JUMPDEST SWAP2 POP POP PUSH20 0xFFFFFFFFFFFFFFFFFFFFFFFFFFFFFFFFFFFFFFFF DUP4 AND PUSH1 0x40 DUP4 ADD MSTORE SWAP5 SWAP4 POP POP POP POP JUMP JUMPDEST PUSH1 0x0 PUSH2 0x160 DUP1 DUP4 MSTORE PUSH2 0x577A DUP2 DUP5 ADD DUP16 PUSH2 0x519C JUMP JUMPDEST DUP4 DUP2 SUB PUSH1 0x20 DUP6 ADD MSTORE PUSH2 0x578C DUP2 DUP16 PUSH2 0x519C JUMP JUMPDEST SWAP2 POP POP DUP3 DUP2 SUB PUSH1 0x40 DUP5 ADD MSTORE PUSH2 0x57A1 DUP2 DUP14 PUSH2 0x519C JUMP JUMPDEST DUP4 DUP2 SUB PUSH1 0x60 DUP6 ADD MSTORE PUSH2 0x57B3 DUP2 DUP14 PUSH2 0x519C JUMP JUMPDEST PUSH20 0xFFFFFFFFFFFFFFFFFFFFFFFFFFFFFFFFFFFFFFFF SWAP12 DUP13 AND PUSH1 0x80 DUP7 ADD MSTORE SWAP10 SWAP1 SWAP11 AND PUSH1 0xA0 DUP5 ADD MSTORE POP POP PUSH1 0xC0 DUP2 ADD SWAP6 SWAP1 SWAP6 MSTORE PUSH1 0xE0 DUP6 ADD SWAP4 SWAP1 SWAP4 MSTORE PUSH2 0x100 DUP5 ADD SWAP2 SWAP1 SWAP2 MSTORE PUSH2 0x120 DUP4 ADD MSTORE PUSH2 0x140 SWAP1 SWAP2 ADD MSTORE SWAP6 SWAP5 POP POP POP POP POP JUMP JUMPDEST PUSH1 0x0 PUSH2 0x5815 DUP6 PUSH2 0x5B6B JUMP JUMPDEST DUP5 DUP3 MSTORE DUP4 PUSH1 0x20 DUP4 ADD MSTORE PUSH1 0x60 PUSH1 0x40 DUP4 ADD MSTORE PUSH2 0xE1A PUSH1 0x60 DUP4 ADD DUP5 PUSH2 0x519C JUMP JUMPDEST PUSH1 0x20 DUP2 ADD PUSH2 0x583F DUP4 PUSH2 0x5B75 JUMP JUMPDEST SWAP2 SWAP1 MSTORE SWAP1 JUMP JUMPDEST PUSH1 0x60 DUP2 ADD PUSH2 0x5852 DUP6 PUSH2 0x5B75 JUMP JUMPDEST SWAP4 DUP2 MSTORE PUSH1 0x20 DUP2 ADD SWAP3 SWAP1 SWAP3 MSTORE PUSH1 0x40 SWAP1 SWAP2 ADD MSTORE SWAP1 JUMP JUMPDEST PUSH1 0x60 DUP2 ADD PUSH1 0x3 DUP6 LT PUSH2 0x5874 JUMPI INVALID JUMPDEST SWAP4 DUP2 MSTORE PUSH1 0x20 DUP2 ADD SWAP3 SWAP1 SWAP3 MSTORE PUSH20 0xFFFFFFFFFFFFFFFFFFFFFFFFFFFFFFFFFFFFFFFF AND PUSH1 0x40 SWAP1 SWAP2 ADD MSTORE SWAP1 JUMP JUMPDEST PUSH1 0x60 DUP2 ADD PUSH1 0x3 DUP6 LT PUSH2 0x5852 JUMPI INVALID JUMPDEST PUSH1 0x60 DUP2 ADD PUSH1 0x8 DUP6 LT PUSH2 0x5852 JUMPI INVALID JUMPDEST PUSH1 0x0 PUSH2 0x58C5 DUP7 PUSH2 0x5B7F JUMP JUMPDEST DUP6 DUP3 MSTORE DUP5 PUSH1 0x20 DUP4 ADD MSTORE PUSH20 0xFFFFFFFFFFFFFFFFFFFFFFFFFFFFFFFFFFFFFFFF DUP5 AND PUSH1 0x40 DUP4 ADD MSTORE PUSH1 0x80 PUSH1 0x60 DUP4 ADD MSTORE PUSH2 0x3E09 PUSH1 0x80 DUP4 ADD DUP5 PUSH2 0x519C JUMP JUMPDEST PUSH1 0x40 DUP2 ADD PUSH2 0x590B DUP5 PUSH2 0x5B6B JUMP JUMPDEST SWAP3 DUP2 MSTORE PUSH1 0x20 ADD MSTORE SWAP1 JUMP JUMPDEST PUSH1 0x20 DUP1 DUP3 MSTORE PUSH1 0x14 SWAP1 DUP3 ADD MSTORE PUSH32 0x5452414E53464552535F5355434345535346554C000000000000000000000000 PUSH1 0x40 DUP3 ADD MSTORE PUSH1 0x60 ADD SWAP1 JUMP JUMPDEST PUSH1 0x0 PUSH1 0x20 DUP3 MSTORE DUP3 MLOAD PUSH1 0x80 PUSH1 0x20 DUP5 ADD MSTORE PUSH2 0x5968 PUSH1 0xA0 DUP5 ADD DUP3 PUSH2 0x5156 JUMP JUMPDEST PUSH1 0x20 DUP6 ADD MLOAD SWAP2 POP PUSH32 0xFFFFFFFFFFFFFFFFFFFFFFFFFFFFFFFFFFFFFFFFFFFFFFFFFFFFFFFFFFFFFFE0 DUP5 DUP3 SUB ADD PUSH1 0x40 DUP6 ADD MSTORE PUSH2 0x59A3 DUP2 DUP4 PUSH2 0x5156 JUMP JUMPDEST PUSH1 0x40 DUP7 ADD MLOAD PUSH1 0x60 DUP7 ADD MSTORE PUSH1 0x60 DUP7 ADD MLOAD PUSH1 0x80 DUP7 ADD MSTORE DUP1 SWAP4 POP POP POP POP SWAP3 SWAP2 POP POP JUMP JUMPDEST PUSH1 0xA0 DUP2 ADD PUSH2 0x7F5 DUP3 DUP5 PUSH2 0x51E6 JUMP JUMPDEST PUSH1 0x0 PUSH2 0x180 DUP3 ADD SWAP1 POP PUSH2 0x59E5 DUP3 DUP5 MLOAD PUSH2 0x51E6 JUMP JUMPDEST PUSH1 0x20 DUP4 ADD MLOAD PUSH2 0x59F7 PUSH1 0xA0 DUP5 ADD DUP3 PUSH2 0x51E6 JUMP JUMPDEST POP PUSH1 0x40 DUP4 ADD MLOAD PUSH2 0x140 DUP4 ADD MSTORE PUSH1 0x60 SWAP1 SWAP3 ADD MLOAD PUSH2 0x160 SWAP1 SWAP2 ADD MSTORE SWAP1 JUMP JUMPDEST DUP2 MLOAD PUSH1 0x60 DUP3 ADD SWAP1 PUSH2 0x5A23 DUP2 PUSH2 0x5B7F JUMP JUMPDEST DUP1 DUP4 MSTORE POP PUSH1 0x20 DUP4 ADD MLOAD PUSH1 0x20 DUP4 ADD MSTORE PUSH1 0x40 DUP4 ADD MLOAD PUSH1 0x40 DUP4 ADD MSTORE SWAP3 SWAP2 POP POP JUMP JUMPDEST PUSH1 0x0 PUSH1 0x40 DUP3 MSTORE PUSH2 0x5A54 PUSH1 0x40 DUP4 ADD DUP6 PUSH2 0x5216 JUMP JUMPDEST SWAP1 POP DUP3 PUSH1 0x20 DUP4 ADD MSTORE SWAP4 SWAP3 POP POP POP JUMP JUMPDEST PUSH1 0x0 PUSH1 0x60 DUP3 MSTORE PUSH2 0x5A76 PUSH1 0x60 DUP4 ADD DUP7 PUSH2 0x5216 JUMP JUMPDEST DUP5 PUSH1 0x20 DUP5 ADD MSTORE DUP3 DUP2 SUB PUSH1 0x40 DUP5 ADD MSTORE PUSH2 0x3E09 DUP2 DUP6 PUSH2 0x519C JUMP JUMPDEST PUSH1 0x0 PUSH1 0x40 DUP3 MSTORE DUP4 MLOAD PUSH1 0x40 DUP4 ADD MSTORE PUSH1 0x20 DUP5 ADD MLOAD PUSH1 0x60 DUP4 ADD MSTORE PUSH1 0x40 DUP5 ADD MLOAD PUSH1 0x80 DUP4 ADD MSTORE PUSH20 0xFFFFFFFFFFFFFFFFFFFFFFFFFFFFFFFFFFFFFFFF PUSH1 0x60 DUP6 ADD MLOAD AND PUSH1 0xA0 DUP4 ADD MSTORE PUSH1 0x80 DUP5 ADD MLOAD PUSH1 0xA0 PUSH1 0xC0 DUP5 ADD MSTORE PUSH2 0x5AE8 PUSH1 0xE0 DUP5 ADD DUP3 PUSH2 0x519C JUMP JUMPDEST SWAP2 POP POP DUP3 PUSH1 0x20 DUP4 ADD MSTORE SWAP4 SWAP3 POP POP POP JUMP JUMPDEST PUSH1 0x40 MLOAD DUP2 DUP2 ADD PUSH8 0xFFFFFFFFFFFFFFFF DUP2 GT DUP3 DUP3 LT OR ISZERO PUSH2 0x5B17 JUMPI PUSH1 0x0 DUP1 REVERT JUMPDEST PUSH1 0x40 MSTORE SWAP2 SWAP1 POP JUMP JUMPDEST PUSH1 0x0 PUSH8 0xFFFFFFFFFFFFFFFF DUP3 GT ISZERO PUSH2 0x5B35 JUMPI DUP1 DUP2 REVERT JUMPDEST POP PUSH1 0x20 SWAP1 DUP2 MUL ADD SWAP1 JUMP JUMPDEST PUSH1 0x0 JUMPDEST DUP4 DUP2 LT ISZERO PUSH2 0x5B5A JUMPI DUP2 DUP2 ADD MLOAD DUP4 DUP3 ADD MSTORE PUSH1 0x20 ADD PUSH2 0x5B42 JUMP JUMPDEST DUP4 DUP2 GT ISZERO PUSH2 0x3378 JUMPI POP POP PUSH1 0x0 SWAP2 ADD MSTORE JUMP JUMPDEST PUSH1 0x2 DUP2 LT PUSH2 0x843 JUMPI INVALID JUMPDEST PUSH1 0x4 DUP2 LT PUSH2 0x843 JUMPI INVALID JUMPDEST PUSH1 0x7 DUP2 LT PUSH2 0x843 JUMPI INVALID JUMPDEST PUSH20 0xFFFFFFFFFFFFFFFFFFFFFFFFFFFFFFFFFFFFFFFF DUP2 AND DUP2 EQ PUSH2 0x843 JUMPI PUSH1 0x0 DUP1 REVERT JUMPDEST PUSH32 0xFFFFFFFF00000000000000000000000000000000000000000000000000000000 DUP2 AND DUP2 EQ PUSH2 0x843 JUMPI PUSH1 0x0 DUP1 REVERT JUMPDEST DUP4 MLOAD PUSH1 0x20 SWAP5 DUP6 ADD KECCAK256 DUP4 MLOAD SWAP4 DUP6 ADD SWAP4 SWAP1 SWAP4 KECCAK256 PUSH1 0x40 DUP1 MLOAD PUSH32 0x8B73C3C69BB8FE3D512ECC4CF759CC79239F7B179B0FFACAA9A75D522B39400F DUP2 MSTORE SWAP6 DUP7 ADD SWAP5 SWAP1 SWAP5 MSTORE SWAP3 DUP5 ADD SWAP3 SWAP1 SWAP3 MSTORE PUSH1 0x60 DUP4 ADD MSTORE PUSH1 0x80 DUP3 ADD MSTORE PUSH1 0xA0 SWAP1 KECCAK256 SWAP1 JUMP INVALID LOG3 PUSH6 0x627A7A723158 KECCAK256 PUSH9 0xD971E83A5E2E9B7314 0xE BYTE DIFFICULTY 0xA8 0x4B PUSH3 0xC3D43F JUMPI PUSH1 0xFB 0xBB LOG1 LOG1 0xBB LOG0 SWAP7 DUP10 0xC1 CREATE2 0xC0 PUSH13 0x6578706572696D656E74616CF5 PUSH5 0x736F6C6343 STOP SDIV GT STOP BLOCKHASH "
			}
		}
	},
	"sourceTreeHashHex": "0x53b9e5a81a606e83ec84af5761921029a6d257cae54f9474fd6773bd151df240",
	"compiler": {
		"name": "solc",
		"version": "0.5.17+commit.d19bba13",
		"settings": {
			"remappings": [
				"@0x/contracts-exchange-libs=/Users/andreianisimov/projects/0x/0x-monorepo/contracts/exchange/node_modules/@0x/contracts-exchange-libs",
				"@0x/contracts-utils=/Users/andreianisimov/projects/0x/0x-monorepo/contracts/exchange/node_modules/@0x/contracts-utils",
				"@0x/contracts-staking=/Users/andreianisimov/projects/0x/0x-monorepo/contracts/exchange/node_modules/@0x/contracts-staking",
				"@0x/contracts-erc20=/Users/andreianisimov/projects/0x/0x-monorepo/contracts/exchange/node_modules/@0x/contracts-erc20"
			],
			"optimizer": {
				"enabled": true,
				"runs": 1000000,
				"details": {
					"yul": true,
					"deduplicate": true,
					"cse": true,
					"constantOptimizer": true
				}
			},
			"outputSelection": {
				"*": {
					"*": [
						"abi",
						"devdoc",
						"evm.bytecode.object",
						"evm.bytecode.sourceMap",
						"evm.deployedBytecode.object",
						"evm.deployedBytecode.sourceMap"
					]
				}
			},
			"evmVersion": "istanbul"
		}
	},
	"chains": {}
}