{
  "contractName": "MarketContractProxy",
  "abi": [
    {
      "constant": true,
      "inputs": [],
      "name": "CONTRACT_DURATION_DAYS",
      "outputs": [
        {
          "name": "",
          "type": "uint256"
        }
      ],
      "payable": false,
      "stateMutability": "view",
      "type": "function"
    },
    {
      "constant": true,
      "inputs": [],
      "name": "MINTER_BRIDGE_ADDRESS",
      "outputs": [
        {
          "name": "",
          "type": "address"
        }
      ],
      "payable": false,
      "stateMutability": "view",
      "type": "function"
    },
    {
      "constant": true,
      "inputs": [],
      "name": "CONTRACT_DURATION",
      "outputs": [
        {
          "name": "",
          "type": "uint256"
        }
      ],
      "payable": false,
      "stateMutability": "view",
      "type": "function"
    },
    {
      "constant": true,
      "inputs": [],
      "name": "COLLATERAL_TOKEN_ADDRESS",
      "outputs": [
        {
          "name": "",
          "type": "address"
        }
      ],
      "payable": false,
      "stateMutability": "view",
      "type": "function"
    },
    {
      "constant": true,
      "inputs": [],
      "name": "ORACLE_URL",
      "outputs": [
        {
          "name": "",
          "type": "string"
        }
      ],
      "payable": false,
      "stateMutability": "view",
      "type": "function"
    },
    {
      "constant": true,
      "inputs": [],
      "name": "ORACLE_STATISTIC",
      "outputs": [
        {
          "name": "",
          "type": "string"
        }
      ],
      "payable": false,
      "stateMutability": "view",
      "type": "function"
    },
    {
      "constant": false,
      "inputs": [],
      "name": "renounceOwnership",
      "outputs": [],
      "payable": false,
      "stateMutability": "nonpayable",
      "type": "function"
    },
    {
      "constant": true,
      "inputs": [
        {
          "name": "",
          "type": "uint256"
        }
      ],
      "name": "marketContracts",
      "outputs": [
        {
          "name": "",
          "type": "address"
        }
      ],
      "payable": false,
      "stateMutability": "view",
      "type": "function"
    },
    {
      "constant": true,
      "inputs": [],
      "name": "owner",
      "outputs": [
        {
          "name": "",
          "type": "address"
        }
      ],
      "payable": false,
      "stateMutability": "view",
      "type": "function"
    },
    {
      "constant": true,
      "inputs": [],
      "name": "isOwner",
      "outputs": [
        {
          "name": "",
          "type": "bool"
        }
      ],
      "payable": false,
      "stateMutability": "view",
      "type": "function"
    },
    {
      "constant": true,
      "inputs": [
        {
          "name": "",
          "type": "uint256"
        }
      ],
      "name": "marketContractSpecs",
      "outputs": [
        {
          "name": "",
          "type": "uint256"
        }
      ],
      "payable": false,
      "stateMutability": "view",
      "type": "function"
    },
    {
      "constant": true,
      "inputs": [
        {
          "name": "",
          "type": "address"
        }
      ],
      "name": "dSProxyToAddress",
      "outputs": [
        {
          "name": "",
          "type": "address"
        }
      ],
      "payable": false,
      "stateMutability": "view",
      "type": "function"
    },
    {
      "constant": true,
      "inputs": [],
      "name": "CONTRACT_COLLATERAL_RATIO",
      "outputs": [
        {
          "name": "",
          "type": "uint256"
        }
      ],
      "payable": false,
      "stateMutability": "view",
      "type": "function"
    },
    {
      "constant": true,
      "inputs": [],
      "name": "HONEY_LEMON_ORACLE_ADDRESS",
      "outputs": [
        {
          "name": "",
          "type": "address"
        }
      ],
      "payable": false,
      "stateMutability": "view",
      "type": "function"
    },
    {
      "constant": false,
      "inputs": [
        {
          "name": "newOwner",
          "type": "address"
        }
      ],
      "name": "transferOwnership",
      "outputs": [],
      "payable": false,
      "stateMutability": "nonpayable",
      "type": "function"
    },
    {
      "constant": true,
      "inputs": [
        {
          "name": "",
          "type": "address"
        }
      ],
      "name": "addressToDSProxy",
      "outputs": [
        {
          "name": "",
          "type": "address"
        }
      ],
      "payable": false,
      "stateMutability": "view",
      "type": "function"
    },
    {
      "inputs": [
        {
          "name": "_marketContractFactoryMPX",
          "type": "address"
        },
        {
          "name": "_honeyLemonOracle",
          "type": "address"
        },
        {
          "name": "_minterBridge",
          "type": "address"
        },
        {
          "name": "_imBTCTokenAddress",
          "type": "address"
        }
      ],
      "payable": false,
      "stateMutability": "nonpayable",
      "type": "constructor"
    },
    {
      "anonymous": false,
      "inputs": [
        {
          "indexed": true,
          "name": "marketId",
          "type": "uint256"
        },
        {
          "indexed": false,
          "name": "contractName",
          "type": "string"
        },
        {
          "indexed": true,
          "name": "longTokenRecipient",
          "type": "address"
        },
        {
          "indexed": false,
          "name": "longTokenDSProxy",
          "type": "address"
        },
        {
          "indexed": true,
          "name": "shortTokenRecipient",
          "type": "address"
        },
        {
          "indexed": false,
          "name": "shortTokenDSProxy",
          "type": "address"
        },
        {
          "indexed": false,
          "name": "qtyToMint",
          "type": "uint256"
        },
        {
          "indexed": false,
          "name": "latestMarketContract",
          "type": "address"
        },
        {
          "indexed": false,
          "name": "longTokenAddress",
          "type": "address"
        },
        {
          "indexed": false,
          "name": "shortTokenAddress",
          "type": "address"
        },
        {
          "indexed": false,
          "name": "time",
          "type": "uint256"
        }
      ],
      "name": "PositionTokensMinted",
      "type": "event"
    },
    {
      "anonymous": false,
      "inputs": [
        {
          "indexed": false,
          "name": "tokenAddresses",
          "type": "address"
        },
        {
          "indexed": false,
          "name": "marketAddresses",
          "type": "address"
        },
        {
          "indexed": false,
          "name": "tokensToRedeem",
          "type": "uint256"
        },
        {
          "indexed": false,
          "name": "traderLong",
          "type": "bool"
        }
      ],
      "name": "BatchTokensRedeemed",
      "type": "event"
    },
    {
      "anonymous": false,
      "inputs": [
        {
          "indexed": false,
          "name": "msgsender",
          "type": "address"
        },
        {
          "indexed": false,
          "name": "addressthis",
          "type": "address"
        },
        {
          "indexed": false,
          "name": "param",
          "type": "uint256"
        },
        {
          "indexed": false,
          "name": "tokenAddress",
          "type": "address"
        }
      ],
      "name": "LogEvent",
      "type": "event"
    },
    {
      "anonymous": false,
      "inputs": [
        {
          "indexed": true,
          "name": "previousOwner",
          "type": "address"
        },
        {
          "indexed": true,
          "name": "newOwner",
          "type": "address"
        }
      ],
      "name": "OwnershipTransferred",
      "type": "event"
    },
    {
      "constant": true,
      "inputs": [
        {
          "name": "makerAddresses",
          "type": "address[]"
        }
      ],
      "name": "getFillableAmounts",
      "outputs": [
        {
          "name": "fillableAmounts",
          "type": "uint256[]"
        }
      ],
      "payable": false,
      "stateMutability": "view",
      "type": "function"
    },
    {
      "constant": true,
      "inputs": [
        {
          "name": "makerAddress",
          "type": "address"
        }
      ],
      "name": "getFillableAmount",
      "outputs": [
        {
          "name": "",
          "type": "uint256"
        }
      ],
      "payable": false,
      "stateMutability": "view",
      "type": "function"
    },
    {
      "constant": true,
      "inputs": [],
      "name": "getLatestMarketContract",
      "outputs": [
        {
          "name": "",
          "type": "address"
        }
      ],
      "payable": false,
      "stateMutability": "view",
      "type": "function"
    },
    {
      "constant": true,
      "inputs": [],
      "name": "getExpiringMarketContract",
      "outputs": [
        {
          "name": "",
          "type": "address"
        }
      ],
      "payable": false,
      "stateMutability": "view",
      "type": "function"
    },
    {
      "constant": true,
      "inputs": [
        {
          "name": "market",
          "type": "address"
        }
      ],
      "name": "getCollateralPool",
      "outputs": [
        {
          "name": "",
          "type": "address"
        }
      ],
      "payable": false,
      "stateMutability": "view",
      "type": "function"
    },
    {
      "constant": true,
      "inputs": [],
      "name": "getLatestMarketCollateralPool",
      "outputs": [
        {
          "name": "",
          "type": "address"
        }
      ],
      "payable": false,
      "stateMutability": "view",
      "type": "function"
    },
    {
      "constant": true,
      "inputs": [
        {
          "name": "amount",
          "type": "uint256"
        }
      ],
      "name": "calculateRequiredCollateral",
      "outputs": [
        {
          "name": "",
          "type": "uint256"
        }
      ],
      "payable": false,
      "stateMutability": "view",
      "type": "function"
    },
    {
      "constant": false,
      "inputs": [],
      "name": "getAllMarketContracts",
      "outputs": [
        {
          "name": "",
          "type": "address[]"
        }
      ],
      "payable": false,
      "stateMutability": "nonpayable",
      "type": "function"
    },
    {
      "constant": false,
      "inputs": [
        {
          "name": "owner",
          "type": "address"
        }
      ],
      "name": "balanceOf",
      "outputs": [
        {
          "name": "",
          "type": "uint256"
        }
      ],
      "payable": false,
      "stateMutability": "nonpayable",
      "type": "function"
    },
    {
      "constant": false,
      "inputs": [],
      "name": "getTime",
      "outputs": [
        {
          "name": "",
          "type": "uint256"
        }
      ],
      "payable": false,
      "stateMutability": "nonpayable",
      "type": "function"
    },
    {
      "constant": true,
      "inputs": [
        {
          "name": "inputAddress",
          "type": "address"
        }
      ],
      "name": "getUserAddressOrDSProxy",
      "outputs": [
        {
          "name": "",
          "type": "address"
        }
      ],
      "payable": false,
      "stateMutability": "view",
      "type": "function"
    },
    {
      "constant": false,
      "inputs": [],
      "name": "createDSProxyWallet",
      "outputs": [
        {
          "name": "",
          "type": "address"
        }
      ],
      "payable": false,
      "stateMutability": "nonpayable",
      "type": "function"
    },
    {
      "constant": false,
      "inputs": [
        {
          "name": "tokenAddresses",
          "type": "address[]"
        },
        {
          "name": "marketAddresses",
          "type": "address[]"
        },
        {
          "name": "tokensToRedeem",
          "type": "uint256[]"
        },
        {
          "name": "traderLong",
          "type": "bool[]"
        }
      ],
      "name": "batchRedeem",
      "outputs": [],
      "payable": false,
      "stateMutability": "nonpayable",
      "type": "function"
    },
    {
      "constant": false,
      "inputs": [
        {
          "name": "lookbackIndexValue",
          "type": "uint256"
        },
        {
          "name": "currentIndexValue",
          "type": "uint256"
        },
        {
          "name": "marketAndsTokenNames",
          "type": "bytes32[3]"
        },
        {
          "name": "newMarketExpiration",
          "type": "uint256"
        }
      ],
      "name": "dailySettlement",
      "outputs": [],
      "payable": false,
      "stateMutability": "nonpayable",
      "type": "function"
    },
    {
      "constant": false,
      "inputs": [
        {
          "name": "qtyToMint",
          "type": "uint256"
        },
        {
          "name": "longTokenRecipient",
          "type": "address"
        },
        {
          "name": "shortTokenRecipient",
          "type": "address"
        }
      ],
      "name": "mintPositionTokens",
      "outputs": [],
      "payable": false,
      "stateMutability": "nonpayable",
      "type": "function"
    },
    {
      "constant": false,
      "inputs": [
        {
          "name": "_honeyLemonOracleAddress",
          "type": "address"
        }
      ],
      "name": "setOracleAddress",
      "outputs": [],
      "payable": false,
      "stateMutability": "nonpayable",
      "type": "function"
    },
    {
      "constant": false,
      "inputs": [
        {
          "name": "_minterBridgeAddress",
          "type": "address"
        }
      ],
      "name": "setMinterBridgeAddress",
      "outputs": [],
      "payable": false,
      "stateMutability": "nonpayable",
      "type": "function"
    },
    {
      "constant": false,
      "inputs": [
        {
          "name": "_params",
          "type": "uint256[7]"
        }
      ],
      "name": "setMarketContractSpecs",
      "outputs": [],
      "payable": false,
      "stateMutability": "nonpayable",
      "type": "function"
    },
    {
      "constant": false,
      "inputs": [
        {
          "name": "mri",
          "type": "uint256"
        },
        {
          "name": "marketContractAddress",
          "type": "address"
        }
      ],
      "name": "settleMarketContract",
      "outputs": [],
      "payable": false,
      "stateMutability": "nonpayable",
      "type": "function"
    },
    {
      "constant": false,
      "inputs": [
        {
          "name": "currentMRI",
          "type": "uint256"
        },
        {
          "name": "marketAndsTokenNames",
          "type": "bytes32[3]"
        },
        {
          "name": "expiration",
          "type": "uint256"
        }
      ],
      "name": "deployContract",
      "outputs": [
        {
          "name": "",
          "type": "address"
        }
      ],
      "payable": false,
      "stateMutability": "nonpayable",
      "type": "function"
    },
    {
      "constant": false,
      "inputs": [
        {
          "name": "currentMRI",
          "type": "uint256"
        },
        {
          "name": "expiration",
          "type": "uint256"
        }
      ],
      "name": "generateContractSpecs",
      "outputs": [
        {
          "name": "",
          "type": "uint256[7]"
        }
      ],
      "payable": false,
      "stateMutability": "nonpayable",
      "type": "function"
    }
  ],
  "bytecode": "0x60806040526040805190810160405280600481526020017f6e756c6c000000000000000000000000000000000000000000000000000000008152506005908051906020019062000051929190620003b3565b506040805190810160405280600481526020017f6e756c6c00000000000000000000000000000000000000000000000000000000815250600690805190602001906200009f929190620003b3565b50601c600755603c80601860075402020260085563080befc060095560e060405190810160405280600060ff168152602001600060ff168152602001600860ff168152602001600160ff168152602001600060ff168152602001600060ff168152602001600060ff16815250600a9060076200011d9291906200043a565b5060006013553480156200013057600080fd5b5060405160808062005ed4833981018060405260808110156200015257600080fd5b8101908080519060200190929190805190602001909291908051906020019092919080519060200190929190505050336000806101000a81548173ffffffffffffffffffffffffffffffffffffffff021916908373ffffffffffffffffffffffffffffffffffffffff1602179055506000809054906101000a900473ffffffffffffffffffffffffffffffffffffffff1673ffffffffffffffffffffffffffffffffffffffff16600073ffffffffffffffffffffffffffffffffffffffff167f8be0079c531659141344cd1fd0a4f28419497f9722a3daafe3b4186f6b6457e060405160405180910390a383600160006101000a81548173ffffffffffffffffffffffffffffffffffffffff021916908373ffffffffffffffffffffffffffffffffffffffff16021790555082600260006101000a81548173ffffffffffffffffffffffffffffffffffffffff021916908373ffffffffffffffffffffffffffffffffffffffff16021790555081600360006101000a81548173ffffffffffffffffffffffffffffffffffffffff021916908373ffffffffffffffffffffffffffffffffffffffff16021790555080600460006101000a81548173ffffffffffffffffffffffffffffffffffffffff021916908373ffffffffffffffffffffffffffffffffffffffff1602179055506200034b62000484565b604051809103906000f08015801562000368573d6000803e3d6000fd5b50601460006101000a81548173ffffffffffffffffffffffffffffffffffffffff021916908373ffffffffffffffffffffffffffffffffffffffff16021790555050505050620004bd565b828054600181600116156101000203166002900490600052602060002090601f016020900481019282601f10620003f657805160ff191683800117855562000427565b8280016001018555821562000427579182015b828111156200042657825182559160200191906001019062000409565b5b50905062000436919062000495565b5090565b826007810192821562000471579160200282015b8281111562000470578251829060ff169055916020019190600101906200044e565b5b50905062000480919062000495565b5090565b604051611bea80620042ea83390190565b620004ba91905b80821115620004b65760008160009055506001016200049c565b5090565b90565b613e1d80620004cd6000396000f3fe608060405234801561001057600080fd5b5060043610610244576000357c01000000000000000000000000000000000000000000000000000000009004806363f379fc1161014d57806394202276116100d5578063d725860811610099578063d725860814610f35578063e6d70f9014611042578063ec443c3a14611060578063f2fde38b146110aa578063febec672146110ee57610244565b80639420227614610cff5780639a7f60c814610db8578063b12a3cf314610dfa578063b71f3e1514610e52578063ce79d80314610ed657610244565b80637a1de44e1161011c5780637a1de44e14610b9157806381c63c5814610bff5780638da5cb5b14610c495780638f32d59b14610c935780639367827914610cb557610244565b806363f379fc1461083857806370a0823114610aac578063715018a614610b0457806379f6d4a914610b0e57610244565b8063407914a9116101d0578063557ed1ba1161019f578063557ed1ba146106af578063571cf0dd146106cd5780635abe304d146107415780635b5161d514610785578063619fadb4146107ea57610244565b8063407914a91461051a5780634ac77f22146105645780634c69c00f146105e75780635252f3a21461062b57610244565b80631d161ee7116102175780631d161ee7146103195780631d3932a514610387578063323bb7751461040b57806334931b4b146104555780633d168eda1461049757610244565b80630f604d3b1461024957806312fb183e146102935780631523f83f146102b157806317ac56b6146102fb575b600080fd5b610251611172565b604051808273ffffffffffffffffffffffffffffffffffffffff1673ffffffffffffffffffffffffffffffffffffffff16815260200191505060405180910390f35b61029b61118e565b6040518082815260200191505060405180910390f35b6102b9611194565b604051808273ffffffffffffffffffffffffffffffffffffffff1673ffffffffffffffffffffffffffffffffffffffff16815260200191505060405180910390f35b6103036111ba565b6040518082815260200191505060405180910390f35b6103856004803603606081101561032f57600080fd5b8101908080359060200190929190803573ffffffffffffffffffffffffffffffffffffffff169060200190929190803573ffffffffffffffffffffffffffffffffffffffff1690602001909291905050506111c0565b005b6103c96004803603602081101561039d57600080fd5b81019080803573ffffffffffffffffffffffffffffffffffffffff169060200190929190505050611bef565b604051808273ffffffffffffffffffffffffffffffffffffffff1673ffffffffffffffffffffffffffffffffffffffff16815260200191505060405180910390f35b610413611cf1565b604051808273ffffffffffffffffffffffffffffffffffffffff1673ffffffffffffffffffffffffffffffffffffffff16815260200191505060405180910390f35b6104816004803603602081101561046b57600080fd5b8101908080359060200190929190505050611d17565b6040518082815260200191505060405180910390f35b61049f611dd2565b6040518080602001828103825283818151815260200191508051906020019080838360005b838110156104df5780820151818401526020810190506104c4565b50505050905090810190601f16801561050c5780820380516001836020036101000a031916815260200191505b509250505060405180910390f35b610522611e70565b604051808273ffffffffffffffffffffffffffffffffffffffff1673ffffffffffffffffffffffffffffffffffffffff16815260200191505060405180910390f35b61056c612070565b6040518080602001828103825283818151815260200191508051906020019080838360005b838110156105ac578082015181840152602081019050610591565b50505050905090810190601f1680156105d95780820380516001836020036101000a031916815260200191505b509250505060405180910390f35b610629600480360360208110156105fd57600080fd5b81019080803573ffffffffffffffffffffffffffffffffffffffff16906020019092919050505061210e565b005b61066d6004803603602081101561064157600080fd5b81019080803573ffffffffffffffffffffffffffffffffffffffff169060200190929190505050612165565b604051808273ffffffffffffffffffffffffffffffffffffffff1673ffffffffffffffffffffffffffffffffffffffff16815260200191505060405180910390f35b6106b761220b565b6040518082815260200191505060405180910390f35b610703600480360360408110156106e357600080fd5b810190808035906020019092919080359060200190929190505050612213565b6040518082600760200280838360005b8381101561072e578082015181840152602081019050610713565b5050505090500191505060405180910390f35b6107836004803603602081101561075757600080fd5b81019080803573ffffffffffffffffffffffffffffffffffffffff1690602001909291905050506122b6565b005b6107e8600480360360e081101561079b57600080fd5b810190808060e001906007806020026040519081016040528092919082600760200280828437600081840152601f19601f820116905080830192505050505050919291929050505061230d565b005b6108366004803603604081101561080057600080fd5b8101908080359060200190929190803573ffffffffffffffffffffffffffffffffffffffff169060200190929190505050612335565b005b610aaa6004803603608081101561084e57600080fd5b810190808035906020019064010000000081111561086b57600080fd5b82018360208201111561087d57600080fd5b8035906020019184602083028401116401000000008311171561089f57600080fd5b919080806020026020016040519081016040528093929190818152602001838360200280828437600081840152601f19601f820116905080830192505050505050509192919290803590602001906401000000008111156108ff57600080fd5b82018360208201111561091157600080fd5b8035906020019184602083028401116401000000008311171561093357600080fd5b919080806020026020016040519081016040528093929190818152602001838360200280828437600081840152601f19601f8201169050808301925050505050505091929192908035906020019064010000000081111561099357600080fd5b8201836020820111156109a557600080fd5b803590602001918460208302840111640100000000831117156109c757600080fd5b919080806020026020016040519081016040528093929190818152602001838360200280828437600081840152601f19601f82011690508083019250505050505050919291929080359060200190640100000000811115610a2757600080fd5b820183602082011115610a3957600080fd5b80359060200191846020830284011164010000000083111715610a5b57600080fd5b919080806020026020016040519081016040528093929190818152602001838360200280828437600081840152601f19601f82011690508083019250505050505050919291929050505061252a565b005b610aee60048036036020811015610ac257600080fd5b81019080803573ffffffffffffffffffffffffffffffffffffffff169060200190929190505050612d9a565b6040518082815260200191505060405180910390f35b610b0c612f33565b005b610b8f600480360360c0811015610b2457600080fd5b81019080803590602001909291908035906020019092919080606001906003806020026040519081016040528092919082600360200280828437600081840152601f19601f820116905080830192505050505050919291929080359060200190929190505050613005565b005b610bbd60048036036020811015610ba757600080fd5b81019080803590602001909291905050506131aa565b604051808273ffffffffffffffffffffffffffffffffffffffff1673ffffffffffffffffffffffffffffffffffffffff16815260200191505060405180910390f35b610c076131e8565b604051808273ffffffffffffffffffffffffffffffffffffffff1673ffffffffffffffffffffffffffffffffffffffff16815260200191505060405180910390f35b610c51613252565b604051808273ffffffffffffffffffffffffffffffffffffffff1673ffffffffffffffffffffffffffffffffffffffff16815260200191505060405180910390f35b610c9b61327b565b604051808215151515815260200191505060405180910390f35b610cbd6132d2565b604051808273ffffffffffffffffffffffffffffffffffffffff1673ffffffffffffffffffffffffffffffffffffffff16815260200191505060405180910390f35b610d76600480360360a0811015610d1557600080fd5b810190808035906020019092919080606001906003806020026040519081016040528092919082600360200280828437600081840152601f19601f820116905080830192505050505050919291929080359060200190929190505050613320565b604051808273ffffffffffffffffffffffffffffffffffffffff1673ffffffffffffffffffffffffffffffffffffffff16815260200191505060405180910390f35b610de460048036036020811015610dce57600080fd5b810190808035906020019092919050505061368e565b6040518082815260200191505060405180910390f35b610e3c60048036036020811015610e1057600080fd5b81019080803573ffffffffffffffffffffffffffffffffffffffff1690602001909291905050506136a8565b6040518082815260200191505060405180910390f35b610e9460048036036020811015610e6857600080fd5b81019080803573ffffffffffffffffffffffffffffffffffffffff1690602001909291905050506139a9565b604051808273ffffffffffffffffffffffffffffffffffffffff1673ffffffffffffffffffffffffffffffffffffffff16815260200191505060405180910390f35b610ede6139dc565b6040518080602001828103825283818151815260200191508051906020019060200280838360005b83811015610f21578082015181840152602081019050610f06565b505050509050019250505060405180910390f35b610feb60048036036020811015610f4b57600080fd5b8101908080359060200190640100000000811115610f6857600080fd5b820183602082011115610f7a57600080fd5b80359060200191846020830284011164010000000083111715610f9c57600080fd5b919080806020026020016040519081016040528093929190818152602001838360200280828437600081840152601f19601f820116905080830192505050505050509192919290505050613a6a565b6040518080602001828103825283818151815260200191508051906020019060200280838360005b8381101561102e578082015181840152602081019050611013565b505050509050019250505060405180910390f35b61104a613b06565b6040518082815260200191505060405180910390f35b611068613b0c565b604051808273ffffffffffffffffffffffffffffffffffffffff1673ffffffffffffffffffffffffffffffffffffffff16815260200191505060405180910390f35b6110ec600480360360208110156110c057600080fd5b81019080803573ffffffffffffffffffffffffffffffffffffffff169060200190929190505050613b32565b005b6111306004803603602081101561110457600080fd5b81019080803573ffffffffffffffffffffffffffffffffffffffff169060200190929190505050613b51565b604051808273ffffffffffffffffffffffffffffffffffffffff1673ffffffffffffffffffffffffffffffffffffffff16815260200191505060405180910390f35b60008061117d6132d2565b905061118881612165565b91505090565b60075481565b600360009054906101000a900473ffffffffffffffffffffffffffffffffffffffff1681565b60085481565b600360009054906101000a900473ffffffffffffffffffffffffffffffffffffffff1673ffffffffffffffffffffffffffffffffffffffff163373ffffffffffffffffffffffffffffffffffffffff16141515611285576040517f08c379a00000000000000000000000000000000000000000000000000000000081526004018080602001828103825260128152602001807f4f6e6c79204d696e74657220427269646765000000000000000000000000000081525060200191505060405180910390fd5b600061129084611d17565b9050600061129c6132d2565b905060006112a8611172565b905060008273ffffffffffffffffffffffffffffffffffffffff166322d1c35e6040518163ffffffff167c010000000000000000000000000000000000000000000000000000000002815260040160206040518083038186803b15801561130e57600080fd5b505afa158015611322573d6000803e3d6000fd5b505050506040513d602081101561133857600080fd5b8101908080519060200190929190505050905060008373ffffffffffffffffffffffffffffffffffffffff16635b3f1e3f6040518163ffffffff167c010000000000000000000000000000000000000000000000000000000002815260040160206040518083038186803b1580156113af57600080fd5b505afa1580156113c3573d6000803e3d6000fd5b505050506040513d60208110156113d957600080fd5b810190808051906020019092919050505090506000600460009054906101000a900473ffffffffffffffffffffffffffffffffffffffff1690508073ffffffffffffffffffffffffffffffffffffffff166323b872dd600360009054906101000a900473ffffffffffffffffffffffffffffffffffffffff1630896040518463ffffffff167c0100000000000000000000000000000000000000000000000000000000028152600401808473ffffffffffffffffffffffffffffffffffffffff1673ffffffffffffffffffffffffffffffffffffffff1681526020018373ffffffffffffffffffffffffffffffffffffffff1673ffffffffffffffffffffffffffffffffffffffff1681526020018281526020019350505050602060405180830381600087803b15801561150c57600080fd5b505af1158015611520573d6000803e3d6000fd5b505050506040513d602081101561153657600080fd5b8101908080519060200190929190505050508073ffffffffffffffffffffffffffffffffffffffff1663095ea7b385886040518363ffffffff167c0100000000000000000000000000000000000000000000000000000000028152600401808373ffffffffffffffffffffffffffffffffffffffff1673ffffffffffffffffffffffffffffffffffffffff16815260200182815260200192505050602060405180830381600087803b1580156115eb57600080fd5b505af11580156115ff573d6000803e3d6000fd5b505050506040513d602081101561161557600080fd5b8101908080519060200190929190505050508373ffffffffffffffffffffffffffffffffffffffff1663125bb6a9868b60006040518463ffffffff167c0100000000000000000000000000000000000000000000000000000000028152600401808473ffffffffffffffffffffffffffffffffffffffff1673ffffffffffffffffffffffffffffffffffffffff168152602001838152602001821515151581526020019350505050600060405180830381600087803b1580156116d757600080fd5b505af11580156116eb573d6000803e3d6000fd5b505050508273ffffffffffffffffffffffffffffffffffffffff1663a9059cbb6117148a611bef565b8b6040518363ffffffff167c0100000000000000000000000000000000000000000000000000000000028152600401808373ffffffffffffffffffffffffffffffffffffffff1673ffffffffffffffffffffffffffffffffffffffff16815260200182815260200192505050602060405180830381600087803b15801561179a57600080fd5b505af11580156117ae573d6000803e3d6000fd5b505050506040513d60208110156117c457600080fd5b8101908080519060200190929190505050508173ffffffffffffffffffffffffffffffffffffffff1663a9059cbb6117fb89611bef565b8b6040518363ffffffff167c0100000000000000000000000000000000000000000000000000000000028152600401808373ffffffffffffffffffffffffffffffffffffffff1673ffffffffffffffffffffffffffffffffffffffff16815260200182815260200192505050602060405180830381600087803b15801561188157600080fd5b505af1158015611895573d6000803e3d6000fd5b505050506040513d60208110156118ab57600080fd5b8101908080519060200190929190505050508673ffffffffffffffffffffffffffffffffffffffff168873ffffffffffffffffffffffffffffffffffffffff16601260008873ffffffffffffffffffffffffffffffffffffffff1673ffffffffffffffffffffffffffffffffffffffff168152602001908152602001600020547f84e2a35a1e60fba9ca99644e9b5fad1db44bb846b22e05817a82136724e2b6f08873ffffffffffffffffffffffffffffffffffffffff1663614d08f86040518163ffffffff167c010000000000000000000000000000000000000000000000000000000002815260040160006040518083038186803b1580156119ae57600080fd5b505afa1580156119c2573d6000803e3d6000fd5b505050506040513d6000823e3d601f19601f8201168201806040525060208110156119ec57600080fd5b810190808051640100000000811115611a0457600080fd5b82810190506020810184811115611a1a57600080fd5b8151856001820283011164010000000082111715611a3757600080fd5b5050929190505050611a488d611bef565b611a518d611bef565b8f8c8b8b611a5d61220b565b60405180806020018973ffffffffffffffffffffffffffffffffffffffff1673ffffffffffffffffffffffffffffffffffffffff1681526020018873ffffffffffffffffffffffffffffffffffffffff1673ffffffffffffffffffffffffffffffffffffffff1681526020018781526020018673ffffffffffffffffffffffffffffffffffffffff1673ffffffffffffffffffffffffffffffffffffffff1681526020018573ffffffffffffffffffffffffffffffffffffffff1673ffffffffffffffffffffffffffffffffffffffff1681526020018473ffffffffffffffffffffffffffffffffffffffff1673ffffffffffffffffffffffffffffffffffffffff16815260200183815260200182810382528a818151815260200191508051906020019080838360005b83811015611ba3578082015181840152602081019050611b88565b50505050905090810190601f168015611bd05780820380516001836020036101000a031916815260200191505b50995050505050505050505060405180910390a4505050505050505050565b60008073ffffffffffffffffffffffffffffffffffffffff16601560008473ffffffffffffffffffffffffffffffffffffffff1673ffffffffffffffffffffffffffffffffffffffff16815260200190815260200160002060009054906101000a900473ffffffffffffffffffffffffffffffffffffffff1673ffffffffffffffffffffffffffffffffffffffff1614611ce857601560008373ffffffffffffffffffffffffffffffffffffffff1673ffffffffffffffffffffffffffffffffffffffff16815260200190815260200160002060009054906101000a900473ffffffffffffffffffffffffffffffffffffffff16611cea565b815b9050919050565b600460009054906101000a900473ffffffffffffffffffffffffffffffffffffffff1681565b600080611d226132d2565b9050611dca838273ffffffffffffffffffffffffffffffffffffffff1663e158e02d6040518163ffffffff167c010000000000000000000000000000000000000000000000000000000002815260040160206040518083038186803b158015611d8a57600080fd5b505afa158015611d9e573d6000803e3d6000fd5b505050506040513d6020811015611db457600080fd5b8101908080519060200190929190505050613b84565b915050919050565b60058054600181600116156101000203166002900480601f016020809104026020016040519081016040528092919081815260200182805460018160011615610100020316600290048015611e685780601f10611e3d57610100808354040283529160200191611e68565b820191906000526020600020905b815481529060010190602001808311611e4b57829003601f168201915b505050505081565b600080601460009054906101000a900473ffffffffffffffffffffffffffffffffffffffff1673ffffffffffffffffffffffffffffffffffffffff1663f3701da2336040518263ffffffff167c0100000000000000000000000000000000000000000000000000000000028152600401808273ffffffffffffffffffffffffffffffffffffffff1673ffffffffffffffffffffffffffffffffffffffff168152602001915050602060405180830381600087803b158015611f3057600080fd5b505af1158015611f44573d6000803e3d6000fd5b505050506040513d6020811015611f5a57600080fd5b8101908080519060200190929190505050905080601560003373ffffffffffffffffffffffffffffffffffffffff1673ffffffffffffffffffffffffffffffffffffffff16815260200190815260200160002060006101000a81548173ffffffffffffffffffffffffffffffffffffffff021916908373ffffffffffffffffffffffffffffffffffffffff16021790555033601660008373ffffffffffffffffffffffffffffffffffffffff1673ffffffffffffffffffffffffffffffffffffffff16815260200190815260200160002060006101000a81548173ffffffffffffffffffffffffffffffffffffffff021916908373ffffffffffffffffffffffffffffffffffffffff1602179055508091505090565b60068054600181600116156101000203166002900480601f0160208091040260200160405190810160405280929190818152602001828054600181600116156101000203166002900480156121065780601f106120db57610100808354040283529160200191612106565b820191906000526020600020905b8154815290600101906020018083116120e957829003601f168201915b505050505081565b61211661327b565b151561212157600080fd5b80600260006101000a81548173ffffffffffffffffffffffffffffffffffffffff021916908373ffffffffffffffffffffffffffffffffffffffff16021790555050565b60008173ffffffffffffffffffffffffffffffffffffffff1663eaafb4fa6040518163ffffffff167c010000000000000000000000000000000000000000000000000000000002815260040160206040518083038186803b1580156121c957600080fd5b505afa1580156121dd573d6000803e3d6000fd5b505050506040513d60208110156121f357600080fd5b81019080805190602001909291905050509050919050565b600042905090565b61221b613d45565b612223613d45565b600a60078060200260405190810160405280929190826007801561225c576020028201915b815481526020019060010190808311612248575b505050505090506305f5e10060095485600754020281151561227a57fe5b0481600160078110151561228a57fe5b602002018181525050828160066007811015156122a357fe5b6020020181815250508091505092915050565b6122be61327b565b15156122c957600080fd5b80600360006101000a81548173ffffffffffffffffffffffffffffffffffffffff021916908373ffffffffffffffffffffffffffffffffffffffff16021790555050565b61231561327b565b151561232057600080fd5b80600a906007612331929190613d68565b5050565b600260009054906101000a900473ffffffffffffffffffffffffffffffffffffffff1673ffffffffffffffffffffffffffffffffffffffff163373ffffffffffffffffffffffffffffffffffffffff161415156123fa576040517f08c379a00000000000000000000000000000000000000000000000000000000081526004018080602001828103825260178152602001807f4f6e6c7920486f6e6579204c656d6f6e204f7261636c6500000000000000000081525060200191505060405180910390fd5b60008214151515612456576040517f08c379a0000000000000000000000000000000000000000000000000000000008152600401808060200182810382526024815260200180613dce6024913960400191505060405180910390fd5b600073ffffffffffffffffffffffffffffffffffffffff168173ffffffffffffffffffffffffffffffffffffffff161415151561249257600080fd5b60008190508073ffffffffffffffffffffffffffffffffffffffff16636fbce940846040518263ffffffff167c010000000000000000000000000000000000000000000000000000000002815260040180828152602001915050600060405180830381600087803b15801561250657600080fd5b505af115801561251a573d6000803e3d6000fd5b5050505082601381905550505050565b8251845114801561253c575081518451145b8015612549575080518451145b15156125bd576040517f08c379a00000000000000000000000000000000000000000000000000000000081526004018080602001828103825260148152602001807f496e76616c696420696e70757420706172616d7300000000000000000000000081525060200191505060405180910390fd5b3373ffffffffffffffffffffffffffffffffffffffff163073ffffffffffffffffffffffffffffffffffffffff16638da5cb5b6040518163ffffffff167c010000000000000000000000000000000000000000000000000000000002815260040160206040518083038186803b15801561263657600080fd5b505afa15801561264a573d6000803e3d6000fd5b505050506040513d602081101561266057600080fd5b810190808051906020019092919050505073ffffffffffffffffffffffffffffffffffffffff161415156126fc576040517f08c379a000000000000000000000000000000000000000000000000000000000815260040180806020018281038252601f8152602001807f596f7520646f6e2774206f776e207468697320445350726f7879204754464f0081525060200191505060405180910390fd5b600080600080600090505b8751811015612a2b57868181518110151561271e57fe5b90602001906020020151935061273384612165565b9250878181518110151561274357fe5b9060200190602002015191508173ffffffffffffffffffffffffffffffffffffffff1663095ea7b385888481518110151561277a57fe5b906020019060200201516040518363ffffffff167c0100000000000000000000000000000000000000000000000000000000028152600401808373ffffffffffffffffffffffffffffffffffffffff1673ffffffffffffffffffffffffffffffffffffffff16815260200182815260200192505050602060405180830381600087803b15801561280957600080fd5b505af115801561281d573d6000803e3d6000fd5b505050506040513d602081101561283357600080fd5b810190808051906020019092919050505050848181518110151561285357fe5b9060200190602002015115612942578273ffffffffffffffffffffffffffffffffffffffff166310198cb785888481518110151561288d57fe5b9060200190602002015160006040518463ffffffff167c0100000000000000000000000000000000000000000000000000000000028152600401808473ffffffffffffffffffffffffffffffffffffffff1673ffffffffffffffffffffffffffffffffffffffff1681526020018381526020018281526020019350505050600060405180830381600087803b15801561292557600080fd5b505af1158015612939573d6000803e3d6000fd5b50505050612a1e565b8273ffffffffffffffffffffffffffffffffffffffff166310198cb7856000898581518110151561296f57fe5b906020019060200201516040518463ffffffff167c0100000000000000000000000000000000000000000000000000000000028152600401808473ffffffffffffffffffffffffffffffffffffffff1673ffffffffffffffffffffffffffffffffffffffff1681526020018381526020018281526020019350505050600060405180830381600087803b158015612a0557600080fd5b505af1158015612a19573d6000803e3d6000fd5b505050505b8080600101915050612707565b5060008373ffffffffffffffffffffffffffffffffffffffff1663323bb7756040518163ffffffff167c010000000000000000000000000000000000000000000000000000000002815260040160206040518083038186803b158015612a9057600080fd5b505afa158015612aa4573d6000803e3d6000fd5b505050506040513d6020811015612aba57600080fd5b8101908080519060200190929190505050905060008173ffffffffffffffffffffffffffffffffffffffff166370a08231306040518263ffffffff167c0100000000000000000000000000000000000000000000000000000000028152600401808273ffffffffffffffffffffffffffffffffffffffff1673ffffffffffffffffffffffffffffffffffffffff16815260200191505060206040518083038186803b158015612b6857600080fd5b505afa158015612b7c573d6000803e3d6000fd5b505050506040513d6020811015612b9257600080fd5b810190808051906020019092919050505090508173ffffffffffffffffffffffffffffffffffffffff1663a9059cbb33836040518363ffffffff167c0100000000000000000000000000000000000000000000000000000000028152600401808373ffffffffffffffffffffffffffffffffffffffff1673ffffffffffffffffffffffffffffffffffffffff16815260200182815260200192505050602060405180830381600087803b158015612c4857600080fd5b505af1158015612c5c573d6000803e3d6000fd5b505050506040513d6020811015612c7257600080fd5b8101908080519060200190929190505050507f8f40803f05c81f4ca062082ed29c531ca8925cdc91d0f23f76e94b49166f1629896000815181101515612cb457fe5b90602001906020020151896000815181101515612ccd57fe5b90602001906020020151896000815181101515612ce657fe5b90602001906020020151896000815181101515612cff57fe5b90602001906020020151604051808573ffffffffffffffffffffffffffffffffffffffff1673ffffffffffffffffffffffffffffffffffffffff1681526020018473ffffffffffffffffffffffffffffffffffffffff1673ffffffffffffffffffffffffffffffffffffffff1681526020018381526020018215151515815260200194505050505060405180910390a1505050505050505050565b600080612da683611bef565b90506000612db26132d2565b905060008173ffffffffffffffffffffffffffffffffffffffff166322d1c35e6040518163ffffffff167c010000000000000000000000000000000000000000000000000000000002815260040160206040518083038186803b158015612e1857600080fd5b505afa158015612e2c573d6000803e3d6000fd5b505050506040513d6020811015612e4257600080fd5b810190808051906020019092919050505090508073ffffffffffffffffffffffffffffffffffffffff166370a08231846040518263ffffffff167c0100000000000000000000000000000000000000000000000000000000028152600401808273ffffffffffffffffffffffffffffffffffffffff1673ffffffffffffffffffffffffffffffffffffffff16815260200191505060206040518083038186803b158015612eee57600080fd5b505afa158015612f02573d6000803e3d6000fd5b505050506040513d6020811015612f1857600080fd5b81019080805190602001909291905050509350505050919050565b612f3b61327b565b1515612f4657600080fd5b600073ffffffffffffffffffffffffffffffffffffffff166000809054906101000a900473ffffffffffffffffffffffffffffffffffffffff1673ffffffffffffffffffffffffffffffffffffffff167f8be0079c531659141344cd1fd0a4f28419497f9722a3daafe3b4186f6b6457e060405160405180910390a360008060006101000a81548173ffffffffffffffffffffffffffffffffffffffff021916908373ffffffffffffffffffffffffffffffffffffffff160217905550565b600260009054906101000a900473ffffffffffffffffffffffffffffffffffffffff1673ffffffffffffffffffffffffffffffffffffffff163373ffffffffffffffffffffffffffffffffffffffff161415156130ca576040517f08c379a00000000000000000000000000000000000000000000000000000000081526004018080602001828103825260178152602001807f4f6e6c7920486f6e6579204c656d6f6e204f7261636c6500000000000000000081525060200191505060405180910390fd5b60008314151515613143576040517f08c379a000000000000000000000000000000000000000000000000000000000815260040180806020018281038252601e8152602001807f43757272656e74204d52492076616c75652063616e74206265207a65726f000081525060200191505060405180910390fd5b600061314d6131e8565b9050600073ffffffffffffffffffffffffffffffffffffffff168173ffffffffffffffffffffffffffffffffffffffff161415156131905761318f8582612335565b5b61319b848484613320565b50836013819055505050505050565b6011818154811015156131b957fe5b906000526020600020016000915054906101000a900473ffffffffffffffffffffffffffffffffffffffff1681565b600080601180549050905060075481101561320757600091505061324f565b60006007548203905060118181548110151561321f57fe5b9060005260206000200160009054906101000a900473ffffffffffffffffffffffffffffffffffffffff16925050505b90565b60008060009054906101000a900473ffffffffffffffffffffffffffffffffffffffff16905090565b60008060009054906101000a900473ffffffffffffffffffffffffffffffffffffffff1673ffffffffffffffffffffffffffffffffffffffff163373ffffffffffffffffffffffffffffffffffffffff1614905090565b60008060016011805490500390506011818154811015156132ef57fe5b9060005260206000200160009054906101000a900473ffffffffffffffffffffffffffffffffffffffff1691505090565b600061332a61327b565b151561333557600080fd5b6000600160009054906101000a900473ffffffffffffffffffffffffffffffffffffffff1673ffffffffffffffffffffffffffffffffffffffff16637077b04785600460009054906101000a900473ffffffffffffffffffffffffffffffffffffffff166133a38988612213565b600560066040518663ffffffff167c01000000000000000000000000000000000000000000000000000000000281526004018086600360200280838360005b838110156133fd5780820151818401526020810190506133e2565b505050509050018573ffffffffffffffffffffffffffffffffffffffff1673ffffffffffffffffffffffffffffffffffffffff16815260200184600760200280838360005b8381101561345d578082015181840152602081019050613442565b5050505090500180602001806020018381038352858181546001816001161561010002031660029004815260200191508054600181600116156101000203166002900480156134ed5780601f106134c2576101008083540402835291602001916134ed565b820191906000526020600020905b8154815290600101906020018083116134d057829003601f168201915b50508381038252848181546001816001161561010002031660029004815260200191508054600181600116156101000203166002900480156135705780601f1061354557610100808354040283529160200191613570565b820191906000526020600020905b81548152906001019060200180831161355357829003601f168201915b5050975050505050505050602060405180830381600087803b15801561359557600080fd5b505af11580156135a9573d6000803e3d6000fd5b505050506040513d60208110156135bf57600080fd5b810190808051906020019092919050505090506000600160118390806001815401808255809150509060018203906000526020600020016000909192909190916101000a81548173ffffffffffffffffffffffffffffffffffffffff021916908373ffffffffffffffffffffffffffffffffffffffff16021790555003905080601260008473ffffffffffffffffffffffffffffffffffffffff1673ffffffffffffffffffffffffffffffffffffffff1681526020019081526020016000208190555081925050509392505050565b600a8160078110151561369d57fe5b016000915090505481565b600080600460009054906101000a900473ffffffffffffffffffffffffffffffffffffffff16905060008173ffffffffffffffffffffffffffffffffffffffff166370a08231856040518263ffffffff167c0100000000000000000000000000000000000000000000000000000000028152600401808273ffffffffffffffffffffffffffffffffffffffff1673ffffffffffffffffffffffffffffffffffffffff16815260200191505060206040518083038186803b15801561376b57600080fd5b505afa15801561377f573d6000803e3d6000fd5b505050506040513d602081101561379557600080fd5b8101908080519060200190929190505050905060008273ffffffffffffffffffffffffffffffffffffffff1663dd62ed3e86600360009054906101000a900473ffffffffffffffffffffffffffffffffffffffff166040518363ffffffff167c0100000000000000000000000000000000000000000000000000000000028152600401808373ffffffffffffffffffffffffffffffffffffffff1673ffffffffffffffffffffffffffffffffffffffff1681526020018273ffffffffffffffffffffffffffffffffffffffff1673ffffffffffffffffffffffffffffffffffffffff1681526020019250505060206040518083038186803b15801561389957600080fd5b505afa1580156138ad573d6000803e3d6000fd5b505050506040513d60208110156138c357600080fd5b8101908080519060200190929190505050905060008183106138e557816138e7565b825b905060006138f36132d2565b905061399d6001838373ffffffffffffffffffffffffffffffffffffffff1663e158e02d6040518163ffffffff167c010000000000000000000000000000000000000000000000000000000002815260040160206040518083038186803b15801561395d57600080fd5b505afa158015613971573d6000803e3d6000fd5b505050506040513d602081101561398757600080fd5b8101908080519060200190929190505050613c2b565b95505050505050919050565b60166020528060005260406000206000915054906101000a900473ffffffffffffffffffffffffffffffffffffffff1681565b60606011805480602002602001604051908101604052809291908181526020018280548015613a6057602002820191906000526020600020905b8160009054906101000a900473ffffffffffffffffffffffffffffffffffffffff1673ffffffffffffffffffffffffffffffffffffffff1681526020019060010190808311613a16575b5050505050905090565b606060008251905080604051908082528060200260200182016040528015613aa15781602001602082028038833980820191505090505b50915060008090505b8181141515613afc57613ad38482815181101515613ac457fe5b906020019060200201516136a8565b8382815181101515613ae157fe5b90602001906020020181815250508080600101915050613aaa565b5081915050919050565b60095481565b600260009054906101000a900473ffffffffffffffffffffffffffffffffffffffff1681565b613b3a61327b565b1515613b4557600080fd5b613b4e81613c4b565b50565b60156020528060005260406000206000915054906101000a900473ffffffffffffffffffffffffffffffffffffffff1681565b600080831415613b975760009050613c25565b60008284029050828482811515613baa57fe5b04141515613c20576040517f08c379a00000000000000000000000000000000000000000000000000000000081526004018080602001828103825260208152602001807f4d6174684c69623a206d756c7469706c69636174696f6e206f766572666c6f7781525060200191505060405180910390fd5b809150505b92915050565b600081613c388585613b84565b811515613c4157fe5b0490509392505050565b600073ffffffffffffffffffffffffffffffffffffffff168173ffffffffffffffffffffffffffffffffffffffff1614151515613c8757600080fd5b8073ffffffffffffffffffffffffffffffffffffffff166000809054906101000a900473ffffffffffffffffffffffffffffffffffffffff1673ffffffffffffffffffffffffffffffffffffffff167f8be0079c531659141344cd1fd0a4f28419497f9722a3daafe3b4186f6b6457e060405160405180910390a3806000806101000a81548173ffffffffffffffffffffffffffffffffffffffff021916908373ffffffffffffffffffffffffffffffffffffffff16021790555050565b60e060405190810160405280600790602082028038833980820191505090505090565b8260078101928215613d97579160200282015b82811115613d96578251825591602001919060010190613d7b565b5b509050613da49190613da8565b5090565b613dca91905b80821115613dc6576000816000905550600101613dae565b5090565b9056fe546865206d7269206c6f6f636b6261636b2076616c75652063616e206e6f742062652030a165627a7a7230582032220dba99d0a9ae53cfb034ddcd7f2222ada4b739e1fc00ee954535760892b10029608060405234801561001057600080fd5b5033600260006101000a81548173ffffffffffffffffffffffffffffffffffffffff021916908373ffffffffffffffffffffffffffffffffffffffff16021790555061005a6100bc565b604051809103906000f080158015610076573d6000803e3d6000fd5b50600160006101000a81548173ffffffffffffffffffffffffffffffffffffffff021916908373ffffffffffffffffffffffffffffffffffffffff1602179055506100cc565b6040516103688061188283390190565b6117a7806100db6000396000f3fe608060405234801561001057600080fd5b506004361061005e576000357c010000000000000000000000000000000000000000000000000000000090048063297103881461006357806360c7d295146100bf578063f3701da214610109575b600080fd5b6100a56004803603602081101561007957600080fd5b81019080803573ffffffffffffffffffffffffffffffffffffffff16906020019092919050505061018d565b604051808215151515815260200191505060405180910390f35b6100c76101ad565b604051808273ffffffffffffffffffffffffffffffffffffffff1673ffffffffffffffffffffffffffffffffffffffff16815260200191505060405180910390f35b61014b6004803603602081101561011f57600080fd5b81019080803573ffffffffffffffffffffffffffffffffffffffff1690602001909291905050506101d3565b604051808273ffffffffffffffffffffffffffffffffffffffff1673ffffffffffffffffffffffffffffffffffffffff16815260200191505060405180910390f35b60006020528060005260406000206000915054906101000a900460ff1681565b600160009054906101000a900473ffffffffffffffffffffffffffffffffffffffff1681565b6000600260009054906101000a900473ffffffffffffffffffffffffffffffffffffffff1673ffffffffffffffffffffffffffffffffffffffff163373ffffffffffffffffffffffffffffffffffffffff1614151561027d576040517f08c379a00000000000000000000000000000000000000000000000000000000081526004018080602001828103825260248152602001806117586024913960400191505060405180910390fd5b600160009054906101000a900473ffffffffffffffffffffffffffffffffffffffff166102a86104f3565b808273ffffffffffffffffffffffffffffffffffffffff1673ffffffffffffffffffffffffffffffffffffffff168152602001915050604051809103906000f0801580156102fa573d6000803e3d6000fd5b5090508173ffffffffffffffffffffffffffffffffffffffff163373ffffffffffffffffffffffffffffffffffffffff167f259b30ca39885c6d801a0b5dbc988640f3c25e2f37531fe138c5c5af8955d41b83600160009054906101000a900473ffffffffffffffffffffffffffffffffffffffff16604051808373ffffffffffffffffffffffffffffffffffffffff1673ffffffffffffffffffffffffffffffffffffffff1681526020018273ffffffffffffffffffffffffffffffffffffffff1673ffffffffffffffffffffffffffffffffffffffff1681526020019250505060405180910390a38073ffffffffffffffffffffffffffffffffffffffff166313af4035836040518263ffffffff167c0100000000000000000000000000000000000000000000000000000000028152600401808273ffffffffffffffffffffffffffffffffffffffff1673ffffffffffffffffffffffffffffffffffffffff168152602001915050600060405180830381600087803b15801561047f57600080fd5b505af1158015610493573d6000803e3d6000fd5b5050505060016000808373ffffffffffffffffffffffffffffffffffffffff1673ffffffffffffffffffffffffffffffffffffffff16815260200190815260200160002060006101000a81548160ff021916908315150217905550919050565b604051611254806105048339019056fe608060405234801561001057600080fd5b50604051602080620012548339810180604052602081101561003157600080fd5b810190808051906020019092919050505033600160006101000a81548173ffffffffffffffffffffffffffffffffffffffff021916908373ffffffffffffffffffffffffffffffffffffffff1602179055503373ffffffffffffffffffffffffffffffffffffffff167fce241d7ca1f669fee44b6fc00b8eba2df3bb514eed0f6f668f8f89096e81ed9460405160405180910390a26100de816100e5640100000000026401000000009004565b5050610572565b6000610124336000357fffffffff00000000000000000000000000000000000000000000000000000000166102fd640100000000026401000000009004565b151561012f57600080fd5b60008060043591506024359050813373ffffffffffffffffffffffffffffffffffffffff166000357fffffffff00000000000000000000000000000000000000000000000000000000167bffffffffffffffffffffffffffffffffffffffffffffffffffffffff19167f644843f351d3fba4abcd60109eaff9f54bac8fb8ccf0bab941009c21df21cf31843460003660405180858152602001848152602001806020018281038252848482818152602001925080828437600081840152601f19601f8201169050808301925050509550505050505060405180910390a4600073ffffffffffffffffffffffffffffffffffffffff168473ffffffffffffffffffffffffffffffffffffffff16141515156102b1576040517f08c379a000000000000000000000000000000000000000000000000000000000815260040180806020018281038252601f8152602001807f64732d70726f78792d63616368652d616464726573732d72657175697265640081525060200191505060405180910390fd5b83600260006101000a81548173ffffffffffffffffffffffffffffffffffffffff021916908373ffffffffffffffffffffffffffffffffffffffff160217905550600192505050919050565b60003073ffffffffffffffffffffffffffffffffffffffff168373ffffffffffffffffffffffffffffffffffffffff16141561033c576001905061056c565b600160009054906101000a900473ffffffffffffffffffffffffffffffffffffffff1673ffffffffffffffffffffffffffffffffffffffff168373ffffffffffffffffffffffffffffffffffffffff16141561039b576001905061056c565b600073ffffffffffffffffffffffffffffffffffffffff166000809054906101000a900473ffffffffffffffffffffffffffffffffffffffff1673ffffffffffffffffffffffffffffffffffffffff1614156103fa576000905061056c565b6000809054906101000a900473ffffffffffffffffffffffffffffffffffffffff1673ffffffffffffffffffffffffffffffffffffffff1663b70096138430856040518463ffffffff167c0100000000000000000000000000000000000000000000000000000000028152600401808473ffffffffffffffffffffffffffffffffffffffff1673ffffffffffffffffffffffffffffffffffffffff1681526020018373ffffffffffffffffffffffffffffffffffffffff1673ffffffffffffffffffffffffffffffffffffffff168152602001827bffffffffffffffffffffffffffffffffffffffffffffffffffffffff19167bffffffffffffffffffffffffffffffffffffffffffffffffffffffff19168152602001935050505060206040518083038186803b15801561052e57600080fd5b505afa158015610542573d6000803e3d6000fd5b505050506040513d602081101561055857600080fd5b810190808051906020019092919050505090505b92915050565b610cd280620005826000396000f3fe60806040526004361061008d576000357c0100000000000000000000000000000000000000000000000000000000900480637a9e5e4b1161006b5780637a9e5e4b1461028b5780638da5cb5b146102dc578063948f507614610333578063bf7e214f1461038f5761008d565b806313af40351461008f5780631cff79cd146100e057806360c7d29514610234575b005b34801561009b57600080fd5b506100de600480360360208110156100b257600080fd5b81019080803573ffffffffffffffffffffffffffffffffffffffff1690602001909291905050506103e6565b005b6101b9600480360360408110156100f657600080fd5b81019080803573ffffffffffffffffffffffffffffffffffffffff1690602001909291908035906020019064010000000081111561013357600080fd5b82018360208201111561014557600080fd5b8035906020019184600183028401116401000000008311171561016757600080fd5b91908080601f016020809104026020016040519081016040528093929190818152602001838380828437600081840152601f19601f8201169050808301925050505050505091929192905050506104c8565b6040518080602001828103825283818151815260200191508051906020019080838360005b838110156101f95780820151818401526020810190506101de565b50505050905090810190601f1680156102265780820380516001836020036101000a031916815260200191505b509250505060405180910390f35b34801561024057600080fd5b506102496106d7565b604051808273ffffffffffffffffffffffffffffffffffffffff1673ffffffffffffffffffffffffffffffffffffffff16815260200191505060405180910390f35b34801561029757600080fd5b506102da600480360360208110156102ae57600080fd5b81019080803573ffffffffffffffffffffffffffffffffffffffff1690602001909291905050506106fd565b005b3480156102e857600080fd5b506102f16107dd565b604051808273ffffffffffffffffffffffffffffffffffffffff1673ffffffffffffffffffffffffffffffffffffffff16815260200191505060405180910390f35b6103756004803603602081101561034957600080fd5b81019080803573ffffffffffffffffffffffffffffffffffffffff169060200190929190505050610803565b604051808215151515815260200191505060405180910390f35b34801561039b57600080fd5b506103a4610a0c565b604051808273ffffffffffffffffffffffffffffffffffffffff1673ffffffffffffffffffffffffffffffffffffffff16815260200191505060405180910390f35b610414336000357fffffffff0000000000000000000000000000000000000000000000000000000016610a31565b151561041f57600080fd5b80600160006101000a81548173ffffffffffffffffffffffffffffffffffffffff021916908373ffffffffffffffffffffffffffffffffffffffff160217905550600160009054906101000a900473ffffffffffffffffffffffffffffffffffffffff1673ffffffffffffffffffffffffffffffffffffffff167fce241d7ca1f669fee44b6fc00b8eba2df3bb514eed0f6f668f8f89096e81ed9460405160405180910390a250565b60606104f8336000357fffffffff0000000000000000000000000000000000000000000000000000000016610a31565b151561050357600080fd5b60008060043591506024359050813373ffffffffffffffffffffffffffffffffffffffff166000357fffffffff00000000000000000000000000000000000000000000000000000000167bffffffffffffffffffffffffffffffffffffffffffffffffffffffff19167f644843f351d3fba4abcd60109eaff9f54bac8fb8ccf0bab941009c21df21cf31843460003660405180858152602001848152602001806020018281038252848482818152602001925080828437600081840152601f19601f8201169050808301925050509550505050505060405180910390a4600073ffffffffffffffffffffffffffffffffffffffff168573ffffffffffffffffffffffffffffffffffffffff1614151515610685576040517f08c379a00000000000000000000000000000000000000000000000000000000081526004018080602001828103825260208152602001807f64732d70726f78792d7461726765742d616464726573732d726571756972656481525060200191505060405180910390fd5b600080855160208701886113885a03f43d6040519450601f19601f6020830101168501604052808552806000602087013e8115600181146106c5576106cc565b8160208701fd5b505050505092915050565b600260009054906101000a900473ffffffffffffffffffffffffffffffffffffffff1681565b61072b336000357fffffffff0000000000000000000000000000000000000000000000000000000016610a31565b151561073657600080fd5b806000806101000a81548173ffffffffffffffffffffffffffffffffffffffff021916908373ffffffffffffffffffffffffffffffffffffffff1602179055506000809054906101000a900473ffffffffffffffffffffffffffffffffffffffff1673ffffffffffffffffffffffffffffffffffffffff167f1abebea81bfa2637f28358c371278fb15ede7ea8dd28d2e03b112ff6d936ada460405160405180910390a250565b600160009054906101000a900473ffffffffffffffffffffffffffffffffffffffff1681565b6000610833336000357fffffffff0000000000000000000000000000000000000000000000000000000016610a31565b151561083e57600080fd5b60008060043591506024359050813373ffffffffffffffffffffffffffffffffffffffff166000357fffffffff00000000000000000000000000000000000000000000000000000000167bffffffffffffffffffffffffffffffffffffffffffffffffffffffff19167f644843f351d3fba4abcd60109eaff9f54bac8fb8ccf0bab941009c21df21cf31843460003660405180858152602001848152602001806020018281038252848482818152602001925080828437600081840152601f19601f8201169050808301925050509550505050505060405180910390a4600073ffffffffffffffffffffffffffffffffffffffff168473ffffffffffffffffffffffffffffffffffffffff16141515156109c0576040517f08c379a000000000000000000000000000000000000000000000000000000000815260040180806020018281038252601f8152602001807f64732d70726f78792d63616368652d616464726573732d72657175697265640081525060200191505060405180910390fd5b83600260006101000a81548173ffffffffffffffffffffffffffffffffffffffff021916908373ffffffffffffffffffffffffffffffffffffffff160217905550600192505050919050565b6000809054906101000a900473ffffffffffffffffffffffffffffffffffffffff1681565b60003073ffffffffffffffffffffffffffffffffffffffff168373ffffffffffffffffffffffffffffffffffffffff161415610a705760019050610ca0565b600160009054906101000a900473ffffffffffffffffffffffffffffffffffffffff1673ffffffffffffffffffffffffffffffffffffffff168373ffffffffffffffffffffffffffffffffffffffff161415610acf5760019050610ca0565b600073ffffffffffffffffffffffffffffffffffffffff166000809054906101000a900473ffffffffffffffffffffffffffffffffffffffff1673ffffffffffffffffffffffffffffffffffffffff161415610b2e5760009050610ca0565b6000809054906101000a900473ffffffffffffffffffffffffffffffffffffffff1673ffffffffffffffffffffffffffffffffffffffff1663b70096138430856040518463ffffffff167c0100000000000000000000000000000000000000000000000000000000028152600401808473ffffffffffffffffffffffffffffffffffffffff1673ffffffffffffffffffffffffffffffffffffffff1681526020018373ffffffffffffffffffffffffffffffffffffffff1673ffffffffffffffffffffffffffffffffffffffff168152602001827bffffffffffffffffffffffffffffffffffffffffffffffffffffffff19167bffffffffffffffffffffffffffffffffffffffffffffffffffffffff19168152602001935050505060206040518083038186803b158015610c6257600080fd5b505afa158015610c76573d6000803e3d6000fd5b505050506040513d6020811015610c8c57600080fd5b810190808051906020019092919050505090505b9291505056fea165627a7a72305820b0413f0646478ac1be28e7b8ce8b1fee339eb293cbde7f01070c6d05cf21392f00294f6e6c792063616c6c61626c65206279204d61726b6574436f6e747261637450726f7879a165627a7a72305820b01d4e3273206df8b31c250f771408055345eb462c2da8d1e869b9428825f9890029608060405234801561001057600080fd5b50610348806100206000396000f3fe608060405234801561001057600080fd5b5060043610610053576000357c0100000000000000000000000000000000000000000000000000000000900480637ed0c3b2146100585780638bf4515c14610153575b600080fd5b6101116004803603602081101561006e57600080fd5b810190808035906020019064010000000081111561008b57600080fd5b82018360208201111561009d57600080fd5b803590602001918460018302840111640100000000831117156100bf57600080fd5b91908080601f016020809104026020016040519081016040528093929190818152602001838380828437600081840152601f19601f82011690508083019250505050505050919291929050505061024e565b604051808273ffffffffffffffffffffffffffffffffffffffff1673ffffffffffffffffffffffffffffffffffffffff16815260200191505060405180910390f35b61020c6004803603602081101561016957600080fd5b810190808035906020019064010000000081111561018657600080fd5b82018360208201111561019857600080fd5b803590602001918460018302840111640100000000831117156101ba57600080fd5b91908080601f016020809104026020016040519081016040528093929190818152602001838380828437600081840152601f19601f8201169050808301925050505050505091929192905050506102d4565b604051808273ffffffffffffffffffffffffffffffffffffffff1673ffffffffffffffffffffffffffffffffffffffff16815260200191505060405180910390f35b60008151602083016000f09050803b156001811461026b57610270565b600080fd5b506000828051906020012090508160008083815260200190815260200160002060006101000a81548173ffffffffffffffffffffffffffffffffffffffff021916908373ffffffffffffffffffffffffffffffffffffffff16021790555050919050565b6000808280519060200120905060008082815260200190815260200160002060009054906101000a900473ffffffffffffffffffffffffffffffffffffffff1691505091905056fea165627a7a72305820a2c170ae869e71b6def4674f492115dddc2a9183a47ce98b2543c10c6efd21f40029",
  "source": "pragma solidity 0.5.2;\n\nimport \"openzeppelin-solidity/contracts/ownership/Ownable.sol\";\n\nimport \"../marketprotocol/MarketCollateralPool.sol\";\nimport \"../marketprotocol/mpx/MarketContractFactoryMPX.sol\";\nimport \"../marketprotocol/mpx/MarketContractMPX.sol\";\n\nimport \"../libraries/MathLib.sol\";\n\nimport \"./DSProxy.sol\";\n\n\ncontract MarketContractProxy is Ownable {\n    MarketContractFactoryMPX marketContractFactoryMPX;\n\n    address public HONEY_LEMON_ORACLE_ADDRESS;\n    address public MINTER_BRIDGE_ADDRESS;\n    address public COLLATERAL_TOKEN_ADDRESS; //imBTC\n\n    string public ORACLE_URL = \"null\";\n    string public ORACLE_STATISTIC = \"null\";\n\n    uint public CONTRACT_DURATION_DAYS = 28;\n    uint public CONTRACT_DURATION = CONTRACT_DURATION_DAYS * 24 * 60 * 60; // 28 days in seconds\n    uint public CONTRACT_COLLATERAL_RATIO = 135000000; //1.35e8; 1.35, with 8 decimal places\n\n    uint[7] public marketContractSpecs = [\n        0, // floorPrice - the lower bound price for the CFD [constant]\n        0, // capPrice - the upper bound price for the CFD [updated before deployment]\n        8, // priceDecimalPlaces - number of decimals used to convert prices [constant]\n        1, // qtyMultiplier - multiply traded qty by this value from base units of collateral token. [constant]\n        0, // feeInBasisPoints - fee for minting tokens [constant]\n        0, // mktFeeInBasisPoints - fees charged by the market in MKT [constant]\n        0 // expirationTimeStamp [updated before deployment]\n    ];\n\n    // Array of all market contracts deployed\n    address[] public marketContracts;\n\n    // Mapping of each market contract address to the associated array index\n    mapping(address => uint256) addressToMarketId;\n\n    // Stores the most recent MRI value\n    uint256 latestMri = 0;\n\n    // DSProxy factory to create smart contract wallets for users to enable bulk redemption.\n    DSProxyFactory dSProxyFactory;\n\n    // Mapping to link each trader address to their DSProxy address.\n    mapping(address => address) public addressToDSProxy;\n\n    // Mapping to link each DSProxy address to their traders address.\n    mapping(address => address) public dSProxyToAddress;\n\n    constructor(\n        address _marketContractFactoryMPX,\n        address _honeyLemonOracle,\n        address _minterBridge,\n        address _imBTCTokenAddress\n    ) public {\n        marketContractFactoryMPX = MarketContractFactoryMPX(_marketContractFactoryMPX);\n        HONEY_LEMON_ORACLE_ADDRESS = _honeyLemonOracle;\n        MINTER_BRIDGE_ADDRESS = _minterBridge;\n        COLLATERAL_TOKEN_ADDRESS = _imBTCTokenAddress;\n\n        //Deploy a new DSProxyFactory instance to faciliate hot wallet creation\n        dSProxyFactory = new DSProxyFactory();\n    }\n\n    event PositionTokensMinted(\n        uint indexed marketId,\n        string contractName,\n        address indexed longTokenRecipient,\n        address longTokenDSProxy,\n        address indexed shortTokenRecipient,\n        address shortTokenDSProxy,\n        uint256 qtyToMint,\n        address latestMarketContract,\n        address longTokenAddress,\n        address shortTokenAddress,\n        uint time\n    );\n\n    event BatchTokensRedeemed(\n        address tokenAddresses,\n        address marketAddresses,\n        uint tokensToRedeem,\n        bool traderLong\n    );\n\n    event LogEvent(\n        address msgsender,\n        address addressthis,\n        uint param,\n        address tokenAddress\n    );\n\n    //////////////////////////////////////\n    //// PERMISSION SCOPING MODIFIERS ////\n    //////////////////////////////////////\n\n    modifier onlyHoneyLemonOracle() {\n        require(msg.sender == HONEY_LEMON_ORACLE_ADDRESS, \"Only Honey Lemon Oracle\");\n        _;\n    }\n\n    modifier onlyMinterBridge() {\n        require(msg.sender == MINTER_BRIDGE_ADDRESS, \"Only Minter Bridge\");\n        _;\n    }\n\n    //////////////////////////\n    //// PUBLIC FUNCTIONS ////\n    //////////////////////////\n\n    function getFillableAmounts(address[] memory makerAddresses)\n        public\n        view\n        returns (uint256[] memory fillableAmounts)\n    {\n        uint256 length = makerAddresses.length;\n        fillableAmounts = new uint256[](length);\n\n        for (uint256 i = 0; i != length; i++) {\n            fillableAmounts[i] = getFillableAmount(makerAddresses[i]);\n        }\n\n        return fillableAmounts;\n    }\n\n    // The TH amount that can currently be filled based on owners BTC balance and allowance\n    function getFillableAmount(address makerAddress) public view returns (uint256) {\n        ERC20 collateralToken = ERC20(COLLATERAL_TOKEN_ADDRESS);\n\n        uint minerBalance = collateralToken.balanceOf(makerAddress);\n        uint minerAllowance = collateralToken.allowance(\n            makerAddress,\n            MINTER_BRIDGE_ADDRESS\n        );\n\n        uint uintMinAllowanceBalance = minerBalance < minerAllowance\n            ? minerBalance\n            : minerAllowance;\n\n        MarketContract latestMarketContract = getLatestMarketContract();\n\n        return\n            MathLib.divideFractional(\n                1,\n                uintMinAllowanceBalance,\n                latestMarketContract.COLLATERAL_PER_UNIT()\n            );\n    }\n\n    function getLatestMarketContract() public view returns (MarketContractMPX) {\n        uint lastIndex = marketContracts.length - 1;\n        return MarketContractMPX(marketContracts[lastIndex]);\n    }\n\n    function getExpiringMarketContract() public view returns (MarketContractMPX) {\n        uint contractsAdded = marketContracts.length;\n\n        // If the marketContracts array has not had enough markets pushed into it to settle an old one then return 0x0.\n        if (contractsAdded < CONTRACT_DURATION_DAYS) {\n            return MarketContractMPX(address(0x0));\n        }\n        uint expiringIndex = contractsAdded - CONTRACT_DURATION_DAYS;\n        return MarketContractMPX(marketContracts[expiringIndex]);\n    }\n\n    function getCollateralPool(MarketContractMPX market)\n        public\n        view\n        returns (MarketCollateralPool)\n    {\n        return MarketCollateralPool(market.COLLATERAL_POOL_ADDRESS());\n    }\n\n    function getLatestMarketCollateralPool() public view returns (MarketCollateralPool) {\n        MarketContractMPX latestMarketContract = getLatestMarketContract();\n        return getCollateralPool(latestMarketContract);\n    }\n\n    function calculateRequiredCollateral(uint amount) public view returns (uint) {\n        MarketContractMPX latestMarketContract = getLatestMarketContract();\n        return MathLib.multiply(amount, latestMarketContract.COLLATERAL_PER_UNIT());\n    }\n\n    function getAllMarketContracts() public returns (address[] memory) {\n        return marketContracts;\n    }\n\n    // Return `balanceOf` for current day PositionTokenLong. This is used to prove to\n    // 0x that the wallet balance was correctly transferred.\n    function balanceOf(address owner) public returns (uint) {\n        address addressToCheck = getUserAddressOrDSProxy(owner);\n        MarketContract latestMarketContract = getLatestMarketContract();\n        ERC20 longToken = ERC20(latestMarketContract.LONG_POSITION_TOKEN());\n        return longToken.balanceOf(addressToCheck);\n    }\n\n    function getTime() public returns (uint) {\n        return now;\n    }\n\n    // If the user has a DSProxy wallet, return that address. Else, return their wallet address\n    function getUserAddressOrDSProxy(address inputAddress) public view returns (address) {\n        return\n            addressToDSProxy[inputAddress] == address(0)\n                ? inputAddress\n                : addressToDSProxy[inputAddress];\n    }\n\n    ///////////////////////////\n    //// DSPROXY FUNCTIONS ////\n    ///////////////////////////\n\n    function createDSProxyWallet() public returns (address) {\n        // Create a new DSProxy for the caller.\n        address payable dsProxyWallet = dSProxyFactory.build(msg.sender);\n        addressToDSProxy[msg.sender] = dsProxyWallet;\n        dSProxyToAddress[dsProxyWallet] = msg.sender;\n        return dsProxyWallet;\n    }\n\n    // Function called by a DsProxy wallet which passes control from the caller using delegatecal\n    // to enable the caller to redeem bulk tokens in one tx. Parameters are parallel arrays.\n    // Note: only one side can be redeemed at a time. This is to simplify redemption as the same caller\n    // will likely never be both long and short in the same contract.\n    function batchRedeem(\n        address[] memory tokenAddresses, // Address of the long or short token to redeem\n        address[] memory marketAddresses, // Address of the market protocol\n        uint256[] memory tokensToRedeem, // the number of tokens to redeem\n        bool[] memory traderLong // if the trader is long or short\n    ) public {\n        require(\n            tokenAddresses.length == marketAddresses.length &&\n                tokenAddresses.length == tokensToRedeem.length &&\n                tokenAddresses.length == traderLong.length,\n            \"Invalid input params\"\n        );\n        require(this.owner() == msg.sender,\"You don't own this DSProxy GTFO\");\n        MarketContractMPX marketInstance;\n        MarketCollateralPool marketCollateralPool;\n        ERC20 tokenInstance;\n        // Loop through all tokens and preform redemption\n        for (uint256 i = 0; i < tokenAddresses.length; i++) {\n            marketInstance = MarketContractMPX(marketAddresses[i]);\n            marketCollateralPool = getCollateralPool(marketInstance);\n            tokenInstance = ERC20(tokenAddresses[i]);\n\n            tokenInstance.approve(address(marketInstance), tokensToRedeem[i]);\n\n            if (traderLong[i]) {\n                // redeem n long tokens and 0 short tokens\n                marketCollateralPool.settleAndClose(\n                    address(marketInstance),\n                    tokensToRedeem[i],\n                    0\n                );\n            } else {\n                // redeem 0 long tokens and n short tokens\n                marketCollateralPool.settleAndClose(\n                    address(marketInstance),\n                    0,\n                    tokensToRedeem[i]\n                );\n            }\n        }\n        // Finally redeem collateral back to user.\n        ERC20 collateralToken = ERC20(marketInstance.COLLATERAL_TOKEN_ADDRESS());\n\n        // DSProxy balance. address(this) is the DSProxy contract address that will redeem the tokens.\n        uint dSProxyBalance = collateralToken.balanceOf(address(this));\n\n        // Move all redeemed tokens from DSProxy back to users wallet. msg.sender is the owner of the DSProxy.\n        collateralToken.transfer(msg.sender, dSProxyBalance);\n\n        emit BatchTokensRedeemed(\n            tokenAddresses[0],\n            marketAddresses[0],\n            tokensToRedeem[0],\n            traderLong[0]\n        );\n    }\n\n    /////////////////////////////////////\n    //// ORACLE PRIVILEGED FUNCTIONS ////\n    /////////////////////////////////////\n\n    // Settles old contract and deploys the new contract\n    function dailySettlement(\n        uint lookbackIndexValue,\n        uint currentIndexValue,\n        bytes32[3] memory marketAndsTokenNames,\n        uint newMarketExpiration\n    ) public onlyHoneyLemonOracle {\n        require(currentIndexValue != 0, \"Current MRI value cant be zero\");\n\n        // 1. Settle the past contract, if there is a price and contract exists.\n        MarketContractMPX expiringMarketContract = getExpiringMarketContract();\n        if (address(expiringMarketContract) != address(0x0)) {\n            settleMarketContract(lookbackIndexValue, address(expiringMarketContract));\n            //TODO: emit an event here\n        }\n\n        // 2. Deploy daily contract for the next 28 days.\n        deployContract(currentIndexValue, marketAndsTokenNames, newMarketExpiration);\n\n        // 3. Store the latest MRI value\n        latestMri = currentIndexValue;\n    }\n\n    ////////////////////////////////////////////////\n    //// 0X-MINTER-BRIDGE PRIVILEGED FUNCTIONS /////\n    ////////////////////////////////////////////////\n\n    function mintPositionTokens(\n        uint qtyToMint,\n        address longTokenRecipient,\n        address shortTokenRecipient\n    ) public onlyMinterBridge {\n        uint collateralNeeded = calculateRequiredCollateral(qtyToMint);\n\n        // Create instance of the latest market contract for today\n        MarketContractMPX latestMarketContract = getLatestMarketContract();\n        // Create instance of the market collateral pool\n        MarketCollateralPool marketCollateralPool = getLatestMarketCollateralPool();\n\n        // Long token sent to the investor\n        ERC20 longToken = ERC20(latestMarketContract.LONG_POSITION_TOKEN());\n        // Short token sent to the miner\n        ERC20 shortToken = ERC20(latestMarketContract.SHORT_POSITION_TOKEN());\n        // Collateral token (imBTC)\n        ERC20 collateralToken = ERC20(COLLATERAL_TOKEN_ADDRESS);\n\n        // Move tokens from the MinterBridge to this proxy address\n        collateralToken.transferFrom(\n            MINTER_BRIDGE_ADDRESS,\n            address(this),\n            collateralNeeded\n        );\n\n        // Permission market contract to spent collateral token\n        collateralToken.approve(address(marketCollateralPool), collateralNeeded);\n\n        // Generate long and short tokens to sent to invester and miner\n        marketCollateralPool.mintPositionTokens(\n            address(latestMarketContract),\n            qtyToMint,\n            false\n        );\n\n        // Send the tokens. If the user has a DSProxy wallet then send it to there, else\n        // send it to their normal wallet address.\n        longToken.transfer(getUserAddressOrDSProxy(longTokenRecipient), qtyToMint);\n        shortToken.transfer(getUserAddressOrDSProxy(shortTokenRecipient), qtyToMint);\n\n        emit PositionTokensMinted(\n            addressToMarketId[address(latestMarketContract)], // MarketID\n            latestMarketContract.CONTRACT_NAME(),\n            longTokenRecipient,\n            getUserAddressOrDSProxy(longTokenRecipient),\n            shortTokenRecipient,\n            getUserAddressOrDSProxy(shortTokenRecipient),\n            qtyToMint,\n            address(latestMarketContract),\n            address(longToken),\n            address(shortToken),\n            getTime()\n        );\n    }\n\n    ////////////////////////////////////\n    //// OWNER (DEPLOYER) FUNCTIONS ////\n    ////////////////////////////////////\n\n    function setOracleAddress(address _honeyLemonOracleAddress) public onlyOwner {\n        HONEY_LEMON_ORACLE_ADDRESS = _honeyLemonOracleAddress;\n    }\n\n    function setMinterBridgeAddress(address _minterBridgeAddress) public onlyOwner {\n        MINTER_BRIDGE_ADDRESS = _minterBridgeAddress;\n    }\n\n    function setMarketContractSpecs(uint[7] memory _params) public onlyOwner {\n        marketContractSpecs = _params;\n    }\n\n    ////////////////////////////\n    //// INTERNAL FUNCTIONS ////\n    ////////////////////////////\n\n    // function called daily to settle the current expiring 28 day contract.\n    function settleMarketContract(uint mri, address marketContractAddress)\n        public\n        onlyHoneyLemonOracle\n    {\n        require(mri != 0, \"The mri loockback value can not be 0\");\n        require(marketContractAddress != address(0x0));\n\n        MarketContractMPX marketContract = MarketContractMPX(marketContractAddress);\n        marketContract.oracleCallBack(mri);\n\n        // Store the most recent mri value to use in fillable amount\n        latestMri = mri;\n    }\n\n    // Deploys the current day Market contract. `indexValue` is used to initialize collateral\n    // requirement in its constructor. Stores the new contract address, block it was deployed in,\n    // as well as the value of the index well need easy access to the latest values of contract\n    // address and index. collateral requirement = indexValue * 28 * overcollateralization_factor\n    // returns the address of the new contract\n    function deployContract(\n        uint currentMRI,\n        bytes32[3] memory marketAndsTokenNames,\n        uint expiration\n    ) public onlyOwner returns (address) {\n        address contractAddress = marketContractFactoryMPX.deployMarketContractMPX(\n            marketAndsTokenNames,\n            COLLATERAL_TOKEN_ADDRESS,\n            generateContractSpecs(currentMRI, expiration),\n            ORACLE_URL,\n            ORACLE_STATISTIC\n        );\n\n        // Add new market to storage\n        uint index = marketContracts.push(contractAddress) - 1;\n        addressToMarketId[contractAddress] = index;\n        return (contractAddress);\n        //TODO: emit event\n    }\n\n    function generateContractSpecs(uint currentMRI, uint expiration)\n        public\n        returns (uint[7] memory)\n    {\n        uint[7] memory dailySpecs = marketContractSpecs;\n        // capPrice. div by 1e8 for correct scaling\n        dailySpecs[1] =\n            (CONTRACT_DURATION_DAYS * currentMRI * (CONTRACT_COLLATERAL_RATIO)) /\n            1e8;\n        // expirationTimeStamp. Fed in directly from oracle to ensure timing is exact, irrespective of block mining times\n        dailySpecs[6] = expiration;\n        return dailySpecs;\n    }\n}\n",
  "sourcePath": "/Users/andreianisimov/projects/honeylemon/dapp.honeylemon.market/contracts/honeylemon/MarketContractProxy.sol",
  "compiler": {
    "name": "solc",
    "version": "0.5.2+commit.1df8f40c.Emscripten.clang"
  },
  "schemaVersion": "3.0.23",
  "updatedAt": "2020-05-11T20:58:41.382Z",
  "networkType": "ethereum",
  "devdoc": {
    "methods": {
      "isOwner()": {
        "return": "true if `msg.sender` is the owner of the contract."
      },
      "owner()": {
        "return": "the address of the owner."
      },
      "renounceOwnership()": {
        "details": "Allows the current owner to relinquish control of the contract. It will not be possible to call the functions with the `onlyOwner` modifier anymore."
      },
      "transferOwnership(address)": {
        "details": "Allows the current owner to transfer control of the contract to a newOwner.",
        "params": {
          "newOwner": "The address to transfer ownership to."
        }
      }
    }
  },
  "userdoc": {
    "methods": {
      "createDSProxyWallet()": {
        "notice": "//////////////////////// / DSPROXY FUNCTIONS //// ////////////////////////"
      },
      "dailySettlement(uint256,uint256,bytes32[3],uint256)": {
        "notice": "////////////////////////////////// / ORACLE PRIVILEGED FUNCTIONS //// //////////////////////////////////"
      },
      "getFillableAmounts(address[])": {
        "notice": "/////////////////////// / PUBLIC FUNCTIONS //// ///////////////////////"
      },
      "mintPositionTokens(uint256,address,address)": {
        "notice": "///////////////////////////////////////////// / 0X-MINTER-BRIDGE PRIVILEGED FUNCTIONS ///// /////////////////////////////////////////////"
      },
      "renounceOwnership()": {
        "notice": "Renouncing ownership will leave the contract without an owner, thereby removing any functionality that is only available to the owner."
      },
      "setOracleAddress(address)": {
        "notice": "///////////////////////////////// / OWNER (DEPLOYER) FUNCTIONS //// /////////////////////////////////"
      },
      "settleMarketContract(uint256,address)": {
        "notice": "///////////////////////// / INTERNAL FUNCTIONS //// /////////////////////////"
      }
    }
  }
}