{
  "contractName": "MarketContract",
  "abi": [
    {
      "constant": true,
      "inputs": [],
      "name": "lastPrice",
      "outputs": [
        {
          "name": "",
          "type": "uint256"
        }
      ],
      "payable": false,
      "stateMutability": "view",
      "type": "function"
    },
    {
      "constant": true,
      "inputs": [],
      "name": "LONG_POSITION_TOKEN",
      "outputs": [
        {
          "name": "",
          "type": "address"
        }
      ],
      "payable": false,
      "stateMutability": "view",
      "type": "function"
    },
    {
      "constant": true,
      "inputs": [],
      "name": "PRICE_DECIMAL_PLACES",
      "outputs": [
        {
          "name": "",
          "type": "uint256"
        }
      ],
      "payable": false,
      "stateMutability": "view",
      "type": "function"
    },
    {
      "constant": true,
      "inputs": [],
      "name": "COLLATERAL_TOKEN_ADDRESS",
      "outputs": [
        {
          "name": "",
          "type": "address"
        }
      ],
      "payable": false,
      "stateMutability": "view",
      "type": "function"
    },
    {
      "constant": true,
      "inputs": [],
      "name": "isSettled",
      "outputs": [
        {
          "name": "",
          "type": "bool"
        }
      ],
      "payable": false,
      "stateMutability": "view",
      "type": "function"
    },
    {
      "constant": true,
      "inputs": [],
      "name": "SETTLEMENT_DELAY",
      "outputs": [
        {
          "name": "",
          "type": "uint256"
        }
      ],
      "payable": false,
      "stateMutability": "view",
      "type": "function"
    },
    {
      "constant": true,
      "inputs": [],
      "name": "SHORT_POSITION_TOKEN",
      "outputs": [
        {
          "name": "",
          "type": "address"
        }
      ],
      "payable": false,
      "stateMutability": "view",
      "type": "function"
    },
    {
      "constant": true,
      "inputs": [],
      "name": "COLLATERAL_TOKEN_FEE_PER_UNIT",
      "outputs": [
        {
          "name": "",
          "type": "uint256"
        }
      ],
      "payable": false,
      "stateMutability": "view",
      "type": "function"
    },
    {
      "constant": true,
      "inputs": [],
      "name": "CONTRACT_NAME",
      "outputs": [
        {
          "name": "",
          "type": "string"
        }
      ],
      "payable": false,
      "stateMutability": "view",
      "type": "function"
    },
    {
      "constant": false,
      "inputs": [],
      "name": "renounceOwnership",
      "outputs": [],
      "payable": false,
      "stateMutability": "nonpayable",
      "type": "function"
    },
    {
      "constant": true,
      "inputs": [],
      "name": "settlementTimeStamp",
      "outputs": [
        {
          "name": "",
          "type": "uint256"
        }
      ],
      "payable": false,
      "stateMutability": "view",
      "type": "function"
    },
    {
      "constant": true,
      "inputs": [],
      "name": "owner",
      "outputs": [
        {
          "name": "",
          "type": "address"
        }
      ],
      "payable": false,
      "stateMutability": "view",
      "type": "function"
    },
    {
      "constant": true,
      "inputs": [],
      "name": "isOwner",
      "outputs": [
        {
          "name": "",
          "type": "bool"
        }
      ],
      "payable": false,
      "stateMutability": "view",
      "type": "function"
    },
    {
      "constant": true,
      "inputs": [],
      "name": "PRICE_CAP",
      "outputs": [
        {
          "name": "",
          "type": "uint256"
        }
      ],
      "payable": false,
      "stateMutability": "view",
      "type": "function"
    },
    {
      "constant": true,
      "inputs": [],
      "name": "EXPIRATION",
      "outputs": [
        {
          "name": "",
          "type": "uint256"
        }
      ],
      "payable": false,
      "stateMutability": "view",
      "type": "function"
    },
    {
      "constant": true,
      "inputs": [],
      "name": "PRICE_FLOOR",
      "outputs": [
        {
          "name": "",
          "type": "uint256"
        }
      ],
      "payable": false,
      "stateMutability": "view",
      "type": "function"
    },
    {
      "constant": true,
      "inputs": [],
      "name": "QTY_MULTIPLIER",
      "outputs": [
        {
          "name": "",
          "type": "uint256"
        }
      ],
      "payable": false,
      "stateMutability": "view",
      "type": "function"
    },
    {
      "constant": true,
      "inputs": [],
      "name": "MKT_TOKEN_FEE_PER_UNIT",
      "outputs": [
        {
          "name": "",
          "type": "uint256"
        }
      ],
      "payable": false,
      "stateMutability": "view",
      "type": "function"
    },
    {
      "constant": true,
      "inputs": [],
      "name": "COLLATERAL_PER_UNIT",
      "outputs": [
        {
          "name": "",
          "type": "uint256"
        }
      ],
      "payable": false,
      "stateMutability": "view",
      "type": "function"
    },
    {
      "constant": true,
      "inputs": [],
      "name": "COLLATERAL_POOL_ADDRESS",
      "outputs": [
        {
          "name": "",
          "type": "address"
        }
      ],
      "payable": false,
      "stateMutability": "view",
      "type": "function"
    },
    {
      "constant": false,
      "inputs": [
        {
          "name": "newOwner",
          "type": "address"
        }
      ],
      "name": "transferOwnership",
      "outputs": [],
      "payable": false,
      "stateMutability": "nonpayable",
      "type": "function"
    },
    {
      "constant": true,
      "inputs": [],
      "name": "settlementPrice",
      "outputs": [
        {
          "name": "",
          "type": "uint256"
        }
      ],
      "payable": false,
      "stateMutability": "view",
      "type": "function"
    },
    {
      "inputs": [
        {
          "name": "contractNames",
          "type": "bytes32[3]"
        },
        {
          "name": "baseAddresses",
          "type": "address[3]"
        },
        {
          "name": "contractSpecs",
          "type": "uint256[7]"
        }
      ],
      "payable": false,
      "stateMutability": "nonpayable",
      "type": "constructor"
    },
    {
      "anonymous": false,
      "inputs": [
        {
          "indexed": false,
          "name": "price",
          "type": "uint256"
        }
      ],
      "name": "UpdatedLastPrice",
      "type": "event"
    },
    {
      "anonymous": false,
      "inputs": [
        {
          "indexed": false,
          "name": "settlePrice",
          "type": "uint256"
        }
      ],
      "name": "ContractSettled",
      "type": "event"
    },
    {
      "anonymous": false,
      "inputs": [
        {
          "indexed": true,
          "name": "previousOwner",
          "type": "address"
        },
        {
          "indexed": true,
          "name": "newOwner",
          "type": "address"
        }
      ],
      "name": "OwnershipTransferred",
      "type": "event"
    },
    {
      "constant": false,
      "inputs": [
        {
          "name": "qtyToMint",
          "type": "uint256"
        },
        {
          "name": "minter",
          "type": "address"
        }
      ],
      "name": "mintPositionTokens",
      "outputs": [],
      "payable": false,
      "stateMutability": "nonpayable",
      "type": "function"
    },
    {
      "constant": false,
      "inputs": [
        {
          "name": "qtyToRedeem",
          "type": "uint256"
        },
        {
          "name": "redeemer",
          "type": "address"
        }
      ],
      "name": "redeemLongToken",
      "outputs": [],
      "payable": false,
      "stateMutability": "nonpayable",
      "type": "function"
    },
    {
      "constant": false,
      "inputs": [
        {
          "name": "qtyToRedeem",
          "type": "uint256"
        },
        {
          "name": "redeemer",
          "type": "address"
        }
      ],
      "name": "redeemShortToken",
      "outputs": [],
      "payable": false,
      "stateMutability": "nonpayable",
      "type": "function"
    },
    {
      "constant": true,
      "inputs": [],
      "name": "isPostSettlementDelay",
      "outputs": [
        {
          "name": "",
          "type": "bool"
        }
      ],
      "payable": false,
      "stateMutability": "view",
      "type": "function"
    }
  ],
  "bytecode": "0x608060405262015180600c556012805460ff191690553480156200002257600080fd5b506040516101a0806200221e83398101806040526101a08110156200004657600080fd5b5060008054600160a060020a0319163317808255604051606084019260c0850192600160a060020a031691600080516020620021db833981519152908290a3805160058190556020820151600481905511620000ee576040517f08c379a000000000000000000000000000000000000000000000000000000000815260040180806020018281038252602a815260200180620021b1602a913960400191505060405180910390fd5b6040810151600655606081015160075560c0810151600b81905542106200017657604080517f08c379a000000000000000000000000000000000000000000000000000000000815260206004820181905260248201527f45585049524154494f4e206d75737420626520696e2074686520667574757265604482015290519081900360640190fd5b6007541515620001e757604080517f08c379a000000000000000000000000000000000000000000000000000000000815260206004820152601a60248201527f5154595f4d554c5449504c4945522063616e6e6f742062652030000000000000604482015290519081900360640190fd5b602082015160028054600160a060020a03928316600160a060020a03199182161790915560408401516003805491909316911617905560055460045460075462000241929190640100000000620008f3620004c382021704565b6008556005546004805460075462000270939285905b602002015164010000000062000910620004f682021704565b600955600580546004546007546200028a93859062000257565b600a55620002ae8360005b6020020151640100000000620009556200055e82021704565b8051620002c49160019160209091019062000828565b506000620002d484600162000295565b6000620002e0620008ad565b8080602001806020018460ff1660ff16815260200183810383526023815260200180620021fb60239139604001838103825285818151815260200191508051906020019080838360005b83811015620003445781810151838201526020016200032a565b50505050905090810190601f168015620003725780820380516001836020036101000a031916815260200191505b50945050505050604051809103906000f08015801562000396573d6000803e3d6000fd5b5090506000620003a885600262000295565b6001620003b4620008ad565b8080602001806020018460ff1660ff168152602001838103835260248152602001806200218d60249139604001838103825285818151815260200191508051906020019080838360005b8381101562000418578181015183820152602001620003fe565b50505050905090810190601f168015620004465780820380516001836020036101000a031916815260200191505b50945050505050604051809103906000f0801580156200046a573d6000803e3d6000fd5b50600d8054600160a060020a03808616600160a060020a031992831617909255600e8054928416929091169190911790559050620004b88460006020020151640100000000620005f6810204565b5050505050620008db565b6000620004ee620004de84866401000000006200062c810204565b83640100000000620006a9810204565b949350505050565b600080600262000510868864010000000062000741810204565b8115156200051a57fe5b04905061271062000549620005398387640100000000620006a9810204565b85640100000000620006a9810204565b8115156200055357fe5b049695505050505050565b60408051602080825281830190925260609182919060208201818038833901905050905060005b6020811015620005ef578381602081106200059c57fe5b1a7f0100000000000000000000000000000000000000000000000000000000000000028282815181101515620005ce57fe5b906020010190600160f860020a031916908160001a90535060010162000585565b5092915050565b62000609640100000000620007b6810204565b15156200061557600080fd5b6200062981640100000000620007c8810204565b50565b6000828211156200069e57604080517f08c379a000000000000000000000000000000000000000000000000000000000815260206004820152601d60248201527f4d6174684c69623a207375627472616374696f6e206f766572666c6f77000000604482015290519081900360640190fd5b508082035b92915050565b6000821515620006bc57506000620006a3565b828202828482811515620006cc57fe5b04146200073a57604080517f08c379a000000000000000000000000000000000000000000000000000000000815260206004820181905260248201527f4d6174684c69623a206d756c7469706c69636174696f6e206f766572666c6f77604482015290519081900360640190fd5b9392505050565b6000828201838110156200073a57604080517f08c379a000000000000000000000000000000000000000000000000000000000815260206004820152601a60248201527f4d6174684c69623a206164646974696f6e206f766572666c6f77000000000000604482015290519081900360640190fd5b600054600160a060020a031633145b90565b600160a060020a0381161515620007de57600080fd5b60008054604051600160a060020a0380851693921691600080516020620021db83398151915291a360008054600160a060020a031916600160a060020a0392909216919091179055565b828054600181600116156101000203166002900490600052602060002090601f016020900481019282601f106200086b57805160ff19168380011785556200089b565b828001600101855582156200089b579182015b828111156200089b5782518255916020019190600101906200087e565b50620008a9929150620008be565b5090565b604051610d10806200147d83390190565b620007c591905b80821115620008a95760008155600101620008c5565b610b9280620008eb6000396000f3fe608060405234801561001057600080fd5b50600436106101ab576000357c0100000000000000000000000000000000000000000000000000000000900480638f32d59b116100fb578063ca361d67116100b4578063e158e02d1161008e578063e158e02d14610385578063eaafb4fa1461038d578063f2fde38b14610395578063f348e8b2146103bb576101ab565b8063ca361d6714610349578063cabd583414610351578063db3fa7711461037d576101ab565b80638f32d59b146102f5578063b5471dee146102fd578063bb4b573414610305578063bd220dae1461030d578063c25c444414610315578063c32b1dfa14610341576101ab565b80635b3f1e3f116101685780636d359467116101425780636d359467146102af578063715018a6146102dd57806386aa7cdc146102e55780638da5cb5b146102ed576101ab565b80635b3f1e3f146102225780635c7c70591461022a578063614d08f814610232576101ab565b8063053f14da146101b057806322d1c35e146101ca5780632fed1b00146101ee578063323bb775146101f65780633270bb5b146101fe57806357d1ba251461021a575b600080fd5b6101b86103c3565b60408051918252519081900360200190f35b6101d26103c9565b60408051600160a060020a039092168252519081900360200190f35b6101b86103d8565b6101d26103de565b6102066103ed565b604080519115158252519081900360200190f35b6101b86103f6565b6101d26103fc565b6101b861040b565b61023a610411565b6040805160208082528351818301528351919283929083019185019080838360005b8381101561027457818101518382015260200161025c565b50505050905090810190601f1680156102a15780820380516001836020036101000a031916815260200191505b509250505060405180910390f35b6102db600480360360408110156102c557600080fd5b5080359060200135600160a060020a031661049e565b005b6102db610574565b6101b86105de565b6101d26105e4565b6102066105f3565b6101b8610604565b6101b861060a565b610206610610565b6102db6004803603604081101561032b57600080fd5b5080359060200135600160a060020a0316610630565b6101b86106ea565b6101b86106f0565b6102db6004803603604081101561036757600080fd5b5080359060200135600160a060020a03166106f6565b6101b8610836565b6101b861083c565b6101d2610842565b6102db600480360360208110156103ab57600080fd5b5035600160a060020a0316610851565b6101b8610870565b600f5481565b600d54600160a060020a031681565b60065481565b600254600160a060020a031681565b60125460ff1681565b600c5481565b600e54600160a060020a031681565b60095481565b60018054604080516020600284861615610100026000190190941693909304601f810184900484028201840190925281815292918301828280156104965780601f1061046b57610100808354040283529160200191610496565b820191906000526020600020905b81548152906001019060200180831161047957829003601f168201915b505050505081565b600354600160a060020a031633146104ea5760405160e560020a62461bcd028152600401808060200182810382526026815260200180610b416026913960400191505060405180910390fd5b600e54604080517fc3501ff600000000000000000000000000000000000000000000000000000000815260048101859052600160a060020a0384811660248301529151919092169163c3501ff691604480830192600092919082900301818387803b15801561055857600080fd5b505af115801561056c573d6000803e3d6000fd5b505050505050565b61057c6105f3565b151561058757600080fd5b60008054604051600160a060020a03909116907f8be0079c531659141344cd1fd0a4f28419497f9722a3daafe3b4186f6b6457e0908390a36000805473ffffffffffffffffffffffffffffffffffffffff19169055565b60115481565b600054600160a060020a031690565b600054600160a060020a0316331490565b60045481565b600b5481565b60125460009060ff16801561062b5750600c54601154014210155b905090565b600354600160a060020a0316331461067c5760405160e560020a62461bcd028152600401808060200182810382526026815260200180610b416026913960400191505060405180910390fd5b600d54604080517fc3501ff600000000000000000000000000000000000000000000000000000000815260048101859052600160a060020a0384811660248301529151919092169163c3501ff691604480830192600092919082900301818387803b15801561055857600080fd5b60055481565b60075481565b600354600160a060020a031633146107425760405160e560020a62461bcd028152600401808060200182810382526026815260200180610b416026913960400191505060405180910390fd5b600d54604080517f7251cd0200000000000000000000000000000000000000000000000000000000815260048101859052600160a060020a03848116602483015291519190921691637251cd0291604480830192600092919082900301818387803b1580156107b057600080fd5b505af11580156107c4573d6000803e3d6000fd5b5050600e54604080517f7251cd0200000000000000000000000000000000000000000000000000000000815260048101879052600160a060020a0386811660248301529151919092169350637251cd029250604480830192600092919082900301818387803b15801561055857600080fd5b600a5481565b60085481565b600354600160a060020a031681565b6108596105f3565b151561086457600080fd5b61086d81610876565b50565b60105481565b600160a060020a038116151561088b57600080fd5b60008054604051600160a060020a03808516939216917f8be0079c531659141344cd1fd0a4f28419497f9722a3daafe3b4186f6b6457e091a36000805473ffffffffffffffffffffffffffffffffffffffff1916600160a060020a0392909216919091179055565b60006109086109028486610a01565b83610a66565b949350505050565b600080600261091f8688610ae3565b81151561092857fe5b04905061271061094161093b8387610a66565b85610a66565b81151561094a57fe5b049695505050505050565b60408051602080825281830190925260609182919060208201818038833901905050905060005b60208110156109fa5783816020811061099157fe5b1a7f01000000000000000000000000000000000000000000000000000000000000000282828151811015156109c257fe5b9060200101907effffffffffffffffffffffffffffffffffffffffffffffffffffffffffffff1916908160001a90535060010161097c565b5092915050565b600082821115610a5b576040805160e560020a62461bcd02815260206004820152601d60248201527f4d6174684c69623a207375627472616374696f6e206f766572666c6f77000000604482015290519081900360640190fd5b508082035b92915050565b6000821515610a7757506000610a60565b828202828482811515610a8657fe5b0414610adc576040805160e560020a62461bcd02815260206004820181905260248201527f4d6174684c69623a206d756c7469706c69636174696f6e206f766572666c6f77604482015290519081900360640190fd5b9392505050565b600082820183811015610adc576040805160e560020a62461bcd02815260206004820152601a60248201527f4d6174684c69623a206164646974696f6e206f766572666c6f77000000000000604482015290519081900360640190fdfe4f6e6c792063616c6c61626c652066726f6d2074686520636f6c6c61746572616c20706f6f6ca165627a7a72305820d6311f9ece141622ba699bc221888de7894d95d61c76c6639309614738d11ed5002960806040523480156200001157600080fd5b5060405162000d1038038062000d10833981018060405260608110156200003757600080fd5b8101908080516401000000008111156200005057600080fd5b820160208101848111156200006457600080fd5b81516401000000008111828201871017156200007f57600080fd5b505092919060200180516401000000008111156200009c57600080fd5b82016020810184811115620000b057600080fd5b8151640100000000811182820187101715620000cb57600080fd5b505060209091015160038054600160a060020a031916331790819055604051929450909250600160a060020a0316906000907f8be0079c531659141344cd1fd0a4f28419497f9722a3daafe3b4186f6b6457e0908290a38251620001379060049060208601906200018f565b5081516200014d9060059060208501906200018f565b506006805460ff1916905560ff811660018111156200016857fe5b6006805461ff0019166101008360018111156200018157fe5b021790555050505062000234565b828054600181600116156101000203166002900490600052602060002090601f016020900481019282601f10620001d257805160ff191683800117855562000202565b8280016001018555821562000202579182015b8281111562000202578251825591602001919060010190620001e5565b506200021092915062000214565b5090565b6200023191905b808211156200021057600081556001016200021b565b90565b610acc80620002446000396000f3fe608060405234801561001057600080fd5b5060043610610133576000357c0100000000000000000000000000000000000000000000000000000000900480638da5cb5b116100bf578063a9059cbb1161008e578063a9059cbb1461034b578063b003b12714610377578063c3501ff6146103a3578063dd62ed3e146103cf578063f2fde38b146103fd57610133565b80638da5cb5b146102eb5780638f32d59b1461030f57806395d89b4114610317578063a457c2d71461031f57610133565b8063313ce56711610106578063313ce56714610245578063395093511461026357806370a082311461028f578063715018a6146102b55780637251cd02146102bf57610133565b806306fdde0314610138578063095ea7b3146101b557806318160ddd146101f557806323b872dd1461020f575b600080fd5b610140610423565b6040805160208082528351818301528351919283929083019185019080838360005b8381101561017a578181015183820152602001610162565b50505050905090810190601f1680156101a75780820380516001836020036101000a031916815260200191505b509250505060405180910390f35b6101e1600480360360408110156101cb57600080fd5b50600160a060020a0381351690602001356104b1565b604080519115158252519081900360200190f35b6101fd6104c7565b60408051918252519081900360200190f35b6101e16004803603606081101561022557600080fd5b50600160a060020a038135811691602081013590911690604001356104cd565b61024d610524565b6040805160ff9092168252519081900360200190f35b6101e16004803603604081101561027957600080fd5b50600160a060020a03813516906020013561052d565b6101fd600480360360208110156102a557600080fd5b5035600160a060020a0316610569565b6102bd610584565b005b6102bd600480360360408110156102d557600080fd5b5080359060200135600160a060020a03166105ee565b6102f361060f565b60408051600160a060020a039092168252519081900360200190f35b6101e161061e565b61014061062f565b6101e16004803603604081101561033557600080fd5b50600160a060020a03813516906020013561068a565b6101e16004803603604081101561036157600080fd5b50600160a060020a0381351690602001356106c6565b61037f6106d3565b6040518082600181111561038f57fe5b60ff16815260200191505060405180910390f35b6102bd600480360360408110156103b957600080fd5b5080359060200135600160a060020a03166106e1565b6101fd600480360360408110156103e557600080fd5b50600160a060020a03813581169160200135166106fe565b6102bd6004803603602081101561041357600080fd5b5035600160a060020a0316610729565b6004805460408051602060026001851615610100026000190190941693909304601f810184900484028201840190925281815292918301828280156104a95780601f1061047e576101008083540402835291602001916104a9565b820191906000526020600020905b81548152906001019060200180831161048c57829003601f168201915b505050505081565b60006104be338484610748565b50600192915050565b60025490565b60006104da8484846107d4565b600160a060020a03841660009081526001602090815260408083203380855292529091205461051a918691610515908663ffffffff6108a116565b610748565b5060019392505050565b60065460ff1681565b336000818152600160209081526040808320600160a060020a038716845290915281205490916104be918590610515908663ffffffff6108b616565b600160a060020a031660009081526020819052604090205490565b61058c61061e565b151561059757600080fd5b600354604051600091600160a060020a0316907f8be0079c531659141344cd1fd0a4f28419497f9722a3daafe3b4186f6b6457e0908390a36003805473ffffffffffffffffffffffffffffffffffffffff19169055565b6105f661061e565b151561060157600080fd5b61060b81836108cf565b5050565b600354600160a060020a031690565b600354600160a060020a0316331490565b6005805460408051602060026001851615610100026000190190941693909304601f810184900484028201840190925281815292918301828280156104a95780601f1061047e576101008083540402835291602001916104a9565b336000818152600160209081526040808320600160a060020a038716845290915281205490916104be918590610515908663ffffffff6108a116565b60006104be3384846107d4565b600654610100900460ff1681565b6106e961061e565b15156106f457600080fd5b61060b8183610979565b600160a060020a03918216600090815260016020908152604080832093909416825291909152205490565b61073161061e565b151561073c57600080fd5b61074581610a22565b50565b600160a060020a038216151561075d57600080fd5b600160a060020a038316151561077257600080fd5b600160a060020a03808416600081815260016020908152604080832094871680845294825291829020859055815185815291517f8c5be1e5ebec7d5bd14f71427d1e84f3dd0314c0f7b2291e5b200ac8c7c3b9259281900390910190a3505050565b600160a060020a03821615156107e957600080fd5b600160a060020a038316600090815260208190526040902054610812908263ffffffff6108a116565b600160a060020a038085166000908152602081905260408082209390935590841681522054610847908263ffffffff6108b616565b600160a060020a038084166000818152602081815260409182902094909455805185815290519193928716927fddf252ad1be2c89b69c2b068fc378daa952ba7f163c4a11628f55a4df523b3ef92918290030190a3505050565b6000828211156108b057600080fd5b50900390565b6000828201838110156108c857600080fd5b9392505050565b600160a060020a03821615156108e457600080fd5b6002546108f7908263ffffffff6108b616565b600255600160a060020a038216600090815260208190526040902054610923908263ffffffff6108b616565b600160a060020a0383166000818152602081815260408083209490945583518581529351929391927fddf252ad1be2c89b69c2b068fc378daa952ba7f163c4a11628f55a4df523b3ef9281900390910190a35050565b600160a060020a038216151561098e57600080fd5b6002546109a1908263ffffffff6108a116565b600255600160a060020a0382166000908152602081905260409020546109cd908263ffffffff6108a116565b600160a060020a038316600081815260208181526040808320949094558351858152935191937fddf252ad1be2c89b69c2b068fc378daa952ba7f163c4a11628f55a4df523b3ef929081900390910190a35050565b600160a060020a0381161515610a3757600080fd5b600354604051600160a060020a038084169216907f8be0079c531659141344cd1fd0a4f28419497f9722a3daafe3b4186f6b6457e090600090a36003805473ffffffffffffffffffffffffffffffffffffffff1916600160a060020a039290921691909117905556fea165627a7a72305820e84632a21e1d3c1dfeda16193bfa4e314be3c997609c800669b52f32d961d3e800294d41524b45542050726f746f636f6c2053686f727420506f736974696f6e20546f6b656e50524943455f434150206d7573742062652067726561746572207468616e2050524943455f464c4f4f528be0079c531659141344cd1fd0a4f28419497f9722a3daafe3b4186f6b6457e04d41524b45542050726f746f636f6c204c6f6e6720506f736974696f6e20546f6b656e",
  "source": "/*\n    Copyright 2017-2019 Phillip A. Elsasser\n\n    Licensed under the Apache License, Version 2.0 (the \"License\");\n    you may not use this file except in compliance with the License.\n    You may obtain a copy of the License at\n\n    http://www.apache.org/licenses/LICENSE-2.0\n\n    Unless required by applicable law or agreed to in writing, software\n    distributed under the License is distributed on an \"AS IS\" BASIS,\n    WITHOUT WARRANTIES OR CONDITIONS OF ANY KIND, either express or implied.\n    See the License for the specific language governing permissions and\n    limitations under the License.\n*/\n\npragma solidity 0.5.2;\n\nimport \"openzeppelin-solidity/contracts/ownership/Ownable.sol\";\n\nimport \"../libraries/MathLib.sol\";\nimport \"../libraries/StringLib.sol\";\nimport \"./tokens/PositionToken.sol\";\n\n\n/// @title MarketContract base contract implement all needed functionality for trading.\n/// @notice this is the abstract base contract that all contracts should inherit from to\n/// implement different oracle solutions.\n/// @author Phil Elsasser <phil@marketprotocol.io>\ncontract MarketContract is Ownable {\n    using StringLib for *;\n\n    string public CONTRACT_NAME;\n    address public COLLATERAL_TOKEN_ADDRESS;\n    address public COLLATERAL_POOL_ADDRESS;\n    uint256 public PRICE_CAP;\n    uint256 public PRICE_FLOOR;\n    uint256 public PRICE_DECIMAL_PLACES; // how to convert the pricing from decimal format (if valid) to integer\n    uint256 public QTY_MULTIPLIER; // multiplier corresponding to the value of 1 increment in price to token base units\n    uint256 public COLLATERAL_PER_UNIT; // required collateral amount for the full range of outcome tokens\n    uint256 public COLLATERAL_TOKEN_FEE_PER_UNIT;\n    uint256 public MKT_TOKEN_FEE_PER_UNIT;\n    uint256 public EXPIRATION;\n    uint256 public SETTLEMENT_DELAY = 1 days;\n    address public LONG_POSITION_TOKEN;\n    address public SHORT_POSITION_TOKEN;\n\n    // state variables\n    uint256 public lastPrice;\n    uint256 public settlementPrice;\n    uint256 public settlementTimeStamp;\n    bool public isSettled = false;\n\n    // events\n    event UpdatedLastPrice(uint256 price);\n    event ContractSettled(uint256 settlePrice);\n\n    /// @param contractNames bytes32 array of names\n    ///     contractName            name of the market contract\n    ///     longTokenSymbol         symbol for the long token\n    ///     shortTokenSymbol        symbol for the short token\n    /// @param baseAddresses array of 2 addresses needed for our contract including:\n    ///     ownerAddress                    address of the owner of these contracts.\n    ///     collateralTokenAddress          address of the ERC20 token that will be used for collateral and pricing\n    ///     collateralPoolAddress           address of our collateral pool contract\n    /// @param contractSpecs array of unsigned integers including:\n    ///     floorPrice          minimum tradeable price of this contract, contract enters settlement if breached\n    ///     capPrice            maximum tradeable price of this contract, contract enters settlement if breached\n    ///     priceDecimalPlaces  number of decimal places to convert our queried price from a floating point to\n    ///                         an integer\n    ///     qtyMultiplier       multiply traded qty by this value from base units of collateral token.\n    ///     feeInBasisPoints    fee amount in basis points (Collateral token denominated) for minting.\n    ///     mktFeeInBasisPoints fee amount in basis points (MKT denominated) for minting.\n    ///     expirationTimeStamp seconds from epoch that this contract expires and enters settlement\n    constructor(\n        bytes32[3] memory contractNames,\n        address[3] memory baseAddresses,\n        uint256[7] memory contractSpecs\n    ) public {\n        PRICE_FLOOR = contractSpecs[0];\n        PRICE_CAP = contractSpecs[1];\n        require(PRICE_CAP > PRICE_FLOOR, \"PRICE_CAP must be greater than PRICE_FLOOR\");\n\n        PRICE_DECIMAL_PLACES = contractSpecs[2];\n        QTY_MULTIPLIER = contractSpecs[3];\n        EXPIRATION = contractSpecs[6];\n        require(EXPIRATION > now, \"EXPIRATION must be in the future\");\n        require(QTY_MULTIPLIER != 0, \"QTY_MULTIPLIER cannot be 0\");\n\n        COLLATERAL_TOKEN_ADDRESS = baseAddresses[1];\n        COLLATERAL_POOL_ADDRESS = baseAddresses[2];\n        COLLATERAL_PER_UNIT = MathLib.calculateTotalCollateral(\n            PRICE_FLOOR,\n            PRICE_CAP,\n            QTY_MULTIPLIER\n        );\n        COLLATERAL_TOKEN_FEE_PER_UNIT = MathLib.calculateFeePerUnit(\n            PRICE_FLOOR,\n            PRICE_CAP,\n            QTY_MULTIPLIER,\n            contractSpecs[4]\n        );\n        MKT_TOKEN_FEE_PER_UNIT = MathLib.calculateFeePerUnit(\n            PRICE_FLOOR,\n            PRICE_CAP,\n            QTY_MULTIPLIER,\n            contractSpecs[5]\n        );\n\n        // create long and short tokens\n        CONTRACT_NAME = contractNames[0].bytes32ToString();\n        PositionToken longPosToken = new PositionToken(\n            \"MARKET Protocol Long Position Token\",\n            contractNames[1].bytes32ToString(),\n            uint8(PositionToken.MarketSide.Long)\n        );\n        PositionToken shortPosToken = new PositionToken(\n            \"MARKET Protocol Short Position Token\",\n            contractNames[2].bytes32ToString(),\n            uint8(PositionToken.MarketSide.Short)\n        );\n\n        LONG_POSITION_TOKEN = address(longPosToken);\n        SHORT_POSITION_TOKEN = address(shortPosToken);\n\n        transferOwnership(baseAddresses[0]);\n    }\n\n    /*\n    // EXTERNAL - onlyCollateralPool METHODS\n    */\n\n    /// @notice called only by our collateral pool to create long and short position tokens\n    /// @param qtyToMint    qty in base units of how many short and long tokens to mint\n    /// @param minter       address of minter to receive tokens\n    function mintPositionTokens(uint256 qtyToMint, address minter)\n        external\n        onlyCollateralPool\n    {\n        // mint and distribute short and long position tokens to our caller\n        PositionToken(LONG_POSITION_TOKEN).mintAndSendToken(qtyToMint, minter);\n        PositionToken(SHORT_POSITION_TOKEN).mintAndSendToken(qtyToMint, minter);\n    }\n\n    /// @notice called only by our collateral pool to redeem long position tokens\n    /// @param qtyToRedeem  qty in base units of how many tokens to redeem\n    /// @param redeemer     address of person redeeming tokens\n    function redeemLongToken(uint256 qtyToRedeem, address redeemer)\n        external\n        onlyCollateralPool\n    {\n        // mint and distribute short and long position tokens to our caller\n        PositionToken(LONG_POSITION_TOKEN).redeemToken(qtyToRedeem, redeemer);\n    }\n\n    /// @notice called only by our collateral pool to redeem short position tokens\n    /// @param qtyToRedeem  qty in base units of how many tokens to redeem\n    /// @param redeemer     address of person redeeming tokens\n    function redeemShortToken(uint256 qtyToRedeem, address redeemer)\n        external\n        onlyCollateralPool\n    {\n        // mint and distribute short and long position tokens to our caller\n        PositionToken(SHORT_POSITION_TOKEN).redeemToken(qtyToRedeem, redeemer);\n    }\n\n    /*\n    // Public METHODS\n    */\n\n    /// @notice checks to see if a contract is settled, and that the settlement delay has passed\n    function isPostSettlementDelay() public view returns (bool) {\n        return isSettled && (now >= (settlementTimeStamp + SETTLEMENT_DELAY));\n    }\n\n    /*\n    // PRIVATE METHODS\n    */\n\n    /// @dev checks our last query price to see if our contract should enter settlement due to it being past our\n    //  expiration date or outside of our tradeable ranges.\n    function checkSettlement() internal {\n        require(!isSettled, \"Contract is already settled\"); // already settled.\n\n        uint256 newSettlementPrice;\n        if (now > EXPIRATION) {\n            // note: miners can cheat this by small increments of time (minutes, not hours)\n            isSettled = true; // time based expiration has occurred.\n            newSettlementPrice = lastPrice;\n        } else if (lastPrice >= PRICE_CAP) {\n            // price is greater or equal to our cap, settle to CAP price\n            isSettled = true;\n            newSettlementPrice = PRICE_CAP;\n        } else if (lastPrice <= PRICE_FLOOR) {\n            // price is lesser or equal to our floor, settle to FLOOR price\n            isSettled = true;\n            newSettlementPrice = PRICE_FLOOR;\n        }\n\n        if (isSettled) {\n            settleContract(newSettlementPrice);\n        }\n    }\n\n    /// @dev records our final settlement price and fires needed events.\n    /// @param finalSettlementPrice final query price at time of settlement\n    function settleContract(uint256 finalSettlementPrice) internal {\n        settlementTimeStamp = now;\n        settlementPrice = finalSettlementPrice;\n        emit ContractSettled(finalSettlementPrice);\n    }\n\n    /// @notice only able to be called directly by our collateral pool which controls the position tokens\n    /// for this contract!\n    modifier onlyCollateralPool {\n        require(\n            msg.sender == COLLATERAL_POOL_ADDRESS,\n            \"Only callable from the collateral pool\"\n        );\n        _;\n    }\n}\n",
  "sourcePath": "/Users/andreianisimov/projects/honeylemon/dapp.honeylemon.market/packages/contracts/contracts/marketprotocol/MarketContract.sol",
  "compiler": {
    "name": "solc",
    "version": "0.5.2+commit.1df8f40c.Emscripten.clang"
  },
  "schemaVersion": "3.2.0",
  "updatedAt": "2020-07-17T15:20:56.327Z",
  "devdoc": {
    "author": "Phil Elsasser <phil@marketprotocol.io>",
    "methods": {
      "constructor": {
        "params": {
          "baseAddresses": "array of 2 addresses needed for our contract including:     ownerAddress                    address of the owner of these contracts.     collateralTokenAddress          address of the ERC20 token that will be used for collateral and pricing     collateralPoolAddress           address of our collateral pool contract",
          "contractNames": "bytes32 array of names     contractName            name of the market contract     longTokenSymbol         symbol for the long token     shortTokenSymbol        symbol for the short token",
          "contractSpecs": "array of unsigned integers including:     floorPrice          minimum tradeable price of this contract, contract enters settlement if breached     capPrice            maximum tradeable price of this contract, contract enters settlement if breached     priceDecimalPlaces  number of decimal places to convert our queried price from a floating point to                         an integer     qtyMultiplier       multiply traded qty by this value from base units of collateral token.     feeInBasisPoints    fee amount in basis points (Collateral token denominated) for minting.     mktFeeInBasisPoints fee amount in basis points (MKT denominated) for minting.     expirationTimeStamp seconds from epoch that this contract expires and enters settlement"
        }
      },
      "isOwner()": {
        "return": "true if `msg.sender` is the owner of the contract."
      },
      "mintPositionTokens(uint256,address)": {
        "params": {
          "minter": "address of minter to receive tokens",
          "qtyToMint": "qty in base units of how many short and long tokens to mint"
        }
      },
      "owner()": {
        "return": "the address of the owner."
      },
      "redeemLongToken(uint256,address)": {
        "params": {
          "qtyToRedeem": "qty in base units of how many tokens to redeem",
          "redeemer": "address of person redeeming tokens"
        }
      },
      "redeemShortToken(uint256,address)": {
        "params": {
          "qtyToRedeem": "qty in base units of how many tokens to redeem",
          "redeemer": "address of person redeeming tokens"
        }
      },
      "renounceOwnership()": {
        "details": "Allows the current owner to relinquish control of the contract. It will not be possible to call the functions with the `onlyOwner` modifier anymore."
      },
      "transferOwnership(address)": {
        "details": "Allows the current owner to transfer control of the contract to a newOwner.",
        "params": {
          "newOwner": "The address to transfer ownership to."
        }
      }
    },
    "title": "MarketContract base contract implement all needed functionality for trading."
  },
  "userdoc": {
    "methods": {
      "isPostSettlementDelay()": {
        "notice": "checks to see if a contract is settled, and that the settlement delay has passed"
      },
      "mintPositionTokens(uint256,address)": {
        "notice": "called only by our collateral pool to create long and short position tokens"
      },
      "redeemLongToken(uint256,address)": {
        "notice": "called only by our collateral pool to redeem long position tokens"
      },
      "redeemShortToken(uint256,address)": {
        "notice": "called only by our collateral pool to redeem short position tokens"
      },
      "renounceOwnership()": {
        "notice": "Renouncing ownership will leave the contract without an owner, thereby removing any functionality that is only available to the owner."
      }
    },
    "notice": "this is the abstract base contract that all contracts should inherit from to implement different oracle solutions."
  }
}