{
  "contractName": "MarketToken",
  "abi": [
    {
      "constant": true,
      "inputs": [],
      "name": "name",
      "outputs": [
        {
          "name": "",
          "type": "string"
        }
      ],
      "payable": false,
      "stateMutability": "view",
      "type": "function"
    },
    {
      "constant": false,
      "inputs": [
        {
          "name": "spender",
          "type": "address"
        },
        {
          "name": "value",
          "type": "uint256"
        }
      ],
      "name": "approve",
      "outputs": [
        {
          "name": "",
          "type": "bool"
        }
      ],
      "payable": false,
      "stateMutability": "nonpayable",
      "type": "function"
    },
    {
      "constant": true,
      "inputs": [],
      "name": "totalSupply",
      "outputs": [
        {
          "name": "",
          "type": "uint256"
        }
      ],
      "payable": false,
      "stateMutability": "view",
      "type": "function"
    },
    {
      "constant": false,
      "inputs": [
        {
          "name": "from",
          "type": "address"
        },
        {
          "name": "to",
          "type": "address"
        },
        {
          "name": "value",
          "type": "uint256"
        }
      ],
      "name": "transferFrom",
      "outputs": [
        {
          "name": "",
          "type": "bool"
        }
      ],
      "payable": false,
      "stateMutability": "nonpayable",
      "type": "function"
    },
    {
      "constant": true,
      "inputs": [],
      "name": "INITIAL_SUPPLY",
      "outputs": [
        {
          "name": "",
          "type": "uint256"
        }
      ],
      "payable": false,
      "stateMutability": "view",
      "type": "function"
    },
    {
      "constant": true,
      "inputs": [],
      "name": "decimals",
      "outputs": [
        {
          "name": "",
          "type": "uint8"
        }
      ],
      "payable": false,
      "stateMutability": "view",
      "type": "function"
    },
    {
      "constant": false,
      "inputs": [
        {
          "name": "spender",
          "type": "address"
        },
        {
          "name": "addedValue",
          "type": "uint256"
        }
      ],
      "name": "increaseAllowance",
      "outputs": [
        {
          "name": "",
          "type": "bool"
        }
      ],
      "payable": false,
      "stateMutability": "nonpayable",
      "type": "function"
    },
    {
      "constant": true,
      "inputs": [],
      "name": "upgradeableTarget",
      "outputs": [
        {
          "name": "",
          "type": "address"
        }
      ],
      "payable": false,
      "stateMutability": "view",
      "type": "function"
    },
    {
      "constant": false,
      "inputs": [
        {
          "name": "value",
          "type": "uint256"
        }
      ],
      "name": "burn",
      "outputs": [],
      "payable": false,
      "stateMutability": "nonpayable",
      "type": "function"
    },
    {
      "constant": false,
      "inputs": [
        {
          "name": "value",
          "type": "uint256"
        }
      ],
      "name": "upgrade",
      "outputs": [],
      "payable": false,
      "stateMutability": "nonpayable",
      "type": "function"
    },
    {
      "constant": true,
      "inputs": [
        {
          "name": "owner",
          "type": "address"
        }
      ],
      "name": "balanceOf",
      "outputs": [
        {
          "name": "",
          "type": "uint256"
        }
      ],
      "payable": false,
      "stateMutability": "view",
      "type": "function"
    },
    {
      "constant": false,
      "inputs": [],
      "name": "renounceOwnership",
      "outputs": [],
      "payable": false,
      "stateMutability": "nonpayable",
      "type": "function"
    },
    {
      "constant": false,
      "inputs": [
        {
          "name": "from",
          "type": "address"
        },
        {
          "name": "value",
          "type": "uint256"
        }
      ],
      "name": "burnFrom",
      "outputs": [],
      "payable": false,
      "stateMutability": "nonpayable",
      "type": "function"
    },
    {
      "constant": false,
      "inputs": [
        {
          "name": "upgradeAddress",
          "type": "address"
        }
      ],
      "name": "setUpgradeableTarget",
      "outputs": [],
      "payable": false,
      "stateMutability": "nonpayable",
      "type": "function"
    },
    {
      "constant": true,
      "inputs": [],
      "name": "owner",
      "outputs": [
        {
          "name": "",
          "type": "address"
        }
      ],
      "payable": false,
      "stateMutability": "view",
      "type": "function"
    },
    {
      "constant": true,
      "inputs": [],
      "name": "isOwner",
      "outputs": [
        {
          "name": "",
          "type": "bool"
        }
      ],
      "payable": false,
      "stateMutability": "view",
      "type": "function"
    },
    {
      "constant": true,
      "inputs": [],
      "name": "symbol",
      "outputs": [
        {
          "name": "",
          "type": "string"
        }
      ],
      "payable": false,
      "stateMutability": "view",
      "type": "function"
    },
    {
      "constant": false,
      "inputs": [
        {
          "name": "spender",
          "type": "address"
        },
        {
          "name": "subtractedValue",
          "type": "uint256"
        }
      ],
      "name": "decreaseAllowance",
      "outputs": [
        {
          "name": "",
          "type": "bool"
        }
      ],
      "payable": false,
      "stateMutability": "nonpayable",
      "type": "function"
    },
    {
      "constant": false,
      "inputs": [
        {
          "name": "to",
          "type": "address"
        },
        {
          "name": "value",
          "type": "uint256"
        }
      ],
      "name": "transfer",
      "outputs": [
        {
          "name": "",
          "type": "bool"
        }
      ],
      "payable": false,
      "stateMutability": "nonpayable",
      "type": "function"
    },
    {
      "constant": true,
      "inputs": [],
      "name": "totalUpgraded",
      "outputs": [
        {
          "name": "",
          "type": "uint256"
        }
      ],
      "payable": false,
      "stateMutability": "view",
      "type": "function"
    },
    {
      "constant": true,
      "inputs": [
        {
          "name": "owner",
          "type": "address"
        },
        {
          "name": "spender",
          "type": "address"
        }
      ],
      "name": "allowance",
      "outputs": [
        {
          "name": "",
          "type": "uint256"
        }
      ],
      "payable": false,
      "stateMutability": "view",
      "type": "function"
    },
    {
      "constant": false,
      "inputs": [
        {
          "name": "newOwner",
          "type": "address"
        }
      ],
      "name": "transferOwnership",
      "outputs": [],
      "payable": false,
      "stateMutability": "nonpayable",
      "type": "function"
    },
    {
      "inputs": [],
      "payable": false,
      "stateMutability": "nonpayable",
      "type": "constructor"
    },
    {
      "anonymous": false,
      "inputs": [
        {
          "indexed": true,
          "name": "from",
          "type": "address"
        },
        {
          "indexed": true,
          "name": "to",
          "type": "address"
        },
        {
          "indexed": false,
          "name": "value",
          "type": "uint256"
        }
      ],
      "name": "Upgraded",
      "type": "event"
    },
    {
      "anonymous": false,
      "inputs": [
        {
          "indexed": true,
          "name": "from",
          "type": "address"
        },
        {
          "indexed": true,
          "name": "to",
          "type": "address"
        },
        {
          "indexed": false,
          "name": "value",
          "type": "uint256"
        }
      ],
      "name": "Transfer",
      "type": "event"
    },
    {
      "anonymous": false,
      "inputs": [
        {
          "indexed": true,
          "name": "owner",
          "type": "address"
        },
        {
          "indexed": true,
          "name": "spender",
          "type": "address"
        },
        {
          "indexed": false,
          "name": "value",
          "type": "uint256"
        }
      ],
      "name": "Approval",
      "type": "event"
    },
    {
      "anonymous": false,
      "inputs": [
        {
          "indexed": true,
          "name": "previousOwner",
          "type": "address"
        },
        {
          "indexed": true,
          "name": "newOwner",
          "type": "address"
        }
      ],
      "name": "OwnershipTransferred",
      "type": "event"
    }
  ],
  "bytecode": "0x608060405234801561001057600080fd5b5060008054600160a060020a0319163317808255604051600160a060020a039190911691907f8be0079c531659141344cd1fd0a4f28419497f9722a3daafe3b4186f6b6457e0908290a3610079336b01f04ef12cb04cf15800000064010000000061007e810204565b610151565b600160a060020a038216151561009357600080fd5b6003546100ad9082640100000000610a1d61013882021704565b600355600160a060020a0382166000908152600160205260409020546100e09082640100000000610a1d61013882021704565b600160a060020a03831660008181526001602090815260408083209490945583518581529351929391927fddf252ad1be2c89b69c2b068fc378daa952ba7f163c4a11628f55a4df523b3ef9281900390910190a35050565b60008282018381101561014a57600080fd5b9392505050565b610bcf806101606000396000f3fe608060405234801561001057600080fd5b506004361061015f576000357c010000000000000000000000000000000000000000000000000000000090048063715018a6116100d557806395d89b411161009957806395d89b41146103b3578063a457c2d7146103bb578063a9059cbb146103e7578063c752ff6214610413578063dd62ed3e1461041b578063f2fde38b146104495761015f565b8063715018a61461034957806379cc679014610351578063802049ac1461037d5780638da5cb5b146103a35780638f32d59b146103ab5761015f565b8063313ce56711610127578063313ce56714610279578063395093511461029757806340fc5e7a146102c357806342966c68146102e757806345977d031461030657806370a08231146103235761015f565b806306fdde0314610164578063095ea7b3146101e157806318160ddd1461022157806323b872dd1461023b5780632ff2e9dc14610271575b600080fd5b61016c61046f565b6040805160208082528351818301528351919283929083019185019080838360005b838110156101a657818101518382015260200161018e565b50505050905090810190601f1680156101d35780820380516001836020036101000a031916815260200191505b509250505060405180910390f35b61020d600480360360408110156101f757600080fd5b50600160a060020a0381351690602001356104a6565b604080519115158252519081900360200190f35b6102296104bc565b60408051918252519081900360200190f35b61020d6004803603606081101561025157600080fd5b50600160a060020a038135811691602081013590911690604001356104c2565b610229610519565b610281610529565b6040805160ff9092168252519081900360200190f35b61020d600480360360408110156102ad57600080fd5b50600160a060020a03813516906020013561052e565b6102cb61056a565b60408051600160a060020a039092168252519081900360200190f35b610304600480360360208110156102fd57600080fd5b5035610579565b005b6103046004803603602081101561031c57600080fd5b5035610586565b6102296004803603602081101561033957600080fd5b5035600160a060020a03166106eb565b610304610706565b6103046004803603604081101561036757600080fd5b50600160a060020a038135169060200135610770565b6103046004803603602081101561039357600080fd5b5035600160a060020a031661077e565b6102cb6107c0565b61020d6107cf565b61016c6107e0565b61020d600480360360408110156103d157600080fd5b50600160a060020a038135169060200135610817565b61020d600480360360408110156103fd57600080fd5b50600160a060020a038135169060200135610853565b610229610860565b6102296004803603604081101561043157600080fd5b50600160a060020a0381358116916020013516610866565b6103046004803603602081101561045f57600080fd5b5035600160a060020a0316610891565b60408051808201909152601581527f4d41524b45542050726f746f636f6c20546f6b656e0000000000000000000000602082015281565b60006104b33384846108ad565b50600192915050565b60035490565b60006104cf848484610939565b600160a060020a03841660009081526002602090815260408083203380855292529091205461050f91869161050a908663ffffffff610a0816565b6108ad565b5060019392505050565b6b01f04ef12cb04cf15800000081565b601281565b336000818152600260209081526040808320600160a060020a038716845290915281205490916104b391859061050a908663ffffffff610a1d16565b600454600160a060020a031681565b6105833382610a36565b50565b600454600160a060020a031615156105ff57604080517f08c379a000000000000000000000000000000000000000000000000000000000815260206004820152601d60248201527f63616e6e6f7420757067726164652077697468206e6f20746172676574000000604482015290519081900360640190fd5b61060881610579565b60055461061b908263ffffffff610a1d16565b60055560048054604080517f753e88e500000000000000000000000000000000000000000000000000000000815233938101939093526024830184905251600160a060020a039091169163753e88e591604480830192600092919082900301818387803b15801561068b57600080fd5b505af115801561069f573d6000803e3d6000fd5b5050600454604080518581529051600160a060020a0390921693503392507fa6eb8a5f37ca5f03caebe01d969f49f93dd089e57d04580ba05974548fd44e77919081900360200190a350565b600160a060020a031660009081526001602052604090205490565b61070e6107cf565b151561071957600080fd5b60008054604051600160a060020a03909116907f8be0079c531659141344cd1fd0a4f28419497f9722a3daafe3b4186f6b6457e0908390a36000805473ffffffffffffffffffffffffffffffffffffffff19169055565b61077a8282610ae1565b5050565b6107866107cf565b151561079157600080fd5b6004805473ffffffffffffffffffffffffffffffffffffffff1916600160a060020a0392909216919091179055565b600054600160a060020a031690565b600054600160a060020a0316331490565b60408051808201909152600381527f4d4b540000000000000000000000000000000000000000000000000000000000602082015281565b336000818152600260209081526040808320600160a060020a038716845290915281205490916104b391859061050a908663ffffffff610a0816565b60006104b3338484610939565b60055481565b600160a060020a03918216600090815260026020908152604080832093909416825291909152205490565b6108996107cf565b15156108a457600080fd5b61058381610b26565b600160a060020a03821615156108c257600080fd5b600160a060020a03831615156108d757600080fd5b600160a060020a03808416600081815260026020908152604080832094871680845294825291829020859055815185815291517f8c5be1e5ebec7d5bd14f71427d1e84f3dd0314c0f7b2291e5b200ac8c7c3b9259281900390910190a3505050565b600160a060020a038216151561094e57600080fd5b600160a060020a038316600090815260016020526040902054610977908263ffffffff610a0816565b600160a060020a0380851660009081526001602052604080822093909355908416815220546109ac908263ffffffff610a1d16565b600160a060020a0380841660008181526001602090815260409182902094909455805185815290519193928716927fddf252ad1be2c89b69c2b068fc378daa952ba7f163c4a11628f55a4df523b3ef92918290030190a3505050565b600082821115610a1757600080fd5b50900390565b600082820183811015610a2f57600080fd5b9392505050565b600160a060020a0382161515610a4b57600080fd5b600354610a5e908263ffffffff610a0816565b600355600160a060020a038216600090815260016020526040902054610a8a908263ffffffff610a0816565b600160a060020a0383166000818152600160209081526040808320949094558351858152935191937fddf252ad1be2c89b69c2b068fc378daa952ba7f163c4a11628f55a4df523b3ef929081900390910190a35050565b610aeb8282610a36565b600160a060020a03821660009081526002602090815260408083203380855292529091205461077a91849161050a908563ffffffff610a0816565b600160a060020a0381161515610b3b57600080fd5b60008054604051600160a060020a03808516939216917f8be0079c531659141344cd1fd0a4f28419497f9722a3daafe3b4186f6b6457e091a36000805473ffffffffffffffffffffffffffffffffffffffff1916600160a060020a039290921691909117905556fea165627a7a723058204de91a3ad31685bd7f861a0dc3ad00e7886537398f471bb72dd5f513e3b85e170029",
  "source": "/*\n    Copyright 2017-2019 Phillip A. Elsasser\n\n    Licensed under the Apache License, Version 2.0 (the \"License\");\n    you may not use this file except in compliance with the License.\n    You may obtain a copy of the License at\n\n    http://www.apache.org/licenses/LICENSE-2.0\n\n    Unless required by applicable law or agreed to in writing, software\n    distributed under the License is distributed on an \"AS IS\" BASIS,\n    WITHOUT WARRANTIES OR CONDITIONS OF ANY KIND, either express or implied.\n    See the License for the specific language governing permissions and\n    limitations under the License.\n*/\n\npragma solidity 0.5.2;\n\nimport \"./UpgradableToken.sol\";\n\n\n/// @title Market Token\n/// @notice Our membership token.  Users must lock tokens to enable trading for a given Market Contract\n/// as well as have a minimum balance of tokens to create new Market Contracts.\n/// @author Phil Elsasser <phil@marketprotocol.io>\ncontract MarketToken is UpgradeableToken {\n    string public constant name = \"MARKET Protocol Token\";\n    string public constant symbol = \"MKT\";\n    uint8 public constant decimals = 18;\n\n    uint256 public constant INITIAL_SUPPLY = 600000000 * 10**uint256(decimals); // 600 million tokens with 18 decimals (6e+26)\n\n    constructor() public {\n        _mint(msg.sender, INITIAL_SUPPLY);\n    }\n}\n",
  "sourcePath": "/Users/andreianisimov/projects/honeylemon/dapp.honeylemon.market/packages/contracts/contracts/marketprotocol/tokens/MarketToken.sol",
  "compiler": {
    "name": "solc",
    "version": "0.5.2+commit.1df8f40c.Emscripten.clang"
  },
  "schemaVersion": "3.2.0",
  "updatedAt": "2020-07-17T15:20:56.356Z",
  "devdoc": {
    "author": "Phil Elsasser <phil@marketprotocol.io>",
    "methods": {
      "allowance(address,address)": {
        "details": "Function to check the amount of tokens that an owner allowed to a spender.",
        "params": {
          "owner": "address The address which owns the funds.",
          "spender": "address The address which will spend the funds."
        },
        "return": "A uint256 specifying the amount of tokens still available for the spender."
      },
      "approve(address,uint256)": {
        "details": "Approve the passed address to spend the specified amount of tokens on behalf of msg.sender. Beware that changing an allowance with this method brings the risk that someone may use both the old and the new allowance by unfortunate transaction ordering. One possible solution to mitigate this race condition is to first reduce the spender's allowance to 0 and set the desired value afterwards: https://github.com/ethereum/EIPs/issues/20#issuecomment-263524729",
        "params": {
          "spender": "The address which will spend the funds.",
          "value": "The amount of tokens to be spent."
        }
      },
      "balanceOf(address)": {
        "details": "Gets the balance of the specified address.",
        "params": {
          "owner": "The address to query the balance of."
        },
        "return": "A uint256 representing the amount owned by the passed address."
      },
      "burn(uint256)": {
        "details": "Burns a specific amount of tokens.",
        "params": {
          "value": "The amount of token to be burned."
        }
      },
      "burnFrom(address,uint256)": {
        "details": "Burns a specific amount of tokens from the target address and decrements allowance",
        "params": {
          "from": "address The account whose tokens will be burned.",
          "value": "uint256 The amount of token to be burned."
        }
      },
      "decreaseAllowance(address,uint256)": {
        "details": "Decrease the amount of tokens that an owner allowed to a spender. approve should be called when _allowed[msg.sender][spender] == 0. To decrement allowed value is better to use this function to avoid 2 calls (and wait until the first transaction is mined) From MonolithDAO Token.sol Emits an Approval event.",
        "params": {
          "spender": "The address which will spend the funds.",
          "subtractedValue": "The amount of tokens to decrease the allowance by."
        }
      },
      "increaseAllowance(address,uint256)": {
        "details": "Increase the amount of tokens that an owner allowed to a spender. approve should be called when _allowed[msg.sender][spender] == 0. To increment allowed value is better to use this function to avoid 2 calls (and wait until the first transaction is mined) From MonolithDAO Token.sol Emits an Approval event.",
        "params": {
          "addedValue": "The amount of tokens to increase the allowance by.",
          "spender": "The address which will spend the funds."
        }
      },
      "isOwner()": {
        "return": "true if `msg.sender` is the owner of the contract."
      },
      "owner()": {
        "return": "the address of the owner."
      },
      "renounceOwnership()": {
        "details": "Allows the current owner to relinquish control of the contract. It will not be possible to call the functions with the `onlyOwner` modifier anymore."
      },
      "setUpgradeableTarget(address)": {
        "params": {
          "upgradeAddress": "The address of the UpgradeableTarget contract."
        }
      },
      "totalSupply()": {
        "details": "Total number of tokens in existence"
      },
      "transfer(address,uint256)": {
        "details": "Transfer token to a specified address",
        "params": {
          "to": "The address to transfer to.",
          "value": "The amount to be transferred."
        }
      },
      "transferFrom(address,address,uint256)": {
        "details": "Transfer tokens from one address to another. Note that while this function emits an Approval event, this is not required as per the specification, and other compliant implementations may not emit the event.",
        "params": {
          "from": "address The address which you want to send tokens from",
          "to": "address The address which you want to transfer to",
          "value": "uint256 the amount of tokens to be transferred"
        }
      },
      "transferOwnership(address)": {
        "details": "Allows the current owner to transfer control of the contract to a newOwner.",
        "params": {
          "newOwner": "The address to transfer ownership to."
        }
      },
      "upgrade(uint256)": {
        "params": {
          "value": "The amount of token to be migrated to upgraded token"
        }
      }
    },
    "title": "Market Token"
  },
  "userdoc": {
    "methods": {
      "renounceOwnership()": {
        "notice": "Renouncing ownership will leave the contract without an owner, thereby removing any functionality that is only available to the owner."
      },
      "setUpgradeableTarget(address)": {
        "notice": "Set address of upgrade target process."
      },
      "upgrade(uint256)": {
        "notice": "Update token to the new upgraded token"
      }
    },
    "notice": "Our membership token.  Users must lock tokens to enable trading for a given Market Contract as well as have a minimum balance of tokens to create new Market Contracts."
  }
}