{
  "contractName": "MarketContractRegistry",
  "abi": [
    {
      "constant": true,
      "inputs": [
        {
          "name": "",
          "type": "uint256"
        }
      ],
      "name": "addressWhiteList",
      "outputs": [
        {
          "name": "",
          "type": "address"
        }
      ],
      "payable": false,
      "stateMutability": "view",
      "type": "function"
    },
    {
      "constant": true,
      "inputs": [
        {
          "name": "",
          "type": "address"
        }
      ],
      "name": "factoryAddressWhiteList",
      "outputs": [
        {
          "name": "",
          "type": "bool"
        }
      ],
      "payable": false,
      "stateMutability": "view",
      "type": "function"
    },
    {
      "constant": true,
      "inputs": [
        {
          "name": "",
          "type": "address"
        }
      ],
      "name": "isWhiteListed",
      "outputs": [
        {
          "name": "",
          "type": "bool"
        }
      ],
      "payable": false,
      "stateMutability": "view",
      "type": "function"
    },
    {
      "constant": false,
      "inputs": [],
      "name": "renounceOwnership",
      "outputs": [],
      "payable": false,
      "stateMutability": "nonpayable",
      "type": "function"
    },
    {
      "constant": true,
      "inputs": [],
      "name": "owner",
      "outputs": [
        {
          "name": "",
          "type": "address"
        }
      ],
      "payable": false,
      "stateMutability": "view",
      "type": "function"
    },
    {
      "constant": true,
      "inputs": [],
      "name": "isOwner",
      "outputs": [
        {
          "name": "",
          "type": "bool"
        }
      ],
      "payable": false,
      "stateMutability": "view",
      "type": "function"
    },
    {
      "constant": false,
      "inputs": [
        {
          "name": "newOwner",
          "type": "address"
        }
      ],
      "name": "transferOwnership",
      "outputs": [],
      "payable": false,
      "stateMutability": "nonpayable",
      "type": "function"
    },
    {
      "anonymous": false,
      "inputs": [
        {
          "indexed": true,
          "name": "contractAddress",
          "type": "address"
        }
      ],
      "name": "AddressAddedToWhitelist",
      "type": "event"
    },
    {
      "anonymous": false,
      "inputs": [
        {
          "indexed": true,
          "name": "contractAddress",
          "type": "address"
        }
      ],
      "name": "AddressRemovedFromWhitelist",
      "type": "event"
    },
    {
      "anonymous": false,
      "inputs": [
        {
          "indexed": true,
          "name": "factoryAddress",
          "type": "address"
        }
      ],
      "name": "FactoryAddressAdded",
      "type": "event"
    },
    {
      "anonymous": false,
      "inputs": [
        {
          "indexed": true,
          "name": "factoryAddress",
          "type": "address"
        }
      ],
      "name": "FactoryAddressRemoved",
      "type": "event"
    },
    {
      "anonymous": false,
      "inputs": [
        {
          "indexed": true,
          "name": "previousOwner",
          "type": "address"
        },
        {
          "indexed": true,
          "name": "newOwner",
          "type": "address"
        }
      ],
      "name": "OwnershipTransferred",
      "type": "event"
    },
    {
      "constant": true,
      "inputs": [
        {
          "name": "contractAddress",
          "type": "address"
        }
      ],
      "name": "isAddressWhiteListed",
      "outputs": [
        {
          "name": "",
          "type": "bool"
        }
      ],
      "payable": false,
      "stateMutability": "view",
      "type": "function"
    },
    {
      "constant": true,
      "inputs": [],
      "name": "getAddressWhiteList",
      "outputs": [
        {
          "name": "",
          "type": "address[]"
        }
      ],
      "payable": false,
      "stateMutability": "view",
      "type": "function"
    },
    {
      "constant": false,
      "inputs": [
        {
          "name": "contractAddress",
          "type": "address"
        },
        {
          "name": "whiteListIndex",
          "type": "uint256"
        }
      ],
      "name": "removeContractFromWhiteList",
      "outputs": [],
      "payable": false,
      "stateMutability": "nonpayable",
      "type": "function"
    },
    {
      "constant": false,
      "inputs": [
        {
          "name": "contractAddress",
          "type": "address"
        }
      ],
      "name": "addAddressToWhiteList",
      "outputs": [],
      "payable": false,
      "stateMutability": "nonpayable",
      "type": "function"
    },
    {
      "constant": false,
      "inputs": [
        {
          "name": "factoryAddress",
          "type": "address"
        }
      ],
      "name": "addFactoryAddress",
      "outputs": [],
      "payable": false,
      "stateMutability": "nonpayable",
      "type": "function"
    },
    {
      "constant": false,
      "inputs": [
        {
          "name": "factoryAddress",
          "type": "address"
        }
      ],
      "name": "removeFactoryAddress",
      "outputs": [],
      "payable": false,
      "stateMutability": "nonpayable",
      "type": "function"
    }
  ],
  "bytecode": "0x6080604052336000806101000a81548173ffffffffffffffffffffffffffffffffffffffff021916908373ffffffffffffffffffffffffffffffffffffffff1602179055506000809054906101000a900473ffffffffffffffffffffffffffffffffffffffff1673ffffffffffffffffffffffffffffffffffffffff16600073ffffffffffffffffffffffffffffffffffffffff167f8be0079c531659141344cd1fd0a4f28419497f9722a3daafe3b4186f6b6457e060405160405180910390a3611186806100cf6000396000f3fe608060405234801561001057600080fd5b50600436106100ec576000357c0100000000000000000000000000000000000000000000000000000000900480638f32d59b116100a9578063ad23de6311610083578063ad23de6314610359578063c6f5d91f146103b5578063d8fbbf3114610414578063f2fde38b14610462576100ec565b80638f32d59b146102af5780639244f496146102d1578063a051d9c314610315576100ec565b806318c0c695146100f15780631e7f9f3614610135578063497acf08146101a35780636f9170f6146101ff578063715018a61461025b5780638da5cb5b14610265575b600080fd5b6101336004803603602081101561010757600080fd5b81019080803573ffffffffffffffffffffffffffffffffffffffff1690602001909291905050506104a6565b005b6101616004803603602081101561014b57600080fd5b8101908080359060200190929190505050610619565b604051808273ffffffffffffffffffffffffffffffffffffffff1673ffffffffffffffffffffffffffffffffffffffff16815260200191505060405180910390f35b6101e5600480360360208110156101b957600080fd5b81019080803573ffffffffffffffffffffffffffffffffffffffff169060200190929190505050610657565b604051808215151515815260200191505060405180910390f35b6102416004803603602081101561021557600080fd5b81019080803573ffffffffffffffffffffffffffffffffffffffff169060200190929190505050610677565b604051808215151515815260200191505060405180910390f35b610263610697565b005b61026d610769565b604051808273ffffffffffffffffffffffffffffffffffffffff1673ffffffffffffffffffffffffffffffffffffffff16815260200191505060405180910390f35b6102b7610792565b604051808215151515815260200191505060405180910390f35b610313600480360360208110156102e757600080fd5b81019080803573ffffffffffffffffffffffffffffffffffffffff1690602001909291905050506107e9565b005b6103576004803603602081101561032b57600080fd5b81019080803573ffffffffffffffffffffffffffffffffffffffff169060200190929190505050610a61565b005b61039b6004803603602081101561036f57600080fd5b81019080803573ffffffffffffffffffffffffffffffffffffffff169060200190929190505050610bb6565b604051808215151515815260200191505060405180910390f35b6103bd610c0c565b6040518080602001828103825283818151815260200191508051906020019060200280838360005b838110156104005780820151818401526020810190506103e5565b505050509050019250505060405180910390f35b6104606004803603604081101561042a57600080fd5b81019080803573ffffffffffffffffffffffffffffffffffffffff16906020019092919080359060200190929190505050610c9a565b005b6104a46004803603602081101561047857600080fd5b81019080803573ffffffffffffffffffffffffffffffffffffffff169060200190929190505050610f7e565b005b6104ae610792565b15156104b957600080fd5b600360008273ffffffffffffffffffffffffffffffffffffffff1673ffffffffffffffffffffffffffffffffffffffff16815260200190815260200160002060009054906101000a900460ff1615151561057b576040517f08c379a00000000000000000000000000000000000000000000000000000000081526004018080602001828103825260158152602001807f6164647265737320616c7265616479206164646564000000000000000000000081525060200191505060405180910390fd5b6001600360008373ffffffffffffffffffffffffffffffffffffffff1673ffffffffffffffffffffffffffffffffffffffff16815260200190815260200160002060006101000a81548160ff0219169083151502179055508073ffffffffffffffffffffffffffffffffffffffff167f960c6a67a1f0f46ddffd138f2b7f44cbc573d0e0a073363b287a257b121dc48a60405160405180910390a250565b60028181548110151561062857fe5b906000526020600020016000915054906101000a900473ffffffffffffffffffffffffffffffffffffffff1681565b60036020528060005260406000206000915054906101000a900460ff1681565b60016020528060005260406000206000915054906101000a900460ff1681565b61069f610792565b15156106aa57600080fd5b600073ffffffffffffffffffffffffffffffffffffffff166000809054906101000a900473ffffffffffffffffffffffffffffffffffffffff1673ffffffffffffffffffffffffffffffffffffffff167f8be0079c531659141344cd1fd0a4f28419497f9722a3daafe3b4186f6b6457e060405160405180910390a360008060006101000a81548173ffffffffffffffffffffffffffffffffffffffff021916908373ffffffffffffffffffffffffffffffffffffffff160217905550565b60008060009054906101000a900473ffffffffffffffffffffffffffffffffffffffff16905090565b60008060009054906101000a900473ffffffffffffffffffffffffffffffffffffffff1673ffffffffffffffffffffffffffffffffffffffff163373ffffffffffffffffffffffffffffffffffffffff1614905090565b6107f1610792565b806108455750600360003373ffffffffffffffffffffffffffffffffffffffff1673ffffffffffffffffffffffffffffffffffffffff16815260200190815260200160002060009054906101000a900460ff165b151561089c576040517f08c379a00000000000000000000000000000000000000000000000000000000081526004018080602001828103825260258152602001806110e96025913960400191505060405180910390fd5b600160008273ffffffffffffffffffffffffffffffffffffffff1673ffffffffffffffffffffffffffffffffffffffff16815260200190815260200160002060009054906101000a900460ff1615151561095e576040517f08c379a000000000000000000000000000000000000000000000000000000000815260040180806020018281038252601f8152602001807f41646472657373206d757374206e6f742062652077686974656c69737465640081525060200191505060405180910390fd5b60018060008373ffffffffffffffffffffffffffffffffffffffff1673ffffffffffffffffffffffffffffffffffffffff16815260200190815260200160002060006101000a81548160ff02191690831515021790555060028190806001815401808255809150509060018203906000526020600020016000909192909190916101000a81548173ffffffffffffffffffffffffffffffffffffffff021916908373ffffffffffffffffffffffffffffffffffffffff160217905550508073ffffffffffffffffffffffffffffffffffffffff167f534d18c8ff24ba5980906d732f3075704749427353734fbbf05d50485643b12460405160405180910390a250565b610a69610792565b1515610a7457600080fd5b600360008273ffffffffffffffffffffffffffffffffffffffff1673ffffffffffffffffffffffffffffffffffffffff16815260200190815260200160002060009054906101000a900460ff161515610b18576040517f08c379a000000000000000000000000000000000000000000000000000000000815260040180806020018281038252602881526020018061110e6028913960400191505060405180910390fd5b6000600360008373ffffffffffffffffffffffffffffffffffffffff1673ffffffffffffffffffffffffffffffffffffffff16815260200190815260200160002060006101000a81548160ff0219169083151502179055508073ffffffffffffffffffffffffffffffffffffffff167f5d6ac55db628f137c53a554c300a684dc6b3db9d8f24e9611ea5e84c282d177d60405160405180910390a250565b6000600160008373ffffffffffffffffffffffffffffffffffffffff1673ffffffffffffffffffffffffffffffffffffffff16815260200190815260200160002060009054906101000a900460ff169050919050565b60606002805480602002602001604051908101604052809291908181526020018280548015610c9057602002820191906000526020600020905b8160009054906101000a900473ffffffffffffffffffffffffffffffffffffffff1673ffffffffffffffffffffffffffffffffffffffff1681526020019060010190808311610c46575b5050505050905090565b610ca2610792565b1515610cad57600080fd5b600160008373ffffffffffffffffffffffffffffffffffffffff1673ffffffffffffffffffffffffffffffffffffffff16815260200190815260200160002060009054906101000a900460ff161515610d51576040517f08c379a00000000000000000000000000000000000000000000000000000000081526004018080602001828103825260258152602001806111366025913960400191505060405180910390fd5b8173ffffffffffffffffffffffffffffffffffffffff16600282815481101515610d7757fe5b9060005260206000200160009054906101000a900473ffffffffffffffffffffffffffffffffffffffff1673ffffffffffffffffffffffffffffffffffffffff16141515610e2d576040517f08c379a000000000000000000000000000000000000000000000000000000000815260040180806020018281038252601c8152602001807f696e64657820646f6573206e6f74206d6174636820616464726573730000000081525060200191505060405180910390fd5b6000600160008473ffffffffffffffffffffffffffffffffffffffff1673ffffffffffffffffffffffffffffffffffffffff16815260200190815260200160002060006101000a81548160ff0219169083151502179055506002600160028054905003815481101515610e9c57fe5b9060005260206000200160009054906101000a900473ffffffffffffffffffffffffffffffffffffffff16600282815481101515610ed657fe5b9060005260206000200160006101000a81548173ffffffffffffffffffffffffffffffffffffffff021916908373ffffffffffffffffffffffffffffffffffffffff1602179055506001600281818054905003915081610f369190611097565b508173ffffffffffffffffffffffffffffffffffffffff167f535611fb62fa2a833988f283b779e417e996813e44046f521d76c17b5943b08c60405160405180910390a25050565b610f86610792565b1515610f9157600080fd5b610f9a81610f9d565b50565b600073ffffffffffffffffffffffffffffffffffffffff168173ffffffffffffffffffffffffffffffffffffffff1614151515610fd957600080fd5b8073ffffffffffffffffffffffffffffffffffffffff166000809054906101000a900473ffffffffffffffffffffffffffffffffffffffff1673ffffffffffffffffffffffffffffffffffffffff167f8be0079c531659141344cd1fd0a4f28419497f9722a3daafe3b4186f6b6457e060405160405180910390a3806000806101000a81548173ffffffffffffffffffffffffffffffffffffffff021916908373ffffffffffffffffffffffffffffffffffffffff16021790555050565b8154818355818111156110be578183600052602060002091820191016110bd91906110c3565b5b505050565b6110e591905b808211156110e15760008160009055506001016110c9565b5090565b9056fe43616e206f6e6c7920626520616464656420627920666163746f7279206f72206f776e6572666163746f72792061646472657373206973206e6f7420696e20746865207768697465206c69737463616e206f6e6c792072656d6f76652077686974656c697374656420616464726573736573a165627a7a7230582024289a6059cc00508ecc3e130c24aa81099a5f01fa44b38f69fa8a7fdc04a0700029",
  "source": "/*\n    Copyright 2017-2019 Phillip A. Elsasser\n\n    Licensed under the Apache License, Version 2.0 (the \"License\");\n    you may not use this file except in compliance with the License.\n    You may obtain a copy of the License at\n\n    http://www.apache.org/licenses/LICENSE-2.0\n\n    Unless required by applicable law or agreed to in writing, software\n    distributed under the License is distributed on an \"AS IS\" BASIS,\n    WITHOUT WARRANTIES OR CONDITIONS OF ANY KIND, either express or implied.\n    See the License for the specific language governing permissions and\n    limitations under the License.\n*/\n\npragma solidity 0.5.2;\n\nimport 'openzeppelin-solidity/contracts/ownership/Ownable.sol';\nimport './MarketContractRegistryInterface.sol';\n\n\n/// @title MarketContractRegistry\n/// @author Phil Elsasser <phil@marketprotocol.io>\ncontract MarketContractRegistry is Ownable, MarketContractRegistryInterface {\n    // whitelist accounting\n    mapping(address => bool) public isWhiteListed;\n    address[] public addressWhiteList; // record of currently deployed addresses;\n    mapping(address => bool) public factoryAddressWhiteList; // record of authorized factories\n\n    // events\n    event AddressAddedToWhitelist(address indexed contractAddress);\n    event AddressRemovedFromWhitelist(address indexed contractAddress);\n    event FactoryAddressAdded(address indexed factoryAddress);\n    event FactoryAddressRemoved(address indexed factoryAddress);\n\n    /*\n    // External Methods\n    */\n\n    /// @notice determines if an address is a valid MarketContract\n    /// @return false if the address is not white listed.\n    function isAddressWhiteListed(address contractAddress) external view returns (bool) {\n        return isWhiteListed[contractAddress];\n    }\n\n    /// @notice all currently whitelisted addresses\n    /// returns array of addresses\n    function getAddressWhiteList() external view returns (address[] memory) {\n        return addressWhiteList;\n    }\n\n    /// @dev allows for the owner to remove a white listed contract, eventually ownership could transition to\n    /// a decentralized smart contract of community members to vote\n    /// @param contractAddress contract to removed from white list\n    /// @param whiteListIndex of the contractAddress in the addressWhiteList to be removed.\n    function removeContractFromWhiteList(address contractAddress, uint whiteListIndex)\n        external\n        onlyOwner\n    {\n        require(isWhiteListed[contractAddress], 'can only remove whitelisted addresses');\n        require(\n            addressWhiteList[whiteListIndex] == contractAddress,\n            'index does not match address'\n        );\n        isWhiteListed[contractAddress] = false;\n\n        // push the last item in array to replace the address we are removing and then trim the array.\n        addressWhiteList[whiteListIndex] = addressWhiteList[addressWhiteList.length - 1];\n        addressWhiteList.length -= 1;\n        emit AddressRemovedFromWhitelist(contractAddress);\n    }\n\n    /// @dev allows for the owner or factory to add a white listed contract, eventually ownership could transition to\n    /// a decentralized smart contract of community members to vote\n    /// @param contractAddress contract to removed from white list\n    function addAddressToWhiteList(address contractAddress) external {\n        require(\n            isOwner() || factoryAddressWhiteList[msg.sender],\n            'Can only be added by factory or owner'\n        );\n        require(!isWhiteListed[contractAddress], 'Address must not be whitelisted');\n        isWhiteListed[contractAddress] = true;\n        addressWhiteList.push(contractAddress);\n        emit AddressAddedToWhitelist(contractAddress);\n    }\n\n    /// @dev allows for the owner to add a new address of a factory responsible for creating new market contracts\n    /// @param factoryAddress address of factory to be allowed to add contracts to whitelist\n    function addFactoryAddress(address factoryAddress) external onlyOwner {\n        require(!factoryAddressWhiteList[factoryAddress], 'address already added');\n        factoryAddressWhiteList[factoryAddress] = true;\n        emit FactoryAddressAdded(factoryAddress);\n    }\n\n    /// @dev allows for the owner to remove an address of a factory\n    /// @param factoryAddress address of factory to be removed\n    function removeFactoryAddress(address factoryAddress) external onlyOwner {\n        require(\n            factoryAddressWhiteList[factoryAddress],\n            'factory address is not in the white list'\n        );\n        factoryAddressWhiteList[factoryAddress] = false;\n        emit FactoryAddressRemoved(factoryAddress);\n    }\n}\n",
  "sourcePath": "/Users/andreianisimov/projects/honeylemon/dapp.honeylemon.market/packages/contracts/contracts/marketprotocol/MarketContractRegistry.sol",
  "compiler": {
    "name": "solc",
    "version": "0.5.2+commit.1df8f40c.Emscripten.clang"
  },
  "schemaVersion": "3.2.0",
  "updatedAt": "2020-07-11T22:54:27.116Z",
  "networkType": "ethereum",
  "devdoc": {
    "author": "Phil Elsasser <phil@marketprotocol.io>",
    "methods": {
      "addAddressToWhiteList(address)": {
        "details": "allows for the owner or factory to add a white listed contract, eventually ownership could transition to a decentralized smart contract of community members to vote",
        "params": {
          "contractAddress": "contract to removed from white list"
        }
      },
      "addFactoryAddress(address)": {
        "details": "allows for the owner to add a new address of a factory responsible for creating new market contracts",
        "params": {
          "factoryAddress": "address of factory to be allowed to add contracts to whitelist"
        }
      },
      "isAddressWhiteListed(address)": {
        "return": "false if the address is not white listed."
      },
      "isOwner()": {
        "return": "true if `msg.sender` is the owner of the contract."
      },
      "owner()": {
        "return": "the address of the owner."
      },
      "removeContractFromWhiteList(address,uint256)": {
        "details": "allows for the owner to remove a white listed contract, eventually ownership could transition to a decentralized smart contract of community members to vote",
        "params": {
          "contractAddress": "contract to removed from white list",
          "whiteListIndex": "of the contractAddress in the addressWhiteList to be removed."
        }
      },
      "removeFactoryAddress(address)": {
        "details": "allows for the owner to remove an address of a factory",
        "params": {
          "factoryAddress": "address of factory to be removed"
        }
      },
      "renounceOwnership()": {
        "details": "Allows the current owner to relinquish control of the contract. It will not be possible to call the functions with the `onlyOwner` modifier anymore."
      },
      "transferOwnership(address)": {
        "details": "Allows the current owner to transfer control of the contract to a newOwner.",
        "params": {
          "newOwner": "The address to transfer ownership to."
        }
      }
    },
    "title": "MarketContractRegistry"
  },
  "userdoc": {
    "methods": {
      "getAddressWhiteList()": {
        "notice": "all currently whitelisted addresses returns array of addresses"
      },
      "isAddressWhiteListed(address)": {
        "notice": "determines if an address is a valid MarketContract"
      },
      "renounceOwnership()": {
        "notice": "Renouncing ownership will leave the contract without an owner, thereby removing any functionality that is only available to the owner."
      }
    }
  }
}