{
  "contractName": "MarketContractProxy",
  "abi": [
    {
      "constant": true,
      "inputs": [],
      "name": "CONTRACT_DURATION_DAYS",
      "outputs": [
        {
          "name": "",
          "type": "uint256"
        }
      ],
      "payable": false,
      "stateMutability": "view",
      "type": "function"
    },
    {
      "constant": true,
      "inputs": [],
      "name": "MINTER_BRIDGE_ADDRESS",
      "outputs": [
        {
          "name": "",
          "type": "address"
        }
      ],
      "payable": false,
      "stateMutability": "view",
      "type": "function"
    },
    {
      "constant": true,
      "inputs": [],
      "name": "CONTRACT_DURATION",
      "outputs": [
        {
          "name": "",
          "type": "uint256"
        }
      ],
      "payable": false,
      "stateMutability": "view",
      "type": "function"
    },
    {
      "constant": true,
      "inputs": [],
      "name": "COLLATERAL_TOKEN_ADDRESS",
      "outputs": [
        {
          "name": "",
          "type": "address"
        }
      ],
      "payable": false,
      "stateMutability": "view",
      "type": "function"
    },
    {
      "constant": false,
      "inputs": [],
      "name": "renounceOwnership",
      "outputs": [],
      "payable": false,
      "stateMutability": "nonpayable",
      "type": "function"
    },
    {
      "constant": true,
      "inputs": [
        {
          "name": "",
          "type": "uint256"
        }
      ],
      "name": "marketContracts",
      "outputs": [
        {
          "name": "",
          "type": "address"
        }
      ],
      "payable": false,
      "stateMutability": "view",
      "type": "function"
    },
    {
      "constant": true,
      "inputs": [],
      "name": "owner",
      "outputs": [
        {
          "name": "",
          "type": "address"
        }
      ],
      "payable": false,
      "stateMutability": "view",
      "type": "function"
    },
    {
      "constant": true,
      "inputs": [],
      "name": "isOwner",
      "outputs": [
        {
          "name": "",
          "type": "bool"
        }
      ],
      "payable": false,
      "stateMutability": "view",
      "type": "function"
    },
    {
      "constant": true,
      "inputs": [
        {
          "name": "",
          "type": "uint256"
        }
      ],
      "name": "marketContractSpecs",
      "outputs": [
        {
          "name": "",
          "type": "uint256"
        }
      ],
      "payable": false,
      "stateMutability": "view",
      "type": "function"
    },
    {
      "constant": true,
      "inputs": [
        {
          "name": "",
          "type": "address"
        }
      ],
      "name": "dSProxyToAddress",
      "outputs": [
        {
          "name": "",
          "type": "address"
        }
      ],
      "payable": false,
      "stateMutability": "view",
      "type": "function"
    },
    {
      "constant": true,
      "inputs": [],
      "name": "CONTRACT_COLLATERAL_RATIO",
      "outputs": [
        {
          "name": "",
          "type": "uint256"
        }
      ],
      "payable": false,
      "stateMutability": "view",
      "type": "function"
    },
    {
      "constant": true,
      "inputs": [],
      "name": "marketContractFactoryMPX",
      "outputs": [
        {
          "name": "",
          "type": "address"
        }
      ],
      "payable": false,
      "stateMutability": "view",
      "type": "function"
    },
    {
      "constant": true,
      "inputs": [],
      "name": "HONEY_LEMON_ORACLE_ADDRESS",
      "outputs": [
        {
          "name": "",
          "type": "address"
        }
      ],
      "payable": false,
      "stateMutability": "view",
      "type": "function"
    },
    {
      "constant": false,
      "inputs": [
        {
          "name": "newOwner",
          "type": "address"
        }
      ],
      "name": "transferOwnership",
      "outputs": [],
      "payable": false,
      "stateMutability": "nonpayable",
      "type": "function"
    },
    {
      "constant": true,
      "inputs": [
        {
          "name": "",
          "type": "address"
        }
      ],
      "name": "addressToDSProxy",
      "outputs": [
        {
          "name": "",
          "type": "address"
        }
      ],
      "payable": false,
      "stateMutability": "view",
      "type": "function"
    },
    {
      "inputs": [
        {
          "name": "_marketContractFactoryMPX",
          "type": "address"
        },
        {
          "name": "_honeyLemonOracle",
          "type": "address"
        },
        {
          "name": "_minterBridge",
          "type": "address"
        },
        {
          "name": "_imBTCTokenAddress",
          "type": "address"
        }
      ],
      "payable": false,
      "stateMutability": "nonpayable",
      "type": "constructor"
    },
    {
      "anonymous": false,
      "inputs": [
        {
          "indexed": false,
          "name": "qtyToMint",
          "type": "uint256"
        },
        {
          "indexed": true,
          "name": "marketId",
          "type": "uint256"
        },
        {
          "indexed": false,
          "name": "contractName",
          "type": "string"
        },
        {
          "indexed": true,
          "name": "longTokenRecipient",
          "type": "address"
        },
        {
          "indexed": false,
          "name": "longTokenDSProxy",
          "type": "address"
        },
        {
          "indexed": true,
          "name": "shortTokenRecipient",
          "type": "address"
        },
        {
          "indexed": false,
          "name": "shortTokenDSProxy",
          "type": "address"
        },
        {
          "indexed": false,
          "name": "latestMarketContract",
          "type": "address"
        },
        {
          "indexed": false,
          "name": "longTokenAddress",
          "type": "address"
        },
        {
          "indexed": false,
          "name": "shortTokenAddress",
          "type": "address"
        },
        {
          "indexed": false,
          "name": "time",
          "type": "uint256"
        }
      ],
      "name": "PositionTokensMinted",
      "type": "event"
    },
    {
      "anonymous": false,
      "inputs": [
        {
          "indexed": true,
          "name": "contractAddress",
          "type": "address"
        },
        {
          "indexed": false,
          "name": "revenuePerUnit",
          "type": "uint256"
        },
        {
          "indexed": false,
          "name": "index",
          "type": "uint256"
        }
      ],
      "name": "MarketContractSettled",
      "type": "event"
    },
    {
      "anonymous": false,
      "inputs": [
        {
          "indexed": false,
          "name": "currentMRI",
          "type": "uint256"
        },
        {
          "indexed": false,
          "name": "contractName",
          "type": "bytes32"
        },
        {
          "indexed": false,
          "name": "expiration",
          "type": "uint256"
        },
        {
          "indexed": true,
          "name": "index",
          "type": "uint256"
        },
        {
          "indexed": false,
          "name": "contractAddress",
          "type": "address"
        },
        {
          "indexed": false,
          "name": "collateralPerUnit",
          "type": "uint256"
        }
      ],
      "name": "MarketContractDeployed",
      "type": "event"
    },
    {
      "anonymous": false,
      "inputs": [
        {
          "indexed": false,
          "name": "owner",
          "type": "address"
        },
        {
          "indexed": false,
          "name": "DSProxy",
          "type": "address"
        }
      ],
      "name": "dSProxyCreated",
      "type": "event"
    },
    {
      "anonymous": false,
      "inputs": [
        {
          "indexed": true,
          "name": "previousOwner",
          "type": "address"
        },
        {
          "indexed": true,
          "name": "newOwner",
          "type": "address"
        }
      ],
      "name": "OwnershipTransferred",
      "type": "event"
    },
    {
      "constant": false,
      "inputs": [
        {
          "name": "_honeyLemonOracleAddress",
          "type": "address"
        }
      ],
      "name": "setOracleAddress",
      "outputs": [],
      "payable": false,
      "stateMutability": "nonpayable",
      "type": "function"
    },
    {
      "constant": false,
      "inputs": [
        {
          "name": "_minterBridgeAddress",
          "type": "address"
        }
      ],
      "name": "setMinterBridgeAddress",
      "outputs": [],
      "payable": false,
      "stateMutability": "nonpayable",
      "type": "function"
    },
    {
      "constant": true,
      "inputs": [
        {
          "name": "makerAddresses",
          "type": "address[]"
        }
      ],
      "name": "getFillableAmounts",
      "outputs": [
        {
          "name": "fillableAmounts",
          "type": "uint256[]"
        }
      ],
      "payable": false,
      "stateMutability": "view",
      "type": "function"
    },
    {
      "constant": true,
      "inputs": [],
      "name": "getLatestMri",
      "outputs": [
        {
          "name": "",
          "type": "uint256"
        }
      ],
      "payable": false,
      "stateMutability": "view",
      "type": "function"
    },
    {
      "constant": true,
      "inputs": [],
      "name": "getAllMarketContracts",
      "outputs": [
        {
          "name": "",
          "type": "address[]"
        }
      ],
      "payable": false,
      "stateMutability": "view",
      "type": "function"
    },
    {
      "constant": true,
      "inputs": [
        {
          "name": "makerAddress",
          "type": "address"
        }
      ],
      "name": "getFillableAmount",
      "outputs": [
        {
          "name": "",
          "type": "uint256"
        }
      ],
      "payable": false,
      "stateMutability": "view",
      "type": "function"
    },
    {
      "constant": true,
      "inputs": [],
      "name": "getLatestMarketContract",
      "outputs": [
        {
          "name": "",
          "type": "address"
        }
      ],
      "payable": false,
      "stateMutability": "view",
      "type": "function"
    },
    {
      "constant": true,
      "inputs": [],
      "name": "getExpiringMarketContract",
      "outputs": [
        {
          "name": "",
          "type": "address"
        }
      ],
      "payable": false,
      "stateMutability": "view",
      "type": "function"
    },
    {
      "constant": true,
      "inputs": [
        {
          "name": "market",
          "type": "address"
        }
      ],
      "name": "getCollateralPool",
      "outputs": [
        {
          "name": "",
          "type": "address"
        }
      ],
      "payable": false,
      "stateMutability": "view",
      "type": "function"
    },
    {
      "constant": true,
      "inputs": [],
      "name": "getLatestMarketCollateralPool",
      "outputs": [
        {
          "name": "",
          "type": "address"
        }
      ],
      "payable": false,
      "stateMutability": "view",
      "type": "function"
    },
    {
      "constant": true,
      "inputs": [
        {
          "name": "amount",
          "type": "uint256"
        }
      ],
      "name": "calculateRequiredCollateral",
      "outputs": [
        {
          "name": "",
          "type": "uint256"
        }
      ],
      "payable": false,
      "stateMutability": "view",
      "type": "function"
    },
    {
      "constant": true,
      "inputs": [
        {
          "name": "owner",
          "type": "address"
        }
      ],
      "name": "balanceOf",
      "outputs": [
        {
          "name": "",
          "type": "uint256"
        }
      ],
      "payable": false,
      "stateMutability": "view",
      "type": "function"
    },
    {
      "constant": true,
      "inputs": [],
      "name": "getTime",
      "outputs": [
        {
          "name": "",
          "type": "uint256"
        }
      ],
      "payable": false,
      "stateMutability": "view",
      "type": "function"
    },
    {
      "constant": true,
      "inputs": [
        {
          "name": "currentMRI",
          "type": "uint256"
        },
        {
          "name": "expiration",
          "type": "uint256"
        }
      ],
      "name": "generateContractSpecs",
      "outputs": [
        {
          "name": "",
          "type": "uint256[7]"
        }
      ],
      "payable": false,
      "stateMutability": "view",
      "type": "function"
    },
    {
      "constant": true,
      "inputs": [
        {
          "name": "inputAddress",
          "type": "address"
        }
      ],
      "name": "getUserAddressOrDSProxy",
      "outputs": [
        {
          "name": "",
          "type": "address"
        }
      ],
      "payable": false,
      "stateMutability": "view",
      "type": "function"
    },
    {
      "constant": true,
      "inputs": [],
      "name": "isDailyContractDeployed",
      "outputs": [
        {
          "name": "",
          "type": "bool"
        }
      ],
      "payable": false,
      "stateMutability": "view",
      "type": "function"
    },
    {
      "constant": false,
      "inputs": [],
      "name": "createDSProxyWallet",
      "outputs": [
        {
          "name": "",
          "type": "address"
        }
      ],
      "payable": false,
      "stateMutability": "nonpayable",
      "type": "function"
    },
    {
      "constant": false,
      "inputs": [
        {
          "name": "tokenAddresses",
          "type": "address[]"
        },
        {
          "name": "tokensToRedeem",
          "type": "uint256[]"
        }
      ],
      "name": "batchRedeem",
      "outputs": [],
      "payable": false,
      "stateMutability": "nonpayable",
      "type": "function"
    },
    {
      "constant": false,
      "inputs": [
        {
          "name": "lookbackIndexValue",
          "type": "uint256"
        },
        {
          "name": "currentIndexValue",
          "type": "uint256"
        },
        {
          "name": "marketAndsTokenNames",
          "type": "bytes32[3]"
        },
        {
          "name": "newMarketExpiration",
          "type": "uint256"
        }
      ],
      "name": "dailySettlement",
      "outputs": [],
      "payable": false,
      "stateMutability": "nonpayable",
      "type": "function"
    },
    {
      "constant": false,
      "inputs": [
        {
          "name": "mri",
          "type": "uint256"
        },
        {
          "name": "marketContractAddress",
          "type": "address"
        }
      ],
      "name": "settleMarketContract",
      "outputs": [],
      "payable": false,
      "stateMutability": "nonpayable",
      "type": "function"
    },
    {
      "constant": false,
      "inputs": [
        {
          "name": "qtyToMint",
          "type": "uint256"
        },
        {
          "name": "longTokenRecipient",
          "type": "address"
        },
        {
          "name": "shortTokenRecipient",
          "type": "address"
        }
      ],
      "name": "mintPositionTokens",
      "outputs": [],
      "payable": false,
      "stateMutability": "nonpayable",
      "type": "function"
    }
  ],
  "bytecode": "0x60806040526002600655603c806018600654020202600755630773594060085560e060405190810160405280600060ff168152602001600060ff168152602001600860ff168152602001600160ff168152602001600060ff168152602001600060ff168152602001600060ff168152506009906007620000819291906200059d565b5060006012553480156200009457600080fd5b506040516080806200568083398101806040526080811015620000b657600080fd5b8101908080519060200190929190805190602001909291908051906020019092919080519060200190929190505050600160008190555033600160006101000a81548173ffffffffffffffffffffffffffffffffffffffff021916908373ffffffffffffffffffffffffffffffffffffffff160217905550600160009054906101000a900473ffffffffffffffffffffffffffffffffffffffff1673ffffffffffffffffffffffffffffffffffffffff16600073ffffffffffffffffffffffffffffffffffffffff167f8be0079c531659141344cd1fd0a4f28419497f9722a3daafe3b4186f6b6457e060405160405180910390a3600073ffffffffffffffffffffffffffffffffffffffff168473ffffffffffffffffffffffffffffffffffffffff161415151562000235576040517f08c379a0000000000000000000000000000000000000000000000000000000008152600401808060200182810382526028815260200180620056586028913960400191505060405180910390fd5b600073ffffffffffffffffffffffffffffffffffffffff168373ffffffffffffffffffffffffffffffffffffffff1614151515620002db576040517f08c379a00000000000000000000000000000000000000000000000000000000081526004018080602001828103825260208152602001807f696e76616c696420486f6e65794c656d6f6e4f7261636c65206164647265737381525060200191505060405180910390fd5b600073ffffffffffffffffffffffffffffffffffffffff168273ffffffffffffffffffffffffffffffffffffffff161415151562000381576040517f08c379a000000000000000000000000000000000000000000000000000000000815260040180806020018281038252601c8152602001807f696e76616c6964204d696e74657242726964676520616464726573730000000081525060200191505060405180910390fd5b600073ffffffffffffffffffffffffffffffffffffffff168173ffffffffffffffffffffffffffffffffffffffff161415151562000427576040517f08c379a00000000000000000000000000000000000000000000000000000000081526004018080602001828103825260158152602001807f696e76616c696420494d4254432061646472657373000000000000000000000081525060200191505060405180910390fd5b83600260006101000a81548173ffffffffffffffffffffffffffffffffffffffff021916908373ffffffffffffffffffffffffffffffffffffffff16021790555082600360006101000a81548173ffffffffffffffffffffffffffffffffffffffff021916908373ffffffffffffffffffffffffffffffffffffffff16021790555081600460006101000a81548173ffffffffffffffffffffffffffffffffffffffff021916908373ffffffffffffffffffffffffffffffffffffffff16021790555080600560006101000a81548173ffffffffffffffffffffffffffffffffffffffff021916908373ffffffffffffffffffffffffffffffffffffffff16021790555062000535620005e7565b604051809103906000f08015801562000552573d6000803e3d6000fd5b50601360006101000a81548173ffffffffffffffffffffffffffffffffffffffff021916908373ffffffffffffffffffffffffffffffffffffffff1602179055505050505062000620565b8260078101928215620005d4579160200282015b82811115620005d3578251829060ff16905591602001919060010190620005b1565b5b509050620005e39190620005f8565b5090565b604051610eeb806200476d83390190565b6200061d91905b8082111562000619576000816000905550600101620005ff565b5090565b90565b61413d80620006306000396000f3fe608060405234801561001057600080fd5b5060043610610239576000357c01000000000000000000000000000000000000000000000000000000009004806379f6d4a911610142578063b12a3cf3116100ca578063e6d70f9011610099578063e6d70f9014610cec578063eb4ee69614610d0a578063ec443c3a14610d54578063f2fde38b14610d9e578063febec67214610de257610239565b8063b12a3cf314610ae3578063b71f3e1514610b3b578063ce79d80314610bbf578063d725860814610c1e57610239565b80638af4266e116101115780638af4266e146109c95780638da5cb5b146109eb5780638f32d59b14610a355780639367827914610a575780639a7f60c814610aa157610239565b806379f6d4a9146108705780637a1de44e146108f35780637dd255491461096157806381c63c581461097f57610239565b80634c69c00f116101c55780635abe304d116101945780635abe304d14610630578063619fadb4146106745780636200c9ff146106c257806370a082311461080e578063715018a61461086657610239565b80634c69c00f146104d65780635252f3a21461051a578063557ed1ba1461059e578063571cf0dd146105bc57610239565b80631d161ee71161020c5780631d161ee71461030e5780631d3932a51461037c578063323bb7751461040057806334931b4b1461044a578063407914a91461048c57610239565b80630f604d3b1461023e57806312fb183e146102885780631523f83f146102a657806317ac56b6146102f0575b600080fd5b610246610e66565b604051808273ffffffffffffffffffffffffffffffffffffffff1673ffffffffffffffffffffffffffffffffffffffff16815260200191505060405180910390f35b610290610e82565b6040518082815260200191505060405180910390f35b6102ae610e88565b604051808273ffffffffffffffffffffffffffffffffffffffff1673ffffffffffffffffffffffffffffffffffffffff16815260200191505060405180910390f35b6102f8610eae565b6040518082815260200191505060405180910390f35b61037a6004803603606081101561032457600080fd5b8101908080359060200190929190803573ffffffffffffffffffffffffffffffffffffffff169060200190929190803573ffffffffffffffffffffffffffffffffffffffff169060200190929190505050610eb4565b005b6103be6004803603602081101561039257600080fd5b81019080803573ffffffffffffffffffffffffffffffffffffffff169060200190929190505050611969565b604051808273ffffffffffffffffffffffffffffffffffffffff1673ffffffffffffffffffffffffffffffffffffffff16815260200191505060405180910390f35b610408611a6b565b604051808273ffffffffffffffffffffffffffffffffffffffff1673ffffffffffffffffffffffffffffffffffffffff16815260200191505060405180910390f35b6104766004803603602081101561046057600080fd5b8101908080359060200190929190505050611a91565b6040518082815260200191505060405180910390f35b610494611b4c565b604051808273ffffffffffffffffffffffffffffffffffffffff1673ffffffffffffffffffffffffffffffffffffffff16815260200191505060405180910390f35b610518600480360360208110156104ec57600080fd5b81019080803573ffffffffffffffffffffffffffffffffffffffff169060200190929190505050611de3565b005b61055c6004803603602081101561053057600080fd5b81019080803573ffffffffffffffffffffffffffffffffffffffff169060200190929190505050611edf565b604051808273ffffffffffffffffffffffffffffffffffffffff1673ffffffffffffffffffffffffffffffffffffffff16815260200191505060405180910390f35b6105a6611f85565b6040518082815260200191505060405180910390f35b6105f2600480360360408110156105d257600080fd5b810190808035906020019092919080359060200190929190505050611f8d565b6040518082600760200280838360005b8381101561061d578082015181840152602081019050610602565b5050505090500191505060405180910390f35b6106726004803603602081101561064657600080fd5b81019080803573ffffffffffffffffffffffffffffffffffffffff169060200190929190505050612057565b005b6106c06004803603604081101561068a57600080fd5b8101908080359060200190929190803573ffffffffffffffffffffffffffffffffffffffff169060200190929190505050612153565b005b61080c600480360360408110156106d857600080fd5b81019080803590602001906401000000008111156106f557600080fd5b82018360208201111561070757600080fd5b8035906020019184602083028401116401000000008311171561072957600080fd5b919080806020026020016040519081016040528093929190818152602001838360200280828437600081840152601f19601f8201169050808301925050505050505091929192908035906020019064010000000081111561078957600080fd5b82018360208201111561079b57600080fd5b803590602001918460208302840111640100000000831117156107bd57600080fd5b919080806020026020016040519081016040528093929190818152602001838360200280828437600081840152601f19601f82011690508083019250505050505050919291929050505061240c565b005b6108506004803603602081101561082457600080fd5b81019080803573ffffffffffffffffffffffffffffffffffffffff169060200190929190505050612ddc565b6040518082815260200191505060405180910390f35b61086e612f75565b005b6108f1600480360360c081101561088657600080fd5b81019080803590602001909291908035906020019092919080606001906003806020026040519081016040528092919082600360200280828437600081840152601f19601f820116905080830192505050505050919291929080359060200190929190505050613049565b005b61091f6004803603602081101561090957600080fd5b81019080803590602001909291905050506131ee565b604051808273ffffffffffffffffffffffffffffffffffffffff1673ffffffffffffffffffffffffffffffffffffffff16815260200191505060405180910390f35b61096961322c565b6040518082815260200191505060405180910390f35b610987613236565b604051808273ffffffffffffffffffffffffffffffffffffffff1673ffffffffffffffffffffffffffffffffffffffff16815260200191505060405180910390f35b6109d16132b0565b604051808215151515815260200191505060405180910390f35b6109f3613378565b604051808273ffffffffffffffffffffffffffffffffffffffff1673ffffffffffffffffffffffffffffffffffffffff16815260200191505060405180910390f35b610a3d6133a2565b604051808215151515815260200191505060405180910390f35b610a5f6133fa565b604051808273ffffffffffffffffffffffffffffffffffffffff1673ffffffffffffffffffffffffffffffffffffffff16815260200191505060405180910390f35b610acd60048036036020811015610ab757600080fd5b8101908080359060200190929190505050613458565b6040518082815260200191505060405180910390f35b610b2560048036036020811015610af957600080fd5b81019080803573ffffffffffffffffffffffffffffffffffffffff169060200190929190505050613472565b6040518082815260200191505060405180910390f35b610b7d60048036036020811015610b5157600080fd5b81019080803573ffffffffffffffffffffffffffffffffffffffff169060200190929190505050613773565b604051808273ffffffffffffffffffffffffffffffffffffffff1673ffffffffffffffffffffffffffffffffffffffff16815260200191505060405180910390f35b610bc76137a6565b6040518080602001828103825283818151815260200191508051906020019060200280838360005b83811015610c0a578082015181840152602081019050610bef565b505050509050019250505060405180910390f35b610c9560048036036020811015610c3457600080fd5b8101908080359060200190640100000000811115610c5157600080fd5b820183602082011115610c6357600080fd5b80359060200191846020830284011164010000000083111715610c8557600080fd5b9091929391929390505050613834565b6040518080602001828103825283818151815260200191508051906020019060200280838360005b83811015610cd8578082015181840152602081019050610cbd565b505050509050019250505060405180910390f35b610cf46138e6565b6040518082815260200191505060405180910390f35b610d126138ec565b604051808273ffffffffffffffffffffffffffffffffffffffff1673ffffffffffffffffffffffffffffffffffffffff16815260200191505060405180910390f35b610d5c613912565b604051808273ffffffffffffffffffffffffffffffffffffffff1673ffffffffffffffffffffffffffffffffffffffff16815260200191505060405180910390f35b610de060048036036020811015610db457600080fd5b81019080803573ffffffffffffffffffffffffffffffffffffffff169060200190929190505050613938565b005b610e2460048036036020811015610df857600080fd5b81019080803573ffffffffffffffffffffffffffffffffffffffff169060200190929190505050613957565b604051808273ffffffffffffffffffffffffffffffffffffffff1673ffffffffffffffffffffffffffffffffffffffff16815260200191505060405180910390f35b600080610e716133fa565b9050610e7c81611edf565b91505090565b60065481565b600460009054906101000a900473ffffffffffffffffffffffffffffffffffffffff1681565b60075481565b600460009054906101000a900473ffffffffffffffffffffffffffffffffffffffff1673ffffffffffffffffffffffffffffffffffffffff163373ffffffffffffffffffffffffffffffffffffffff16141515610f79576040517f08c379a00000000000000000000000000000000000000000000000000000000081526004018080602001828103825260128152602001807f4f6e6c79204d696e74657220427269646765000000000000000000000000000081525060200191505060405180910390fd5b610f816132b0565b1515610fd8576040517f08c379a00000000000000000000000000000000000000000000000000000000081526004018080602001828103825260278152602001806140a46027913960400191505060405180910390fd5b600160008082825401925050819055506000805490506000610ff985611a91565b905060006110056133fa565b90506000611011610e66565b905060008273ffffffffffffffffffffffffffffffffffffffff166322d1c35e6040518163ffffffff167c010000000000000000000000000000000000000000000000000000000002815260040160206040518083038186803b15801561107757600080fd5b505afa15801561108b573d6000803e3d6000fd5b505050506040513d60208110156110a157600080fd5b8101908080519060200190929190505050905060008373ffffffffffffffffffffffffffffffffffffffff16635b3f1e3f6040518163ffffffff167c010000000000000000000000000000000000000000000000000000000002815260040160206040518083038186803b15801561111857600080fd5b505afa15801561112c573d6000803e3d6000fd5b505050506040513d602081101561114257600080fd5b810190808051906020019092919050505090506000600560009054906101000a900473ffffffffffffffffffffffffffffffffffffffff1690508073ffffffffffffffffffffffffffffffffffffffff166323b872dd600460009054906101000a900473ffffffffffffffffffffffffffffffffffffffff1630896040518463ffffffff167c0100000000000000000000000000000000000000000000000000000000028152600401808473ffffffffffffffffffffffffffffffffffffffff1673ffffffffffffffffffffffffffffffffffffffff1681526020018373ffffffffffffffffffffffffffffffffffffffff1673ffffffffffffffffffffffffffffffffffffffff1681526020018281526020019350505050602060405180830381600087803b15801561127557600080fd5b505af1158015611289573d6000803e3d6000fd5b505050506040513d602081101561129f57600080fd5b8101908080519060200190929190505050508073ffffffffffffffffffffffffffffffffffffffff1663095ea7b385886040518363ffffffff167c0100000000000000000000000000000000000000000000000000000000028152600401808373ffffffffffffffffffffffffffffffffffffffff1673ffffffffffffffffffffffffffffffffffffffff16815260200182815260200192505050602060405180830381600087803b15801561135457600080fd5b505af1158015611368573d6000803e3d6000fd5b505050506040513d602081101561137e57600080fd5b8101908080519060200190929190505050508373ffffffffffffffffffffffffffffffffffffffff1663125bb6a9868c60006040518463ffffffff167c0100000000000000000000000000000000000000000000000000000000028152600401808473ffffffffffffffffffffffffffffffffffffffff1673ffffffffffffffffffffffffffffffffffffffff168152602001838152602001821515151581526020019350505050600060405180830381600087803b15801561144057600080fd5b505af1158015611454573d6000803e3d6000fd5b505050508273ffffffffffffffffffffffffffffffffffffffff1663a9059cbb61147d8b611969565b8c6040518363ffffffff167c0100000000000000000000000000000000000000000000000000000000028152600401808373ffffffffffffffffffffffffffffffffffffffff1673ffffffffffffffffffffffffffffffffffffffff16815260200182815260200192505050602060405180830381600087803b15801561150357600080fd5b505af1158015611517573d6000803e3d6000fd5b505050506040513d602081101561152d57600080fd5b8101908080519060200190929190505050508173ffffffffffffffffffffffffffffffffffffffff1663a9059cbb6115648a611969565b8c6040518363ffffffff167c0100000000000000000000000000000000000000000000000000000000028152600401808373ffffffffffffffffffffffffffffffffffffffff1673ffffffffffffffffffffffffffffffffffffffff16815260200182815260200192505050602060405180830381600087803b1580156115ea57600080fd5b505af11580156115fe573d6000803e3d6000fd5b505050506040513d602081101561161457600080fd5b8101908080519060200190929190505050508773ffffffffffffffffffffffffffffffffffffffff168973ffffffffffffffffffffffffffffffffffffffff16601160008873ffffffffffffffffffffffffffffffffffffffff1673ffffffffffffffffffffffffffffffffffffffff168152602001908152602001600020547f9a401714d85871064da5e28ca5e7e523ea910cbe7e7e4eef8bd81bf46d18e8c98d8973ffffffffffffffffffffffffffffffffffffffff1663614d08f86040518163ffffffff167c010000000000000000000000000000000000000000000000000000000002815260040160006040518083038186803b15801561171857600080fd5b505afa15801561172c573d6000803e3d6000fd5b505050506040513d6000823e3d601f19601f82011682018060405250602081101561175657600080fd5b81019080805164010000000081111561176e57600080fd5b8281019050602081018481111561178457600080fd5b81518560018202830111640100000000821117156117a157600080fd5b50509291905050506117b28f611969565b6117bb8f611969565b8c8b8b6117c6611f85565b60405180898152602001806020018873ffffffffffffffffffffffffffffffffffffffff1673ffffffffffffffffffffffffffffffffffffffff1681526020018773ffffffffffffffffffffffffffffffffffffffff1673ffffffffffffffffffffffffffffffffffffffff1681526020018673ffffffffffffffffffffffffffffffffffffffff1673ffffffffffffffffffffffffffffffffffffffff1681526020018573ffffffffffffffffffffffffffffffffffffffff1673ffffffffffffffffffffffffffffffffffffffff1681526020018473ffffffffffffffffffffffffffffffffffffffff1673ffffffffffffffffffffffffffffffffffffffff168152602001838152602001828103825289818151815260200191508051906020019080838360005b8381101561190c5780820151818401526020810190506118f1565b50505050905090810190601f1680156119395780820380516001836020036101000a031916815260200191505b50995050505050505050505060405180910390a45050505050506000548114151561196357600080fd5b50505050565b60008073ffffffffffffffffffffffffffffffffffffffff16601460008473ffffffffffffffffffffffffffffffffffffffff1673ffffffffffffffffffffffffffffffffffffffff16815260200190815260200160002060009054906101000a900473ffffffffffffffffffffffffffffffffffffffff1673ffffffffffffffffffffffffffffffffffffffff1614611a6257601460008373ffffffffffffffffffffffffffffffffffffffff1673ffffffffffffffffffffffffffffffffffffffff16815260200190815260200160002060009054906101000a900473ffffffffffffffffffffffffffffffffffffffff16611a64565b815b9050919050565b600560009054906101000a900473ffffffffffffffffffffffffffffffffffffffff1681565b600080611a9c6133fa565b9050611b44838273ffffffffffffffffffffffffffffffffffffffff1663e158e02d6040518163ffffffff167c010000000000000000000000000000000000000000000000000000000002815260040160206040518083038186803b158015611b0457600080fd5b505afa158015611b18573d6000803e3d6000fd5b505050506040513d6020811015611b2e57600080fd5b810190808051906020019092919050505061398a565b915050919050565b600080601360009054906101000a900473ffffffffffffffffffffffffffffffffffffffff1673ffffffffffffffffffffffffffffffffffffffff1663f3701da2336040518263ffffffff167c0100000000000000000000000000000000000000000000000000000000028152600401808273ffffffffffffffffffffffffffffffffffffffff1673ffffffffffffffffffffffffffffffffffffffff168152602001915050602060405180830381600087803b158015611c0c57600080fd5b505af1158015611c20573d6000803e3d6000fd5b505050506040513d6020811015611c3657600080fd5b8101908080519060200190929190505050905080601460003373ffffffffffffffffffffffffffffffffffffffff1673ffffffffffffffffffffffffffffffffffffffff16815260200190815260200160002060006101000a81548173ffffffffffffffffffffffffffffffffffffffff021916908373ffffffffffffffffffffffffffffffffffffffff16021790555033601560008373ffffffffffffffffffffffffffffffffffffffff1673ffffffffffffffffffffffffffffffffffffffff16815260200190815260200160002060006101000a81548173ffffffffffffffffffffffffffffffffffffffff021916908373ffffffffffffffffffffffffffffffffffffffff1602179055507f3e391cc46bb19378d04dc06707355be58c38457f63fd3a02163cbbbef700258d3382604051808373ffffffffffffffffffffffffffffffffffffffff1673ffffffffffffffffffffffffffffffffffffffff1681526020018273ffffffffffffffffffffffffffffffffffffffff1673ffffffffffffffffffffffffffffffffffffffff1681526020019250505060405180910390a18091505090565b611deb6133a2565b1515611df657600080fd5b600073ffffffffffffffffffffffffffffffffffffffff168173ffffffffffffffffffffffffffffffffffffffff1614151515611e9b576040517f08c379a00000000000000000000000000000000000000000000000000000000081526004018080602001828103825260208152602001807f696e76616c696420486f6e65794c656d6f6e4f7261636c65206164647265737381525060200191505060405180910390fd5b80600360006101000a81548173ffffffffffffffffffffffffffffffffffffffff021916908373ffffffffffffffffffffffffffffffffffffffff16021790555050565b60008173ffffffffffffffffffffffffffffffffffffffff1663eaafb4fa6040518163ffffffff167c010000000000000000000000000000000000000000000000000000000002815260040160206040518083038186803b158015611f4357600080fd5b505afa158015611f57573d6000803e3d6000fd5b505050506040513d6020811015611f6d57600080fd5b81019080805190602001909291905050509050919050565b600042905090565b611f95614080565b611f9d614080565b6009600780602002604051908101604052809291908260078015611fd6576020028201915b815481526020019060010190808311611fc2575b5050505050905061201c6305f5e10061200e60085461200088600654613a3190919063ffffffff16565b613a3190919063ffffffff16565b613a6f90919063ffffffff16565b81600160078110151561202b57fe5b6020020181815250508281600660078110151561204457fe5b6020020181815250508091505092915050565b61205f6133a2565b151561206a57600080fd5b600073ffffffffffffffffffffffffffffffffffffffff168173ffffffffffffffffffffffffffffffffffffffff161415151561210f576040517f08c379a000000000000000000000000000000000000000000000000000000000815260040180806020018281038252601c8152602001807f696e76616c6964204d696e74657242726964676520616464726573730000000081525060200191505060405180910390fd5b80600460006101000a81548173ffffffffffffffffffffffffffffffffffffffff021916908373ffffffffffffffffffffffffffffffffffffffff16021790555050565b600360009054906101000a900473ffffffffffffffffffffffffffffffffffffffff1673ffffffffffffffffffffffffffffffffffffffff163373ffffffffffffffffffffffffffffffffffffffff16141515612218576040517f08c379a00000000000000000000000000000000000000000000000000000000081526004018080602001828103825260178152602001807f4f6e6c7920486f6e6579204c656d6f6e204f7261636c6500000000000000000081525060200191505060405180910390fd5b60008214151515612274576040517f08c379a00000000000000000000000000000000000000000000000000000000081526004018080602001828103825260248152602001806140cb6024913960400191505060405180910390fd5b600073ffffffffffffffffffffffffffffffffffffffff168173ffffffffffffffffffffffffffffffffffffffff1614151515612319576040517f08c379a000000000000000000000000000000000000000000000000000000000815260040180806020018281038252601f8152602001807f496e76616c6964206d61726b657420636f6e747261637420616464726573730081525060200191505060405180910390fd5b60008190508073ffffffffffffffffffffffffffffffffffffffff16636fbce940846040518263ffffffff167c010000000000000000000000000000000000000000000000000000000002815260040180828152602001915050600060405180830381600087803b15801561238d57600080fd5b505af11580156123a1573d6000803e3d6000fd5b50505050826012819055508173ffffffffffffffffffffffffffffffffffffffff167f726a84c9ab637ed2eb063e4432f70689120b2af16b668f84cbb5979273ab9f8384601080549050604051808381526020018281526020019250505060405180910390a2505050565b600160008082825401925050819055506000805490508151835114151561249b576040517f08c379a00000000000000000000000000000000000000000000000000000000081526004018080602001828103825260148152602001807f496e76616c696420696e70757420706172616d7300000000000000000000000081525060200191505060405180910390fd5b3373ffffffffffffffffffffffffffffffffffffffff163073ffffffffffffffffffffffffffffffffffffffff16638da5cb5b6040518163ffffffff167c010000000000000000000000000000000000000000000000000000000002815260040160206040518083038186803b15801561251457600080fd5b505afa158015612528573d6000803e3d6000fd5b505050506040513d602081101561253e57600080fd5b810190808051906020019092919050505073ffffffffffffffffffffffffffffffffffffffff161415156125da576040517f08c379a000000000000000000000000000000000000000000000000000000000815260040180806020018281038252601f8152602001807f596f7520646f6e2774206f776e207468697320445350726f7879204754464f0081525060200191505060405180910390fd5b600080600080600090505b8651811015612b695786818151811015156125fc57fe5b906020019060200201519150858181518110151561261657fe5b906020019060200201518273ffffffffffffffffffffffffffffffffffffffff166370a08231306040518263ffffffff167c0100000000000000000000000000000000000000000000000000000000028152600401808273ffffffffffffffffffffffffffffffffffffffff1673ffffffffffffffffffffffffffffffffffffffff16815260200191505060206040518083038186803b1580156126b957600080fd5b505afa1580156126cd573d6000803e3d6000fd5b505050506040513d60208110156126e357600080fd5b81019080805190602001909291905050501015151561274d576040517f08c379a00000000000000000000000000000000000000000000000000000000081526004018080602001828103825260238152602001806140ef6023913960400191505060405180910390fd5b8173ffffffffffffffffffffffffffffffffffffffff16638da5cb5b6040518163ffffffff167c010000000000000000000000000000000000000000000000000000000002815260040160206040518083038186803b1580156127af57600080fd5b505afa1580156127c3573d6000803e3d6000fd5b505050506040513d60208110156127d957600080fd5b810190808051906020019092919050505093506127f584611edf565b92508173ffffffffffffffffffffffffffffffffffffffff1663095ea7b385888481518110151561282257fe5b906020019060200201516040518363ffffffff167c0100000000000000000000000000000000000000000000000000000000028152600401808373ffffffffffffffffffffffffffffffffffffffff1673ffffffffffffffffffffffffffffffffffffffff16815260200182815260200192505050602060405180830381600087803b1580156128b157600080fd5b505af11580156128c5573d6000803e3d6000fd5b505050506040513d60208110156128db57600080fd5b81019080805190602001909291905050505060008273ffffffffffffffffffffffffffffffffffffffff1663b003b1276040518163ffffffff167c010000000000000000000000000000000000000000000000000000000002815260040160206040518083038186803b15801561295157600080fd5b505afa158015612965573d6000803e3d6000fd5b505050506040513d602081101561297b57600080fd5b8101908080519060200190929190505050600181111561299757fe5b60ff161415612a80578273ffffffffffffffffffffffffffffffffffffffff166310198cb78588848151811015156129cb57fe5b9060200190602002015160006040518463ffffffff167c0100000000000000000000000000000000000000000000000000000000028152600401808473ffffffffffffffffffffffffffffffffffffffff1673ffffffffffffffffffffffffffffffffffffffff1681526020018381526020018281526020019350505050600060405180830381600087803b158015612a6357600080fd5b505af1158015612a77573d6000803e3d6000fd5b50505050612b5c565b8273ffffffffffffffffffffffffffffffffffffffff166310198cb78560008985815181101515612aad57fe5b906020019060200201516040518463ffffffff167c0100000000000000000000000000000000000000000000000000000000028152600401808473ffffffffffffffffffffffffffffffffffffffff1673ffffffffffffffffffffffffffffffffffffffff1681526020018381526020018281526020019350505050600060405180830381600087803b158015612b4357600080fd5b505af1158015612b57573d6000803e3d6000fd5b505050505b80806001019150506125e5565b5060008373ffffffffffffffffffffffffffffffffffffffff1663323bb7756040518163ffffffff167c010000000000000000000000000000000000000000000000000000000002815260040160206040518083038186803b158015612bce57600080fd5b505afa158015612be2573d6000803e3d6000fd5b505050506040513d6020811015612bf857600080fd5b8101908080519060200190929190505050905060008173ffffffffffffffffffffffffffffffffffffffff166370a08231306040518263ffffffff167c0100000000000000000000000000000000000000000000000000000000028152600401808273ffffffffffffffffffffffffffffffffffffffff1673ffffffffffffffffffffffffffffffffffffffff16815260200191505060206040518083038186803b158015612ca657600080fd5b505afa158015612cba573d6000803e3d6000fd5b505050506040513d6020811015612cd057600080fd5b810190808051906020019092919050505090508173ffffffffffffffffffffffffffffffffffffffff1663a9059cbb33836040518363ffffffff167c0100000000000000000000000000000000000000000000000000000000028152600401808373ffffffffffffffffffffffffffffffffffffffff1673ffffffffffffffffffffffffffffffffffffffff16815260200182815260200192505050602060405180830381600087803b158015612d8657600080fd5b505af1158015612d9a573d6000803e3d6000fd5b505050506040513d6020811015612db057600080fd5b810190808051906020019092919050505050505050505060005481141515612dd757600080fd5b505050565b600080612de883611969565b90506000612df46133fa565b905060008173ffffffffffffffffffffffffffffffffffffffff166322d1c35e6040518163ffffffff167c010000000000000000000000000000000000000000000000000000000002815260040160206040518083038186803b158015612e5a57600080fd5b505afa158015612e6e573d6000803e3d6000fd5b505050506040513d6020811015612e8457600080fd5b810190808051906020019092919050505090508073ffffffffffffffffffffffffffffffffffffffff166370a08231846040518263ffffffff167c0100000000000000000000000000000000000000000000000000000000028152600401808273ffffffffffffffffffffffffffffffffffffffff1673ffffffffffffffffffffffffffffffffffffffff16815260200191505060206040518083038186803b158015612f3057600080fd5b505afa158015612f44573d6000803e3d6000fd5b505050506040513d6020811015612f5a57600080fd5b81019080805190602001909291905050509350505050919050565b612f7d6133a2565b1515612f8857600080fd5b600073ffffffffffffffffffffffffffffffffffffffff16600160009054906101000a900473ffffffffffffffffffffffffffffffffffffffff1673ffffffffffffffffffffffffffffffffffffffff167f8be0079c531659141344cd1fd0a4f28419497f9722a3daafe3b4186f6b6457e060405160405180910390a36000600160006101000a81548173ffffffffffffffffffffffffffffffffffffffff021916908373ffffffffffffffffffffffffffffffffffffffff160217905550565b600360009054906101000a900473ffffffffffffffffffffffffffffffffffffffff1673ffffffffffffffffffffffffffffffffffffffff163373ffffffffffffffffffffffffffffffffffffffff1614151561310e576040517f08c379a00000000000000000000000000000000000000000000000000000000081526004018080602001828103825260178152602001807f4f6e6c7920486f6e6579204c656d6f6e204f7261636c6500000000000000000081525060200191505060405180910390fd5b60008314151515613187576040517f08c379a000000000000000000000000000000000000000000000000000000000815260040180806020018281038252601e8152602001807f43757272656e74204d52492076616c75652063616e74206265207a65726f000081525060200191505060405180910390fd5b6000613191613236565b9050600073ffffffffffffffffffffffffffffffffffffffff168173ffffffffffffffffffffffffffffffffffffffff161415156131d4576131d38582612153565b5b6131df848484613a99565b50836012819055505050505050565b6010818154811015156131fd57fe5b906000526020600020016000915054906101000a900473ffffffffffffffffffffffffffffffffffffffff1681565b6000601254905090565b60008060108054905090506006548110156132555760009150506132ad565b600061326c60065483613f4290919063ffffffff16565b905060108181548110151561327d57fe5b9060005260206000200160009054906101000a900473ffffffffffffffffffffffffffffffffffffffff16925050505b90565b6000806132bb6133fa565b73ffffffffffffffffffffffffffffffffffffffff1663bb4b57346040518163ffffffff167c010000000000000000000000000000000000000000000000000000000002815260040160206040518083038186803b15801561331c57600080fd5b505afa158015613330573d6000803e3d6000fd5b505050506040513d602081101561334657600080fd5b81019080805190602001909291905050509050600062015180600754830301905080613370611f85565b109250505090565b6000600160009054906101000a900473ffffffffffffffffffffffffffffffffffffffff16905090565b6000600160009054906101000a900473ffffffffffffffffffffffffffffffffffffffff1673ffffffffffffffffffffffffffffffffffffffff163373ffffffffffffffffffffffffffffffffffffffff1614905090565b6000806134166001601080549050613f4290919063ffffffff16565b905060108181548110151561342757fe5b9060005260206000200160009054906101000a900473ffffffffffffffffffffffffffffffffffffffff1691505090565b60098160078110151561346757fe5b016000915090505481565b600080600560009054906101000a900473ffffffffffffffffffffffffffffffffffffffff16905060008173ffffffffffffffffffffffffffffffffffffffff166370a08231856040518263ffffffff167c0100000000000000000000000000000000000000000000000000000000028152600401808273ffffffffffffffffffffffffffffffffffffffff1673ffffffffffffffffffffffffffffffffffffffff16815260200191505060206040518083038186803b15801561353557600080fd5b505afa158015613549573d6000803e3d6000fd5b505050506040513d602081101561355f57600080fd5b8101908080519060200190929190505050905060008273ffffffffffffffffffffffffffffffffffffffff1663dd62ed3e86600460009054906101000a900473ffffffffffffffffffffffffffffffffffffffff166040518363ffffffff167c0100000000000000000000000000000000000000000000000000000000028152600401808373ffffffffffffffffffffffffffffffffffffffff1673ffffffffffffffffffffffffffffffffffffffff1681526020018273ffffffffffffffffffffffffffffffffffffffff1673ffffffffffffffffffffffffffffffffffffffff1681526020019250505060206040518083038186803b15801561366357600080fd5b505afa158015613677573d6000803e3d6000fd5b505050506040513d602081101561368d57600080fd5b8101908080519060200190929190505050905060008183106136af57816136b1565b825b905060006136bd6133fa565b90506137676001838373ffffffffffffffffffffffffffffffffffffffff1663e158e02d6040518163ffffffff167c010000000000000000000000000000000000000000000000000000000002815260040160206040518083038186803b15801561372757600080fd5b505afa15801561373b573d6000803e3d6000fd5b505050506040513d602081101561375157600080fd5b8101908080519060200190929190505050613f64565b95505050505050919050565b60156020528060005260406000206000915054906101000a900473ffffffffffffffffffffffffffffffffffffffff1681565b6060601080548060200260200160405190810160405280929190818152602001828054801561382a57602002820191906000526020600020905b8160009054906101000a900473ffffffffffffffffffffffffffffffffffffffff1673ffffffffffffffffffffffffffffffffffffffff16815260200190600101908083116137e0575b5050505050905090565b606060008383905090508060405190808252806020026020018201604052801561386d5781602001602082028038833980820191505090505b50915060008090505b81811415156138db576138b2858583818110151561389057fe5b9050602002013573ffffffffffffffffffffffffffffffffffffffff16613472565b83828151811015156138c057fe5b90602001906020020181815250508080600101915050613876565b508191505092915050565b60085481565b600260009054906101000a900473ffffffffffffffffffffffffffffffffffffffff1681565b600360009054906101000a900473ffffffffffffffffffffffffffffffffffffffff1681565b6139406133a2565b151561394b57600080fd5b61395481613f84565b50565b60146020528060005260406000206000915054906101000a900473ffffffffffffffffffffffffffffffffffffffff1681565b60008083141561399d5760009050613a2b565b600082840290508284828115156139b057fe5b04141515613a26576040517f08c379a00000000000000000000000000000000000000000000000000000000081526004018080602001828103825260208152602001807f4d6174684c69623a206d756c7469706c69636174696f6e206f766572666c6f7781525060200191505060405180910390fd5b809150505b92915050565b600080831415613a445760009050613a69565b60008284029050828482811515613a5757fe5b04141515613a6457600080fd5b809150505b92915050565b60008082111515613a7f57600080fd5b60008284811515613a8c57fe5b0490508091505092915050565b600080600260009054906101000a900473ffffffffffffffffffffffffffffffffffffffff1673ffffffffffffffffffffffffffffffffffffffff16637077b04785600560009054906101000a900473ffffffffffffffffffffffffffffffffffffffff16613b088988611f8d565b6040518463ffffffff167c01000000000000000000000000000000000000000000000000000000000281526004018084600360200280838360005b83811015613b5e578082015181840152602081019050613b43565b505050509050018373ffffffffffffffffffffffffffffffffffffffff1673ffffffffffffffffffffffffffffffffffffffff16815260200182600760200280838360005b83811015613bbe578082015181840152602081019050613ba3565b505050509050018060200180602001838103835260048152602001807f6e756c6c00000000000000000000000000000000000000000000000000000000815250602001838103825260048152602001807f6e756c6c0000000000000000000000000000000000000000000000000000000081525060200195505050505050602060405180830381600087803b158015613c5657600080fd5b505af1158015613c6a573d6000803e3d6000fd5b505050506040513d6020811015613c8057600080fd5b810190808051906020019092919050505090506000600160108390806001815401808255809150509060018203906000526020600020016000909192909190916101000a81548173ffffffffffffffffffffffffffffffffffffffff021916908373ffffffffffffffffffffffffffffffffffffffff16021790555003905080601160008473ffffffffffffffffffffffffffffffffffffffff1673ffffffffffffffffffffffffffffffffffffffff1681526020019081526020016000208190555060008290508073ffffffffffffffffffffffffffffffffffffffff1663f2fde38b613d6c613378565b6040518263ffffffff167c0100000000000000000000000000000000000000000000000000000000028152600401808273ffffffffffffffffffffffffffffffffffffffff1673ffffffffffffffffffffffffffffffffffffffff168152602001915050600060405180830381600087803b158015613dea57600080fd5b505af1158015613dfe573d6000803e3d6000fd5b50505050817fead8d114e3d6854da1cd7b08361720f8d1be0a657fcd7d9094748420898b20ec88886000600381101515613e3457fe5b602002015188878673ffffffffffffffffffffffffffffffffffffffff1663e158e02d6040518163ffffffff167c010000000000000000000000000000000000000000000000000000000002815260040160206040518083038186803b158015613e9d57600080fd5b505afa158015613eb1573d6000803e3d6000fd5b505050506040513d6020811015613ec757600080fd5b8101908080519060200190929190505050604051808681526020018581526020018481526020018373ffffffffffffffffffffffffffffffffffffffff1673ffffffffffffffffffffffffffffffffffffffff1681526020018281526020019550505050505060405180910390a28293505050509392505050565b6000828211151515613f5357600080fd5b600082840390508091505092915050565b600081613f71858561398a565b811515613f7a57fe5b0490509392505050565b600073ffffffffffffffffffffffffffffffffffffffff168173ffffffffffffffffffffffffffffffffffffffff1614151515613fc057600080fd5b8073ffffffffffffffffffffffffffffffffffffffff16600160009054906101000a900473ffffffffffffffffffffffffffffffffffffffff1673ffffffffffffffffffffffffffffffffffffffff167f8be0079c531659141344cd1fd0a4f28419497f9722a3daafe3b4186f6b6457e060405160405180910390a380600160006101000a81548173ffffffffffffffffffffffffffffffffffffffff021916908373ffffffffffffffffffffffffffffffffffffffff16021790555050565b60e06040519081016040528060079060208202803883398082019150509050509056fe4e6f20636f6e747261637420686173206265656e206465706c6f7965642079657420746f646179546865206d7269206c6f6f636b6261636b2076616c75652063616e206e6f742062652030496e73756666696369656e7420706f736974696f6e20746f6b656e2062616c616e6365a165627a7a723058201b803123b64226bd057f0736059412c20d0b98258267a710865e75e049fc5a410029608060405234801561001057600080fd5b5033600160006101000a81548173ffffffffffffffffffffffffffffffffffffffff021916908373ffffffffffffffffffffffffffffffffffffffff160217905550610e8a806100616000396000f3fe608060405234801561001057600080fd5b5060043610610053576000357c0100000000000000000000000000000000000000000000000000000000900480632971038814610058578063f3701da2146100b4575b600080fd5b61009a6004803603602081101561006e57600080fd5b81019080803573ffffffffffffffffffffffffffffffffffffffff169060200190929190505050610138565b604051808215151515815260200191505060405180910390f35b6100f6600480360360208110156100ca57600080fd5b81019080803573ffffffffffffffffffffffffffffffffffffffff169060200190929190505050610158565b604051808273ffffffffffffffffffffffffffffffffffffffff1673ffffffffffffffffffffffffffffffffffffffff16815260200191505060405180910390f35b60006020528060005260406000206000915054906101000a900460ff1681565b6000600160009054906101000a900473ffffffffffffffffffffffffffffffffffffffff1673ffffffffffffffffffffffffffffffffffffffff163373ffffffffffffffffffffffffffffffffffffffff16141515610202576040517f08c379a0000000000000000000000000000000000000000000000000000000008152600401808060200182810382526024815260200180610e3b6024913960400191505060405180910390fd5b61020a6103c9565b604051809103906000f080158015610226573d6000803e3d6000fd5b5090508173ffffffffffffffffffffffffffffffffffffffff163373ffffffffffffffffffffffffffffffffffffffff167f454b0172f64812df0cd504c2bd7df7aab8ff328a54d946b4bd0fa7c527adf9cc83604051808273ffffffffffffffffffffffffffffffffffffffff1673ffffffffffffffffffffffffffffffffffffffff16815260200191505060405180910390a38073ffffffffffffffffffffffffffffffffffffffff166313af4035836040518263ffffffff167c0100000000000000000000000000000000000000000000000000000000028152600401808273ffffffffffffffffffffffffffffffffffffffff1673ffffffffffffffffffffffffffffffffffffffff168152602001915050600060405180830381600087803b15801561035557600080fd5b505af1158015610369573d6000803e3d6000fd5b5050505060016000808373ffffffffffffffffffffffffffffffffffffffff1673ffffffffffffffffffffffffffffffffffffffff16815260200190815260200160002060006101000a81548160ff021916908315150217905550919050565b604051610a61806103da8339019056fe608060405233600160006101000a81548173ffffffffffffffffffffffffffffffffffffffff021916908373ffffffffffffffffffffffffffffffffffffffff1602179055503373ffffffffffffffffffffffffffffffffffffffff167fce241d7ca1f669fee44b6fc00b8eba2df3bb514eed0f6f668f8f89096e81ed9460405160405180910390a26109ca806100976000396000f3fe608060405260043610610067576000357c01000000000000000000000000000000000000000000000000000000009004806313af4035146100695780631cff79cd146100ba5780637a9e5e4b1461020e5780638da5cb5b1461025f578063bf7e214f146102b6575b005b34801561007557600080fd5b506100b86004803603602081101561008c57600080fd5b81019080803573ffffffffffffffffffffffffffffffffffffffff16906020019092919050505061030d565b005b610193600480360360408110156100d057600080fd5b81019080803573ffffffffffffffffffffffffffffffffffffffff1690602001909291908035906020019064010000000081111561010d57600080fd5b82018360208201111561011f57600080fd5b8035906020019184600183028401116401000000008311171561014157600080fd5b91908080601f016020809104026020016040519081016040528093929190818152602001838380828437600081840152601f19601f8201169050808301925050505050505091929192905050506103ef565b6040518080602001828103825283818151815260200191508051906020019080838360005b838110156101d35780820151818401526020810190506101b8565b50505050905090810190601f1680156102005780820380516001836020036101000a031916815260200191505b509250505060405180910390f35b34801561021a57600080fd5b5061025d6004803603602081101561023157600080fd5b81019080803573ffffffffffffffffffffffffffffffffffffffff1690602001909291905050506105fe565b005b34801561026b57600080fd5b506102746106de565b604051808273ffffffffffffffffffffffffffffffffffffffff1673ffffffffffffffffffffffffffffffffffffffff16815260200191505060405180910390f35b3480156102c257600080fd5b506102cb610704565b604051808273ffffffffffffffffffffffffffffffffffffffff1673ffffffffffffffffffffffffffffffffffffffff16815260200191505060405180910390f35b61033b336000357fffffffff0000000000000000000000000000000000000000000000000000000016610729565b151561034657600080fd5b80600160006101000a81548173ffffffffffffffffffffffffffffffffffffffff021916908373ffffffffffffffffffffffffffffffffffffffff160217905550600160009054906101000a900473ffffffffffffffffffffffffffffffffffffffff1673ffffffffffffffffffffffffffffffffffffffff167fce241d7ca1f669fee44b6fc00b8eba2df3bb514eed0f6f668f8f89096e81ed9460405160405180910390a250565b606061041f336000357fffffffff0000000000000000000000000000000000000000000000000000000016610729565b151561042a57600080fd5b60008060043591506024359050813373ffffffffffffffffffffffffffffffffffffffff166000357fffffffff00000000000000000000000000000000000000000000000000000000167bffffffffffffffffffffffffffffffffffffffffffffffffffffffff19167f644843f351d3fba4abcd60109eaff9f54bac8fb8ccf0bab941009c21df21cf31843460003660405180858152602001848152602001806020018281038252848482818152602001925080828437600081840152601f19601f8201169050808301925050509550505050505060405180910390a4600073ffffffffffffffffffffffffffffffffffffffff168573ffffffffffffffffffffffffffffffffffffffff16141515156105ac576040517f08c379a00000000000000000000000000000000000000000000000000000000081526004018080602001828103825260208152602001807f64732d70726f78792d7461726765742d616464726573732d726571756972656481525060200191505060405180910390fd5b600080855160208701886113885a03f43d6040519450601f19601f6020830101168501604052808552806000602087013e8115600181146105ec576105f3565b8160208701fd5b505050505092915050565b61062c336000357fffffffff0000000000000000000000000000000000000000000000000000000016610729565b151561063757600080fd5b806000806101000a81548173ffffffffffffffffffffffffffffffffffffffff021916908373ffffffffffffffffffffffffffffffffffffffff1602179055506000809054906101000a900473ffffffffffffffffffffffffffffffffffffffff1673ffffffffffffffffffffffffffffffffffffffff167f1abebea81bfa2637f28358c371278fb15ede7ea8dd28d2e03b112ff6d936ada460405160405180910390a250565b600160009054906101000a900473ffffffffffffffffffffffffffffffffffffffff1681565b6000809054906101000a900473ffffffffffffffffffffffffffffffffffffffff1681565b60003073ffffffffffffffffffffffffffffffffffffffff168373ffffffffffffffffffffffffffffffffffffffff1614156107685760019050610998565b600160009054906101000a900473ffffffffffffffffffffffffffffffffffffffff1673ffffffffffffffffffffffffffffffffffffffff168373ffffffffffffffffffffffffffffffffffffffff1614156107c75760019050610998565b600073ffffffffffffffffffffffffffffffffffffffff166000809054906101000a900473ffffffffffffffffffffffffffffffffffffffff1673ffffffffffffffffffffffffffffffffffffffff1614156108265760009050610998565b6000809054906101000a900473ffffffffffffffffffffffffffffffffffffffff1673ffffffffffffffffffffffffffffffffffffffff1663b70096138430856040518463ffffffff167c0100000000000000000000000000000000000000000000000000000000028152600401808473ffffffffffffffffffffffffffffffffffffffff1673ffffffffffffffffffffffffffffffffffffffff1681526020018373ffffffffffffffffffffffffffffffffffffffff1673ffffffffffffffffffffffffffffffffffffffff168152602001827bffffffffffffffffffffffffffffffffffffffffffffffffffffffff19167bffffffffffffffffffffffffffffffffffffffffffffffffffffffff19168152602001935050505060206040518083038186803b15801561095a57600080fd5b505afa15801561096e573d6000803e3d6000fd5b505050506040513d602081101561098457600080fd5b810190808051906020019092919050505090505b9291505056fea165627a7a72305820849df4aad979c23d29ccf1f494f3e47803254005e7f83f1f0ac7d3e71d82399900294f6e6c792063616c6c61626c65206279204d61726b6574436f6e747261637450726f7879a165627a7a72305820ea04cde3a739e2991e78aed3e3f1ae61c0a13296892f05750650c546cd48b22a0029696e76616c6964204d61726b6574436f6e7472616374466163746f72794d50582061646472657373",
  "source": "pragma solidity 0.5.2;\n\nimport 'openzeppelin-solidity/contracts/ownership/Ownable.sol';\nimport 'openzeppelin-solidity/contracts/math/SafeMath.sol';\nimport 'openzeppelin-solidity/contracts/token/ERC20/SafeERC20.sol';\nimport 'openzeppelin-solidity/contracts/utils/ReentrancyGuard.sol';\n\nimport '../marketprotocol/MarketCollateralPool.sol';\nimport '../marketprotocol/mpx/MarketContractFactoryMPX.sol';\nimport '../marketprotocol/mpx/MarketContractMPX.sol';\n\nimport '../libraries/MathLib.sol';\n\nimport './DSProxy.sol';\n\n\n/// @title Market Contract Proxy.\n/// @notice Handles the interconnection of the Market Protocol with 0x to\n/// facilitate issuance of long and short tokens at order execution.\n/// @dev This contract is responsible for 1) daily deployment of new market\n/// contracts 2) settling old contracts 3) minting of long and short tokens 4)\n/// storage of DSProxy info 5) enabling batch token redemption.\n\ncontract MarketContractProxy is ReentrancyGuard, Ownable {\n    using SafeMath for uint256;\n    using SafeERC20 for IERC20;\n\n    MarketContractFactoryMPX public marketContractFactoryMPX;\n\n    address public HONEY_LEMON_ORACLE_ADDRESS;\n    address public MINTER_BRIDGE_ADDRESS;\n    address public COLLATERAL_TOKEN_ADDRESS; //imBTC\n\n    // uint public CONTRACT_DURATION_DAYS = 28;\n    uint public CONTRACT_DURATION_DAYS = 2; // for temp mainnet deployment\n    uint public CONTRACT_DURATION = CONTRACT_DURATION_DAYS * 24 * 60 * 60; // 28 days in seconds\n    uint public CONTRACT_COLLATERAL_RATIO = 125000000; //1.25e8; 1.25, with 8 decimal places\n\n    uint[7] public marketContractSpecs = [\n        0, // floorPrice - the lower bound price for the CFD [constant]\n        0, // capPrice - the upper bound price for the CFD [updated before deployment]\n        8, // priceDecimalPlaces - number of decimals used to convert prices [constant]\n        1, // qtyMultiplier - multiply traded qty by this value from base units of collateral token. [constant]\n        0, // feeInBasisPoints - fee for minting tokens [constant]\n        0, // mktFeeInBasisPoints - fees charged by the market in MKT [constant]\n        0 // expirationTimeStamp [updated before deployment]\n    ];\n\n    ///@notice Array of all market contracts deployed\n    address[] public marketContracts;\n\n    ///@notice Mapping of each market contract address to the associated array index\n    mapping(address => uint256) addressToMarketId;\n\n    ///@notice Stores the most recent MRI value\n    uint256 internal latestMri = 0;\n\n    ///@notice DSProxy factory to create smart contract wallets for users to enable bulk redemption.\n    DSProxyFactory dSProxyFactory;\n\n    ///@notice Mapping to link each trader address to their DSProxy address.\n    mapping(address => address) public addressToDSProxy;\n\n    ///@notice Mapping to link each DSProxy address to their traders address.\n    mapping(address => address) public dSProxyToAddress;\n\n    /**\n     * @notice constructor\n     * @dev will deloy a new DSProxy Factory\n     * @param _marketContractFactoryMPX market contract factory address\n     * @param _honeyLemonOracle honeylemon oracle address\n     * @param _minterBridge 0x minter bridge address\n     * @param _imBTCTokenAddress imBTC token address\n     */\n    constructor(\n        address _marketContractFactoryMPX,\n        address _honeyLemonOracle,\n        address _minterBridge,\n        address _imBTCTokenAddress\n    ) public ReentrancyGuard() {\n        require(\n            _marketContractFactoryMPX != address(0),\n            'invalid MarketContractFactoryMPX address'\n        );\n        require(_honeyLemonOracle != address(0), 'invalid HoneyLemonOracle address');\n        require(_minterBridge != address(0), 'invalid MinterBridge address');\n        require(_imBTCTokenAddress != address(0), 'invalid IMBTC address');\n\n        marketContractFactoryMPX = MarketContractFactoryMPX(_marketContractFactoryMPX);\n        HONEY_LEMON_ORACLE_ADDRESS = _honeyLemonOracle;\n        MINTER_BRIDGE_ADDRESS = _minterBridge;\n        COLLATERAL_TOKEN_ADDRESS = _imBTCTokenAddress;\n\n        //Deploy a new DSProxyFactory instance to faciliate hot wallet creation\n        dSProxyFactory = new DSProxyFactory();\n    }\n\n    ////////////////\n    //// EVENTS ////\n    ////////////////\n    event PositionTokensMinted(\n        uint256 qtyToMint,\n        uint indexed marketId,\n        string contractName,\n        address indexed longTokenRecipient,\n        address longTokenDSProxy,\n        address indexed shortTokenRecipient,\n        address shortTokenDSProxy,\n        address latestMarketContract,\n        address longTokenAddress,\n        address shortTokenAddress,\n        uint time\n    );\n\n    event MarketContractSettled(\n        address indexed contractAddress,\n        uint revenuePerUnit,\n        uint index\n    );\n\n    event MarketContractDeployed(\n        uint currentMRI,\n        bytes32 contractName,\n        uint expiration,\n        uint indexed index,\n        address contractAddress,\n        uint collateralPerUnit\n    );\n\n    event dSProxyCreated(address owner, address DSProxy);\n\n    ///////////////////\n    //// MODIFIERS ////\n    ///////////////////\n\n    /**\n     * @notice modifier to check that the caller is honeylemon oracle address\n     */\n    modifier onlyHoneyLemonOracle() {\n        require(msg.sender == HONEY_LEMON_ORACLE_ADDRESS, 'Only Honey Lemon Oracle');\n        _;\n    }\n\n    /**\n     * @notice modifier to check that the caller is minter bridge address\n     */\n    modifier onlyMinterBridge() {\n        require(msg.sender == MINTER_BRIDGE_ADDRESS, 'Only Minter Bridge');\n        _;\n    }\n\n    /**\n     * @notice modifier to check that a fresh daily contract has been deployed\n     */\n    modifier onlyIfFreshDailyContract() {\n        require(isDailyContractDeployed(), \"No contract has been deployed yet today\");\n        _;\n    }\n\n    /////////////////////////\n    //// OWNER FUNCTIONS ////\n    /////////////////////////\n\n    /**\n     * @notice Set oracle address\n     * @dev can only be called by owner\n     * @param _honeyLemonOracleAddress oracle address\n     */\n    function setOracleAddress(address _honeyLemonOracleAddress) external onlyOwner {\n        require(\n            _honeyLemonOracleAddress != address(0),\n            'invalid HoneyLemonOracle address'\n        );\n\n        HONEY_LEMON_ORACLE_ADDRESS = _honeyLemonOracleAddress;\n    }\n\n    /**\n     * @notice Set minter bridge address\n     * @dev can only be called by owner\n     * @param _minterBridgeAddress 0x minter bridge address\n     */\n    function setMinterBridgeAddress(address _minterBridgeAddress) external onlyOwner {\n        require(_minterBridgeAddress != address(0), 'invalid MinterBridge address');\n\n        MINTER_BRIDGE_ADDRESS = _minterBridgeAddress;\n    }\n\n    ////////////////////////\n    //// PUBLIC GETTERS ////\n    ////////////////////////\n\n    /**\n     * @notice get amounts of TH that can be filled\n     * @param makerAddresses list of makers addresses\n     * @return array of fillable amounts\n     */\n    function getFillableAmounts(address[] calldata makerAddresses)\n        external\n        view\n        returns (uint256[] memory fillableAmounts)\n    {\n        uint256 length = makerAddresses.length;\n        fillableAmounts = new uint256[](length);\n\n        for (uint256 i = 0; i != length; i++) {\n            fillableAmounts[i] = getFillableAmount(makerAddresses[i]);\n        }\n\n        return fillableAmounts;\n    }\n\n    /**\n     * @notice get latest MRI value\n     * @return latestMri\n     */\n    function getLatestMri() external view returns (uint256) {\n        return latestMri;\n    }\n\n    /**\n     * @notice get all market contarcts\n     * @return array of market contracts\n     */\n    function getAllMarketContracts() public view returns (address[] memory) {\n        return marketContracts;\n    }\n\n    /**\n     * @notice calculate the TH amount that can be filled based on owners BTC balance and allowance\n     * @param makerAddress address or BTC(imBTC) owner\n     * @return TH amount\n     */\n    function getFillableAmount(address makerAddress) public view returns (uint256) {\n        ERC20 collateralToken = ERC20(COLLATERAL_TOKEN_ADDRESS);\n\n        uint minerBalance = collateralToken.balanceOf(makerAddress);\n        uint minerAllowance = collateralToken.allowance(\n            makerAddress,\n            MINTER_BRIDGE_ADDRESS\n        );\n\n        uint uintMinAllowanceBalance = minerBalance < minerAllowance\n            ? minerBalance\n            : minerAllowance;\n\n        MarketContract latestMarketContract = getLatestMarketContract();\n\n        return\n            MathLib.divideFractional(\n                1,\n                uintMinAllowanceBalance,\n                latestMarketContract.COLLATERAL_PER_UNIT()\n            );\n    }\n\n    /**\n     * @notice get latest market contract\n     * @return market contract address\n     */\n    function getLatestMarketContract() public view returns (MarketContractMPX) {\n        uint lastIndex = marketContracts.length.sub(1);\n        return MarketContractMPX(marketContracts[lastIndex]);\n    }\n\n    /**\n     * @notice get expiring market contract\n     * @dev return address(0) if there is no expired contract\n     * @return expired market contract address\n     */\n    function getExpiringMarketContract() public view returns (MarketContractMPX) {\n        uint contractsAdded = marketContracts.length;\n\n        // If the marketContracts array has not had enough markets pushed into it to settle an old one then return 0x0.\n        if (contractsAdded < CONTRACT_DURATION_DAYS) {\n            return MarketContractMPX(address(0x0));\n        }\n        uint expiringIndex = contractsAdded.sub(CONTRACT_DURATION_DAYS);\n        return MarketContractMPX(marketContracts[expiringIndex]);\n    }\n\n    /**\n     * @notice get market collateral pool address\n     * @param market market contract\n     * @return collateral pool address\n     */\n    function getCollateralPool(MarketContractMPX market)\n        public\n        view\n        returns (MarketCollateralPool)\n    {\n        return MarketCollateralPool(market.COLLATERAL_POOL_ADDRESS());\n    }\n\n    /**\n     * @notice get latest market collateral pool address\n     * @return collateral pool address\n     */\n    function getLatestMarketCollateralPool() public view returns (MarketCollateralPool) {\n        MarketContractMPX latestMarketContract = getLatestMarketContract();\n        return getCollateralPool(latestMarketContract);\n    }\n\n    /**\n     * @notice calculate collateral needed to mint Long/Short tokens\n     * @param amount deposited amount\n     * @return needed collateral\n     */\n    function calculateRequiredCollateral(uint amount) public view returns (uint) {\n        MarketContractMPX latestMarketContract = getLatestMarketContract();\n        return MathLib.multiply(amount, latestMarketContract.COLLATERAL_PER_UNIT());\n    }\n\n    /**\n     * @notice get user long token blanace for the current day\n     * @dev used to prove to 0x that the wallet balance was correctly transferred.\n     * @param owner address\n     * @return long token balance\n     */\n    function balanceOf(address owner) public view returns (uint) {\n        address addressToCheck = getUserAddressOrDSProxy(owner);\n        MarketContract latestMarketContract = getLatestMarketContract();\n        ERC20 longToken = ERC20(latestMarketContract.LONG_POSITION_TOKEN());\n        return longToken.balanceOf(addressToCheck);\n    }\n\n    /**\n     * @notice get current timestamp\n     */\n    function getTime() public view returns (uint) {\n        return now;\n    }\n\n    /**\n     * @notice generate market contract specs (cap price, expiration timestamp)\n     * @param currentMRI current MRI value\n     * @param expiration market expiration timestamp\n     * @return market specs\n     */\n    function generateContractSpecs(uint currentMRI, uint expiration)\n        public\n        view\n        returns (uint[7] memory)\n    {\n        uint[7] memory dailySpecs = marketContractSpecs;\n        // capPrice. div by 1e8 for correct scaling\n        // dailySpecs[1] =\n        //     (CONTRACT_DURATION_DAYS * currentMRI * (CONTRACT_COLLATERAL_RATIO)) /\n        //     1e8;\n        dailySpecs[1] = (\n            CONTRACT_DURATION_DAYS.mul(currentMRI).mul(CONTRACT_COLLATERAL_RATIO)\n        )\n            .div(1e8);\n        // expirationTimeStamp. Fed in directly from oracle to ensure timing is exact, irrespective of block mining times\n        dailySpecs[6] = expiration;\n        return dailySpecs;\n    }\n\n    /**\n     * @notice get user address\n     * @dev get user own address or DSProxy address if user have one\n     * @param inputAddress user address\n     * @return address\n     */\n    function getUserAddressOrDSProxy(address inputAddress) public view returns (address) {\n    // If the user has a DSProxy wallet, return that address. Else, return their wallet address\n        return\n            addressToDSProxy[inputAddress] == address(0)\n                ? inputAddress\n                : addressToDSProxy[inputAddress];\n    }\n\n    /**\n     * @notice checks if a new contract has been deployed in the last 24 hours\n     * @dev this prevents position tokens from being minted if the Honeylemon oracle has not deployed\n     * a new contract in the last 24 hours to prevent a trader from getting a stale price.\n     * @return bool true if there is a fresh contract, false if there is not a fresh contract\n     */\n    function isDailyContractDeployed() public view returns (bool) {\n        uint settlementTimestamp = MarketContractMPX(getLatestMarketContract()).EXPIRATION();\n        uint oneDayFromLatestDeployment = settlementTimestamp - CONTRACT_DURATION + 60 * 60 * 24;\n        return getTime() < oneDayFromLatestDeployment;\n    }\n\n    ///////////////////////////\n    //// DSPROXY FUNCTIONS ////\n    ///////////////////////////\n\n    /**\n     * @notice create DSProxy wallet\n     * @return address of created DSProxy\n     */\n    function createDSProxyWallet() public returns (address) {\n        // Create a new DSProxy for the caller.\n        address payable dsProxyWallet = dSProxyFactory.build(msg.sender);\n        addressToDSProxy[msg.sender] = dsProxyWallet;\n        dSProxyToAddress[dsProxyWallet] = msg.sender;\n\n        emit dSProxyCreated(msg.sender, dsProxyWallet);\n\n        return dsProxyWallet;\n    }\n\n    /**\n     * @notice batch redeem long or short tokens for different markets\n     * @dev called by a DsProxy wallet which passes control from the caller using delegatecal\n     * to enable the caller to redeem bulk tokens in one tx. Parameters are parallel arrays.\n     * Only one side can be redeemed at a time. This is to simplify redemption as the same caller\n     * will likely never be both long and short in the same contract.\n     * @param tokenAddresses long/short token addresses\n     * @param tokensToRedeem amount of token to redeem\n     */\n    function batchRedeem(\n        address[] memory tokenAddresses, // Address of the long or short token to redeem\n        uint256[] memory tokensToRedeem // the number of tokens to redeem\n    ) public nonReentrant {\n        require(tokenAddresses.length == tokensToRedeem.length, 'Invalid input params');\n        require(this.owner() == msg.sender, \"You don't own this DSProxy GTFO\");\n\n        MarketContractMPX marketInstance;\n        MarketCollateralPool marketCollateralPool;\n        PositionToken tokenInstance;\n\n        // Loop through all tokens and preform redemption\n        for (uint256 i = 0; i < tokenAddresses.length; i++) {\n            tokenInstance = PositionToken(tokenAddresses[i]);\n\n            require(\n                tokenInstance.balanceOf(address(this)) >= tokensToRedeem[i],\n                'Insufficient position token balance'\n            );\n\n            marketInstance = MarketContractMPX(tokenInstance.owner());\n            marketCollateralPool = getCollateralPool(marketInstance);\n\n            tokenInstance.approve(address(marketInstance), tokensToRedeem[i]);\n\n            if (uint8(tokenInstance.MARKET_SIDE()) == 0) {\n                // redeem n long tokens and 0 short tokens\n                marketCollateralPool.settleAndClose(\n                    address(marketInstance),\n                    tokensToRedeem[i],\n                    0\n                );\n            } else {\n                // redeem 0 long tokens and n short tokens\n                marketCollateralPool.settleAndClose(\n                    address(marketInstance),\n                    0,\n                    tokensToRedeem[i]\n                );\n            }\n        }\n        // Finally redeem collateral back to user.\n        ERC20 collateralToken = ERC20(marketInstance.COLLATERAL_TOKEN_ADDRESS());\n\n        // DSProxy balance. address(this) is the DSProxy contract address that will redeem the tokens.\n        uint dSProxyBalance = collateralToken.balanceOf(address(this));\n\n        // Move all redeemed tokens from DSProxy back to users wallet. msg.sender is the owner of the DSProxy.\n        collateralToken.transfer(msg.sender, dSProxyBalance);\n    }\n\n    /////////////////////////////////////\n    //// HONEYLEMON ORACLE FUNCTIONS ////\n    /////////////////////////////////////\n\n    /**\n     * @notice deploy new market and settle last one (if met settlement requirements)\n     * @dev can only be called by hinelemon oracle\n     * @param lookbackIndexValue  last index value\n     * @param currentIndexValue current index value\n     * @param marketAndsTokenNames bytes array of market, long and short token names\n     * @param newMarketExpiration new market expiration timestamp\n     */\n    function dailySettlement(\n        uint lookbackIndexValue,\n        uint currentIndexValue,\n        bytes32[3] memory marketAndsTokenNames,\n        uint newMarketExpiration\n    ) public onlyHoneyLemonOracle {\n        require(currentIndexValue != 0, 'Current MRI value cant be zero');\n\n        // 1. Settle the past contract, if there is a price and contract exists.\n        MarketContractMPX expiringMarketContract = getExpiringMarketContract();\n        if (address(expiringMarketContract) != address(0x0)) {\n            settleMarketContract(lookbackIndexValue, address(expiringMarketContract));\n        }\n\n        // 2. Deploy daily contract for the next 28 days.\n        deployContract(currentIndexValue, marketAndsTokenNames, newMarketExpiration);\n\n        // 3. Store the latest MRI value\n        latestMri = currentIndexValue;\n    }\n\n    /**\n     * @notice settle specific market\n     * @dev can only be called from honeylemon oracle.\n     * Can be called directly to settle expiring market without deploying new one\n     * @dev mri MRI value\n     * @dev marketContractAddress market contract\n     */\n    function settleMarketContract(uint mri, address marketContractAddress)\n        public\n        onlyHoneyLemonOracle\n    {\n        require(mri != 0, 'The mri loockback value can not be 0');\n        require(marketContractAddress != address(0x0), 'Invalid market contract address');\n\n        MarketContractMPX marketContract = MarketContractMPX(marketContractAddress);\n        marketContract.oracleCallBack(mri);\n\n        // Store the most recent mri value to use in fillable amount\n        latestMri = mri;\n\n        emit MarketContractSettled(marketContractAddress, mri, marketContracts.length);\n    }\n\n    ///////////////////////////////////////////////\n    //// 0X-MINTER-BRIDGE PRIVILEGED FUNCTIONS ////\n    ///////////////////////////////////////////////\n    /**\n     * @notice mint long and short tokens\n     * @dev can only be called from 0x minter bridge\n     * @param qtyToMint long/short quantity to mint\n     * @param longTokenRecipient address of long token recipient (will receive token at this address unless address have deployed DSProxy)\n     * @param shortTokenRecipient address of short token recipient (will receive token at this address unless address have deployed DSProxy)\n     */\n    function mintPositionTokens(\n        uint qtyToMint,\n        address longTokenRecipient,\n        address shortTokenRecipient\n    ) public onlyMinterBridge onlyIfFreshDailyContract nonReentrant {\n        uint collateralNeeded = calculateRequiredCollateral(qtyToMint);\n\n        // Create instance of the latest market contract for today\n        MarketContractMPX latestMarketContract = getLatestMarketContract();\n        // Create instance of the market collateral pool\n        MarketCollateralPool marketCollateralPool = getLatestMarketCollateralPool();\n\n        // Long token sent to the investor\n        ERC20 longToken = ERC20(latestMarketContract.LONG_POSITION_TOKEN());\n        // Short token sent to the miner\n        ERC20 shortToken = ERC20(latestMarketContract.SHORT_POSITION_TOKEN());\n        // Collateral token (imBTC)\n        ERC20 collateralToken = ERC20(COLLATERAL_TOKEN_ADDRESS);\n\n        // Move tokens from the MinterBridge to this proxy address\n        collateralToken.transferFrom(\n            MINTER_BRIDGE_ADDRESS,\n            address(this),\n            collateralNeeded\n        );\n\n        // Permission market contract to spent collateral token\n        collateralToken.approve(address(marketCollateralPool), collateralNeeded);\n\n        // Generate long and short tokens to sent to invester and miner\n        marketCollateralPool.mintPositionTokens(\n            address(latestMarketContract),\n            qtyToMint,\n            false\n        );\n\n        // Send the tokens. If the user has a DSProxy wallet then send it to there, else\n        // send it to their normal wallet address.\n        longToken.transfer(getUserAddressOrDSProxy(longTokenRecipient), qtyToMint);\n        shortToken.transfer(getUserAddressOrDSProxy(shortTokenRecipient), qtyToMint);\n\n        emit PositionTokensMinted(\n            qtyToMint,\n            addressToMarketId[address(latestMarketContract)], // MarketID\n            latestMarketContract.CONTRACT_NAME(),\n            longTokenRecipient,\n            getUserAddressOrDSProxy(longTokenRecipient),\n            shortTokenRecipient,\n            getUserAddressOrDSProxy(shortTokenRecipient),\n            address(latestMarketContract),\n            address(longToken),\n            address(shortToken),\n            getTime()\n        );\n    }\n\n    ////////////////////////////\n    //// INTERNAL FUNCTIONS ////\n    ////////////////////////////\n\n    // Deploys the current day Market contract. `indexValue` is used to initialize collateral\n    // requirement in its constructor. Stores the new contract address, block it was deployed in,\n    // as well as the value of the index well need easy access to the latest values of contract\n    // address and index. collateral requirement = indexValue * 28 * overcollateralization_factor\n    // returns the address of the new contract\n    /**\n     * @notice deploy the current Market contract\n     * @param currentMRI current MRI value\n     * @param marketAndsTokenNames bytes array of market, long and short token names\n     * @param expiration expiration timestamp\n     */\n    function deployContract(\n        uint currentMRI,\n        bytes32[3] memory marketAndsTokenNames,\n        uint expiration\n    ) internal returns (address) {\n        address contractAddress = marketContractFactoryMPX.deployMarketContractMPX(\n            marketAndsTokenNames,\n            COLLATERAL_TOKEN_ADDRESS,\n            generateContractSpecs(currentMRI, expiration),\n            'null', //ORACLE_URL\n            'null' // ORACLE_STATISTIC\n        );\n\n        // Add new market to storage\n        uint index = marketContracts.push(contractAddress) - 1;\n        addressToMarketId[contractAddress] = index;\n        MarketContractMPX marketContract = MarketContractMPX(contractAddress);\n        marketContract.transferOwnership(owner());\n        emit MarketContractDeployed(\n            currentMRI,\n            marketAndsTokenNames[0],\n            expiration,\n            index,\n            contractAddress,\n            marketContract.COLLATERAL_PER_UNIT()\n        );\n        return (contractAddress);\n    }\n}\n",
  "sourcePath": "/Users/andreianisimov/projects/honeylemon/dapp.honeylemon.market/packages/contracts/contracts/honeylemon/MarketContractProxy.sol",
  "compiler": {
    "name": "solc",
    "version": "0.5.2+commit.1df8f40c.Emscripten.clang"
  },
  "schemaVersion": "3.0.23",
  "updatedAt": "2020-06-25T01:43:07.419Z",
  "networkType": "ethereum",
  "devdoc": {
    "details": "This contract is responsible for 1) daily deployment of new market contracts 2) settling old contracts 3) minting of long and short tokens 4) storage of DSProxy info 5) enabling batch token redemption.",
    "methods": {
      "balanceOf(address)": {
        "details": "used to prove to 0x that the wallet balance was correctly transferred.",
        "params": {
          "owner": "address"
        },
        "return": "long token balance"
      },
      "batchRedeem(address[],uint256[])": {
        "details": "called by a DsProxy wallet which passes control from the caller using delegatecal to enable the caller to redeem bulk tokens in one tx. Parameters are parallel arrays. Only one side can be redeemed at a time. This is to simplify redemption as the same caller will likely never be both long and short in the same contract.",
        "params": {
          "tokenAddresses": "long/short token addresses",
          "tokensToRedeem": "amount of token to redeem"
        }
      },
      "calculateRequiredCollateral(uint256)": {
        "params": {
          "amount": "deposited amount"
        },
        "return": "needed collateral"
      },
      "constructor": {
        "details": "will deloy a new DSProxy Factory",
        "params": {
          "_honeyLemonOracle": "honeylemon oracle address",
          "_imBTCTokenAddress": "imBTC token address",
          "_marketContractFactoryMPX": "market contract factory address",
          "_minterBridge": "0x minter bridge address"
        }
      },
      "createDSProxyWallet()": {
        "return": "address of created DSProxy"
      },
      "dailySettlement(uint256,uint256,bytes32[3],uint256)": {
        "details": "can only be called by hinelemon oracle",
        "params": {
          "currentIndexValue": "current index value",
          "lookbackIndexValue": "last index value",
          "marketAndsTokenNames": "bytes array of market, long and short token names",
          "newMarketExpiration": "new market expiration timestamp"
        }
      },
      "generateContractSpecs(uint256,uint256)": {
        "params": {
          "currentMRI": "current MRI value",
          "expiration": "market expiration timestamp"
        },
        "return": "market specs"
      },
      "getAllMarketContracts()": {
        "return": "array of market contracts"
      },
      "getCollateralPool(address)": {
        "params": {
          "market": "market contract"
        },
        "return": "collateral pool address"
      },
      "getExpiringMarketContract()": {
        "details": "return address(0) if there is no expired contract",
        "return": "expired market contract address"
      },
      "getFillableAmount(address)": {
        "params": {
          "makerAddress": "address or BTC(imBTC) owner"
        },
        "return": "TH amount"
      },
      "getFillableAmounts(address[])": {
        "params": {
          "makerAddresses": "list of makers addresses"
        },
        "return": "array of fillable amounts"
      },
      "getLatestMarketCollateralPool()": {
        "return": "collateral pool address"
      },
      "getLatestMarketContract()": {
        "return": "market contract address"
      },
      "getLatestMri()": {
        "return": "latestMri"
      },
      "getUserAddressOrDSProxy(address)": {
        "details": "get user own address or DSProxy address if user have one",
        "params": {
          "inputAddress": "user address"
        },
        "return": "address"
      },
      "isDailyContractDeployed()": {
        "details": "this prevents position tokens from being minted if the Honeylemon oracle has not deployed a new contract in the last 24 hours to prevent a trader from getting a stale price.",
        "return": "bool true if there is a fresh contract, false if there is not a fresh contract"
      },
      "isOwner()": {
        "return": "true if `msg.sender` is the owner of the contract."
      },
      "mintPositionTokens(uint256,address,address)": {
        "details": "can only be called from 0x minter bridge",
        "params": {
          "longTokenRecipient": "address of long token recipient (will receive token at this address unless address have deployed DSProxy)",
          "qtyToMint": "long/short quantity to mint",
          "shortTokenRecipient": "address of short token recipient (will receive token at this address unless address have deployed DSProxy)"
        }
      },
      "owner()": {
        "return": "the address of the owner."
      },
      "renounceOwnership()": {
        "details": "Allows the current owner to relinquish control of the contract. It will not be possible to call the functions with the `onlyOwner` modifier anymore."
      },
      "setMinterBridgeAddress(address)": {
        "details": "can only be called by owner",
        "params": {
          "_minterBridgeAddress": "0x minter bridge address"
        }
      },
      "setOracleAddress(address)": {
        "details": "can only be called by owner",
        "params": {
          "_honeyLemonOracleAddress": "oracle address"
        }
      },
      "settleMarketContract(uint256,address)": {
        "details": "can only be called from honeylemon oracle. Can be called directly to settle expiring market without deploying new onemri MRI valuemarketContractAddress market contract"
      },
      "transferOwnership(address)": {
        "details": "Allows the current owner to transfer control of the contract to a newOwner.",
        "params": {
          "newOwner": "The address to transfer ownership to."
        }
      }
    },
    "title": "Market Contract Proxy."
  },
  "userdoc": {
    "methods": {
      "balanceOf(address)": {
        "notice": "get user long token blanace for the current day"
      },
      "batchRedeem(address[],uint256[])": {
        "notice": "batch redeem long or short tokens for different markets"
      },
      "calculateRequiredCollateral(uint256)": {
        "notice": "calculate collateral needed to mint Long/Short tokens"
      },
      "constructor": "constructor",
      "createDSProxyWallet()": {
        "notice": "create DSProxy wallet"
      },
      "dailySettlement(uint256,uint256,bytes32[3],uint256)": {
        "notice": "deploy new market and settle last one (if met settlement requirements)"
      },
      "generateContractSpecs(uint256,uint256)": {
        "notice": "generate market contract specs (cap price, expiration timestamp)"
      },
      "getAllMarketContracts()": {
        "notice": "get all market contarcts"
      },
      "getCollateralPool(address)": {
        "notice": "get market collateral pool address"
      },
      "getExpiringMarketContract()": {
        "notice": "get expiring market contract"
      },
      "getFillableAmount(address)": {
        "notice": "calculate the TH amount that can be filled based on owners BTC balance and allowance"
      },
      "getFillableAmounts(address[])": {
        "notice": "get amounts of TH that can be filled"
      },
      "getLatestMarketCollateralPool()": {
        "notice": "get latest market collateral pool address"
      },
      "getLatestMarketContract()": {
        "notice": "get latest market contract"
      },
      "getLatestMri()": {
        "notice": "get latest MRI value"
      },
      "getTime()": {
        "notice": "get current timestamp"
      },
      "getUserAddressOrDSProxy(address)": {
        "notice": "get user address"
      },
      "isDailyContractDeployed()": {
        "notice": "checks if a new contract has been deployed in the last 24 hours"
      },
      "mintPositionTokens(uint256,address,address)": {
        "notice": "mint long and short tokens"
      },
      "renounceOwnership()": {
        "notice": "Renouncing ownership will leave the contract without an owner, thereby removing any functionality that is only available to the owner."
      },
      "setMinterBridgeAddress(address)": {
        "notice": "Set minter bridge address"
      },
      "setOracleAddress(address)": {
        "notice": "Set oracle address"
      },
      "settleMarketContract(uint256,address)": {
        "notice": "settle specific market"
      }
    },
    "notice": "Handles the interconnection of the Market Protocol with 0x to facilitate issuance of long and short tokens at order execution."
  }
}