{
  "contractName": "MinterBridge",
  "abi": [
    {
      "constant": true,
      "inputs": [],
      "name": "marketContractProxy",
      "outputs": [
        {
          "name": "",
          "type": "address"
        }
      ],
      "payable": false,
      "stateMutability": "view",
      "type": "function"
    },
    {
      "constant": true,
      "inputs": [],
      "name": "MARKET_CONTRACT_PROXY_ADDRESS",
      "outputs": [
        {
          "name": "",
          "type": "address"
        }
      ],
      "payable": false,
      "stateMutability": "view",
      "type": "function"
    },
    {
      "constant": false,
      "inputs": [],
      "name": "renounceOwnership",
      "outputs": [],
      "payable": false,
      "stateMutability": "nonpayable",
      "type": "function"
    },
    {
      "constant": true,
      "inputs": [],
      "name": "owner",
      "outputs": [
        {
          "name": "",
          "type": "address"
        }
      ],
      "payable": false,
      "stateMutability": "view",
      "type": "function"
    },
    {
      "constant": true,
      "inputs": [],
      "name": "isOwner",
      "outputs": [
        {
          "name": "",
          "type": "bool"
        }
      ],
      "payable": false,
      "stateMutability": "view",
      "type": "function"
    },
    {
      "constant": true,
      "inputs": [],
      "name": "ERC20_BRIDGE_PROXY_ADDRESS",
      "outputs": [
        {
          "name": "",
          "type": "address"
        }
      ],
      "payable": false,
      "stateMutability": "view",
      "type": "function"
    },
    {
      "constant": false,
      "inputs": [
        {
          "name": "newOwner",
          "type": "address"
        }
      ],
      "name": "transferOwnership",
      "outputs": [],
      "payable": false,
      "stateMutability": "nonpayable",
      "type": "function"
    },
    {
      "inputs": [],
      "payable": false,
      "stateMutability": "nonpayable",
      "type": "constructor"
    },
    {
      "anonymous": false,
      "inputs": [
        {
          "indexed": true,
          "name": "previousOwner",
          "type": "address"
        },
        {
          "indexed": true,
          "name": "newOwner",
          "type": "address"
        }
      ],
      "name": "OwnershipTransferred",
      "type": "event"
    },
    {
      "constant": false,
      "inputs": [
        {
          "name": "_marketContractProxyAddress",
          "type": "address"
        }
      ],
      "name": "setMarketContractProxyAddress",
      "outputs": [],
      "payable": false,
      "stateMutability": "nonpayable",
      "type": "function"
    },
    {
      "constant": false,
      "inputs": [
        {
          "name": "_0xBridgeProxyAddress",
          "type": "address"
        }
      ],
      "name": "set0xBridgeProxy",
      "outputs": [],
      "payable": false,
      "stateMutability": "nonpayable",
      "type": "function"
    },
    {
      "constant": false,
      "inputs": [
        {
          "name": "tokenAddress",
          "type": "address"
        },
        {
          "name": "from",
          "type": "address"
        },
        {
          "name": "to",
          "type": "address"
        },
        {
          "name": "amount",
          "type": "uint256"
        },
        {
          "name": "bridgeData",
          "type": "bytes"
        }
      ],
      "name": "bridgeTransferFrom",
      "outputs": [
        {
          "name": "success",
          "type": "bytes4"
        }
      ],
      "payable": false,
      "stateMutability": "nonpayable",
      "type": "function"
    }
  ],
  "bytecode": "0x608060405234801561001057600080fd5b50600160008181558154600160a060020a031916331791829055604051600160a060020a0392909216917f8be0079c531659141344cd1fd0a4f28419497f9722a3daafe3b4186f6b6457e0908290a3610a288061006e6000396000f3fe608060405234801561001057600080fd5b50600436106100bb576000357c0100000000000000000000000000000000000000000000000000000000900480638f32d59b116100835780638f32d59b14610124578063a1d6a4a314610140578063a95f84b914610166578063c2df82e61461016e578063f2fde38b1461023b576100bb565b8063090dc1cc146100c05780632e99f94e146100e857806368b43fbb1461010c578063715018a6146101145780638da5cb5b1461011c575b600080fd5b6100e6600480360360208110156100d657600080fd5b5035600160a060020a0316610261565b005b6100f06102a3565b60408051600160a060020a039092168252519081900360200190f35b6100f06102b2565b6100e66102c1565b6100f061032b565b61012c61033a565b604080519115158252519081900360200190f35b6100e66004803603602081101561015657600080fd5b5035600160a060020a031661034b565b6100f061039a565b610206600480360360a081101561018457600080fd5b600160a060020a03823581169260208101358216926040820135909216916060820135919081019060a0810160808201356401000000008111156101c757600080fd5b8201836020820111156101d957600080fd5b803590602001918460018302840111640100000000831117156101fb57600080fd5b5090925090506103a9565b604080517fffffffff000000000000000000000000000000000000000000000000000000009092168252519081900360200190f35b6100e66004803603602081101561025157600080fd5b5035600160a060020a03166107ca565b61026961033a565b151561027457600080fd5b6004805473ffffffffffffffffffffffffffffffffffffffff1916600160a060020a0392909216919091179055565b600254600160a060020a031681565b600354600160a060020a031681565b6102c961033a565b15156102d457600080fd5b600154604051600091600160a060020a0316907f8be0079c531659141344cd1fd0a4f28419497f9722a3daafe3b4186f6b6457e0908390a36001805473ffffffffffffffffffffffffffffffffffffffff19169055565b600154600160a060020a031690565b600154600160a060020a0316331490565b61035361033a565b151561035e57600080fd5b6003805473ffffffffffffffffffffffffffffffffffffffff19908116600160a060020a03938416179182905560028054929093169116179055565b600454600160a060020a031681565b600354600090600160a060020a0316151561042557604080517f08c379a000000000000000000000000000000000000000000000000000000000815260206004820152601b60248201527f4d61726b6574436f6e747261637450726f7879206e6f74207365740000000000604482015290519081900360640190fd5b600454600160a060020a0316331461049e57604080517f08c379a000000000000000000000000000000000000000000000000000000000815260206004820152600e60248201527f696e76616c69642063616c6c6572000000000000000000000000000000000000604482015290519081900360640190fd5b6000805460010190819055600354600160a060020a0389811691161461052557604080517f08c379a000000000000000000000000000000000000000000000000000000000815260206004820152601160248201527f6261642070726f78792061646472657373000000000000000000000000000000604482015290519081900360640190fd5b600254604080517f323bb7750000000000000000000000000000000000000000000000000000000081529051600092600160a060020a03169163323bb775916004808301926020929190829003018186803b15801561058357600080fd5b505afa158015610597573d6000803e3d6000fd5b505050506040513d60208110156105ad57600080fd5b5051600254604080517f34931b4b000000000000000000000000000000000000000000000000000000008152600481018a90529051929350600092600160a060020a03909216916334931b4b91602480820192602092909190829003018186803b15801561061a57600080fd5b505afa15801561062e573d6000803e3d6000fd5b505050506040513d602081101561064457600080fd5b50519050610663600160a060020a0383168a308463ffffffff6107e916565b600354604080517f095ea7b3000000000000000000000000000000000000000000000000000000008152600160a060020a0392831660048201526024810184905290519184169163095ea7b3916044808201926020929091908290030181600087803b1580156106d257600080fd5b505af11580156106e6573d6000803e3d6000fd5b505050506040513d60208110156106fc57600080fd5b5050600254604080517f1d161ee7000000000000000000000000000000000000000000000000000000008152600481018a9052600160a060020a038b811660248301528c8116604483015291519190921691631d161ee791606480830192600092919082900301818387803b15801561077457600080fd5b505af1158015610788573d6000803e3d6000fd5b507fdc1600f3000000000000000000000000000000000000000000000000000000009650505050505060005481146107bf57600080fd5b509695505050505050565b6107d261033a565b15156107dd57600080fd5b6107e681610877565b50565b60408051600160a060020a0385811660248301528416604482015260648082018490528251808303909101815260849091019091526020810180517bffffffffffffffffffffffffffffffffffffffffffffffffffffffff167f23b872dd000000000000000000000000000000000000000000000000000000001790526108719085906108f5565b50505050565b600160a060020a038116151561088c57600080fd5b600154604051600160a060020a038084169216907f8be0079c531659141344cd1fd0a4f28419497f9722a3daafe3b4186f6b6457e090600090a36001805473ffffffffffffffffffffffffffffffffffffffff1916600160a060020a0392909216919091179055565b61090782600160a060020a03166109f4565b151561091257600080fd5b6000606083600160a060020a0316836040518082805190602001908083835b602083106109505780518252601f199092019160209182019101610931565b6001836020036101000a0380198251168184511680821785525050505050509050019150506000604051808303816000865af19150503d80600081146109b2576040519150601f19603f3d011682016040523d82523d6000602084013e6109b7565b606091505b50915091508115156109c857600080fd5b600081511115610871578080602001905160208110156109e757600080fd5b5051151561087157600080fd5b6000903b119056fea165627a7a72305820ece059e812485fd12c548dfcf6cfefc8d3f37815a25ad08c7f857a29eb8a8b1e0029",
  "source": "pragma solidity 0.5.2;\n\nimport \"openzeppelin-solidity/contracts/ownership/Ownable.sol\";\nimport \"openzeppelin-solidity/contracts/token/ERC20/SafeERC20.sol\";\nimport \"openzeppelin-solidity/contracts/token/ERC20/ERC20.sol\";\nimport \"openzeppelin-solidity/contracts/utils/ReentrancyGuard.sol\";\n\nimport \"../libraries/MathLib.sol\";\nimport \"../marketprotocol/MarketCollateralPool.sol\";\nimport \"../marketprotocol/mpx/MarketContractMPX.sol\";\nimport \"../marketprotocol/tokens/PositionToken.sol\";\n\nimport \"./MarketContractProxy.sol\";\n\n\ncontract MinterBridge is ReentrancyGuard, Ownable {\n    using MathLib for uint256;\n    using MathLib for int256;\n    using SafeERC20 for ERC20;\n\n    MarketContractProxy public marketContractProxy;\n\n    ///@dev Result of a successful bridge call.\n    bytes4 internal constant BRIDGE_SUCCESS = 0xdc1600f3;\n    address public MARKET_CONTRACT_PROXY_ADDRESS;\n    address public ERC20_BRIDGE_PROXY_ADDRESS;\n\n    constructor() public ReentrancyGuard() {}\n\n    /**\n     * @notice check that called is 0x minter bridge proxy address\n     */\n    modifier only0xBridgeProxy() {\n        require(msg.sender == ERC20_BRIDGE_PROXY_ADDRESS, \"invalid caller\");\n        _;\n    }\n    /**\n     * @notice check that market contract proxy address is initialized\n     */\n    modifier onlyIfSetMarketContractProxy() {\n        require(\n            MARKET_CONTRACT_PROXY_ADDRESS != address(0),\n            \"MarketContractProxy not set\"\n        );\n        _;\n    }\n\n    /**\n     * @notice set market contract proxy address\n     * @dev can only be called from contract owner address\n     * @param _marketContractProxyAddress market contract address\n     */\n    function setMarketContractProxyAddress(address _marketContractProxyAddress)\n        public\n        onlyOwner\n    {\n        MARKET_CONTRACT_PROXY_ADDRESS = _marketContractProxyAddress;\n        marketContractProxy = MarketContractProxy(MARKET_CONTRACT_PROXY_ADDRESS);\n    }\n\n    /**\n     * @notice set 0x minter bridge proxy address\n     * @dev can only be called from contract owner address\n     * @param _0xBridgeProxyAddress 0x minter bridge proxy address\n     */\n    function set0xBridgeProxy(address _0xBridgeProxyAddress) public onlyOwner {\n        ERC20_BRIDGE_PROXY_ADDRESS = _0xBridgeProxyAddress;\n    }\n\n    /**\n     * @notice Transfers `amount` of the ERC20 `tokenAddress` from `from` to `to`.\n     * @dev can only be called if market contract proxy address is set.\n     * @param tokenAddress in the standard 0x implementation this is the transferred token.\n     * In HoneyLemon this is the marketContractProxy which acts to spoof a token and inform\n     * the MinterBridge of the latest perpetual token.\n     * @param from Address to transfer asset from.\n     * @param to Address to transfer asset to.\n     * @param amount Amount of asset to transfer.\n     * @param bridgeData Arbitrary asset data needed by the bridge contract.\n     * @return success The magic bytes `0x37708e9b` if successful.\n     */\n    function bridgeTransferFrom(\n        address tokenAddress,\n        address from,\n        address to,\n        uint256 amount,\n        bytes calldata bridgeData\n    )\n        external\n        onlyIfSetMarketContractProxy\n        only0xBridgeProxy\n        nonReentrant\n        returns (bytes4 success)\n    {\n        // The proxy acts as the taker token to make 0x think that the appropriate amount\n        // was transferred and accept the trade as passing. Under the hood the  marketContractProxy\n        // has minted long and short tokens and sent them to the the investor and miner.\n        require(tokenAddress == MARKET_CONTRACT_PROXY_ADDRESS, \"bad proxy address\");\n\n        // (wBTC) sent from the miner\n        ERC20 collateralToken = ERC20(marketContractProxy.COLLATERAL_TOKEN_ADDRESS());\n\n        uint256 neededCollateral = marketContractProxy.calculateRequiredCollateral(\n            amount\n        );\n\n        collateralToken.safeTransferFrom(from, address(this), neededCollateral);\n        collateralToken.approve(MARKET_CONTRACT_PROXY_ADDRESS, neededCollateral);\n\n        // to: long & taker (investor)\n        // from: short & maker (miner)\n        marketContractProxy.mintPositionTokens(amount, to, from);\n\n        return BRIDGE_SUCCESS;\n    }\n}\n",
  "sourcePath": "/Users/andreianisimov/projects/honeylemon/dapp.honeylemon.market/packages/contracts/contracts/honeylemon/MinterBridge.sol",
  "compiler": {
    "name": "solc",
    "version": "0.5.2+commit.1df8f40c.Emscripten.clang"
  },
  "schemaVersion": "3.2.0",
  "updatedAt": "2020-07-24T21:48:07.734Z",
  "networkType": "ethereum",
  "devdoc": {
    "methods": {
      "bridgeTransferFrom(address,address,address,uint256,bytes)": {
        "details": "can only be called if market contract proxy address is set.",
        "params": {
          "amount": "Amount of asset to transfer.",
          "bridgeData": "Arbitrary asset data needed by the bridge contract.",
          "from": "Address to transfer asset from.",
          "to": "Address to transfer asset to.",
          "tokenAddress": "in the standard 0x implementation this is the transferred token. In HoneyLemon this is the marketContractProxy which acts to spoof a token and inform the MinterBridge of the latest perpetual token."
        },
        "return": "success The magic bytes `0x37708e9b` if successful."
      },
      "isOwner()": {
        "return": "true if `msg.sender` is the owner of the contract."
      },
      "owner()": {
        "return": "the address of the owner."
      },
      "renounceOwnership()": {
        "details": "Allows the current owner to relinquish control of the contract. It will not be possible to call the functions with the `onlyOwner` modifier anymore."
      },
      "set0xBridgeProxy(address)": {
        "details": "can only be called from contract owner address",
        "params": {
          "_0xBridgeProxyAddress": "0x minter bridge proxy address"
        }
      },
      "setMarketContractProxyAddress(address)": {
        "details": "can only be called from contract owner address",
        "params": {
          "_marketContractProxyAddress": "market contract address"
        }
      },
      "transferOwnership(address)": {
        "details": "Allows the current owner to transfer control of the contract to a newOwner.",
        "params": {
          "newOwner": "The address to transfer ownership to."
        }
      }
    }
  },
  "userdoc": {
    "methods": {
      "bridgeTransferFrom(address,address,address,uint256,bytes)": {
        "notice": "Transfers `amount` of the ERC20 `tokenAddress` from `from` to `to`."
      },
      "renounceOwnership()": {
        "notice": "Renouncing ownership will leave the contract without an owner, thereby removing any functionality that is only available to the owner."
      },
      "set0xBridgeProxy(address)": {
        "notice": "set 0x minter bridge proxy address"
      },
      "setMarketContractProxyAddress(address)": {
        "notice": "set market contract proxy address"
      }
    }
  }
}