{
  "contractName": "MinterBridge",
  "abi": [
    {
      "constant": true,
      "inputs": [],
      "name": "marketContractProxy",
      "outputs": [
        {
          "name": "",
          "type": "address"
        }
      ],
      "payable": false,
      "stateMutability": "view",
      "type": "function"
    },
    {
      "constant": true,
      "inputs": [],
      "name": "MARKET_CONTRACT_PROXY_ADDRESS",
      "outputs": [
        {
          "name": "",
          "type": "address"
        }
      ],
      "payable": false,
      "stateMutability": "view",
      "type": "function"
    },
    {
      "constant": false,
      "inputs": [],
      "name": "renounceOwnership",
      "outputs": [],
      "payable": false,
      "stateMutability": "nonpayable",
      "type": "function"
    },
    {
      "constant": true,
      "inputs": [],
      "name": "owner",
      "outputs": [
        {
          "name": "",
          "type": "address"
        }
      ],
      "payable": false,
      "stateMutability": "view",
      "type": "function"
    },
    {
      "constant": true,
      "inputs": [],
      "name": "isOwner",
      "outputs": [
        {
          "name": "",
          "type": "bool"
        }
      ],
      "payable": false,
      "stateMutability": "view",
      "type": "function"
    },
    {
      "constant": true,
      "inputs": [],
      "name": "ERC20_BRIDGE_PROXY_ADDRESS",
      "outputs": [
        {
          "name": "",
          "type": "address"
        }
      ],
      "payable": false,
      "stateMutability": "view",
      "type": "function"
    },
    {
      "constant": false,
      "inputs": [
        {
          "name": "newOwner",
          "type": "address"
        }
      ],
      "name": "transferOwnership",
      "outputs": [],
      "payable": false,
      "stateMutability": "nonpayable",
      "type": "function"
    },
    {
      "inputs": [],
      "payable": false,
      "stateMutability": "nonpayable",
      "type": "constructor"
    },
    {
      "anonymous": false,
      "inputs": [
        {
          "indexed": true,
          "name": "previousOwner",
          "type": "address"
        },
        {
          "indexed": true,
          "name": "newOwner",
          "type": "address"
        }
      ],
      "name": "OwnershipTransferred",
      "type": "event"
    },
    {
      "constant": false,
      "inputs": [
        {
          "name": "_marketContractProxyAddress",
          "type": "address"
        }
      ],
      "name": "setMarketContractProxyAddress",
      "outputs": [],
      "payable": false,
      "stateMutability": "nonpayable",
      "type": "function"
    },
    {
      "constant": false,
      "inputs": [
        {
          "name": "_0xBridgeProxyAddress",
          "type": "address"
        }
      ],
      "name": "set0xBridgeProxy",
      "outputs": [],
      "payable": false,
      "stateMutability": "nonpayable",
      "type": "function"
    },
    {
      "constant": false,
      "inputs": [
        {
          "name": "tokenAddress",
          "type": "address"
        },
        {
          "name": "from",
          "type": "address"
        },
        {
          "name": "to",
          "type": "address"
        },
        {
          "name": "amount",
          "type": "uint256"
        },
        {
          "name": "bridgeData",
          "type": "bytes"
        }
      ],
      "name": "bridgeTransferFrom",
      "outputs": [
        {
          "name": "success",
          "type": "bytes4"
        }
      ],
      "payable": false,
      "stateMutability": "nonpayable",
      "type": "function"
    }
  ],
  "bytecode": "0x608060405234801561001057600080fd5b50600160008190555033600160006101000a81548173ffffffffffffffffffffffffffffffffffffffff021916908373ffffffffffffffffffffffffffffffffffffffff160217905550600160009054906101000a900473ffffffffffffffffffffffffffffffffffffffff1673ffffffffffffffffffffffffffffffffffffffff16600073ffffffffffffffffffffffffffffffffffffffff167f8be0079c531659141344cd1fd0a4f28419497f9722a3daafe3b4186f6b6457e060405160405180910390a361111a806100e66000396000f3fe608060405234801561001057600080fd5b50600436106100bb576000357c0100000000000000000000000000000000000000000000000000000000900480638f32d59b116100835780638f32d59b146101ec578063a1d6a4a31461020e578063a95f84b914610252578063c2df82e61461029c578063f2fde38b146103d1576100bb565b8063090dc1cc146100c05780632e99f94e1461010457806368b43fbb1461014e578063715018a6146101985780638da5cb5b146101a2575b600080fd5b610102600480360360208110156100d657600080fd5b81019080803573ffffffffffffffffffffffffffffffffffffffff169060200190929190505050610415565b005b61010c61046c565b604051808273ffffffffffffffffffffffffffffffffffffffff1673ffffffffffffffffffffffffffffffffffffffff16815260200191505060405180910390f35b610156610492565b604051808273ffffffffffffffffffffffffffffffffffffffff1673ffffffffffffffffffffffffffffffffffffffff16815260200191505060405180910390f35b6101a06104b8565b005b6101aa61058c565b604051808273ffffffffffffffffffffffffffffffffffffffff1673ffffffffffffffffffffffffffffffffffffffff16815260200191505060405180910390f35b6101f46105b6565b604051808215151515815260200191505060405180910390f35b6102506004803603602081101561022457600080fd5b81019080803573ffffffffffffffffffffffffffffffffffffffff16906020019092919050505061060e565b005b61025a6106c8565b604051808273ffffffffffffffffffffffffffffffffffffffff1673ffffffffffffffffffffffffffffffffffffffff16815260200191505060405180910390f35b61037d600480360360a08110156102b257600080fd5b81019080803573ffffffffffffffffffffffffffffffffffffffff169060200190929190803573ffffffffffffffffffffffffffffffffffffffff169060200190929190803573ffffffffffffffffffffffffffffffffffffffff169060200190929190803590602001909291908035906020019064010000000081111561033957600080fd5b82018360208201111561034b57600080fd5b8035906020019184600183028401116401000000008311171561036d57600080fd5b90919293919293905050506106ee565b60405180827bffffffffffffffffffffffffffffffffffffffffffffffffffffffff19167bffffffffffffffffffffffffffffffffffffffffffffffffffffffff1916815260200191505060405180910390f35b610413600480360360208110156103e757600080fd5b81019080803573ffffffffffffffffffffffffffffffffffffffff169060200190929190505050610d69565b005b61041d6105b6565b151561042857600080fd5b80600460006101000a81548173ffffffffffffffffffffffffffffffffffffffff021916908373ffffffffffffffffffffffffffffffffffffffff16021790555050565b600260009054906101000a900473ffffffffffffffffffffffffffffffffffffffff1681565b600360009054906101000a900473ffffffffffffffffffffffffffffffffffffffff1681565b6104c06105b6565b15156104cb57600080fd5b600073ffffffffffffffffffffffffffffffffffffffff16600160009054906101000a900473ffffffffffffffffffffffffffffffffffffffff1673ffffffffffffffffffffffffffffffffffffffff167f8be0079c531659141344cd1fd0a4f28419497f9722a3daafe3b4186f6b6457e060405160405180910390a36000600160006101000a81548173ffffffffffffffffffffffffffffffffffffffff021916908373ffffffffffffffffffffffffffffffffffffffff160217905550565b6000600160009054906101000a900473ffffffffffffffffffffffffffffffffffffffff16905090565b6000600160009054906101000a900473ffffffffffffffffffffffffffffffffffffffff1673ffffffffffffffffffffffffffffffffffffffff163373ffffffffffffffffffffffffffffffffffffffff1614905090565b6106166105b6565b151561062157600080fd5b80600360006101000a81548173ffffffffffffffffffffffffffffffffffffffff021916908373ffffffffffffffffffffffffffffffffffffffff160217905550600360009054906101000a900473ffffffffffffffffffffffffffffffffffffffff16600260006101000a81548173ffffffffffffffffffffffffffffffffffffffff021916908373ffffffffffffffffffffffffffffffffffffffff16021790555050565b600460009054906101000a900473ffffffffffffffffffffffffffffffffffffffff1681565b60008073ffffffffffffffffffffffffffffffffffffffff16600360009054906101000a900473ffffffffffffffffffffffffffffffffffffffff1673ffffffffffffffffffffffffffffffffffffffff16141515156107b6576040517f08c379a000000000000000000000000000000000000000000000000000000000815260040180806020018281038252601b8152602001807f4d61726b6574436f6e747261637450726f7879206e6f7420736574000000000081525060200191505060405180910390fd5b600460009054906101000a900473ffffffffffffffffffffffffffffffffffffffff1673ffffffffffffffffffffffffffffffffffffffff163373ffffffffffffffffffffffffffffffffffffffff1614151561087b576040517f08c379a000000000000000000000000000000000000000000000000000000000815260040180806020018281038252600e8152602001807f696e76616c69642063616c6c657200000000000000000000000000000000000081525060200191505060405180910390fd5b60016000808282540192505081905550600080549050600360009054906101000a900473ffffffffffffffffffffffffffffffffffffffff1673ffffffffffffffffffffffffffffffffffffffff168873ffffffffffffffffffffffffffffffffffffffff16141515610956576040517f08c379a00000000000000000000000000000000000000000000000000000000081526004018080602001828103825260118152602001807f6261642070726f7879206164647265737300000000000000000000000000000081525060200191505060405180910390fd5b6000600260009054906101000a900473ffffffffffffffffffffffffffffffffffffffff1673ffffffffffffffffffffffffffffffffffffffff1663323bb7756040518163ffffffff167c010000000000000000000000000000000000000000000000000000000002815260040160206040518083038186803b1580156109dc57600080fd5b505afa1580156109f0573d6000803e3d6000fd5b505050506040513d6020811015610a0657600080fd5b810190808051906020019092919050505090506000600260009054906101000a900473ffffffffffffffffffffffffffffffffffffffff1673ffffffffffffffffffffffffffffffffffffffff166334931b4b886040518263ffffffff167c01000000000000000000000000000000000000000000000000000000000281526004018082815260200191505060206040518083038186803b158015610aaa57600080fd5b505afa158015610abe573d6000803e3d6000fd5b505050506040513d6020811015610ad457600080fd5b81019080805190602001909291905050509050610b148930838573ffffffffffffffffffffffffffffffffffffffff16610d88909392919063ffffffff16565b8173ffffffffffffffffffffffffffffffffffffffff1663095ea7b3600360009054906101000a900473ffffffffffffffffffffffffffffffffffffffff16836040518363ffffffff167c0100000000000000000000000000000000000000000000000000000000028152600401808373ffffffffffffffffffffffffffffffffffffffff1673ffffffffffffffffffffffffffffffffffffffff16815260200182815260200192505050602060405180830381600087803b158015610bd957600080fd5b505af1158015610bed573d6000803e3d6000fd5b505050506040513d6020811015610c0357600080fd5b810190808051906020019092919050505050600260009054906101000a900473ffffffffffffffffffffffffffffffffffffffff1673ffffffffffffffffffffffffffffffffffffffff16631d161ee7888a8c6040518463ffffffff167c0100000000000000000000000000000000000000000000000000000000028152600401808481526020018373ffffffffffffffffffffffffffffffffffffffff1673ffffffffffffffffffffffffffffffffffffffff1681526020018273ffffffffffffffffffffffffffffffffffffffff1673ffffffffffffffffffffffffffffffffffffffff1681526020019350505050600060405180830381600087803b158015610d0e57600080fd5b505af1158015610d22573d6000803e3d6000fd5b5050505063dc1600f37c0100000000000000000000000000000000000000000000000000000000029350505060005481141515610d5e57600080fd5b509695505050505050565b610d716105b6565b1515610d7c57600080fd5b610d8581610eaa565b50565b610ea4848573ffffffffffffffffffffffffffffffffffffffff166323b872dd90507c010000000000000000000000000000000000000000000000000000000002858585604051602401808473ffffffffffffffffffffffffffffffffffffffff1673ffffffffffffffffffffffffffffffffffffffff1681526020018373ffffffffffffffffffffffffffffffffffffffff1673ffffffffffffffffffffffffffffffffffffffff1681526020018281526020019350505050604051602081830303815290604052907bffffffffffffffffffffffffffffffffffffffffffffffffffffffff19166020820180517bffffffffffffffffffffffffffffffffffffffffffffffffffffffff8381831617835250505050610fa6565b50505050565b600073ffffffffffffffffffffffffffffffffffffffff168173ffffffffffffffffffffffffffffffffffffffff1614151515610ee657600080fd5b8073ffffffffffffffffffffffffffffffffffffffff16600160009054906101000a900473ffffffffffffffffffffffffffffffffffffffff1673ffffffffffffffffffffffffffffffffffffffff167f8be0079c531659141344cd1fd0a4f28419497f9722a3daafe3b4186f6b6457e060405160405180910390a380600160006101000a81548173ffffffffffffffffffffffffffffffffffffffff021916908373ffffffffffffffffffffffffffffffffffffffff16021790555050565b610fc58273ffffffffffffffffffffffffffffffffffffffff166110db565b1515610fd057600080fd5b600060608373ffffffffffffffffffffffffffffffffffffffff16836040518082805190602001908083835b6020831015156110215780518252602082019150602081019050602083039250610ffc565b6001836020036101000a0380198251168184511680821785525050505050509050019150506000604051808303816000865af19150503d8060008114611083576040519150601f19603f3d011682016040523d82523d6000602084013e611088565b606091505b509150915081151561109957600080fd5b6000815111156110d5578080602001905160208110156110b857600080fd5b810190808051906020019092919050505015156110d457600080fd5b5b50505050565b600080823b90506000811191505091905056fea165627a7a72305820119ef2fa745cc365f5af4d89ad98a730556bb5606bb0c0f3d17c14fc37d47f430029",
  "source": "pragma solidity 0.5.2;\n\nimport 'openzeppelin-solidity/contracts/ownership/Ownable.sol';\nimport 'openzeppelin-solidity/contracts/token/ERC20/SafeERC20.sol';\nimport 'openzeppelin-solidity/contracts/token/ERC20/ERC20.sol';\nimport 'openzeppelin-solidity/contracts/utils/ReentrancyGuard.sol';\n\nimport '../libraries/MathLib.sol';\nimport '../marketprotocol/MarketCollateralPool.sol';\nimport '../marketprotocol/mpx/MarketContractMPX.sol';\nimport '../marketprotocol/tokens/PositionToken.sol';\n\nimport './MarketContractProxy.sol';\n\n\ncontract MinterBridge is ReentrancyGuard, Ownable {\n    using MathLib for uint;\n    using MathLib for int;\n    using SafeERC20 for ERC20;\n\n    MarketContractProxy public marketContractProxy;\n\n    ///@dev Result of a successful bridge call.\n    bytes4 internal constant BRIDGE_SUCCESS = 0xdc1600f3;\n    address public MARKET_CONTRACT_PROXY_ADDRESS;\n    address public ERC20_BRIDGE_PROXY_ADDRESS;\n\n    constructor() public ReentrancyGuard() {}\n\n    /**\n     * @notice check that called is 0x minter bridge proxy address\n     */\n    modifier only0xBridgeProxy() {\n        require(msg.sender == ERC20_BRIDGE_PROXY_ADDRESS, 'invalid caller');\n        _;\n    }\n    /**\n     * @notice check that market contract proxy address is initialized\n     */\n    modifier onlyIfSetMarketContractProxy() {\n        require(\n            MARKET_CONTRACT_PROXY_ADDRESS != address(0),\n            'MarketContractProxy not set'\n        );\n        _;\n    }\n\n    /**\n     * @notice set market contract proxy address\n     * @dev can only be called from contract owner address\n     * @param _marketContractProxyAddress market contract address\n     */\n    function setMarketContractProxyAddress(address _marketContractProxyAddress)\n        public\n        onlyOwner\n    {\n        MARKET_CONTRACT_PROXY_ADDRESS = _marketContractProxyAddress;\n        marketContractProxy = MarketContractProxy(MARKET_CONTRACT_PROXY_ADDRESS);\n    }\n\n    /**\n     * @notice set 0x minter bridge proxy address\n     * @dev can only be called from contract owner address\n     * @param _0xBridgeProxyAddress 0x minter bridge proxy address\n     */\n    function set0xBridgeProxy(address _0xBridgeProxyAddress) public onlyOwner {\n        ERC20_BRIDGE_PROXY_ADDRESS = _0xBridgeProxyAddress;\n    }\n\n    /**\n     * @notice Transfers `amount` of the ERC20 `tokenAddress` from `from` to `to`.\n     * @dev can only be called if market contract proxy address is set.\n     * @param tokenAddress in the standard 0x implementation this is the transferred token.\n     * In HoneyLemon this is the marketContractProxy which acts to spoof a token and inform\n     * the MinterBridge of the latest perpetual token.\n     * @param from Address to transfer asset from.\n     * @param to Address to transfer asset to.\n     * @param amount Amount of asset to transfer.\n     * @param bridgeData Arbitrary asset data needed by the bridge contract.\n     * @return success The magic bytes `0x37708e9b` if successful.\n     */\n    function bridgeTransferFrom(\n        address tokenAddress,\n        address from,\n        address to,\n        uint256 amount,\n        bytes calldata bridgeData\n    )\n        external\n        onlyIfSetMarketContractProxy\n        only0xBridgeProxy\n        nonReentrant\n        returns (bytes4 success)\n    {\n        // The proxy acts as the taker token to make 0x think that the appropriate amount\n        // was transferred and accept the trade as passing. Under the hood the  marketContractProxy\n        // has minted long and short tokens and sent them to the the investor and miner.\n        require(tokenAddress == MARKET_CONTRACT_PROXY_ADDRESS, 'bad proxy address');\n\n        // (imBTC) sent from the miner\n        ERC20 collateralToken = ERC20(marketContractProxy.COLLATERAL_TOKEN_ADDRESS());\n\n        uint neededCollateral = marketContractProxy.calculateRequiredCollateral(amount);\n\n        collateralToken.safeTransferFrom(from, address(this), neededCollateral);\n        collateralToken.approve(MARKET_CONTRACT_PROXY_ADDRESS, neededCollateral);\n\n        // to: long & taker (investor)\n        // from: short & maker (miner)\n        marketContractProxy.mintPositionTokens(amount, to, from);\n\n        return BRIDGE_SUCCESS;\n    }\n}\n",
  "sourcePath": "/Users/andreianisimov/projects/honeylemon/dapp.honeylemon.market/packages/contracts/contracts/honeylemon/MinterBridge.sol",
  "compiler": {
    "name": "solc",
    "version": "0.5.2+commit.1df8f40c.Emscripten.clang"
  },
  "schemaVersion": "3.2.0",
  "updatedAt": "2020-07-11T22:54:27.076Z",
  "networkType": "ethereum",
  "devdoc": {
    "methods": {
      "bridgeTransferFrom(address,address,address,uint256,bytes)": {
        "details": "can only be called if market contract proxy address is set.",
        "params": {
          "amount": "Amount of asset to transfer.",
          "bridgeData": "Arbitrary asset data needed by the bridge contract.",
          "from": "Address to transfer asset from.",
          "to": "Address to transfer asset to.",
          "tokenAddress": "in the standard 0x implementation this is the transferred token. In HoneyLemon this is the marketContractProxy which acts to spoof a token and inform the MinterBridge of the latest perpetual token."
        },
        "return": "success The magic bytes `0x37708e9b` if successful."
      },
      "isOwner()": {
        "return": "true if `msg.sender` is the owner of the contract."
      },
      "owner()": {
        "return": "the address of the owner."
      },
      "renounceOwnership()": {
        "details": "Allows the current owner to relinquish control of the contract. It will not be possible to call the functions with the `onlyOwner` modifier anymore."
      },
      "set0xBridgeProxy(address)": {
        "details": "can only be called from contract owner address",
        "params": {
          "_0xBridgeProxyAddress": "0x minter bridge proxy address"
        }
      },
      "setMarketContractProxyAddress(address)": {
        "details": "can only be called from contract owner address",
        "params": {
          "_marketContractProxyAddress": "market contract address"
        }
      },
      "transferOwnership(address)": {
        "details": "Allows the current owner to transfer control of the contract to a newOwner.",
        "params": {
          "newOwner": "The address to transfer ownership to."
        }
      }
    }
  },
  "userdoc": {
    "methods": {
      "bridgeTransferFrom(address,address,address,uint256,bytes)": {
        "notice": "Transfers `amount` of the ERC20 `tokenAddress` from `from` to `to`."
      },
      "renounceOwnership()": {
        "notice": "Renouncing ownership will leave the contract without an owner, thereby removing any functionality that is only available to the owner."
      },
      "set0xBridgeProxy(address)": {
        "notice": "set 0x minter bridge proxy address"
      },
      "setMarketContractProxyAddress(address)": {
        "notice": "set market contract proxy address"
      }
    }
  }
}