{
  "contractName": "PositionToken",
  "abi": [
    {
      "constant": true,
      "inputs": [],
      "name": "name",
      "outputs": [
        {
          "name": "",
          "type": "string"
        }
      ],
      "payable": false,
      "stateMutability": "view",
      "type": "function"
    },
    {
      "constant": false,
      "inputs": [
        {
          "name": "spender",
          "type": "address"
        },
        {
          "name": "value",
          "type": "uint256"
        }
      ],
      "name": "approve",
      "outputs": [
        {
          "name": "",
          "type": "bool"
        }
      ],
      "payable": false,
      "stateMutability": "nonpayable",
      "type": "function"
    },
    {
      "constant": true,
      "inputs": [],
      "name": "totalSupply",
      "outputs": [
        {
          "name": "",
          "type": "uint256"
        }
      ],
      "payable": false,
      "stateMutability": "view",
      "type": "function"
    },
    {
      "constant": false,
      "inputs": [
        {
          "name": "from",
          "type": "address"
        },
        {
          "name": "to",
          "type": "address"
        },
        {
          "name": "value",
          "type": "uint256"
        }
      ],
      "name": "transferFrom",
      "outputs": [
        {
          "name": "",
          "type": "bool"
        }
      ],
      "payable": false,
      "stateMutability": "nonpayable",
      "type": "function"
    },
    {
      "constant": true,
      "inputs": [],
      "name": "decimals",
      "outputs": [
        {
          "name": "",
          "type": "uint8"
        }
      ],
      "payable": false,
      "stateMutability": "view",
      "type": "function"
    },
    {
      "constant": false,
      "inputs": [
        {
          "name": "spender",
          "type": "address"
        },
        {
          "name": "addedValue",
          "type": "uint256"
        }
      ],
      "name": "increaseAllowance",
      "outputs": [
        {
          "name": "",
          "type": "bool"
        }
      ],
      "payable": false,
      "stateMutability": "nonpayable",
      "type": "function"
    },
    {
      "constant": true,
      "inputs": [
        {
          "name": "owner",
          "type": "address"
        }
      ],
      "name": "balanceOf",
      "outputs": [
        {
          "name": "",
          "type": "uint256"
        }
      ],
      "payable": false,
      "stateMutability": "view",
      "type": "function"
    },
    {
      "constant": false,
      "inputs": [],
      "name": "renounceOwnership",
      "outputs": [],
      "payable": false,
      "stateMutability": "nonpayable",
      "type": "function"
    },
    {
      "constant": true,
      "inputs": [],
      "name": "owner",
      "outputs": [
        {
          "name": "",
          "type": "address"
        }
      ],
      "payable": false,
      "stateMutability": "view",
      "type": "function"
    },
    {
      "constant": true,
      "inputs": [],
      "name": "isOwner",
      "outputs": [
        {
          "name": "",
          "type": "bool"
        }
      ],
      "payable": false,
      "stateMutability": "view",
      "type": "function"
    },
    {
      "constant": true,
      "inputs": [],
      "name": "symbol",
      "outputs": [
        {
          "name": "",
          "type": "string"
        }
      ],
      "payable": false,
      "stateMutability": "view",
      "type": "function"
    },
    {
      "constant": false,
      "inputs": [
        {
          "name": "spender",
          "type": "address"
        },
        {
          "name": "subtractedValue",
          "type": "uint256"
        }
      ],
      "name": "decreaseAllowance",
      "outputs": [
        {
          "name": "",
          "type": "bool"
        }
      ],
      "payable": false,
      "stateMutability": "nonpayable",
      "type": "function"
    },
    {
      "constant": false,
      "inputs": [
        {
          "name": "to",
          "type": "address"
        },
        {
          "name": "value",
          "type": "uint256"
        }
      ],
      "name": "transfer",
      "outputs": [
        {
          "name": "",
          "type": "bool"
        }
      ],
      "payable": false,
      "stateMutability": "nonpayable",
      "type": "function"
    },
    {
      "constant": true,
      "inputs": [],
      "name": "MARKET_SIDE",
      "outputs": [
        {
          "name": "",
          "type": "uint8"
        }
      ],
      "payable": false,
      "stateMutability": "view",
      "type": "function"
    },
    {
      "constant": true,
      "inputs": [
        {
          "name": "owner",
          "type": "address"
        },
        {
          "name": "spender",
          "type": "address"
        }
      ],
      "name": "allowance",
      "outputs": [
        {
          "name": "",
          "type": "uint256"
        }
      ],
      "payable": false,
      "stateMutability": "view",
      "type": "function"
    },
    {
      "constant": false,
      "inputs": [
        {
          "name": "newOwner",
          "type": "address"
        }
      ],
      "name": "transferOwnership",
      "outputs": [],
      "payable": false,
      "stateMutability": "nonpayable",
      "type": "function"
    },
    {
      "inputs": [
        {
          "name": "tokenName",
          "type": "string"
        },
        {
          "name": "tokenSymbol",
          "type": "string"
        },
        {
          "name": "marketSide",
          "type": "uint8"
        }
      ],
      "payable": false,
      "stateMutability": "nonpayable",
      "type": "constructor"
    },
    {
      "anonymous": false,
      "inputs": [
        {
          "indexed": true,
          "name": "previousOwner",
          "type": "address"
        },
        {
          "indexed": true,
          "name": "newOwner",
          "type": "address"
        }
      ],
      "name": "OwnershipTransferred",
      "type": "event"
    },
    {
      "anonymous": false,
      "inputs": [
        {
          "indexed": true,
          "name": "from",
          "type": "address"
        },
        {
          "indexed": true,
          "name": "to",
          "type": "address"
        },
        {
          "indexed": false,
          "name": "value",
          "type": "uint256"
        }
      ],
      "name": "Transfer",
      "type": "event"
    },
    {
      "anonymous": false,
      "inputs": [
        {
          "indexed": true,
          "name": "owner",
          "type": "address"
        },
        {
          "indexed": true,
          "name": "spender",
          "type": "address"
        },
        {
          "indexed": false,
          "name": "value",
          "type": "uint256"
        }
      ],
      "name": "Approval",
      "type": "event"
    },
    {
      "constant": false,
      "inputs": [
        {
          "name": "qtyToMint",
          "type": "uint256"
        },
        {
          "name": "recipient",
          "type": "address"
        }
      ],
      "name": "mintAndSendToken",
      "outputs": [],
      "payable": false,
      "stateMutability": "nonpayable",
      "type": "function"
    },
    {
      "constant": false,
      "inputs": [
        {
          "name": "qtyToRedeem",
          "type": "uint256"
        },
        {
          "name": "redeemer",
          "type": "address"
        }
      ],
      "name": "redeemToken",
      "outputs": [],
      "payable": false,
      "stateMutability": "nonpayable",
      "type": "function"
    }
  ],
  "bytecode": "0x60806040523480156200001157600080fd5b5060405162000d1038038062000d10833981018060405260608110156200003757600080fd5b8101908080516401000000008111156200005057600080fd5b820160208101848111156200006457600080fd5b81516401000000008111828201871017156200007f57600080fd5b505092919060200180516401000000008111156200009c57600080fd5b82016020810184811115620000b057600080fd5b8151640100000000811182820187101715620000cb57600080fd5b505060209091015160038054600160a060020a031916331790819055604051929450909250600160a060020a0316906000907f8be0079c531659141344cd1fd0a4f28419497f9722a3daafe3b4186f6b6457e0908290a38251620001379060049060208601906200018f565b5081516200014d9060059060208501906200018f565b506006805460ff1916905560ff811660018111156200016857fe5b6006805461ff0019166101008360018111156200018157fe5b021790555050505062000234565b828054600181600116156101000203166002900490600052602060002090601f016020900481019282601f10620001d257805160ff191683800117855562000202565b8280016001018555821562000202579182015b8281111562000202578251825591602001919060010190620001e5565b506200021092915062000214565b5090565b6200023191905b808211156200021057600081556001016200021b565b90565b610acc80620002446000396000f3fe608060405234801561001057600080fd5b5060043610610133576000357c0100000000000000000000000000000000000000000000000000000000900480638da5cb5b116100bf578063a9059cbb1161008e578063a9059cbb1461034b578063b003b12714610377578063c3501ff6146103a3578063dd62ed3e146103cf578063f2fde38b146103fd57610133565b80638da5cb5b146102eb5780638f32d59b1461030f57806395d89b4114610317578063a457c2d71461031f57610133565b8063313ce56711610106578063313ce56714610245578063395093511461026357806370a082311461028f578063715018a6146102b55780637251cd02146102bf57610133565b806306fdde0314610138578063095ea7b3146101b557806318160ddd146101f557806323b872dd1461020f575b600080fd5b610140610423565b6040805160208082528351818301528351919283929083019185019080838360005b8381101561017a578181015183820152602001610162565b50505050905090810190601f1680156101a75780820380516001836020036101000a031916815260200191505b509250505060405180910390f35b6101e1600480360360408110156101cb57600080fd5b50600160a060020a0381351690602001356104b1565b604080519115158252519081900360200190f35b6101fd6104c7565b60408051918252519081900360200190f35b6101e16004803603606081101561022557600080fd5b50600160a060020a038135811691602081013590911690604001356104cd565b61024d610524565b6040805160ff9092168252519081900360200190f35b6101e16004803603604081101561027957600080fd5b50600160a060020a03813516906020013561052d565b6101fd600480360360208110156102a557600080fd5b5035600160a060020a0316610569565b6102bd610584565b005b6102bd600480360360408110156102d557600080fd5b5080359060200135600160a060020a03166105ee565b6102f361060f565b60408051600160a060020a039092168252519081900360200190f35b6101e161061e565b61014061062f565b6101e16004803603604081101561033557600080fd5b50600160a060020a03813516906020013561068a565b6101e16004803603604081101561036157600080fd5b50600160a060020a0381351690602001356106c6565b61037f6106d3565b6040518082600181111561038f57fe5b60ff16815260200191505060405180910390f35b6102bd600480360360408110156103b957600080fd5b5080359060200135600160a060020a03166106e1565b6101fd600480360360408110156103e557600080fd5b50600160a060020a03813581169160200135166106fe565b6102bd6004803603602081101561041357600080fd5b5035600160a060020a0316610729565b6004805460408051602060026001851615610100026000190190941693909304601f810184900484028201840190925281815292918301828280156104a95780601f1061047e576101008083540402835291602001916104a9565b820191906000526020600020905b81548152906001019060200180831161048c57829003601f168201915b505050505081565b60006104be338484610748565b50600192915050565b60025490565b60006104da8484846107d4565b600160a060020a03841660009081526001602090815260408083203380855292529091205461051a918691610515908663ffffffff6108a116565b610748565b5060019392505050565b60065460ff1681565b336000818152600160209081526040808320600160a060020a038716845290915281205490916104be918590610515908663ffffffff6108b616565b600160a060020a031660009081526020819052604090205490565b61058c61061e565b151561059757600080fd5b600354604051600091600160a060020a0316907f8be0079c531659141344cd1fd0a4f28419497f9722a3daafe3b4186f6b6457e0908390a36003805473ffffffffffffffffffffffffffffffffffffffff19169055565b6105f661061e565b151561060157600080fd5b61060b81836108cf565b5050565b600354600160a060020a031690565b600354600160a060020a0316331490565b6005805460408051602060026001851615610100026000190190941693909304601f810184900484028201840190925281815292918301828280156104a95780601f1061047e576101008083540402835291602001916104a9565b336000818152600160209081526040808320600160a060020a038716845290915281205490916104be918590610515908663ffffffff6108a116565b60006104be3384846107d4565b600654610100900460ff1681565b6106e961061e565b15156106f457600080fd5b61060b8183610979565b600160a060020a03918216600090815260016020908152604080832093909416825291909152205490565b61073161061e565b151561073c57600080fd5b61074581610a22565b50565b600160a060020a038216151561075d57600080fd5b600160a060020a038316151561077257600080fd5b600160a060020a03808416600081815260016020908152604080832094871680845294825291829020859055815185815291517f8c5be1e5ebec7d5bd14f71427d1e84f3dd0314c0f7b2291e5b200ac8c7c3b9259281900390910190a3505050565b600160a060020a03821615156107e957600080fd5b600160a060020a038316600090815260208190526040902054610812908263ffffffff6108a116565b600160a060020a038085166000908152602081905260408082209390935590841681522054610847908263ffffffff6108b616565b600160a060020a038084166000818152602081815260409182902094909455805185815290519193928716927fddf252ad1be2c89b69c2b068fc378daa952ba7f163c4a11628f55a4df523b3ef92918290030190a3505050565b6000828211156108b057600080fd5b50900390565b6000828201838110156108c857600080fd5b9392505050565b600160a060020a03821615156108e457600080fd5b6002546108f7908263ffffffff6108b616565b600255600160a060020a038216600090815260208190526040902054610923908263ffffffff6108b616565b600160a060020a0383166000818152602081815260408083209490945583518581529351929391927fddf252ad1be2c89b69c2b068fc378daa952ba7f163c4a11628f55a4df523b3ef9281900390910190a35050565b600160a060020a038216151561098e57600080fd5b6002546109a1908263ffffffff6108a116565b600255600160a060020a0382166000908152602081905260409020546109cd908263ffffffff6108a116565b600160a060020a038316600081815260208181526040808320949094558351858152935191937fddf252ad1be2c89b69c2b068fc378daa952ba7f163c4a11628f55a4df523b3ef929081900390910190a35050565b600160a060020a0381161515610a3757600080fd5b600354604051600160a060020a038084169216907f8be0079c531659141344cd1fd0a4f28419497f9722a3daafe3b4186f6b6457e090600090a36003805473ffffffffffffffffffffffffffffffffffffffff1916600160a060020a039290921691909117905556fea165627a7a72305820e84632a21e1d3c1dfeda16193bfa4e314be3c997609c800669b52f32d961d3e80029",
  "source": "/*\n    Copyright 2017-2019 Phillip A. Elsasser\n\n    Licensed under the Apache License, Version 2.0 (the \"License\");\n    you may not use this file except in compliance with the License.\n    You may obtain a copy of the License at\n\n    http://www.apache.org/licenses/LICENSE-2.0\n\n    Unless required by applicable law or agreed to in writing, software\n    distributed under the License is distributed on an \"AS IS\" BASIS,\n    WITHOUT WARRANTIES OR CONDITIONS OF ANY KIND, either express or implied.\n    See the License for the specific language governing permissions and\n    limitations under the License.\n*/\n\npragma solidity 0.5.2;\n\nimport \"openzeppelin-solidity/contracts/token/ERC20/ERC20.sol\";\nimport \"openzeppelin-solidity/contracts/ownership/Ownable.sol\";\n\n\n/// @title Position Token\n/// @notice A token that represents a claim to a collateral pool and a short or long position.\n/// The collateral pool acts as the owner of this contract and controls minting and redemption of these\n/// tokens based on locked collateral in the pool.\n/// NOTE: We eventually can move all of this logic into a library to avoid deploying all of the logic\n/// every time a new market contract is deployed.\n/// @author Phil Elsasser <phil@marketprotocol.io>\ncontract PositionToken is ERC20, Ownable {\n    string public name;\n    string public symbol;\n    uint8 public decimals;\n\n    MarketSide public MARKET_SIDE; // 0 = Long, 1 = Short\n    enum MarketSide { Long, Short }\n\n    constructor(\n        string memory tokenName,\n        string memory tokenSymbol,\n        uint8 marketSide\n    ) public {\n        name = tokenName;\n        symbol = tokenSymbol;\n        decimals = 0;\n        MARKET_SIDE = MarketSide(marketSide);\n    }\n\n    /// @dev Called by our MarketContract (owner) to create a long or short position token. These tokens are minted,\n    /// and then transferred to our recipient who is the party who is minting these tokens.  The collateral pool\n    /// is the only caller (acts as the owner) because collateral must be deposited / locked prior to minting of new\n    /// position tokens\n    /// @param qtyToMint quantity of position tokens to mint (in base units)\n    /// @param recipient the person minting and receiving these position tokens.\n    function mintAndSendToken(uint256 qtyToMint, address recipient) external onlyOwner {\n        _mint(recipient, qtyToMint);\n    }\n\n    /// @dev Called by our MarketContract (owner) when redemption occurs.  This means that either a single user is redeeming\n    /// both short and long tokens in order to claim their collateral, or the contract has settled, and only a single\n    /// side of the tokens are needed to redeem (handled by the collateral pool)\n    /// @param qtyToRedeem quantity of tokens to burn (remove from supply / circulation)\n    /// @param redeemer the person redeeming these tokens (who are we taking the balance from)\n    function redeemToken(uint256 qtyToRedeem, address redeemer) external onlyOwner {\n        _burn(redeemer, qtyToRedeem);\n    }\n}\n",
  "sourcePath": "/Users/andreianisimov/projects/honeylemon/dapp.honeylemon.market/packages/contracts/contracts/marketprotocol/tokens/PositionToken.sol",
  "compiler": {
    "name": "solc",
    "version": "0.5.2+commit.1df8f40c.Emscripten.clang"
  },
  "schemaVersion": "3.2.0",
  "updatedAt": "2020-07-17T15:20:56.358Z",
  "devdoc": {
    "author": "Phil Elsasser <phil@marketprotocol.io>",
    "methods": {
      "allowance(address,address)": {
        "details": "Function to check the amount of tokens that an owner allowed to a spender.",
        "params": {
          "owner": "address The address which owns the funds.",
          "spender": "address The address which will spend the funds."
        },
        "return": "A uint256 specifying the amount of tokens still available for the spender."
      },
      "approve(address,uint256)": {
        "details": "Approve the passed address to spend the specified amount of tokens on behalf of msg.sender. Beware that changing an allowance with this method brings the risk that someone may use both the old and the new allowance by unfortunate transaction ordering. One possible solution to mitigate this race condition is to first reduce the spender's allowance to 0 and set the desired value afterwards: https://github.com/ethereum/EIPs/issues/20#issuecomment-263524729",
        "params": {
          "spender": "The address which will spend the funds.",
          "value": "The amount of tokens to be spent."
        }
      },
      "balanceOf(address)": {
        "details": "Gets the balance of the specified address.",
        "params": {
          "owner": "The address to query the balance of."
        },
        "return": "A uint256 representing the amount owned by the passed address."
      },
      "decreaseAllowance(address,uint256)": {
        "details": "Decrease the amount of tokens that an owner allowed to a spender. approve should be called when _allowed[msg.sender][spender] == 0. To decrement allowed value is better to use this function to avoid 2 calls (and wait until the first transaction is mined) From MonolithDAO Token.sol Emits an Approval event.",
        "params": {
          "spender": "The address which will spend the funds.",
          "subtractedValue": "The amount of tokens to decrease the allowance by."
        }
      },
      "increaseAllowance(address,uint256)": {
        "details": "Increase the amount of tokens that an owner allowed to a spender. approve should be called when _allowed[msg.sender][spender] == 0. To increment allowed value is better to use this function to avoid 2 calls (and wait until the first transaction is mined) From MonolithDAO Token.sol Emits an Approval event.",
        "params": {
          "addedValue": "The amount of tokens to increase the allowance by.",
          "spender": "The address which will spend the funds."
        }
      },
      "isOwner()": {
        "return": "true if `msg.sender` is the owner of the contract."
      },
      "mintAndSendToken(uint256,address)": {
        "details": "Called by our MarketContract (owner) to create a long or short position token. These tokens are minted, and then transferred to our recipient who is the party who is minting these tokens.  The collateral pool is the only caller (acts as the owner) because collateral must be deposited / locked prior to minting of new position tokens",
        "params": {
          "qtyToMint": "quantity of position tokens to mint (in base units)",
          "recipient": "the person minting and receiving these position tokens."
        }
      },
      "owner()": {
        "return": "the address of the owner."
      },
      "redeemToken(uint256,address)": {
        "details": "Called by our MarketContract (owner) when redemption occurs.  This means that either a single user is redeeming both short and long tokens in order to claim their collateral, or the contract has settled, and only a single side of the tokens are needed to redeem (handled by the collateral pool)",
        "params": {
          "qtyToRedeem": "quantity of tokens to burn (remove from supply / circulation)",
          "redeemer": "the person redeeming these tokens (who are we taking the balance from)"
        }
      },
      "renounceOwnership()": {
        "details": "Allows the current owner to relinquish control of the contract. It will not be possible to call the functions with the `onlyOwner` modifier anymore."
      },
      "totalSupply()": {
        "details": "Total number of tokens in existence"
      },
      "transfer(address,uint256)": {
        "details": "Transfer token to a specified address",
        "params": {
          "to": "The address to transfer to.",
          "value": "The amount to be transferred."
        }
      },
      "transferFrom(address,address,uint256)": {
        "details": "Transfer tokens from one address to another. Note that while this function emits an Approval event, this is not required as per the specification, and other compliant implementations may not emit the event.",
        "params": {
          "from": "address The address which you want to send tokens from",
          "to": "address The address which you want to transfer to",
          "value": "uint256 the amount of tokens to be transferred"
        }
      },
      "transferOwnership(address)": {
        "details": "Allows the current owner to transfer control of the contract to a newOwner.",
        "params": {
          "newOwner": "The address to transfer ownership to."
        }
      }
    },
    "title": "Position Token"
  },
  "userdoc": {
    "methods": {
      "renounceOwnership()": {
        "notice": "Renouncing ownership will leave the contract without an owner, thereby removing any functionality that is only available to the owner."
      }
    },
    "notice": "A token that represents a claim to a collateral pool and a short or long position. The collateral pool acts as the owner of this contract and controls minting and redemption of these tokens based on locked collateral in the pool. NOTE: We eventually can move all of this logic into a library to avoid deploying all of the logic every time a new market contract is deployed."
  }
}