{
  "contractName": "Utils",
  "abi": [
    {
      "constant": false,
      "inputs": [
        {
          "name": "marketContractAddress",
          "type": "address"
        },
        {
          "name": "qtyToRedeem",
          "type": "uint256"
        }
      ],
      "name": "redeemPositionTokens",
      "outputs": [],
      "payable": false,
      "stateMutability": "nonpayable",
      "type": "function"
    }
  ],
  "bytecode": "0x608060405234801561001057600080fd5b50610565806100206000396000f3fe608060405234801561001057600080fd5b506004361061002e5760e060020a6000350463c1b214118114610033575b600080fd5b61005f6004803603604081101561004957600080fd5b50600160a060020a038135169060200135610061565b005b6000829050600081600160a060020a031663eaafb4fa6040518163ffffffff1660e060020a02815260040160206040518083038186803b1580156100a457600080fd5b505afa1580156100b8573d6000803e3d6000fd5b505050506040513d60208110156100ce57600080fd5b5051604080517f22d1c35e0000000000000000000000000000000000000000000000000000000081529051919250600091600160a060020a038516916322d1c35e916004808301926020929190829003018186803b15801561012f57600080fd5b505afa158015610143573d6000803e3d6000fd5b505050506040513d602081101561015957600080fd5b5051604080517f5b3f1e3f0000000000000000000000000000000000000000000000000000000081529051919250600091600160a060020a03861691635b3f1e3f916004808301926020929190829003018186803b1580156101ba57600080fd5b505afa1580156101ce573d6000803e3d6000fd5b505050506040513d60208110156101e457600080fd5b5051604080517f095ea7b3000000000000000000000000000000000000000000000000000000008152600160a060020a0387811660048301526024820189905291519293509084169163095ea7b3916044808201926020929091908290030181600087803b15801561025557600080fd5b505af1158015610269573d6000803e3d6000fd5b505050506040513d602081101561027f57600080fd5b5050604080517f095ea7b3000000000000000000000000000000000000000000000000000000008152600160a060020a0386811660048301526024820188905291519183169163095ea7b3916044808201926020929091908290030181600087803b1580156102ed57600080fd5b505af1158015610301573d6000803e3d6000fd5b505050506040513d602081101561031757600080fd5b5050604080517fc1b21411000000000000000000000000000000000000000000000000000000008152600160a060020a0388811660048301526024820188905291519185169163c1b214119160448082019260009290919082900301818387803b15801561038457600080fd5b505af1158015610398573d6000803e3d6000fd5b50505050600084600160a060020a031663323bb7756040518163ffffffff1660e060020a02815260040160206040518083038186803b1580156103da57600080fd5b505afa1580156103ee573d6000803e3d6000fd5b505050506040513d602081101561040457600080fd5b5051604080517f70a082310000000000000000000000000000000000000000000000000000000081523060048201529051919250600091600160a060020a038416916370a08231916024808301926020929190829003018186803b15801561046b57600080fd5b505afa15801561047f573d6000803e3d6000fd5b505050506040513d602081101561049557600080fd5b5051604080517fa9059cbb000000000000000000000000000000000000000000000000000000008152336004820152602481018390529051919250600160a060020a0384169163a9059cbb916044808201926020929091908290030181600087803b15801561050357600080fd5b505af1158015610517573d6000803e3d6000fd5b505050506040513d602081101561052d57600080fd5b5050505050505050505056fea165627a7a72305820be8947b7859997de4b5a79c6b17063438e8ff4f90190dacaa5e672c15338a31f0029",
  "source": "pragma solidity 0.5.2;\n\nimport 'openzeppelin-solidity/contracts/token/ERC20/IERC20.sol';\n\nimport '../marketprotocol/MarketContract.sol';\nimport '../marketprotocol/MarketCollateralPool.sol';\nimport '../marketprotocol/tokens/PositionToken.sol';\n\ncontract Utils {\n  function redeemPositionTokens(address marketContractAddress, uint qtyToRedeem) public {\n    MarketContract marketContract = MarketContract(marketContractAddress);\n    MarketCollateralPool marketCollateralPool = MarketCollateralPool(marketContract.COLLATERAL_POOL_ADDRESS());\n    PositionToken long = PositionToken(marketContract.LONG_POSITION_TOKEN());\n    PositionToken short = PositionToken(marketContract.SHORT_POSITION_TOKEN());\n\n    // approve tokens\n    long.approve(address(marketContract), qtyToRedeem);\n    short.approve(address(marketContract), qtyToRedeem);\n\n    // redeem\n    marketCollateralPool.redeemPositionTokens(marketContractAddress, qtyToRedeem);\n\n    // Finally redeem collateral back to user.\n    IERC20 collateralToken = IERC20(marketContract.COLLATERAL_TOKEN_ADDRESS());\n\n    // DSProxy balance. address(this) is the DSProxy contract address that will redeem the tokens.\n    uint dSProxyBalance = collateralToken.balanceOf(address(this));\n\n    // Move all redeemed tokens from DSProxy back to users wallet. msg.sender is the owner of the DSProxy.\n    collateralToken.transfer(msg.sender, dSProxyBalance);\n\n  }\n}",
  "sourcePath": "/Users/andreianisimov/projects/honeylemon/dapp.honeylemon.market/packages/contracts/contracts/honeylemon/Utils.sol",
  "compiler": {
    "name": "solc",
    "version": "0.5.2+commit.1df8f40c.Emscripten.clang"
  },
  "schemaVersion": "3.2.0",
  "updatedAt": "2020-07-12T21:43:23.833Z",
  "devdoc": {
    "methods": {}
  },
  "userdoc": {
    "methods": {}
  }
}