{
  "contractName": "MarketContractProxy",
  "abi": [
    {
      "constant": true,
      "inputs": [],
      "name": "CONTRACT_DURATION_DAYS",
      "outputs": [
        {
          "name": "",
          "type": "uint256"
        }
      ],
      "payable": false,
      "stateMutability": "view",
      "type": "function"
    },
    {
      "constant": true,
      "inputs": [],
      "name": "MINTER_BRIDGE_ADDRESS",
      "outputs": [
        {
          "name": "",
          "type": "address"
        }
      ],
      "payable": false,
      "stateMutability": "view",
      "type": "function"
    },
    {
      "constant": true,
      "inputs": [],
      "name": "CONTRACT_DURATION",
      "outputs": [
        {
          "name": "",
          "type": "uint256"
        }
      ],
      "payable": false,
      "stateMutability": "view",
      "type": "function"
    },
    {
      "constant": true,
      "inputs": [],
      "name": "COLLATERAL_TOKEN_ADDRESS",
      "outputs": [
        {
          "name": "",
          "type": "address"
        }
      ],
      "payable": false,
      "stateMutability": "view",
      "type": "function"
    },
    {
      "constant": true,
      "inputs": [],
      "name": "ORACLE_URL",
      "outputs": [
        {
          "name": "",
          "type": "string"
        }
      ],
      "payable": false,
      "stateMutability": "view",
      "type": "function"
    },
    {
      "constant": true,
      "inputs": [],
      "name": "ORACLE_STATISTIC",
      "outputs": [
        {
          "name": "",
          "type": "string"
        }
      ],
      "payable": false,
      "stateMutability": "view",
      "type": "function"
    },
    {
      "constant": false,
      "inputs": [],
      "name": "renounceOwnership",
      "outputs": [],
      "payable": false,
      "stateMutability": "nonpayable",
      "type": "function"
    },
    {
      "constant": true,
      "inputs": [
        {
          "name": "",
          "type": "uint256"
        }
      ],
      "name": "marketContracts",
      "outputs": [
        {
          "name": "",
          "type": "address"
        }
      ],
      "payable": false,
      "stateMutability": "view",
      "type": "function"
    },
    {
      "constant": true,
      "inputs": [],
      "name": "owner",
      "outputs": [
        {
          "name": "",
          "type": "address"
        }
      ],
      "payable": false,
      "stateMutability": "view",
      "type": "function"
    },
    {
      "constant": true,
      "inputs": [],
      "name": "isOwner",
      "outputs": [
        {
          "name": "",
          "type": "bool"
        }
      ],
      "payable": false,
      "stateMutability": "view",
      "type": "function"
    },
    {
      "constant": true,
      "inputs": [
        {
          "name": "",
          "type": "uint256"
        }
      ],
      "name": "marketContractSpecs",
      "outputs": [
        {
          "name": "",
          "type": "uint256"
        }
      ],
      "payable": false,
      "stateMutability": "view",
      "type": "function"
    },
    {
      "constant": true,
      "inputs": [],
      "name": "CONTRACT_COLLATERAL_RATIO",
      "outputs": [
        {
          "name": "",
          "type": "uint256"
        }
      ],
      "payable": false,
      "stateMutability": "view",
      "type": "function"
    },
    {
      "constant": true,
      "inputs": [],
      "name": "HONEY_LEMON_ORACLE_ADDRESS",
      "outputs": [
        {
          "name": "",
          "type": "address"
        }
      ],
      "payable": false,
      "stateMutability": "view",
      "type": "function"
    },
    {
      "constant": false,
      "inputs": [
        {
          "name": "newOwner",
          "type": "address"
        }
      ],
      "name": "transferOwnership",
      "outputs": [],
      "payable": false,
      "stateMutability": "nonpayable",
      "type": "function"
    },
    {
      "inputs": [
        {
          "name": "_marketContractFactoryMPX",
          "type": "address"
        },
        {
          "name": "_honeyLemonOracle",
          "type": "address"
        },
        {
          "name": "_minterBridge",
          "type": "address"
        },
        {
          "name": "_imBTCTokenAddress",
          "type": "address"
        }
      ],
      "payable": false,
      "stateMutability": "nonpayable",
      "type": "constructor"
    },
    {
      "anonymous": false,
      "inputs": [
        {
          "indexed": true,
          "name": "marketId",
          "type": "uint256"
        },
        {
          "indexed": false,
          "name": "contractName",
          "type": "string"
        },
        {
          "indexed": true,
          "name": "longTokenRecipient",
          "type": "address"
        },
        {
          "indexed": true,
          "name": "shortTokenRecipient",
          "type": "address"
        },
        {
          "indexed": false,
          "name": "qtyToMint",
          "type": "uint256"
        },
        {
          "indexed": false,
          "name": "latestMarketContract",
          "type": "address"
        },
        {
          "indexed": false,
          "name": "longTokenAddress",
          "type": "address"
        },
        {
          "indexed": false,
          "name": "shortTokenAddress",
          "type": "address"
        },
        {
          "indexed": false,
          "name": "bridgeData",
          "type": "bytes"
        },
        {
          "indexed": false,
          "name": "time",
          "type": "uint256"
        }
      ],
      "name": "PositionTokensMinted",
      "type": "event"
    },
    {
      "anonymous": false,
      "inputs": [
        {
          "indexed": true,
          "name": "previousOwner",
          "type": "address"
        },
        {
          "indexed": true,
          "name": "newOwner",
          "type": "address"
        }
      ],
      "name": "OwnershipTransferred",
      "type": "event"
    },
    {
      "constant": true,
      "inputs": [
        {
          "name": "makerAddresses",
          "type": "address[]"
        }
      ],
      "name": "getFillableAmounts",
      "outputs": [
        {
          "name": "fillableAmounts",
          "type": "uint256[]"
        }
      ],
      "payable": false,
      "stateMutability": "view",
      "type": "function"
    },
    {
      "constant": true,
      "inputs": [
        {
          "name": "makerAddress",
          "type": "address"
        }
      ],
      "name": "getFillableAmount",
      "outputs": [
        {
          "name": "",
          "type": "uint256"
        }
      ],
      "payable": false,
      "stateMutability": "view",
      "type": "function"
    },
    {
      "constant": true,
      "inputs": [],
      "name": "getLatestMarketContract",
      "outputs": [
        {
          "name": "",
          "type": "address"
        }
      ],
      "payable": false,
      "stateMutability": "view",
      "type": "function"
    },
    {
      "constant": true,
      "inputs": [],
      "name": "getExpiringMarketContract",
      "outputs": [
        {
          "name": "",
          "type": "address"
        }
      ],
      "payable": false,
      "stateMutability": "view",
      "type": "function"
    },
    {
      "constant": true,
      "inputs": [],
      "name": "getLatestMarketCollateralPool",
      "outputs": [
        {
          "name": "",
          "type": "address"
        }
      ],
      "payable": false,
      "stateMutability": "view",
      "type": "function"
    },
    {
      "constant": true,
      "inputs": [
        {
          "name": "amount",
          "type": "uint256"
        }
      ],
      "name": "calculateRequiredCollateral",
      "outputs": [
        {
          "name": "",
          "type": "uint256"
        }
      ],
      "payable": false,
      "stateMutability": "view",
      "type": "function"
    },
    {
      "constant": false,
      "inputs": [],
      "name": "getAllMarketContracts",
      "outputs": [
        {
          "name": "",
          "type": "address[]"
        }
      ],
      "payable": false,
      "stateMutability": "nonpayable",
      "type": "function"
    },
    {
      "constant": false,
      "inputs": [
        {
          "name": "_owner",
          "type": "address"
        }
      ],
      "name": "balanceOf",
      "outputs": [
        {
          "name": "",
          "type": "uint256"
        }
      ],
      "payable": false,
      "stateMutability": "nonpayable",
      "type": "function"
    },
    {
      "constant": false,
      "inputs": [],
      "name": "getTime",
      "outputs": [
        {
          "name": "",
          "type": "uint256"
        }
      ],
      "payable": false,
      "stateMutability": "nonpayable",
      "type": "function"
    },
    {
      "constant": false,
      "inputs": [
        {
          "name": "lookbackIndexValue",
          "type": "uint256"
        },
        {
          "name": "currentIndexValue",
          "type": "uint256"
        },
        {
          "name": "marketAndsTokenNames",
          "type": "bytes32[3]"
        },
        {
          "name": "newMarketExpiration",
          "type": "uint256"
        }
      ],
      "name": "dailySettlement",
      "outputs": [],
      "payable": false,
      "stateMutability": "nonpayable",
      "type": "function"
    },
    {
      "constant": false,
      "inputs": [
        {
          "name": "qtyToMint",
          "type": "uint256"
        },
        {
          "name": "longTokenRecipient",
          "type": "address"
        },
        {
          "name": "shortTokenRecipient",
          "type": "address"
        },
        {
          "name": "bridgeData",
          "type": "bytes"
        }
      ],
      "name": "mintPositionTokens",
      "outputs": [],
      "payable": false,
      "stateMutability": "nonpayable",
      "type": "function"
    },
    {
      "constant": false,
      "inputs": [
        {
          "name": "_honeyLemonOracleAddress",
          "type": "address"
        }
      ],
      "name": "setOracleAddress",
      "outputs": [],
      "payable": false,
      "stateMutability": "nonpayable",
      "type": "function"
    },
    {
      "constant": false,
      "inputs": [
        {
          "name": "_minterBridgeAddress",
          "type": "address"
        }
      ],
      "name": "setMinterBridgeAddress",
      "outputs": [],
      "payable": false,
      "stateMutability": "nonpayable",
      "type": "function"
    },
    {
      "constant": false,
      "inputs": [
        {
          "name": "_params",
          "type": "uint256[7]"
        }
      ],
      "name": "setMarketContractSpecs",
      "outputs": [],
      "payable": false,
      "stateMutability": "nonpayable",
      "type": "function"
    },
    {
      "constant": false,
      "inputs": [
        {
          "name": "mri",
          "type": "uint256"
        },
        {
          "name": "marketContractAddress",
          "type": "address"
        }
      ],
      "name": "settleMarketContract",
      "outputs": [],
      "payable": false,
      "stateMutability": "nonpayable",
      "type": "function"
    },
    {
      "constant": false,
      "inputs": [
        {
          "name": "currentMRI",
          "type": "uint256"
        },
        {
          "name": "marketAndsTokenNames",
          "type": "bytes32[3]"
        },
        {
          "name": "expiration",
          "type": "uint256"
        }
      ],
      "name": "deployContract",
      "outputs": [
        {
          "name": "",
          "type": "address"
        }
      ],
      "payable": false,
      "stateMutability": "nonpayable",
      "type": "function"
    },
    {
      "constant": false,
      "inputs": [
        {
          "name": "currentMRI",
          "type": "uint256"
        },
        {
          "name": "expiration",
          "type": "uint256"
        }
      ],
      "name": "generateContractSpecs",
      "outputs": [
        {
          "name": "",
          "type": "uint256[7]"
        }
      ],
      "payable": false,
      "stateMutability": "nonpayable",
      "type": "function"
    }
  ],
  "bytecode": "0x60806040526040805190810160405280600481526020017f6e756c6c00000000000000000000000000000000000000000000000000000000815250600590805190602001906200005192919062000346565b506040805190810160405280600481526020017f6e756c6c00000000000000000000000000000000000000000000000000000000815250600690805190602001906200009f92919062000346565b50601c600755600a6007540260085563080befc060095560e060405190810160405280600060ff168152602001600060ff168152602001600860ff168152602001600160ff168152602001600060ff168152602001600060ff168152602001600060ff16815250600a90600762000118929190620003cd565b5060006013553480156200012b57600080fd5b50604051608080620031e2833981018060405260808110156200014d57600080fd5b8101908080519060200190929190805190602001909291908051906020019092919080519060200190929190505050336000806101000a81548173ffffffffffffffffffffffffffffffffffffffff021916908373ffffffffffffffffffffffffffffffffffffffff1602179055506000809054906101000a900473ffffffffffffffffffffffffffffffffffffffff1673ffffffffffffffffffffffffffffffffffffffff16600073ffffffffffffffffffffffffffffffffffffffff167f8be0079c531659141344cd1fd0a4f28419497f9722a3daafe3b4186f6b6457e060405160405180910390a383600160006101000a81548173ffffffffffffffffffffffffffffffffffffffff021916908373ffffffffffffffffffffffffffffffffffffffff16021790555082600260006101000a81548173ffffffffffffffffffffffffffffffffffffffff021916908373ffffffffffffffffffffffffffffffffffffffff16021790555081600360006101000a81548173ffffffffffffffffffffffffffffffffffffffff021916908373ffffffffffffffffffffffffffffffffffffffff16021790555080600460006101000a81548173ffffffffffffffffffffffffffffffffffffffff021916908373ffffffffffffffffffffffffffffffffffffffff160217905550505050506200043f565b828054600181600116156101000203166002900490600052602060002090601f016020900481019282601f106200038957805160ff1916838001178555620003ba565b82800160010185558215620003ba579182015b82811115620003b95782518255916020019190600101906200039c565b5b509050620003c9919062000417565b5090565b826007810192821562000404579160200282015b8281111562000403578251829060ff16905591602001919060010190620003e1565b5b50905062000413919062000417565b5090565b6200043c91905b80821115620004385760008160009055506001016200041e565b5090565b90565b612d93806200044f6000396000f3fe608060405234801561001057600080fd5b5060043610610202576000357c010000000000000000000000000000000000000000000000000000000090048063715018a61161012c5780639a7f60c8116100bf578063e6d70f901161008e578063e6d70f9014610b48578063ec443c3a14610b66578063f2fde38b14610bb0578063fabf96c714610bf457610202565b80639a7f60c814610942578063b12a3cf314610984578063ce79d803146109dc578063d725860814610a3b57610202565b80638da5cb5b116100fb5780638da5cb5b146107d35780638f32d59b1461081d578063936782791461083f578063942022761461088957610202565b8063715018a61461068e57806379f6d4a9146106985780637a1de44e1461071b57806381c63c581461078957610202565b80634ac77f22116101a45780635abe304d116101735780635abe304d1461053f5780635b5161d514610583578063619fadb4146105e857806370a082311461063657610202565b80634ac77f22146103e65780634c69c00f14610469578063557ed1ba146104ad578063571cf0dd146104cb57610202565b806317ac56b6116101e057806317ac56b6146102b9578063323bb775146102d757806334931b4b146103215780633d168eda1461036357610202565b80630f604d3b1461020757806312fb183e146102515780631523f83f1461026f575b600080fd5b61020f610cf9565b604051808273ffffffffffffffffffffffffffffffffffffffff1673ffffffffffffffffffffffffffffffffffffffff16815260200191505060405180910390f35b610259610da9565b6040518082815260200191505060405180910390f35b610277610daf565b604051808273ffffffffffffffffffffffffffffffffffffffff1673ffffffffffffffffffffffffffffffffffffffff16815260200191505060405180910390f35b6102c1610dd5565b6040518082815260200191505060405180910390f35b6102df610ddb565b604051808273ffffffffffffffffffffffffffffffffffffffff1673ffffffffffffffffffffffffffffffffffffffff16815260200191505060405180910390f35b61034d6004803603602081101561033757600080fd5b8101908080359060200190929190505050610e01565b6040518082815260200191505060405180910390f35b61036b610ebc565b6040518080602001828103825283818151815260200191508051906020019080838360005b838110156103ab578082015181840152602081019050610390565b50505050905090810190601f1680156103d85780820380516001836020036101000a031916815260200191505b509250505060405180910390f35b6103ee610f5a565b6040518080602001828103825283818151815260200191508051906020019080838360005b8381101561042e578082015181840152602081019050610413565b50505050905090810190601f16801561045b5780820380516001836020036101000a031916815260200191505b509250505060405180910390f35b6104ab6004803603602081101561047f57600080fd5b81019080803573ffffffffffffffffffffffffffffffffffffffff169060200190929190505050610ff8565b005b6104b561104f565b6040518082815260200191505060405180910390f35b610501600480360360408110156104e157600080fd5b810190808035906020019092919080359060200190929190505050611057565b6040518082600760200280838360005b8381101561052c578082015181840152602081019050610511565b5050505090500191505060405180910390f35b6105816004803603602081101561055557600080fd5b81019080803573ffffffffffffffffffffffffffffffffffffffff1690602001909291905050506110fa565b005b6105e6600480360360e081101561059957600080fd5b810190808060e001906007806020026040519081016040528092919082600760200280828437600081840152601f19601f8201169050808301925050505050509192919290505050611151565b005b610634600480360360408110156105fe57600080fd5b8101908080359060200190929190803573ffffffffffffffffffffffffffffffffffffffff169060200190929190505050611179565b005b6106786004803603602081101561064c57600080fd5b81019080803573ffffffffffffffffffffffffffffffffffffffff16906020019092919050505061136e565b6040518082815260200191505060405180910390f35b6106966114f9565b005b610719600480360360c08110156106ae57600080fd5b81019080803590602001909291908035906020019092919080606001906003806020026040519081016040528092919082600360200280828437600081840152601f19601f8201169050808301925050505050509192919290803590602001909291905050506115cb565b005b6107476004803603602081101561073157600080fd5b8101908080359060200190929190505050611770565b604051808273ffffffffffffffffffffffffffffffffffffffff1673ffffffffffffffffffffffffffffffffffffffff16815260200191505060405180910390f35b6107916117ae565b604051808273ffffffffffffffffffffffffffffffffffffffff1673ffffffffffffffffffffffffffffffffffffffff16815260200191505060405180910390f35b6107db611819565b604051808273ffffffffffffffffffffffffffffffffffffffff1673ffffffffffffffffffffffffffffffffffffffff16815260200191505060405180910390f35b610825611842565b604051808215151515815260200191505060405180910390f35b610847611899565b604051808273ffffffffffffffffffffffffffffffffffffffff1673ffffffffffffffffffffffffffffffffffffffff16815260200191505060405180910390f35b610900600480360360a081101561089f57600080fd5b810190808035906020019092919080606001906003806020026040519081016040528092919082600360200280828437600081840152601f19601f8201169050808301925050505050509192919290803590602001909291905050506118e7565b604051808273ffffffffffffffffffffffffffffffffffffffff1673ffffffffffffffffffffffffffffffffffffffff16815260200191505060405180910390f35b61096e6004803603602081101561095857600080fd5b8101908080359060200190929190505050611c55565b6040518082815260200191505060405180910390f35b6109c66004803603602081101561099a57600080fd5b81019080803573ffffffffffffffffffffffffffffffffffffffff169060200190929190505050611c6f565b6040518082815260200191505060405180910390f35b6109e4611f70565b6040518080602001828103825283818151815260200191508051906020019060200280838360005b83811015610a27578082015181840152602081019050610a0c565b505050509050019250505060405180910390f35b610af160048036036020811015610a5157600080fd5b8101908080359060200190640100000000811115610a6e57600080fd5b820183602082011115610a8057600080fd5b80359060200191846020830284011164010000000083111715610aa257600080fd5b919080806020026020016040519081016040528093929190818152602001838360200280828437600081840152601f19601f820116905080830192505050505050509192919290505050611ffe565b6040518080602001828103825283818151815260200191508051906020019060200280838360005b83811015610b34578082015181840152602081019050610b19565b505050509050019250505060405180910390f35b610b5061209a565b6040518082815260200191505060405180910390f35b610b6e6120a0565b604051808273ffffffffffffffffffffffffffffffffffffffff1673ffffffffffffffffffffffffffffffffffffffff16815260200191505060405180910390f35b610bf260048036036020811015610bc657600080fd5b81019080803573ffffffffffffffffffffffffffffffffffffffff1690602001909291905050506120c6565b005b610cf760048036036080811015610c0a57600080fd5b8101908080359060200190929190803573ffffffffffffffffffffffffffffffffffffffff169060200190929190803573ffffffffffffffffffffffffffffffffffffffff16906020019092919080359060200190640100000000811115610c7157600080fd5b820183602082011115610c8357600080fd5b80359060200191846001830284011164010000000083111715610ca557600080fd5b91908080601f016020809104026020016040519081016040528093929190818152602001838380828437600081840152601f19601f8201169050808301925050505050505091929192905050506120e5565b005b600080610d04611899565b90508073ffffffffffffffffffffffffffffffffffffffff1663eaafb4fa6040518163ffffffff167c010000000000000000000000000000000000000000000000000000000002815260040160206040518083038186803b158015610d6857600080fd5b505afa158015610d7c573d6000803e3d6000fd5b505050506040513d6020811015610d9257600080fd5b810190808051906020019092919050505091505090565b60075481565b600360009054906101000a900473ffffffffffffffffffffffffffffffffffffffff1681565b60085481565b600460009054906101000a900473ffffffffffffffffffffffffffffffffffffffff1681565b600080610e0c611899565b9050610eb4838273ffffffffffffffffffffffffffffffffffffffff1663e158e02d6040518163ffffffff167c010000000000000000000000000000000000000000000000000000000002815260040160206040518083038186803b158015610e7457600080fd5b505afa158015610e88573d6000803e3d6000fd5b505050506040513d6020811015610e9e57600080fd5b8101908080519060200190929190505050612afa565b915050919050565b60058054600181600116156101000203166002900480601f016020809104026020016040519081016040528092919081815260200182805460018160011615610100020316600290048015610f525780601f10610f2757610100808354040283529160200191610f52565b820191906000526020600020905b815481529060010190602001808311610f3557829003601f168201915b505050505081565b60068054600181600116156101000203166002900480601f016020809104026020016040519081016040528092919081815260200182805460018160011615610100020316600290048015610ff05780601f10610fc557610100808354040283529160200191610ff0565b820191906000526020600020905b815481529060010190602001808311610fd357829003601f168201915b505050505081565b611000611842565b151561100b57600080fd5b80600260006101000a81548173ffffffffffffffffffffffffffffffffffffffff021916908373ffffffffffffffffffffffffffffffffffffffff16021790555050565b600042905090565b61105f612cbb565b611067612cbb565b600a6007806020026040519081016040528092919082600780156110a0576020028201915b81548152602001906001019080831161108c575b505050505090506305f5e1006009548560075402028115156110be57fe5b048160016007811015156110ce57fe5b602002018181525050828160066007811015156110e757fe5b6020020181815250508091505092915050565b611102611842565b151561110d57600080fd5b80600360006101000a81548173ffffffffffffffffffffffffffffffffffffffff021916908373ffffffffffffffffffffffffffffffffffffffff16021790555050565b611159611842565b151561116457600080fd5b80600a906007611175929190612cde565b5050565b600260009054906101000a900473ffffffffffffffffffffffffffffffffffffffff1673ffffffffffffffffffffffffffffffffffffffff163373ffffffffffffffffffffffffffffffffffffffff1614151561123e576040517f08c379a00000000000000000000000000000000000000000000000000000000081526004018080602001828103825260178152602001807f4f6e6c7920486f6e6579204c656d6f6e204f7261636c6500000000000000000081525060200191505060405180910390fd5b6000821415151561129a576040517f08c379a0000000000000000000000000000000000000000000000000000000008152600401808060200182810382526024815260200180612d446024913960400191505060405180910390fd5b600073ffffffffffffffffffffffffffffffffffffffff168173ffffffffffffffffffffffffffffffffffffffff16141515156112d657600080fd5b60008190508073ffffffffffffffffffffffffffffffffffffffff16636fbce940846040518263ffffffff167c010000000000000000000000000000000000000000000000000000000002815260040180828152602001915050600060405180830381600087803b15801561134a57600080fd5b505af115801561135e573d6000803e3d6000fd5b5050505082601381905550505050565b600080611379611899565b905060008173ffffffffffffffffffffffffffffffffffffffff166322d1c35e6040518163ffffffff167c010000000000000000000000000000000000000000000000000000000002815260040160206040518083038186803b1580156113df57600080fd5b505afa1580156113f3573d6000803e3d6000fd5b505050506040513d602081101561140957600080fd5b810190808051906020019092919050505090508073ffffffffffffffffffffffffffffffffffffffff166370a08231856040518263ffffffff167c0100000000000000000000000000000000000000000000000000000000028152600401808273ffffffffffffffffffffffffffffffffffffffff1673ffffffffffffffffffffffffffffffffffffffff16815260200191505060206040518083038186803b1580156114b557600080fd5b505afa1580156114c9573d6000803e3d6000fd5b505050506040513d60208110156114df57600080fd5b810190808051906020019092919050505092505050919050565b611501611842565b151561150c57600080fd5b600073ffffffffffffffffffffffffffffffffffffffff166000809054906101000a900473ffffffffffffffffffffffffffffffffffffffff1673ffffffffffffffffffffffffffffffffffffffff167f8be0079c531659141344cd1fd0a4f28419497f9722a3daafe3b4186f6b6457e060405160405180910390a360008060006101000a81548173ffffffffffffffffffffffffffffffffffffffff021916908373ffffffffffffffffffffffffffffffffffffffff160217905550565b600260009054906101000a900473ffffffffffffffffffffffffffffffffffffffff1673ffffffffffffffffffffffffffffffffffffffff163373ffffffffffffffffffffffffffffffffffffffff16141515611690576040517f08c379a00000000000000000000000000000000000000000000000000000000081526004018080602001828103825260178152602001807f4f6e6c7920486f6e6579204c656d6f6e204f7261636c6500000000000000000081525060200191505060405180910390fd5b60008314151515611709576040517f08c379a000000000000000000000000000000000000000000000000000000000815260040180806020018281038252601e8152602001807f43757272656e74204d52492076616c75652063616e74206265207a65726f000081525060200191505060405180910390fd5b60006117136117ae565b9050600073ffffffffffffffffffffffffffffffffffffffff168173ffffffffffffffffffffffffffffffffffffffff16141515611756576117558582611179565b5b6117618484846118e7565b50836013819055505050505050565b60118181548110151561177f57fe5b906000526020600020016000915054906101000a900473ffffffffffffffffffffffffffffffffffffffff1681565b6000806011805490509050600754811115156117ce576000915050611816565b6000600754820390506011818154811015156117e657fe5b9060005260206000200160009054906101000a900473ffffffffffffffffffffffffffffffffffffffff16925050505b90565b60008060009054906101000a900473ffffffffffffffffffffffffffffffffffffffff16905090565b60008060009054906101000a900473ffffffffffffffffffffffffffffffffffffffff1673ffffffffffffffffffffffffffffffffffffffff163373ffffffffffffffffffffffffffffffffffffffff1614905090565b60008060016011805490500390506011818154811015156118b657fe5b9060005260206000200160009054906101000a900473ffffffffffffffffffffffffffffffffffffffff1691505090565b60006118f1611842565b15156118fc57600080fd5b6000600160009054906101000a900473ffffffffffffffffffffffffffffffffffffffff1673ffffffffffffffffffffffffffffffffffffffff16637077b04785600460009054906101000a900473ffffffffffffffffffffffffffffffffffffffff1661196a8988611057565b600560066040518663ffffffff167c01000000000000000000000000000000000000000000000000000000000281526004018086600360200280838360005b838110156119c45780820151818401526020810190506119a9565b505050509050018573ffffffffffffffffffffffffffffffffffffffff1673ffffffffffffffffffffffffffffffffffffffff16815260200184600760200280838360005b83811015611a24578082015181840152602081019050611a09565b505050509050018060200180602001838103835285818154600181600116156101000203166002900481526020019150805460018160011615610100020316600290048015611ab45780601f10611a8957610100808354040283529160200191611ab4565b820191906000526020600020905b815481529060010190602001808311611a9757829003601f168201915b5050838103825284818154600181600116156101000203166002900481526020019150805460018160011615610100020316600290048015611b375780601f10611b0c57610100808354040283529160200191611b37565b820191906000526020600020905b815481529060010190602001808311611b1a57829003601f168201915b5050975050505050505050602060405180830381600087803b158015611b5c57600080fd5b505af1158015611b70573d6000803e3d6000fd5b505050506040513d6020811015611b8657600080fd5b810190808051906020019092919050505090506000600160118390806001815401808255809150509060018203906000526020600020016000909192909190916101000a81548173ffffffffffffffffffffffffffffffffffffffff021916908373ffffffffffffffffffffffffffffffffffffffff16021790555003905080601260008473ffffffffffffffffffffffffffffffffffffffff1673ffffffffffffffffffffffffffffffffffffffff1681526020019081526020016000208190555081925050509392505050565b600a81600781101515611c6457fe5b016000915090505481565b600080600460009054906101000a900473ffffffffffffffffffffffffffffffffffffffff16905060008173ffffffffffffffffffffffffffffffffffffffff166370a08231856040518263ffffffff167c0100000000000000000000000000000000000000000000000000000000028152600401808273ffffffffffffffffffffffffffffffffffffffff1673ffffffffffffffffffffffffffffffffffffffff16815260200191505060206040518083038186803b158015611d3257600080fd5b505afa158015611d46573d6000803e3d6000fd5b505050506040513d6020811015611d5c57600080fd5b8101908080519060200190929190505050905060008273ffffffffffffffffffffffffffffffffffffffff1663dd62ed3e86600360009054906101000a900473ffffffffffffffffffffffffffffffffffffffff166040518363ffffffff167c0100000000000000000000000000000000000000000000000000000000028152600401808373ffffffffffffffffffffffffffffffffffffffff1673ffffffffffffffffffffffffffffffffffffffff1681526020018273ffffffffffffffffffffffffffffffffffffffff1673ffffffffffffffffffffffffffffffffffffffff1681526020019250505060206040518083038186803b158015611e6057600080fd5b505afa158015611e74573d6000803e3d6000fd5b505050506040513d6020811015611e8a57600080fd5b810190808051906020019092919050505090506000818310611eac5781611eae565b825b90506000611eba611899565b9050611f646001838373ffffffffffffffffffffffffffffffffffffffff1663e158e02d6040518163ffffffff167c010000000000000000000000000000000000000000000000000000000002815260040160206040518083038186803b158015611f2457600080fd5b505afa158015611f38573d6000803e3d6000fd5b505050506040513d6020811015611f4e57600080fd5b8101908080519060200190929190505050612ba1565b95505050505050919050565b60606011805480602002602001604051908101604052809291908181526020018280548015611ff457602002820191906000526020600020905b8160009054906101000a900473ffffffffffffffffffffffffffffffffffffffff1673ffffffffffffffffffffffffffffffffffffffff1681526020019060010190808311611faa575b5050505050905090565b6060600082519050806040519080825280602002602001820160405280156120355781602001602082028038833980820191505090505b50915060008090505b818114151561209057612067848281518110151561205857fe5b90602001906020020151611c6f565b838281518110151561207557fe5b9060200190602002018181525050808060010191505061203e565b5081915050919050565b60095481565b600260009054906101000a900473ffffffffffffffffffffffffffffffffffffffff1681565b6120ce611842565b15156120d957600080fd5b6120e281612bc1565b50565b600360009054906101000a900473ffffffffffffffffffffffffffffffffffffffff1673ffffffffffffffffffffffffffffffffffffffff163373ffffffffffffffffffffffffffffffffffffffff161415156121aa576040517f08c379a00000000000000000000000000000000000000000000000000000000081526004018080602001828103825260128152602001807f4f6e6c79204d696e74657220427269646765000000000000000000000000000081525060200191505060405180910390fd5b60006121b585610e01565b905060006121c1611899565b905060006121cd610cf9565b905060008273ffffffffffffffffffffffffffffffffffffffff166322d1c35e6040518163ffffffff167c010000000000000000000000000000000000000000000000000000000002815260040160206040518083038186803b15801561223357600080fd5b505afa158015612247573d6000803e3d6000fd5b505050506040513d602081101561225d57600080fd5b8101908080519060200190929190505050905060008373ffffffffffffffffffffffffffffffffffffffff16635b3f1e3f6040518163ffffffff167c010000000000000000000000000000000000000000000000000000000002815260040160206040518083038186803b1580156122d457600080fd5b505afa1580156122e8573d6000803e3d6000fd5b505050506040513d60208110156122fe57600080fd5b810190808051906020019092919050505090506000600460009054906101000a900473ffffffffffffffffffffffffffffffffffffffff1690508073ffffffffffffffffffffffffffffffffffffffff166323b872dd600360009054906101000a900473ffffffffffffffffffffffffffffffffffffffff1630896040518463ffffffff167c0100000000000000000000000000000000000000000000000000000000028152600401808473ffffffffffffffffffffffffffffffffffffffff1673ffffffffffffffffffffffffffffffffffffffff1681526020018373ffffffffffffffffffffffffffffffffffffffff1673ffffffffffffffffffffffffffffffffffffffff1681526020018281526020019350505050602060405180830381600087803b15801561243157600080fd5b505af1158015612445573d6000803e3d6000fd5b505050506040513d602081101561245b57600080fd5b8101908080519060200190929190505050508073ffffffffffffffffffffffffffffffffffffffff1663095ea7b385886040518363ffffffff167c0100000000000000000000000000000000000000000000000000000000028152600401808373ffffffffffffffffffffffffffffffffffffffff1673ffffffffffffffffffffffffffffffffffffffff16815260200182815260200192505050602060405180830381600087803b15801561251057600080fd5b505af1158015612524573d6000803e3d6000fd5b505050506040513d602081101561253a57600080fd5b8101908080519060200190929190505050508373ffffffffffffffffffffffffffffffffffffffff1663125bb6a9868c60006040518463ffffffff167c0100000000000000000000000000000000000000000000000000000000028152600401808473ffffffffffffffffffffffffffffffffffffffff1673ffffffffffffffffffffffffffffffffffffffff168152602001838152602001821515151581526020019350505050600060405180830381600087803b1580156125fc57600080fd5b505af1158015612610573d6000803e3d6000fd5b505050508273ffffffffffffffffffffffffffffffffffffffff1663a9059cbb8a8c6040518363ffffffff167c0100000000000000000000000000000000000000000000000000000000028152600401808373ffffffffffffffffffffffffffffffffffffffff1673ffffffffffffffffffffffffffffffffffffffff16815260200182815260200192505050602060405180830381600087803b1580156126b757600080fd5b505af11580156126cb573d6000803e3d6000fd5b505050506040513d60208110156126e157600080fd5b8101908080519060200190929190505050508173ffffffffffffffffffffffffffffffffffffffff1663a9059cbb898c6040518363ffffffff167c0100000000000000000000000000000000000000000000000000000000028152600401808373ffffffffffffffffffffffffffffffffffffffff1673ffffffffffffffffffffffffffffffffffffffff16815260200182815260200192505050602060405180830381600087803b15801561279657600080fd5b505af11580156127aa573d6000803e3d6000fd5b505050506040513d60208110156127c057600080fd5b8101908080519060200190929190505050508773ffffffffffffffffffffffffffffffffffffffff168973ffffffffffffffffffffffffffffffffffffffff16601260008873ffffffffffffffffffffffffffffffffffffffff1673ffffffffffffffffffffffffffffffffffffffff168152602001908152602001600020547fcf301bc916c20e32519afeea29fbab50b4377a235467eea4a62b971589d8ed158873ffffffffffffffffffffffffffffffffffffffff1663614d08f86040518163ffffffff167c010000000000000000000000000000000000000000000000000000000002815260040160006040518083038186803b1580156128c357600080fd5b505afa1580156128d7573d6000803e3d6000fd5b505050506040513d6000823e3d601f19601f82011682018060405250602081101561290157600080fd5b81019080805164010000000081111561291957600080fd5b8281019050602081018481111561292f57600080fd5b815185600182028301116401000000008211171561294c57600080fd5b50509291905050508e8a89898f61296161104f565b60405180806020018881526020018773ffffffffffffffffffffffffffffffffffffffff1673ffffffffffffffffffffffffffffffffffffffff1681526020018673ffffffffffffffffffffffffffffffffffffffff1673ffffffffffffffffffffffffffffffffffffffff1681526020018573ffffffffffffffffffffffffffffffffffffffff1673ffffffffffffffffffffffffffffffffffffffff1681526020018060200184815260200183810383528a818151815260200191508051906020019080838360005b83811015612a47578082015181840152602081019050612a2c565b50505050905090810190601f168015612a745780820380516001836020036101000a031916815260200191505b50838103825285818151815260200191508051906020019080838360005b83811015612aad578082015181840152602081019050612a92565b50505050905090810190601f168015612ada5780820380516001836020036101000a031916815260200191505b50995050505050505050505060405180910390a450505050505050505050565b600080831415612b0d5760009050612b9b565b60008284029050828482811515612b2057fe5b04141515612b96576040517f08c379a00000000000000000000000000000000000000000000000000000000081526004018080602001828103825260208152602001807f4d6174684c69623a206d756c7469706c69636174696f6e206f766572666c6f7781525060200191505060405180910390fd5b809150505b92915050565b600081612bae8585612afa565b811515612bb757fe5b0490509392505050565b600073ffffffffffffffffffffffffffffffffffffffff168173ffffffffffffffffffffffffffffffffffffffff1614151515612bfd57600080fd5b8073ffffffffffffffffffffffffffffffffffffffff166000809054906101000a900473ffffffffffffffffffffffffffffffffffffffff1673ffffffffffffffffffffffffffffffffffffffff167f8be0079c531659141344cd1fd0a4f28419497f9722a3daafe3b4186f6b6457e060405160405180910390a3806000806101000a81548173ffffffffffffffffffffffffffffffffffffffff021916908373ffffffffffffffffffffffffffffffffffffffff16021790555050565b60e060405190810160405280600790602082028038833980820191505090505090565b8260078101928215612d0d579160200282015b82811115612d0c578251825591602001919060010190612cf1565b5b509050612d1a9190612d1e565b5090565b612d4091905b80821115612d3c576000816000905550600101612d24565b5090565b9056fe546865206d7269206c6f6f636b6261636b2076616c75652063616e206e6f742062652030a165627a7a723058205a8f2fc5da23c3d286bbdba3ef206518ffff714277dc55420004c9f43db6f2e10029",
  "source": "pragma solidity 0.5.2;\r\n\r\nimport 'openzeppelin-solidity/contracts/ownership/Ownable.sol';\r\n\r\nimport '../marketprotocol/MarketCollateralPool.sol';\r\nimport '../marketprotocol/mpx/MarketContractFactoryMPX.sol';\r\nimport '../marketprotocol/mpx/MarketContractMPX.sol';\r\n\r\nimport '../libraries/MathLib.sol';\r\n\r\n\r\ncontract MarketContractProxy is Ownable {\r\n    MarketContractFactoryMPX marketContractFactoryMPX;\r\n\r\n    address public HONEY_LEMON_ORACLE_ADDRESS;\r\n    address public MINTER_BRIDGE_ADDRESS;\r\n    address public COLLATERAL_TOKEN_ADDRESS; //imBTC\r\n\r\n    string public ORACLE_URL = 'null';\r\n    string public ORACLE_STATISTIC = 'null';\r\n\r\n    uint public CONTRACT_DURATION_DAYS = 28;\r\n    uint public CONTRACT_DURATION = CONTRACT_DURATION_DAYS * 10; // 28 days in seconds\r\n    uint public CONTRACT_COLLATERAL_RATIO = 135000000; //1.35e8; 1.35, with 8 decimal places\r\n\r\n    uint[7] public marketContractSpecs = [\r\n        0, // floorPrice - the lower bound price for the CFD [constant]\r\n        0, // capPrice - the upper bound price for the CFD [updated before deployment]\r\n        8, // priceDecimalPlaces - number of decimals used to convert prices [constant]\r\n        1, // qtyMultiplier - multiply traded qty by this value from base units of collateral token. [constant]\r\n        0, // feeInBasisPoints - fee for minting tokens [constant]\r\n        0, // mktFeeInBasisPoints - fees charged by the market in MKT [constant]\r\n        0 // expirationTimeStamp [updated before deployment]\r\n    ];\r\n\r\n    // Array of all market contracts deployed\r\n    address[] public marketContracts;\r\n\r\n    // Mapping of each market contract address to the associated array index\r\n    mapping(address => uint256) addressToMarketId;\r\n\r\n    // Stores the most recent MRI value\r\n    uint256 latestMri = 0;\r\n\r\n    constructor(\r\n        address _marketContractFactoryMPX,\r\n        address _honeyLemonOracle,\r\n        address _minterBridge,\r\n        address _imBTCTokenAddress\r\n    ) public {\r\n        marketContractFactoryMPX = MarketContractFactoryMPX(_marketContractFactoryMPX);\r\n        HONEY_LEMON_ORACLE_ADDRESS = _honeyLemonOracle;\r\n        MINTER_BRIDGE_ADDRESS = _minterBridge;\r\n        COLLATERAL_TOKEN_ADDRESS = _imBTCTokenAddress;\r\n    }\r\n\r\n    event PositionTokensMinted(\r\n        uint indexed marketId,\r\n        string contractName,\r\n        address indexed longTokenRecipient,\r\n        address indexed shortTokenRecipient,\r\n        uint256 qtyToMint,\r\n        address latestMarketContract,\r\n        address longTokenAddress,\r\n        address shortTokenAddress,\r\n        bytes bridgeData,\r\n        uint time\r\n    );\r\n    //////////////////////////////////////\r\n    //// PERMISSION SCOPING MODIFIERS ////\r\n    //////////////////////////////////////\r\n\r\n    modifier onlyHoneyLemonOracle() {\r\n        require(msg.sender == HONEY_LEMON_ORACLE_ADDRESS, 'Only Honey Lemon Oracle');\r\n        _;\r\n    }\r\n\r\n    modifier onlyMinterBridge() {\r\n        require(msg.sender == MINTER_BRIDGE_ADDRESS, 'Only Minter Bridge');\r\n        _;\r\n    }\r\n\r\n    //////////////////////////\r\n    //// PUBLIC FUNCTIONS ////\r\n    //////////////////////////\r\n\r\n    function getFillableAmounts(address[] memory makerAddresses)\r\n        public\r\n        view\r\n        returns (uint256[] memory fillableAmounts)\r\n    {\r\n        uint256 length = makerAddresses.length;\r\n        fillableAmounts = new uint256[](length);\r\n\r\n        for (uint256 i = 0; i != length; i++) {\r\n            fillableAmounts[i] = getFillableAmount(makerAddresses[i]);\r\n        }\r\n\r\n        return fillableAmounts;\r\n    }\r\n\r\n    // The TH amount that can currently be filled based on owners BTC balance and allowance\r\n    function getFillableAmount(address makerAddress) public view returns (uint256) {\r\n        ERC20 collateralToken = ERC20(COLLATERAL_TOKEN_ADDRESS);\r\n\r\n        uint minerBalance = collateralToken.balanceOf(makerAddress);\r\n        uint minerAllowance = collateralToken.allowance(\r\n            makerAddress,\r\n            MINTER_BRIDGE_ADDRESS\r\n        );\r\n\r\n        uint uintMinAllowanceBalance = minerBalance < minerAllowance\r\n            ? minerBalance\r\n            : minerAllowance;\r\n\r\n        MarketContract latestMarketContract = getLatestMarketContract();\r\n\r\n        return\r\n            MathLib.divideFractional(\r\n                1,\r\n                uintMinAllowanceBalance,\r\n                latestMarketContract.COLLATERAL_PER_UNIT()\r\n            );\r\n    }\r\n\r\n    function getLatestMarketContract() public view returns (MarketContractMPX) {\r\n        uint lastIndex = marketContracts.length - 1;\r\n        return MarketContractMPX(marketContracts[lastIndex]);\r\n    }\r\n\r\n    function getExpiringMarketContract() public view returns (MarketContractMPX) {\r\n        uint contractsAdded = marketContracts.length;\r\n\r\n        // If the marketContracts array has not had enough markets pushed into it to settle an old one then return 0x0.\r\n        if (contractsAdded <= CONTRACT_DURATION_DAYS) {\r\n            return MarketContractMPX(address(0x0));\r\n        }\r\n        uint expiringIndex = contractsAdded - CONTRACT_DURATION_DAYS;\r\n        return MarketContractMPX(marketContracts[expiringIndex]);\r\n    }\r\n\r\n    function getLatestMarketCollateralPool() public view returns (MarketCollateralPool) {\r\n        MarketContract latestMarketContract = getLatestMarketContract();\r\n        return MarketCollateralPool(latestMarketContract.COLLATERAL_POOL_ADDRESS());\r\n    }\r\n\r\n    function calculateRequiredCollateral(uint amount) public view returns (uint) {\r\n        MarketContract latestMarketContract = getLatestMarketContract();\r\n        return MathLib.multiply(amount, latestMarketContract.COLLATERAL_PER_UNIT());\r\n    }\r\n\r\n    function getAllMarketContracts() public returns (address[] memory) {\r\n        return marketContracts;\r\n    }\r\n\r\n    // Return `balanceOf` for current day PositionTokenLong\r\n    function balanceOf(address _owner) public returns (uint) {\r\n        MarketContract latestMarketContract = getLatestMarketContract();\r\n        ERC20 longToken = ERC20(latestMarketContract.LONG_POSITION_TOKEN());\r\n        return longToken.balanceOf(_owner);\r\n    }\r\n\r\n    function getTime() public returns (uint) {\r\n        return now;\r\n    }\r\n\r\n    /////////////////////////////////////\r\n    //// ORACLE PRIVILEGED FUNCTIONS ////\r\n    /////////////////////////////////////\r\n\r\n    // Settles old contract and deploys the new contract\r\n    function dailySettlement(\r\n        uint lookbackIndexValue,\r\n        uint currentIndexValue,\r\n        bytes32[3] memory marketAndsTokenNames,\r\n        uint newMarketExpiration\r\n    ) public onlyHoneyLemonOracle {\r\n        require(currentIndexValue != 0, 'Current MRI value cant be zero');\r\n\r\n        // 1. Settle the past contract, if there is a price and contract exists.\r\n        MarketContractMPX expiringMarketContract = getExpiringMarketContract();\r\n        if (address(expiringMarketContract) != address(0x0)) {\r\n            settleMarketContract(lookbackIndexValue, address(expiringMarketContract));\r\n            //TODO: emit an event here\r\n        }\r\n\r\n        // 2. Deploy daily contract for the next 28 days.\r\n        deployContract(currentIndexValue, marketAndsTokenNames, newMarketExpiration);\r\n\r\n        // 3. Store the latest MRI value\r\n        latestMri = currentIndexValue;\r\n    }\r\n\r\n    ////////////////////////////////////////////////\r\n    //// 0X-MINTER-BRIDGE PRIVILEGED FUNCTIONS /////\r\n    ////////////////////////////////////////////////\r\n\r\n    function mintPositionTokens(\r\n        uint qtyToMint,\r\n        address longTokenRecipient,\r\n        address shortTokenRecipient,\r\n        bytes memory bridgeData\r\n    ) public onlyMinterBridge {\r\n        uint collateralNeeded = calculateRequiredCollateral(qtyToMint);\r\n\r\n        // Create instance of the latest market contract for today\r\n        MarketContractMPX latestMarketContract = getLatestMarketContract();\r\n        // Create instance of the market collateral pool\r\n        MarketCollateralPool marketCollateralPool = getLatestMarketCollateralPool();\r\n\r\n        // Long token sent to the investor\r\n        ERC20 longToken = ERC20(latestMarketContract.LONG_POSITION_TOKEN());\r\n        // Short token sent to the miner\r\n        ERC20 shortToken = ERC20(latestMarketContract.SHORT_POSITION_TOKEN());\r\n        // Collateral token (imBTC)\r\n        ERC20 collateralToken = ERC20(COLLATERAL_TOKEN_ADDRESS);\r\n\r\n        // Move tokens from the MinterBridge to this proxy address\r\n        collateralToken.transferFrom(\r\n            MINTER_BRIDGE_ADDRESS,\r\n            address(this),\r\n            collateralNeeded\r\n        );\r\n\r\n        // Permission market contract to spent collateral token\r\n        collateralToken.approve(address(marketCollateralPool), collateralNeeded);\r\n\r\n        // Generate long and short tokens to sent to invester and miner\r\n        marketCollateralPool.mintPositionTokens(\r\n            address(latestMarketContract),\r\n            qtyToMint,\r\n            false\r\n        );\r\n\r\n        // Send the tokens\r\n        longToken.transfer(longTokenRecipient, qtyToMint);\r\n        shortToken.transfer(shortTokenRecipient, qtyToMint);\r\n\r\n        emit PositionTokensMinted(\r\n            addressToMarketId[address(latestMarketContract)], // MarketID\r\n            latestMarketContract.CONTRACT_NAME(),\r\n            longTokenRecipient,\r\n            shortTokenRecipient,\r\n            qtyToMint,\r\n            address(latestMarketContract),\r\n            address(longToken),\r\n            address(shortToken),\r\n            bridgeData,\r\n            getTime()\r\n        );\r\n    }\r\n\r\n    ////////////////////////////////////\r\n    //// OWNER (DEPLOYER) FUNCTIONS ////\r\n    ////////////////////////////////////\r\n\r\n    function setOracleAddress(address _honeyLemonOracleAddress) public onlyOwner {\r\n        HONEY_LEMON_ORACLE_ADDRESS = _honeyLemonOracleAddress;\r\n    }\r\n\r\n    function setMinterBridgeAddress(address _minterBridgeAddress) public onlyOwner {\r\n        MINTER_BRIDGE_ADDRESS = _minterBridgeAddress;\r\n    }\r\n\r\n    function setMarketContractSpecs(uint[7] memory _params) public onlyOwner {\r\n        marketContractSpecs = _params;\r\n    }\r\n\r\n    ////////////////////////////\r\n    //// INTERNAL FUNCTIONS ////\r\n    ////////////////////////////\r\n\r\n    // function called daily to settle the current expiring 28 day contract.\r\n    function settleMarketContract(uint mri, address marketContractAddress)\r\n        public\r\n        onlyHoneyLemonOracle\r\n    {\r\n        require(mri != 0, 'The mri loockback value can not be 0');\r\n        require(marketContractAddress != address(0x0));\r\n\r\n        MarketContractMPX marketContract = MarketContractMPX(marketContractAddress);\r\n        marketContract.oracleCallBack(mri);\r\n\r\n        // Store the most recent mri value to use in fillable amount\r\n        latestMri = mri;\r\n    }\r\n\r\n    // Deploys the current day Market contract. `indexValue` is used to initialize collateral\r\n    // requirement in its constructor. Stores the new contract address, block it was deployed in,\r\n    // as well as the value of the index well need easy access to the latest values of contract\r\n    // address and index. collateral requirement = indexValue * 28 * overcollateralization_factor\r\n    // returns the address of the new contract\r\n    function deployContract(\r\n        uint currentMRI,\r\n        bytes32[3] memory marketAndsTokenNames,\r\n        uint expiration\r\n    ) public onlyOwner returns (address) {\r\n        address contractAddress = marketContractFactoryMPX.deployMarketContractMPX(\r\n            marketAndsTokenNames,\r\n            COLLATERAL_TOKEN_ADDRESS,\r\n            generateContractSpecs(currentMRI, expiration),\r\n            ORACLE_URL,\r\n            ORACLE_STATISTIC\r\n        );\r\n\r\n        // Add new market to storage\r\n        uint index = marketContracts.push(contractAddress) - 1;\r\n        addressToMarketId[contractAddress] = index;\r\n        return (contractAddress);\r\n        //TODO: emit event\r\n    }\r\n\r\n    function generateContractSpecs(uint currentMRI, uint expiration)\r\n        public\r\n        returns (uint[7] memory)\r\n    {\r\n        uint[7] memory dailySpecs = marketContractSpecs;\r\n        // capPrice. div by 1e8 for correct scaling\r\n        dailySpecs[1] =\r\n            (CONTRACT_DURATION_DAYS * currentMRI * (CONTRACT_COLLATERAL_RATIO)) /\r\n            1e8;\r\n        // expirationTimeStamp. Fed in directly from oracle to ensure timing is exact, irrespective of block mining times\r\n        dailySpecs[6] = expiration;\r\n        return dailySpecs;\r\n    }\r\n}\r\n",
  "sourcePath": "C:\\Users\\myank\\Code\\projects\\dapp.honeylemon.market\\contracts\\honeylemon\\MarketContractProxy.sol",
  "compiler": {
    "name": "solc",
    "version": "0.5.2+commit.1df8f40c.Emscripten.clang"
  },
  "schemaVersion": "3.1.0",
  "updatedAt": "2020-05-04T22:55:28.492Z",
  "networkType": "ethereum",
  "devdoc": {
    "methods": {
      "isOwner()": {
        "return": "true if `msg.sender` is the owner of the contract."
      },
      "owner()": {
        "return": "the address of the owner."
      },
      "renounceOwnership()": {
        "details": "Allows the current owner to relinquish control of the contract. It will not be possible to call the functions with the `onlyOwner` modifier anymore."
      },
      "transferOwnership(address)": {
        "details": "Allows the current owner to transfer control of the contract to a newOwner.",
        "params": {
          "newOwner": "The address to transfer ownership to."
        }
      }
    }
  },
  "userdoc": {
    "methods": {
      "dailySettlement(uint256,uint256,bytes32[3],uint256)": {
        "notice": "//////////////////////////////////"
      },
      "getFillableAmounts(address[])": {
        "notice": "///////////////////////"
      },
      "mintPositionTokens(uint256,address,address,bytes)": {
        "notice": "/////////////////////////////////////////////"
      },
      "renounceOwnership()": {
        "notice": "Renouncing ownership will leave the contract without an owner, thereby removing any functionality that is only available to the owner."
      },
      "setOracleAddress(address)": {
        "notice": "/////////////////////////////////"
      },
      "settleMarketContract(uint256,address)": {
        "notice": "/////////////////////////"
      }
    }
  }
}