{
  "contractName": "MarketCollateralPool",
  "abi": [
    {
      "constant": true,
      "inputs": [
        {
          "name": "",
          "type": "address"
        }
      ],
      "name": "feesCollectedByTokenAddress",
      "outputs": [
        {
          "name": "",
          "type": "uint256"
        }
      ],
      "payable": false,
      "stateMutability": "view",
      "type": "function"
    },
    {
      "constant": true,
      "inputs": [],
      "name": "mktToken",
      "outputs": [
        {
          "name": "",
          "type": "address"
        }
      ],
      "payable": false,
      "stateMutability": "view",
      "type": "function"
    },
    {
      "constant": false,
      "inputs": [],
      "name": "renounceOwnership",
      "outputs": [],
      "payable": false,
      "stateMutability": "nonpayable",
      "type": "function"
    },
    {
      "constant": true,
      "inputs": [],
      "name": "owner",
      "outputs": [
        {
          "name": "",
          "type": "address"
        }
      ],
      "payable": false,
      "stateMutability": "view",
      "type": "function"
    },
    {
      "constant": true,
      "inputs": [],
      "name": "isOwner",
      "outputs": [
        {
          "name": "",
          "type": "bool"
        }
      ],
      "payable": false,
      "stateMutability": "view",
      "type": "function"
    },
    {
      "constant": true,
      "inputs": [
        {
          "name": "",
          "type": "address"
        }
      ],
      "name": "contractAddressToCollateralPoolBalance",
      "outputs": [
        {
          "name": "",
          "type": "uint256"
        }
      ],
      "payable": false,
      "stateMutability": "view",
      "type": "function"
    },
    {
      "constant": true,
      "inputs": [],
      "name": "marketContractRegistry",
      "outputs": [
        {
          "name": "",
          "type": "address"
        }
      ],
      "payable": false,
      "stateMutability": "view",
      "type": "function"
    },
    {
      "constant": false,
      "inputs": [
        {
          "name": "newOwner",
          "type": "address"
        }
      ],
      "name": "transferOwnership",
      "outputs": [],
      "payable": false,
      "stateMutability": "nonpayable",
      "type": "function"
    },
    {
      "inputs": [
        {
          "name": "marketContractRegistryAddress",
          "type": "address"
        },
        {
          "name": "mktTokenAddress",
          "type": "address"
        }
      ],
      "payable": false,
      "stateMutability": "nonpayable",
      "type": "constructor"
    },
    {
      "anonymous": false,
      "inputs": [
        {
          "indexed": true,
          "name": "marketContract",
          "type": "address"
        },
        {
          "indexed": true,
          "name": "user",
          "type": "address"
        },
        {
          "indexed": true,
          "name": "feeToken",
          "type": "address"
        },
        {
          "indexed": false,
          "name": "qtyMinted",
          "type": "uint256"
        },
        {
          "indexed": false,
          "name": "collateralLocked",
          "type": "uint256"
        },
        {
          "indexed": false,
          "name": "feesPaid",
          "type": "uint256"
        }
      ],
      "name": "TokensMinted",
      "type": "event"
    },
    {
      "anonymous": false,
      "inputs": [
        {
          "indexed": true,
          "name": "marketContract",
          "type": "address"
        },
        {
          "indexed": true,
          "name": "user",
          "type": "address"
        },
        {
          "indexed": false,
          "name": "longQtyRedeemed",
          "type": "uint256"
        },
        {
          "indexed": false,
          "name": "shortQtyRedeemed",
          "type": "uint256"
        },
        {
          "indexed": false,
          "name": "collateralUnlocked",
          "type": "uint256"
        }
      ],
      "name": "TokensRedeemed",
      "type": "event"
    },
    {
      "anonymous": false,
      "inputs": [
        {
          "indexed": true,
          "name": "previousOwner",
          "type": "address"
        },
        {
          "indexed": true,
          "name": "newOwner",
          "type": "address"
        }
      ],
      "name": "OwnershipTransferred",
      "type": "event"
    },
    {
      "constant": false,
      "inputs": [
        {
          "name": "marketContractAddress",
          "type": "address"
        },
        {
          "name": "qtyToMint",
          "type": "uint256"
        },
        {
          "name": "isAttemptToPayInMKT",
          "type": "bool"
        }
      ],
      "name": "mintPositionTokens",
      "outputs": [],
      "payable": false,
      "stateMutability": "nonpayable",
      "type": "function"
    },
    {
      "constant": false,
      "inputs": [
        {
          "name": "marketContractAddress",
          "type": "address"
        },
        {
          "name": "qtyToRedeem",
          "type": "uint256"
        }
      ],
      "name": "redeemPositionTokens",
      "outputs": [],
      "payable": false,
      "stateMutability": "nonpayable",
      "type": "function"
    },
    {
      "constant": false,
      "inputs": [
        {
          "name": "marketContractAddress",
          "type": "address"
        },
        {
          "name": "longQtyToRedeem",
          "type": "uint256"
        },
        {
          "name": "shortQtyToRedeem",
          "type": "uint256"
        }
      ],
      "name": "settleAndClose",
      "outputs": [],
      "payable": false,
      "stateMutability": "nonpayable",
      "type": "function"
    },
    {
      "constant": false,
      "inputs": [
        {
          "name": "feeTokenAddress",
          "type": "address"
        },
        {
          "name": "feeRecipient",
          "type": "address"
        }
      ],
      "name": "withdrawFees",
      "outputs": [],
      "payable": false,
      "stateMutability": "nonpayable",
      "type": "function"
    },
    {
      "constant": false,
      "inputs": [
        {
          "name": "mktTokenAddress",
          "type": "address"
        }
      ],
      "name": "setMKTTokenAddress",
      "outputs": [],
      "payable": false,
      "stateMutability": "nonpayable",
      "type": "function"
    },
    {
      "constant": false,
      "inputs": [
        {
          "name": "marketContractRegistryAddress",
          "type": "address"
        }
      ],
      "name": "setMarketContractRegistryAddress",
      "outputs": [],
      "payable": false,
      "stateMutability": "nonpayable",
      "type": "function"
    }
  ],
  "bytecode": "0x608060405234801561001057600080fd5b50604051604080612c388339810180604052604081101561003057600080fd5b810190808051906020019092919080519060200190929190505050336000806101000a81548173ffffffffffffffffffffffffffffffffffffffff021916908373ffffffffffffffffffffffffffffffffffffffff1602179055506000809054906101000a900473ffffffffffffffffffffffffffffffffffffffff1673ffffffffffffffffffffffffffffffffffffffff16600073ffffffffffffffffffffffffffffffffffffffff167f8be0079c531659141344cd1fd0a4f28419497f9722a3daafe3b4186f6b6457e060405160405180910390a381600160006101000a81548173ffffffffffffffffffffffffffffffffffffffff021916908373ffffffffffffffffffffffffffffffffffffffff16021790555080600260006101000a81548173ffffffffffffffffffffffffffffffffffffffff021916908373ffffffffffffffffffffffffffffffffffffffff1602179055505050612a9e8061019a6000396000f3fe608060405234801561001057600080fd5b5060043610610107576000357c0100000000000000000000000000000000000000000000000000000000900480638f32d59b116100a9578063ceaaa91511610083578063ceaaa915146103c0578063e5ac125f1461040a578063f25552781461044e578063f2fde38b146104b257610107565b80638f32d59b146102f8578063c1b214111461031a578063ca7b1b4d1461036857610107565b806354de298e116100e557806354de298e146102165780636b4a8ae01461025a578063715018a6146102a45780638da5cb5b146102ae57610107565b806310198cb71461010c578063125bb6a9146101645780631f2af365146101be575b600080fd5b6101626004803603606081101561012257600080fd5b81019080803573ffffffffffffffffffffffffffffffffffffffff16906020019092919080359060200190929190803590602001909291905050506104f6565b005b6101bc6004803603606081101561017a57600080fd5b81019080803573ffffffffffffffffffffffffffffffffffffffff16906020019092919080359060200190929190803515159060200190929190505050610d3f565b005b610200600480360360208110156101d457600080fd5b81019080803573ffffffffffffffffffffffffffffffffffffffff169060200190929190505050611856565b6040518082815260200191505060405180910390f35b6102586004803603602081101561022c57600080fd5b81019080803573ffffffffffffffffffffffffffffffffffffffff16906020019092919050505061186e565b005b61026261194d565b604051808273ffffffffffffffffffffffffffffffffffffffff1673ffffffffffffffffffffffffffffffffffffffff16815260200191505060405180910390f35b6102ac611973565b005b6102b6611a45565b604051808273ffffffffffffffffffffffffffffffffffffffff1673ffffffffffffffffffffffffffffffffffffffff16815260200191505060405180910390f35b610300611a6e565b604051808215151515815260200191505060405180910390f35b6103666004803603604081101561033057600080fd5b81019080803573ffffffffffffffffffffffffffffffffffffffff16906020019092919080359060200190929190505050611ac5565b005b6103aa6004803603602081101561037e57600080fd5b81019080803573ffffffffffffffffffffffffffffffffffffffff16906020019092919050505061202d565b6040518082815260200191505060405180910390f35b6103c8612045565b604051808273ffffffffffffffffffffffffffffffffffffffff1673ffffffffffffffffffffffffffffffffffffffff16815260200191505060405180910390f35b61044c6004803603602081101561042057600080fd5b81019080803573ffffffffffffffffffffffffffffffffffffffff16906020019092919050505061206b565b005b6104b06004803603604081101561046457600080fd5b81019080803573ffffffffffffffffffffffffffffffffffffffff169060200190929190803573ffffffffffffffffffffffffffffffffffffffff16906020019092919050505061214a565b005b6104f4600480360360208110156104c857600080fd5b81019080803573ffffffffffffffffffffffffffffffffffffffff169060200190929190505050612334565b005b82600160009054906101000a900473ffffffffffffffffffffffffffffffffffffffff1673ffffffffffffffffffffffffffffffffffffffff1663ad23de63826040518263ffffffff167c0100000000000000000000000000000000000000000000000000000000028152600401808273ffffffffffffffffffffffffffffffffffffffff1673ffffffffffffffffffffffffffffffffffffffff16815260200191505060206040518083038186803b1580156105b257600080fd5b505afa1580156105c6573d6000803e3d6000fd5b505050506040513d60208110156105dc57600080fd5b81019080805190602001909291905050501515610661576040517f08c379a000000000000000000000000000000000000000000000000000000000815260040180806020018281038252601b8152602001807f436f6e7472616374206973206e6f742077686974656c6973746564000000000081525060200191505060405180910390fd5b60008490508073ffffffffffffffffffffffffffffffffffffffff1663bd220dae6040518163ffffffff167c010000000000000000000000000000000000000000000000000000000002815260040160206040518083038186803b1580156106c857600080fd5b505afa1580156106dc573d6000803e3d6000fd5b505050506040513d60208110156106f257600080fd5b8101908080519060200190929190505050151561075a576040517f08c379a0000000000000000000000000000000000000000000000000000000008152600401808060200182810382526025815260200180612a1b6025913960400191505060405180910390fd5b600084111561081f578073ffffffffffffffffffffffffffffffffffffffff1663c25c444485336040518363ffffffff167c0100000000000000000000000000000000000000000000000000000000028152600401808381526020018273ffffffffffffffffffffffffffffffffffffffff1673ffffffffffffffffffffffffffffffffffffffff16815260200192505050600060405180830381600087803b15801561080657600080fd5b505af115801561081a573d6000803e3d6000fd5b505050505b60008311156108e4578073ffffffffffffffffffffffffffffffffffffffff16636d35946784336040518363ffffffff167c0100000000000000000000000000000000000000000000000000000000028152600401808381526020018273ffffffffffffffffffffffffffffffffffffffff1673ffffffffffffffffffffffffffffffffffffffff16815260200192505050600060405180830381600087803b1580156108cb57600080fd5b505af11580156108df573d6000803e3d6000fd5b505050505b6000610b648273ffffffffffffffffffffffffffffffffffffffff1663c32b1dfa6040518163ffffffff167c010000000000000000000000000000000000000000000000000000000002815260040160206040518083038186803b15801561094b57600080fd5b505afa15801561095f573d6000803e3d6000fd5b505050506040513d602081101561097557600080fd5b81019080805190602001909291905050508373ffffffffffffffffffffffffffffffffffffffff1663b5471dee6040518163ffffffff167c010000000000000000000000000000000000000000000000000000000002815260040160206040518083038186803b1580156109e857600080fd5b505afa1580156109fc573d6000803e3d6000fd5b505050506040513d6020811015610a1257600080fd5b81019080805190602001909291905050508473ffffffffffffffffffffffffffffffffffffffff1663ca361d676040518163ffffffff167c010000000000000000000000000000000000000000000000000000000002815260040160206040518083038186803b158015610a8557600080fd5b505afa158015610a99573d6000803e3d6000fd5b505050506040513d6020811015610aaf57600080fd5b810190808051906020019092919050505088888773ffffffffffffffffffffffffffffffffffffffff1663f348e8b26040518163ffffffff167c010000000000000000000000000000000000000000000000000000000002815260040160206040518083038186803b158015610b2457600080fd5b505afa158015610b38573d6000803e3d6000fd5b505050506040513d6020811015610b4e57600080fd5b8101908080519060200190929190505050612353565b9050610bb881600360008973ffffffffffffffffffffffffffffffffffffffff1673ffffffffffffffffffffffffffffffffffffffff168152602001908152602001600020546123ef90919063ffffffff16565b600360008873ffffffffffffffffffffffffffffffffffffffff1673ffffffffffffffffffffffffffffffffffffffff16815260200190815260200160002081905550610cc233828473ffffffffffffffffffffffffffffffffffffffff1663323bb7756040518163ffffffff167c010000000000000000000000000000000000000000000000000000000002815260040160206040518083038186803b158015610c6257600080fd5b505afa158015610c76573d6000803e3d6000fd5b505050506040513d6020811015610c8c57600080fd5b810190808051906020019092919050505073ffffffffffffffffffffffffffffffffffffffff166124749092919063ffffffff16565b3373ffffffffffffffffffffffffffffffffffffffff168673ffffffffffffffffffffffffffffffffffffffff167f75b6073dcb0773119aa05ecb4a5866ef9323b20a5b4e795d5a436532deeae4f787878560405180848152602001838152602001828152602001935050505060405180910390a3505050505050565b82600160009054906101000a900473ffffffffffffffffffffffffffffffffffffffff1673ffffffffffffffffffffffffffffffffffffffff1663ad23de63826040518263ffffffff167c0100000000000000000000000000000000000000000000000000000000028152600401808273ffffffffffffffffffffffffffffffffffffffff1673ffffffffffffffffffffffffffffffffffffffff16815260200191505060206040518083038186803b158015610dfb57600080fd5b505afa158015610e0f573d6000803e3d6000fd5b505050506040513d6020811015610e2557600080fd5b81019080805190602001909291905050501515610eaa576040517f08c379a000000000000000000000000000000000000000000000000000000000815260040180806020018281038252601b8152602001807f436f6e7472616374206973206e6f742077686974656c6973746564000000000081525060200191505060405180910390fd5b60008490508073ffffffffffffffffffffffffffffffffffffffff16633270bb5b6040518163ffffffff167c010000000000000000000000000000000000000000000000000000000002815260040160206040518083038186803b158015610f1157600080fd5b505afa158015610f25573d6000803e3d6000fd5b505050506040513d6020811015610f3b57600080fd5b8101908080519060200190929190505050151515610fc1576040517f08c379a000000000000000000000000000000000000000000000000000000000815260040180806020018281038252601b8152602001807f436f6e747261637420697320616c726561647920736574746c6564000000000081525060200191505060405180910390fd5b60008173ffffffffffffffffffffffffffffffffffffffff1663323bb7756040518163ffffffff167c010000000000000000000000000000000000000000000000000000000002815260040160206040518083038186803b15801561102557600080fd5b505afa158015611039573d6000803e3d6000fd5b505050506040513d602081101561104f57600080fd5b81019080805190602001909291905050509050600061110a868473ffffffffffffffffffffffffffffffffffffffff1663e158e02d6040518163ffffffff167c010000000000000000000000000000000000000000000000000000000002815260040160206040518083038186803b1580156110ca57600080fd5b505afa1580156110de573d6000803e3d6000fd5b505050506040513d60208110156110f457600080fd5b8101908080519060200190929190505050612561565b905060008580156111b8575060008473ffffffffffffffffffffffffffffffffffffffff1663db3fa7716040518163ffffffff167c010000000000000000000000000000000000000000000000000000000002815260040160206040518083038186803b15801561117a57600080fd5b505afa15801561118e573d6000803e3d6000fd5b505050506040513d60208110156111a457600080fd5b810190808051906020019092919050505014155b80611312575085158015611269575060008473ffffffffffffffffffffffffffffffffffffffff1663db3fa7716040518163ffffffff167c010000000000000000000000000000000000000000000000000000000002815260040160206040518083038186803b15801561122b57600080fd5b505afa15801561123f573d6000803e3d6000fd5b505050506040513d602081101561125557600080fd5b810190808051906020019092919050505014155b8015611311575060008473ffffffffffffffffffffffffffffffffffffffff16635c7c70596040518163ffffffff167c010000000000000000000000000000000000000000000000000000000002815260040160206040518083038186803b1580156112d457600080fd5b505afa1580156112e8573d6000803e3d6000fd5b505050506040513d60208110156112fe57600080fd5b8101908080519060200190929190505050145b5b905060008060008315611443576113c58a8873ffffffffffffffffffffffffffffffffffffffff1663db3fa7716040518163ffffffff167c010000000000000000000000000000000000000000000000000000000002815260040160206040518083038186803b15801561138557600080fd5b505afa158015611399573d6000803e3d6000fd5b505050506040513d60208110156113af57600080fd5b8101908080519060200190929190505050612561565b9250849150600260009054906101000a900473ffffffffffffffffffffffffffffffffffffffff16905061143e333085600260009054906101000a900473ffffffffffffffffffffffffffffffffffffffff1673ffffffffffffffffffffffffffffffffffffffff16612608909392919063ffffffff16565b611504565b6114e98a8873ffffffffffffffffffffffffffffffffffffffff16635c7c70596040518163ffffffff167c010000000000000000000000000000000000000000000000000000000002815260040160206040518083038186803b1580156114a957600080fd5b505afa1580156114bd573d6000803e3d6000fd5b505050506040513d60208110156114d357600080fd5b8101908080519060200190929190505050612561565b92506114fe838661272a90919063ffffffff16565b91508590505b6115cd3330848a73ffffffffffffffffffffffffffffffffffffffff1663323bb7756040518163ffffffff167c010000000000000000000000000000000000000000000000000000000002815260040160206040518083038186803b15801561156c57600080fd5b505afa158015611580573d6000803e3d6000fd5b505050506040513d602081101561159657600080fd5b810190808051906020019092919050505073ffffffffffffffffffffffffffffffffffffffff16612608909392919063ffffffff16565b60008314151561166d5761162983600460008473ffffffffffffffffffffffffffffffffffffffff1673ffffffffffffffffffffffffffffffffffffffff1681526020019081526020016000205461272a90919063ffffffff16565b600460008373ffffffffffffffffffffffffffffffffffffffff1673ffffffffffffffffffffffffffffffffffffffff168152602001908152602001600020819055505b6116bf85600360008e73ffffffffffffffffffffffffffffffffffffffff1673ffffffffffffffffffffffffffffffffffffffff1681526020019081526020016000205461272a90919063ffffffff16565b600360008d73ffffffffffffffffffffffffffffffffffffffff1673ffffffffffffffffffffffffffffffffffffffff168152602001908152602001600020819055508673ffffffffffffffffffffffffffffffffffffffff1663cabd58348b336040518363ffffffff167c0100000000000000000000000000000000000000000000000000000000028152600401808381526020018273ffffffffffffffffffffffffffffffffffffffff1673ffffffffffffffffffffffffffffffffffffffff16815260200192505050600060405180830381600087803b1580156117a557600080fd5b505af11580156117b9573d6000803e3d6000fd5b505050508073ffffffffffffffffffffffffffffffffffffffff163373ffffffffffffffffffffffffffffffffffffffff168c73ffffffffffffffffffffffffffffffffffffffff167f1e551210cd64464d2a2d2b08a00acc53863e5e3c0b7c943a9a8fe11d71a71ae28d898860405180848152602001838152602001828152602001935050505060405180910390a45050505050505050505050565b60046020528060005260406000206000915090505481565b611876611a6e565b151561188157600080fd5b600073ffffffffffffffffffffffffffffffffffffffff168173ffffffffffffffffffffffffffffffffffffffff1614151515611909576040517f08c379a00000000000000000000000000000000000000000000000000000000081526004018080602001828103825260248152602001806129f76024913960400191505060405180910390fd5b80600260006101000a81548173ffffffffffffffffffffffffffffffffffffffff021916908373ffffffffffffffffffffffffffffffffffffffff16021790555050565b600260009054906101000a900473ffffffffffffffffffffffffffffffffffffffff1681565b61197b611a6e565b151561198657600080fd5b600073ffffffffffffffffffffffffffffffffffffffff166000809054906101000a900473ffffffffffffffffffffffffffffffffffffffff1673ffffffffffffffffffffffffffffffffffffffff167f8be0079c531659141344cd1fd0a4f28419497f9722a3daafe3b4186f6b6457e060405160405180910390a360008060006101000a81548173ffffffffffffffffffffffffffffffffffffffff021916908373ffffffffffffffffffffffffffffffffffffffff160217905550565b60008060009054906101000a900473ffffffffffffffffffffffffffffffffffffffff16905090565b60008060009054906101000a900473ffffffffffffffffffffffffffffffffffffffff1673ffffffffffffffffffffffffffffffffffffffff163373ffffffffffffffffffffffffffffffffffffffff1614905090565b81600160009054906101000a900473ffffffffffffffffffffffffffffffffffffffff1673ffffffffffffffffffffffffffffffffffffffff1663ad23de63826040518263ffffffff167c0100000000000000000000000000000000000000000000000000000000028152600401808273ffffffffffffffffffffffffffffffffffffffff1673ffffffffffffffffffffffffffffffffffffffff16815260200191505060206040518083038186803b158015611b8157600080fd5b505afa158015611b95573d6000803e3d6000fd5b505050506040513d6020811015611bab57600080fd5b81019080805190602001909291905050501515611c30576040517f08c379a000000000000000000000000000000000000000000000000000000000815260040180806020018281038252601b8152602001807f436f6e7472616374206973206e6f742077686974656c6973746564000000000081525060200191505060405180910390fd5b60008390508073ffffffffffffffffffffffffffffffffffffffff1663c25c444484336040518363ffffffff167c0100000000000000000000000000000000000000000000000000000000028152600401808381526020018273ffffffffffffffffffffffffffffffffffffffff1673ffffffffffffffffffffffffffffffffffffffff16815260200192505050600060405180830381600087803b158015611cd857600080fd5b505af1158015611cec573d6000803e3d6000fd5b505050508073ffffffffffffffffffffffffffffffffffffffff16636d35946784336040518363ffffffff167c0100000000000000000000000000000000000000000000000000000000028152600401808381526020018273ffffffffffffffffffffffffffffffffffffffff1673ffffffffffffffffffffffffffffffffffffffff16815260200192505050600060405180830381600087803b158015611d9357600080fd5b505af1158015611da7573d6000803e3d6000fd5b505050506000611e53848373ffffffffffffffffffffffffffffffffffffffff1663e158e02d6040518163ffffffff167c010000000000000000000000000000000000000000000000000000000002815260040160206040518083038186803b158015611e1357600080fd5b505afa158015611e27573d6000803e3d6000fd5b505050506040513d6020811015611e3d57600080fd5b8101908080519060200190929190505050612561565b9050611ea781600360008873ffffffffffffffffffffffffffffffffffffffff1673ffffffffffffffffffffffffffffffffffffffff168152602001908152602001600020546123ef90919063ffffffff16565b600360008773ffffffffffffffffffffffffffffffffffffffff1673ffffffffffffffffffffffffffffffffffffffff16815260200190815260200160002081905550611fb133828473ffffffffffffffffffffffffffffffffffffffff1663323bb7756040518163ffffffff167c010000000000000000000000000000000000000000000000000000000002815260040160206040518083038186803b158015611f5157600080fd5b505afa158015611f65573d6000803e3d6000fd5b505050506040513d6020811015611f7b57600080fd5b810190808051906020019092919050505073ffffffffffffffffffffffffffffffffffffffff166124749092919063ffffffff16565b3373ffffffffffffffffffffffffffffffffffffffff168573ffffffffffffffffffffffffffffffffffffffff167f75b6073dcb0773119aa05ecb4a5866ef9323b20a5b4e795d5a436532deeae4f786878560405180848152602001838152602001828152602001935050505060405180910390a35050505050565b60036020528060005260406000206000915090505481565b600160009054906101000a900473ffffffffffffffffffffffffffffffffffffffff1681565b612073611a6e565b151561207e57600080fd5b600073ffffffffffffffffffffffffffffffffffffffff168173ffffffffffffffffffffffffffffffffffffffff1614151515612106576040517f08c379a0000000000000000000000000000000000000000000000000000000008152600401808060200182810382526033815260200180612a406033913960400191505060405180910390fd5b80600160006101000a81548173ffffffffffffffffffffffffffffffffffffffff021916908373ffffffffffffffffffffffffffffffffffffffff16021790555050565b612152611a6e565b151561215d57600080fd5b6000600460008473ffffffffffffffffffffffffffffffffffffffff1673ffffffffffffffffffffffffffffffffffffffff1681526020019081526020016000205490506000811415151561221a576040517f08c379a00000000000000000000000000000000000000000000000000000000081526004018080602001828103825260208152602001807f4e6f206665657320617661696c61626c6520666f72207769746864726177616c81525060200191505060405180910390fd5b600073ffffffffffffffffffffffffffffffffffffffff168273ffffffffffffffffffffffffffffffffffffffff16141515156122bf576040517f08c379a00000000000000000000000000000000000000000000000000000000081526004018080602001828103825260208152602001807f43616e6e6f742073656e64206665657320746f206e756c6c206164647265737381525060200191505060405180910390fd5b6000600460008573ffffffffffffffffffffffffffffffffffffffff1673ffffffffffffffffffffffffffffffffffffffff1681526020019081526020016000208190555061232f82828573ffffffffffffffffffffffffffffffffffffffff166124749092919063ffffffff16565b505050565b61233c611a6e565b151561234757600080fd5b612350816127b4565b50565b600080600090506000808611156123995788841115156123765760009050612383565b612380848a6123ef565b90505b6123966123908288612561565b88612561565b91505b60008511156123e05787841015156123b457600090506123c1565b6123be88856123ef565b90505b6123dd826123d86123d28489612561565b8a612561565b61272a565b91505b81925050509695505050505050565b6000828211151515612469576040517f08c379a000000000000000000000000000000000000000000000000000000000815260040180806020018281038252601d8152602001807f4d6174684c69623a207375627472616374696f6e206f766572666c6f7700000081525060200191505060405180910390fd5b818303905092915050565b61255c838473ffffffffffffffffffffffffffffffffffffffff1663a9059cbb90507c0100000000000000000000000000000000000000000000000000000000028484604051602401808373ffffffffffffffffffffffffffffffffffffffff1673ffffffffffffffffffffffffffffffffffffffff16815260200182815260200192505050604051602081830303815290604052907bffffffffffffffffffffffffffffffffffffffffffffffffffffffff19166020820180517bffffffffffffffffffffffffffffffffffffffffffffffffffffffff83818316178352505050506128ae565b505050565b6000808314156125745760009050612602565b6000828402905082848281151561258757fe5b041415156125fd576040517f08c379a00000000000000000000000000000000000000000000000000000000081526004018080602001828103825260208152602001807f4d6174684c69623a206d756c7469706c69636174696f6e206f766572666c6f7781525060200191505060405180910390fd5b809150505b92915050565b612724848573ffffffffffffffffffffffffffffffffffffffff166323b872dd90507c010000000000000000000000000000000000000000000000000000000002858585604051602401808473ffffffffffffffffffffffffffffffffffffffff1673ffffffffffffffffffffffffffffffffffffffff1681526020018373ffffffffffffffffffffffffffffffffffffffff1673ffffffffffffffffffffffffffffffffffffffff1681526020018281526020019350505050604051602081830303815290604052907bffffffffffffffffffffffffffffffffffffffffffffffffffffffff19166020820180517bffffffffffffffffffffffffffffffffffffffffffffffffffffffff83818316178352505050506128ae565b50505050565b60008082840190508381101515156127aa576040517f08c379a000000000000000000000000000000000000000000000000000000000815260040180806020018281038252601a8152602001807f4d6174684c69623a206164646974696f6e206f766572666c6f7700000000000081525060200191505060405180910390fd5b8091505092915050565b600073ffffffffffffffffffffffffffffffffffffffff168173ffffffffffffffffffffffffffffffffffffffff16141515156127f057600080fd5b8073ffffffffffffffffffffffffffffffffffffffff166000809054906101000a900473ffffffffffffffffffffffffffffffffffffffff1673ffffffffffffffffffffffffffffffffffffffff167f8be0079c531659141344cd1fd0a4f28419497f9722a3daafe3b4186f6b6457e060405160405180910390a3806000806101000a81548173ffffffffffffffffffffffffffffffffffffffff021916908373ffffffffffffffffffffffffffffffffffffffff16021790555050565b6128cd8273ffffffffffffffffffffffffffffffffffffffff166129e3565b15156128d857600080fd5b600060608373ffffffffffffffffffffffffffffffffffffffff16836040518082805190602001908083835b6020831015156129295780518252602082019150602081019050602083039250612904565b6001836020036101000a0380198251168184511680821785525050505050509050019150506000604051808303816000865af19150503d806000811461298b576040519150601f19603f3d011682016040523d82523d6000602084013e612990565b606091505b50915091508115156129a157600080fd5b6000815111156129dd578080602001905160208110156129c057600080fd5b810190808051906020019092919050505015156129dc57600080fd5b5b50505050565b600080823b90506000811191505091905056fe43616e6e6f7420736574204d4b5420546f6b656e204164647265737320546f204e756c6c436f6e7472616374206973206e6f74207061737420736574746c656d656e742064656c617943616e6e6f7420736574204d61726b657420436f6e7472616374205265676973747279204164647265737320546f204e756c6ca165627a7a72305820cf83ff8bb3367309b6df1edc0b4ce95b3b76b33f314e9dcf19e438fbb21a82e50029",
  "source": "/*\r\n    Copyright 2017-2019 Phillip A. Elsasser\r\n\r\n    Licensed under the Apache License, Version 2.0 (the \"License\");\r\n    you may not use this file except in compliance with the License.\r\n    You may obtain a copy of the License at\r\n\r\n    http://www.apache.org/licenses/LICENSE-2.0\r\n\r\n    Unless required by applicable law or agreed to in writing, software\r\n    distributed under the License is distributed on an \"AS IS\" BASIS,\r\n    WITHOUT WARRANTIES OR CONDITIONS OF ANY KIND, either express or implied.\r\n    See the License for the specific language governing permissions and\r\n    limitations under the License.\r\n*/\r\n\r\npragma solidity 0.5.2;\r\n\r\nimport '../libraries/MathLib.sol';\r\nimport './MarketContract.sol';\r\nimport './tokens/PositionToken.sol';\r\nimport './MarketContractRegistryInterface.sol';\r\n\r\nimport 'openzeppelin-solidity/contracts/token/ERC20/SafeERC20.sol';\r\nimport 'openzeppelin-solidity/contracts/token/ERC20/ERC20.sol';\r\nimport 'openzeppelin-solidity/contracts/ownership/Ownable.sol';\r\n\r\n\r\n/// @title MarketCollateralPool\r\n/// @notice This collateral pool houses all of the collateral for all market contracts currently in circulation.\r\n/// This pool facilitates locking of collateral and minting / redemption of position tokens for that collateral.\r\n/// @author Phil Elsasser <phil@marketprotocol.io>\r\ncontract MarketCollateralPool is Ownable {\r\n    using MathLib for uint;\r\n    using MathLib for int;\r\n    using SafeERC20 for ERC20;\r\n\r\n    address public marketContractRegistry;\r\n    address public mktToken;\r\n\r\n    mapping(address => uint) public contractAddressToCollateralPoolBalance; // current balance of all collateral committed\r\n    mapping(address => uint) public feesCollectedByTokenAddress;\r\n\r\n    event TokensMinted(\r\n        address indexed marketContract,\r\n        address indexed user,\r\n        address indexed feeToken,\r\n        uint qtyMinted,\r\n        uint collateralLocked,\r\n        uint feesPaid\r\n    );\r\n\r\n    event TokensRedeemed(\r\n        address indexed marketContract,\r\n        address indexed user,\r\n        uint longQtyRedeemed,\r\n        uint shortQtyRedeemed,\r\n        uint collateralUnlocked\r\n    );\r\n\r\n    constructor(address marketContractRegistryAddress, address mktTokenAddress) public {\r\n        marketContractRegistry = marketContractRegistryAddress;\r\n        mktToken = mktTokenAddress;\r\n    }\r\n\r\n    /*\r\n    // EXTERNAL METHODS\r\n    */\r\n\r\n    /// @notice Called by a user that would like to mint a new set of long and short token for a specified\r\n    /// market contract.  This will transfer and lock the correct amount of collateral into the pool\r\n    /// and issue them the requested qty of long and short tokens\r\n    /// @param marketContractAddress            address of the market contract to redeem tokens for\r\n    /// @param qtyToMint                      quantity of long / short tokens to mint.\r\n    /// @param isAttemptToPayInMKT            if possible, attempt to pay fee's in MKT rather than collateral tokens\r\n    function mintPositionTokens(\r\n        address marketContractAddress,\r\n        uint qtyToMint,\r\n        bool isAttemptToPayInMKT\r\n    ) external onlyWhiteListedAddress(marketContractAddress) {\r\n        MarketContract marketContract = MarketContract(marketContractAddress);\r\n        require(!marketContract.isSettled(), 'Contract is already settled');\r\n\r\n        address collateralTokenAddress = marketContract.COLLATERAL_TOKEN_ADDRESS();\r\n        uint neededCollateral = MathLib.multiply(\r\n            qtyToMint,\r\n            marketContract.COLLATERAL_PER_UNIT()\r\n        );\r\n        // the user has selected to pay fees in MKT and those fees are non zero (allowed) OR\r\n        // the user has selected not to pay fees in MKT, BUT the collateral token fees are disabled (0) AND the\r\n        // MKT fees are enabled (non zero).  (If both are zero, no fee exists)\r\n        bool isPayFeesInMKT = (isAttemptToPayInMKT &&\r\n            marketContract.MKT_TOKEN_FEE_PER_UNIT() != 0) ||\r\n            (!isAttemptToPayInMKT &&\r\n                marketContract.MKT_TOKEN_FEE_PER_UNIT() != 0 &&\r\n                marketContract.COLLATERAL_TOKEN_FEE_PER_UNIT() == 0);\r\n\r\n        uint feeAmount;\r\n        uint totalCollateralTokenTransferAmount;\r\n        address feeToken;\r\n        if (isPayFeesInMKT) {\r\n            // fees are able to be paid in MKT\r\n            feeAmount = MathLib.multiply(\r\n                qtyToMint,\r\n                marketContract.MKT_TOKEN_FEE_PER_UNIT()\r\n            );\r\n            totalCollateralTokenTransferAmount = neededCollateral;\r\n            feeToken = mktToken;\r\n\r\n            // EXTERNAL CALL - transferring ERC20 tokens from sender to this contract.  User must have called\r\n            // ERC20.approve in order for this call to succeed.\r\n            ERC20(mktToken).safeTransferFrom(msg.sender, address(this), feeAmount);\r\n        } else {\r\n            // fee are either zero, or being paid in the collateral token\r\n            feeAmount = MathLib.multiply(\r\n                qtyToMint,\r\n                marketContract.COLLATERAL_TOKEN_FEE_PER_UNIT()\r\n            );\r\n            totalCollateralTokenTransferAmount = neededCollateral.add(feeAmount);\r\n            feeToken = collateralTokenAddress;\r\n            // we will transfer collateral and fees all at once below.\r\n        }\r\n\r\n        // EXTERNAL CALL - transferring ERC20 tokens from sender to this contract.  User must have called\r\n        // ERC20.approve in order for this call to succeed.\r\n        ERC20(marketContract.COLLATERAL_TOKEN_ADDRESS()).safeTransferFrom(\r\n            msg.sender,\r\n            address(this),\r\n            totalCollateralTokenTransferAmount\r\n        );\r\n\r\n        if (feeAmount != 0) {\r\n            // update the fee's collected balance\r\n            feesCollectedByTokenAddress[feeToken] = feesCollectedByTokenAddress[feeToken]\r\n                .add(feeAmount);\r\n        }\r\n\r\n        // Update the collateral pool locked balance.\r\n        contractAddressToCollateralPoolBalance[marketContractAddress] = contractAddressToCollateralPoolBalance[marketContractAddress]\r\n            .add(neededCollateral);\r\n\r\n        // mint and distribute short and long position tokens to our caller\r\n        marketContract.mintPositionTokens(qtyToMint, msg.sender);\r\n\r\n        emit TokensMinted(\r\n            marketContractAddress,\r\n            msg.sender,\r\n            feeToken,\r\n            qtyToMint,\r\n            neededCollateral,\r\n            feeAmount\r\n        );\r\n    }\r\n\r\n    /// @notice Called by a user that currently holds both short and long position tokens and would like to redeem them\r\n    /// for their collateral.\r\n    /// @param marketContractAddress            address of the market contract to redeem tokens for\r\n    /// @param qtyToRedeem                      quantity of long / short tokens to redeem.\r\n    function redeemPositionTokens(address marketContractAddress, uint qtyToRedeem)\r\n        external\r\n        onlyWhiteListedAddress(marketContractAddress)\r\n    {\r\n        MarketContract marketContract = MarketContract(marketContractAddress);\r\n\r\n        marketContract.redeemLongToken(qtyToRedeem, msg.sender);\r\n        marketContract.redeemShortToken(qtyToRedeem, msg.sender);\r\n\r\n        // calculate collateral to return and update pool balance\r\n        uint collateralToReturn = MathLib.multiply(\r\n            qtyToRedeem,\r\n            marketContract.COLLATERAL_PER_UNIT()\r\n        );\r\n        contractAddressToCollateralPoolBalance[marketContractAddress] = contractAddressToCollateralPoolBalance[marketContractAddress]\r\n            .subtract(collateralToReturn);\r\n\r\n        // EXTERNAL CALL\r\n        // transfer collateral back to user\r\n        ERC20(marketContract.COLLATERAL_TOKEN_ADDRESS()).safeTransfer(\r\n            msg.sender,\r\n            collateralToReturn\r\n        );\r\n\r\n        emit TokensRedeemed(\r\n            marketContractAddress,\r\n            msg.sender,\r\n            qtyToRedeem,\r\n            qtyToRedeem,\r\n            collateralToReturn\r\n        );\r\n    }\r\n\r\n    // @notice called by a user after settlement has occurred.  This function will finalize all accounting around any\r\n    // outstanding positions and return all remaining collateral to the caller. This should only be called after\r\n    // settlement has occurred.\r\n    /// @param marketContractAddress address of the MARKET Contract being traded.\r\n    /// @param longQtyToRedeem qty to redeem of long tokens\r\n    /// @param shortQtyToRedeem qty to redeem of short tokens\r\n    function settleAndClose(\r\n        address marketContractAddress,\r\n        uint longQtyToRedeem,\r\n        uint shortQtyToRedeem\r\n    ) external onlyWhiteListedAddress(marketContractAddress) {\r\n        MarketContract marketContract = MarketContract(marketContractAddress);\r\n        require(\r\n            marketContract.isPostSettlementDelay(),\r\n            'Contract is not past settlement delay'\r\n        );\r\n\r\n        // burn tokens being redeemed.\r\n        if (longQtyToRedeem > 0) {\r\n            marketContract.redeemLongToken(longQtyToRedeem, msg.sender);\r\n        }\r\n\r\n        if (shortQtyToRedeem > 0) {\r\n            marketContract.redeemShortToken(shortQtyToRedeem, msg.sender);\r\n        }\r\n\r\n        // calculate amount of collateral to return and update pool balances\r\n        uint collateralToReturn = MathLib.calculateCollateralToReturn(\r\n            marketContract.PRICE_FLOOR(),\r\n            marketContract.PRICE_CAP(),\r\n            marketContract.QTY_MULTIPLIER(),\r\n            longQtyToRedeem,\r\n            shortQtyToRedeem,\r\n            marketContract.settlementPrice()\r\n        );\r\n\r\n        contractAddressToCollateralPoolBalance[marketContractAddress] = contractAddressToCollateralPoolBalance[marketContractAddress]\r\n            .subtract(collateralToReturn);\r\n\r\n        // return collateral tokens\r\n        ERC20(marketContract.COLLATERAL_TOKEN_ADDRESS()).safeTransfer(\r\n            msg.sender,\r\n            collateralToReturn\r\n        );\r\n\r\n        emit TokensRedeemed(\r\n            marketContractAddress,\r\n            msg.sender,\r\n            longQtyToRedeem,\r\n            shortQtyToRedeem,\r\n            collateralToReturn\r\n        );\r\n    }\r\n\r\n    /// @dev allows the owner to remove the fees paid into this contract for minting\r\n    /// @param feeTokenAddress - address of the erc20 token fees have been paid in\r\n    /// @param feeRecipient - Recipient address of fees\r\n    function withdrawFees(address feeTokenAddress, address feeRecipient)\r\n        public\r\n        onlyOwner\r\n    {\r\n        uint feesAvailableForWithdrawal = feesCollectedByTokenAddress[feeTokenAddress];\r\n        require(feesAvailableForWithdrawal != 0, 'No fees available for withdrawal');\r\n        require(feeRecipient != address(0), 'Cannot send fees to null address');\r\n        feesCollectedByTokenAddress[feeTokenAddress] = 0;\r\n        // EXTERNAL CALL\r\n        ERC20(feeTokenAddress).safeTransfer(feeRecipient, feesAvailableForWithdrawal);\r\n    }\r\n\r\n    /// @dev allows the owner to update the mkt token address in use for fees\r\n    /// @param mktTokenAddress address of new MKT token\r\n    function setMKTTokenAddress(address mktTokenAddress) public onlyOwner {\r\n        require(mktTokenAddress != address(0), 'Cannot set MKT Token Address To Null');\r\n        mktToken = mktTokenAddress;\r\n    }\r\n\r\n    /// @dev allows the owner to update the mkt token address in use for fees\r\n    /// @param marketContractRegistryAddress address of new contract registry\r\n    function setMarketContractRegistryAddress(address marketContractRegistryAddress)\r\n        public\r\n        onlyOwner\r\n    {\r\n        require(\r\n            marketContractRegistryAddress != address(0),\r\n            'Cannot set Market Contract Registry Address To Null'\r\n        );\r\n        marketContractRegistry = marketContractRegistryAddress;\r\n    }\r\n\r\n    /*\r\n    // MODIFIERS\r\n    */\r\n\r\n    /// @notice only can be called with a market contract address that currently exists in our whitelist\r\n    /// this ensure's it is a market contract that has been created by us and therefore has a uniquely created\r\n    /// long and short token address.  If it didn't we could have spoofed contracts minting tokens with a\r\n    /// collateral token that wasn't the same as the intended token.\r\n    modifier onlyWhiteListedAddress(address marketContractAddress) {\r\n        require(\r\n            MarketContractRegistryInterface(marketContractRegistry).isAddressWhiteListed(\r\n                marketContractAddress\r\n            ),\r\n            'Contract is not whitelisted'\r\n        );\r\n        _;\r\n    }\r\n}\r\n",
  "sourcePath": "C:\\Users\\myank\\Code\\projects\\dapp.honeylemon.market\\contracts\\marketprotocol\\MarketCollateralPool.sol",
  "compiler": {
    "name": "solc",
    "version": "0.5.2+commit.1df8f40c.Emscripten.clang"
  },
  "schemaVersion": "3.1.0",
  "updatedAt": "2020-05-04T22:55:26.764Z",
  "networkType": "ethereum",
  "devdoc": {
    "author": "Phil Elsasser <phil@marketprotocol.io>",
    "methods": {
      "isOwner()": {
        "return": "true if `msg.sender` is the owner of the contract."
      },
      "mintPositionTokens(address,uint256,bool)": {
        "params": {
          "isAttemptToPayInMKT": "if possible, attempt to pay fee's in MKT rather than collateral tokens"
        }
      },
      "owner()": {
        "return": "the address of the owner."
      },
      "redeemPositionTokens(address,uint256)": {
        "params": {
          "qtyToRedeem": "quantity of long / short tokens to redeem."
        }
      },
      "renounceOwnership()": {
        "details": "Allows the current owner to relinquish control of the contract. It will not be possible to call the functions with the `onlyOwner` modifier anymore."
      },
      "setMKTTokenAddress(address)": {
        "params": {
          "mktTokenAddress": "address of new MKT token"
        }
      },
      "setMarketContractRegistryAddress(address)": {
        "params": {
          "marketContractRegistryAddress": "address of new contract registry"
        }
      },
      "settleAndClose(address,uint256,uint256)": {
        "params": {
          "shortQtyToRedeem": "qty to redeem of short tokens"
        }
      },
      "transferOwnership(address)": {
        "details": "Allows the current owner to transfer control of the contract to a newOwner.",
        "params": {
          "newOwner": "The address to transfer ownership to."
        }
      },
      "withdrawFees(address,address)": {
        "params": {
          "feeRecipient": "- Recipient address of fees"
        }
      }
    }
  },
  "userdoc": {
    "methods": {
      "renounceOwnership()": {
        "notice": "Renouncing ownership will leave the contract without an owner, thereby removing any functionality that is only available to the owner."
      }
    }
  }
}