{
  "contractName": "MinterBridge",
  "abi": [
    {
      "constant": true,
      "inputs": [],
      "name": "MARKET_CONTRACT_PROXY_ADDRESS",
      "outputs": [
        {
          "name": "",
          "type": "address"
        }
      ],
      "payable": false,
      "stateMutability": "view",
      "type": "function"
    },
    {
      "constant": false,
      "inputs": [],
      "name": "renounceOwnership",
      "outputs": [],
      "payable": false,
      "stateMutability": "nonpayable",
      "type": "function"
    },
    {
      "constant": true,
      "inputs": [],
      "name": "owner",
      "outputs": [
        {
          "name": "",
          "type": "address"
        }
      ],
      "payable": false,
      "stateMutability": "view",
      "type": "function"
    },
    {
      "constant": true,
      "inputs": [],
      "name": "isOwner",
      "outputs": [
        {
          "name": "",
          "type": "bool"
        }
      ],
      "payable": false,
      "stateMutability": "view",
      "type": "function"
    },
    {
      "constant": true,
      "inputs": [],
      "name": "ERC20_BRIDGE_PROXY_ADDRESS",
      "outputs": [
        {
          "name": "",
          "type": "address"
        }
      ],
      "payable": false,
      "stateMutability": "view",
      "type": "function"
    },
    {
      "constant": false,
      "inputs": [
        {
          "name": "newOwner",
          "type": "address"
        }
      ],
      "name": "transferOwnership",
      "outputs": [],
      "payable": false,
      "stateMutability": "nonpayable",
      "type": "function"
    },
    {
      "anonymous": false,
      "inputs": [
        {
          "indexed": true,
          "name": "previousOwner",
          "type": "address"
        },
        {
          "indexed": true,
          "name": "newOwner",
          "type": "address"
        }
      ],
      "name": "OwnershipTransferred",
      "type": "event"
    },
    {
      "constant": false,
      "inputs": [
        {
          "name": "_marketContractProxyAddress",
          "type": "address"
        }
      ],
      "name": "setMarketContractProxyAddress",
      "outputs": [],
      "payable": false,
      "stateMutability": "nonpayable",
      "type": "function"
    },
    {
      "constant": false,
      "inputs": [
        {
          "name": "_0xBridgeProxyAddress",
          "type": "address"
        }
      ],
      "name": "set0xBridgeProxy",
      "outputs": [],
      "payable": false,
      "stateMutability": "nonpayable",
      "type": "function"
    },
    {
      "constant": false,
      "inputs": [
        {
          "name": "tokenAddress",
          "type": "address"
        },
        {
          "name": "from",
          "type": "address"
        },
        {
          "name": "to",
          "type": "address"
        },
        {
          "name": "amount",
          "type": "uint256"
        },
        {
          "name": "bridgeData",
          "type": "bytes"
        }
      ],
      "name": "bridgeTransferFrom",
      "outputs": [
        {
          "name": "success",
          "type": "bytes4"
        }
      ],
      "payable": false,
      "stateMutability": "nonpayable",
      "type": "function"
    }
  ],
  "bytecode": "0x6080604052336000806101000a81548173ffffffffffffffffffffffffffffffffffffffff021916908373ffffffffffffffffffffffffffffffffffffffff1602179055506000809054906101000a900473ffffffffffffffffffffffffffffffffffffffff1673ffffffffffffffffffffffffffffffffffffffff16600073ffffffffffffffffffffffffffffffffffffffff167f8be0079c531659141344cd1fd0a4f28419497f9722a3daafe3b4186f6b6457e060405160405180910390a3610fe1806100cf6000396000f3fe608060405234801561001057600080fd5b50600436106100b0576000357c0100000000000000000000000000000000000000000000000000000000900480638f32d59b116100835780638f32d59b14610197578063a1d6a4a3146101b9578063a95f84b9146101fd578063c2df82e614610247578063f2fde38b1461037c576100b0565b8063090dc1cc146100b557806368b43fbb146100f9578063715018a6146101435780638da5cb5b1461014d575b600080fd5b6100f7600480360360208110156100cb57600080fd5b81019080803573ffffffffffffffffffffffffffffffffffffffff1690602001909291905050506103c0565b005b610101610417565b604051808273ffffffffffffffffffffffffffffffffffffffff1673ffffffffffffffffffffffffffffffffffffffff16815260200191505060405180910390f35b61014b61043d565b005b61015561050f565b604051808273ffffffffffffffffffffffffffffffffffffffff1673ffffffffffffffffffffffffffffffffffffffff16815260200191505060405180910390f35b61019f610538565b604051808215151515815260200191505060405180910390f35b6101fb600480360360208110156101cf57600080fd5b81019080803573ffffffffffffffffffffffffffffffffffffffff16906020019092919050505061058f565b005b610205610649565b604051808273ffffffffffffffffffffffffffffffffffffffff1673ffffffffffffffffffffffffffffffffffffffff16815260200191505060405180910390f35b610328600480360360a081101561025d57600080fd5b81019080803573ffffffffffffffffffffffffffffffffffffffff169060200190929190803573ffffffffffffffffffffffffffffffffffffffff169060200190929190803573ffffffffffffffffffffffffffffffffffffffff16906020019092919080359060200190929190803590602001906401000000008111156102e457600080fd5b8201836020820111156102f657600080fd5b8035906020019184600183028401116401000000008311171561031857600080fd5b909192939192939050505061066f565b60405180827bffffffffffffffffffffffffffffffffffffffffffffffffffffffff19167bffffffffffffffffffffffffffffffffffffffffffffffffffffffff1916815260200191505060405180910390f35b6103be6004803603602081101561039257600080fd5b81019080803573ffffffffffffffffffffffffffffffffffffffff169060200190929190505050610c32565b005b6103c8610538565b15156103d357600080fd5b80600360006101000a81548173ffffffffffffffffffffffffffffffffffffffff021916908373ffffffffffffffffffffffffffffffffffffffff16021790555050565b600260009054906101000a900473ffffffffffffffffffffffffffffffffffffffff1681565b610445610538565b151561045057600080fd5b600073ffffffffffffffffffffffffffffffffffffffff166000809054906101000a900473ffffffffffffffffffffffffffffffffffffffff1673ffffffffffffffffffffffffffffffffffffffff167f8be0079c531659141344cd1fd0a4f28419497f9722a3daafe3b4186f6b6457e060405160405180910390a360008060006101000a81548173ffffffffffffffffffffffffffffffffffffffff021916908373ffffffffffffffffffffffffffffffffffffffff160217905550565b60008060009054906101000a900473ffffffffffffffffffffffffffffffffffffffff16905090565b60008060009054906101000a900473ffffffffffffffffffffffffffffffffffffffff1673ffffffffffffffffffffffffffffffffffffffff163373ffffffffffffffffffffffffffffffffffffffff1614905090565b610597610538565b15156105a257600080fd5b80600260006101000a81548173ffffffffffffffffffffffffffffffffffffffff021916908373ffffffffffffffffffffffffffffffffffffffff160217905550600260009054906101000a900473ffffffffffffffffffffffffffffffffffffffff16600160006101000a81548173ffffffffffffffffffffffffffffffffffffffff021916908373ffffffffffffffffffffffffffffffffffffffff16021790555050565b600360009054906101000a900473ffffffffffffffffffffffffffffffffffffffff1681565b60008073ffffffffffffffffffffffffffffffffffffffff16600260009054906101000a900473ffffffffffffffffffffffffffffffffffffffff1673ffffffffffffffffffffffffffffffffffffffff1614151515610737576040517f08c379a000000000000000000000000000000000000000000000000000000000815260040180806020018281038252601b8152602001807f4d61726b6574436f6e747261637450726f7879206e6f7420736574000000000081525060200191505060405180910390fd5b600260009054906101000a900473ffffffffffffffffffffffffffffffffffffffff1673ffffffffffffffffffffffffffffffffffffffff168773ffffffffffffffffffffffffffffffffffffffff161415156107fc576040517f08c379a00000000000000000000000000000000000000000000000000000000081526004018080602001828103825260118152602001807f6261642070726f7879206164647265737300000000000000000000000000000081525060200191505060405180910390fd5b6000600160009054906101000a900473ffffffffffffffffffffffffffffffffffffffff1673ffffffffffffffffffffffffffffffffffffffff1663323bb7756040518163ffffffff167c010000000000000000000000000000000000000000000000000000000002815260040160206040518083038186803b15801561088257600080fd5b505afa158015610896573d6000803e3d6000fd5b505050506040513d60208110156108ac57600080fd5b810190808051906020019092919050505090506000600160009054906101000a900473ffffffffffffffffffffffffffffffffffffffff1673ffffffffffffffffffffffffffffffffffffffff166334931b4b876040518263ffffffff167c01000000000000000000000000000000000000000000000000000000000281526004018082815260200191505060206040518083038186803b15801561095057600080fd5b505afa158015610964573d6000803e3d6000fd5b505050506040513d602081101561097a57600080fd5b810190808051906020019092919050505090506109ba8830838573ffffffffffffffffffffffffffffffffffffffff16610c51909392919063ffffffff16565b8173ffffffffffffffffffffffffffffffffffffffff1663095ea7b3600260009054906101000a900473ffffffffffffffffffffffffffffffffffffffff16836040518363ffffffff167c0100000000000000000000000000000000000000000000000000000000028152600401808373ffffffffffffffffffffffffffffffffffffffff1673ffffffffffffffffffffffffffffffffffffffff16815260200182815260200192505050602060405180830381600087803b158015610a7f57600080fd5b505af1158015610a93573d6000803e3d6000fd5b505050506040513d6020811015610aa957600080fd5b810190808051906020019092919050505050600160009054906101000a900473ffffffffffffffffffffffffffffffffffffffff1673ffffffffffffffffffffffffffffffffffffffff1663fabf96c787898b89896040518663ffffffff167c0100000000000000000000000000000000000000000000000000000000028152600401808681526020018573ffffffffffffffffffffffffffffffffffffffff1673ffffffffffffffffffffffffffffffffffffffff1681526020018473ffffffffffffffffffffffffffffffffffffffff1673ffffffffffffffffffffffffffffffffffffffff168152602001806020018281038252848482818152602001925080828437600081840152601f19601f8201169050808301925050509650505050505050600060405180830381600087803b158015610be857600080fd5b505af1158015610bfc573d6000803e3d6000fd5b5050505063dc1600f37c010000000000000000000000000000000000000000000000000000000002925050509695505050505050565b610c3a610538565b1515610c4557600080fd5b610c4e81610d73565b50565b610d6d848573ffffffffffffffffffffffffffffffffffffffff166323b872dd90507c010000000000000000000000000000000000000000000000000000000002858585604051602401808473ffffffffffffffffffffffffffffffffffffffff1673ffffffffffffffffffffffffffffffffffffffff1681526020018373ffffffffffffffffffffffffffffffffffffffff1673ffffffffffffffffffffffffffffffffffffffff1681526020018281526020019350505050604051602081830303815290604052907bffffffffffffffffffffffffffffffffffffffffffffffffffffffff19166020820180517bffffffffffffffffffffffffffffffffffffffffffffffffffffffff8381831617835250505050610e6d565b50505050565b600073ffffffffffffffffffffffffffffffffffffffff168173ffffffffffffffffffffffffffffffffffffffff1614151515610daf57600080fd5b8073ffffffffffffffffffffffffffffffffffffffff166000809054906101000a900473ffffffffffffffffffffffffffffffffffffffff1673ffffffffffffffffffffffffffffffffffffffff167f8be0079c531659141344cd1fd0a4f28419497f9722a3daafe3b4186f6b6457e060405160405180910390a3806000806101000a81548173ffffffffffffffffffffffffffffffffffffffff021916908373ffffffffffffffffffffffffffffffffffffffff16021790555050565b610e8c8273ffffffffffffffffffffffffffffffffffffffff16610fa2565b1515610e9757600080fd5b600060608373ffffffffffffffffffffffffffffffffffffffff16836040518082805190602001908083835b602083101515610ee85780518252602082019150602081019050602083039250610ec3565b6001836020036101000a0380198251168184511680821785525050505050509050019150506000604051808303816000865af19150503d8060008114610f4a576040519150601f19603f3d011682016040523d82523d6000602084013e610f4f565b606091505b5091509150811515610f6057600080fd5b600081511115610f9c57808060200190516020811015610f7f57600080fd5b81019080805190602001909291905050501515610f9b57600080fd5b5b50505050565b600080823b90506000811191505091905056fea165627a7a7230582072c15bbc4ef882ab2b326f9b57305a128fb0dbd0ce41822cd90b68cff2deb2ce0029",
  "source": "pragma solidity 0.5.2;\r\n\r\nimport 'openzeppelin-solidity/contracts/ownership/Ownable.sol';\r\nimport 'openzeppelin-solidity/contracts/token/ERC20/SafeERC20.sol';\r\nimport 'openzeppelin-solidity/contracts/token/ERC20/ERC20.sol';\r\n\r\nimport '../libraries/MathLib.sol';\r\nimport '../marketprotocol/MarketCollateralPool.sol';\r\nimport '../marketprotocol/mpx/MarketContractMPX.sol';\r\nimport '../marketprotocol/tokens/PositionToken.sol';\r\n\r\nimport './MarketContractProxy.sol';\r\n\r\n\r\ncontract MinterBridge is Ownable {\r\n    using MathLib for uint;\r\n    using MathLib for int;\r\n    using SafeERC20 for ERC20;\r\n\r\n    MarketContractProxy marketContractProxy;\r\n\r\n    // @dev Result of a successful bridge call.\r\n    bytes4 internal constant BRIDGE_SUCCESS = 0xdc1600f3;\r\n    address public MARKET_CONTRACT_PROXY_ADDRESS;\r\n    address public ERC20_BRIDGE_PROXY_ADDRESS;\r\n\r\n    function setMarketContractProxyAddress(address _marketContractProxyAddress)\r\n        public\r\n        onlyOwner\r\n    {\r\n        MARKET_CONTRACT_PROXY_ADDRESS = _marketContractProxyAddress;\r\n        marketContractProxy = MarketContractProxy(MARKET_CONTRACT_PROXY_ADDRESS);\r\n    }\r\n\r\n    function set0xBridgeProxy(address _0xBridgeProxyAddress) public onlyOwner {\r\n        ERC20_BRIDGE_PROXY_ADDRESS = _0xBridgeProxyAddress;\r\n    }\r\n\r\n    modifier only0xBridgeProxy() {\r\n        require(msg.sender == ERC20_BRIDGE_PROXY_ADDRESS, 'invalid caller');\r\n        _;\r\n    }\r\n\r\n    modifier onlyIfSetMarketContractProxy() {\r\n        require(\r\n            MARKET_CONTRACT_PROXY_ADDRESS != address(0),\r\n            'MarketContractProxy not set'\r\n        );\r\n        _;\r\n    }\r\n\r\n    /// @dev Transfers `amount` of the ERC20 `tokenAddress` from `from` to `to`.\r\n    /// @param tokenAddress in the standard 0x implementation this is the transferred token.\r\n    // In HoneyLemon this is the marketContractProxy which acts to spoof a token and inform\r\n    // the MinterBridge of the latest perpetual token.\r\n    /// @param from Address to transfer asset from.\r\n    /// @param to Address to transfer asset to.\r\n    /// @param amount Amount of asset to transfer.\r\n    /// @param bridgeData Arbitrary asset data needed by the bridge contract.\r\n    /// @return success The magic bytes `0x37708e9b` if successful.\r\n    function bridgeTransferFrom(\r\n        address tokenAddress,\r\n        address from,\r\n        address to,\r\n        uint256 amount,\r\n        bytes calldata bridgeData\r\n    ) external onlyIfSetMarketContractProxy returns (bytes4 success) {\r\n        // The proxy acts as the taker token to make 0x think that the appropriate amount\r\n        // was transferred and accept the trade as passing. Under the hood the  marketContractProxy\r\n        // has minted long and short tokens and sent them to the the investor and miner.\r\n        require(tokenAddress == MARKET_CONTRACT_PROXY_ADDRESS, 'bad proxy address');\r\n\r\n        // (imBTC) sent from the miner\r\n        ERC20 collateralToken = ERC20(marketContractProxy.COLLATERAL_TOKEN_ADDRESS());\r\n\r\n        uint neededCollateral = marketContractProxy.calculateRequiredCollateral(amount);\r\n\r\n        collateralToken.safeTransferFrom(from, address(this), neededCollateral);\r\n        collateralToken.approve(MARKET_CONTRACT_PROXY_ADDRESS, neededCollateral);\r\n\r\n        // to: long & taker (investor)\r\n        // from: short & maker (miner)\r\n        marketContractProxy.mintPositionTokens(amount, to, from, bridgeData);\r\n\r\n        return BRIDGE_SUCCESS;\r\n    }\r\n}\r\n",
  "sourcePath": "C:\\Users\\myank\\Code\\projects\\dapp.honeylemon.market\\contracts\\honeylemon\\MinterBridge.sol",
  "compiler": {
    "name": "solc",
    "version": "0.5.2+commit.1df8f40c.Emscripten.clang"
  },
  "schemaVersion": "3.1.0",
  "updatedAt": "2020-05-04T22:55:28.461Z",
  "networkType": "ethereum",
  "devdoc": {
    "methods": {
      "bridgeTransferFrom(address,address,address,uint256,bytes)": {
        "return": "success The magic bytes `0x37708e9b` if successful."
      },
      "isOwner()": {
        "return": "true if `msg.sender` is the owner of the contract."
      },
      "owner()": {
        "return": "the address of the owner."
      },
      "renounceOwnership()": {
        "details": "Allows the current owner to relinquish control of the contract. It will not be possible to call the functions with the `onlyOwner` modifier anymore."
      },
      "transferOwnership(address)": {
        "details": "Allows the current owner to transfer control of the contract to a newOwner.",
        "params": {
          "newOwner": "The address to transfer ownership to."
        }
      }
    }
  },
  "userdoc": {
    "methods": {
      "renounceOwnership()": {
        "notice": "Renouncing ownership will leave the contract without an owner, thereby removing any functionality that is only available to the owner."
      }
    }
  }
}